:100000000C94E2000C940A010C940A010C940A016D
:100010000C940A010C940A010C940A010C940A0134
:100020000C940A010C940A010C940A010C940A0124
:100030000C940A010C940A010C940A010C940A0114
:100040000C94A00F0C940A010C94500C0C942A0CE4
:100050000C940A010C940A010C940A010C940A01F4
:100060000C9452040C940A01005EBCE2613FDD83F3
:10007000C29C7E20A3FD1F419DC3217FFCA2401E88
:100080005F01E3BD3E6082DC237D9FC1421CFEA078
:10009000E1BF5D0380DE3C62BEE0025CDF81633D68
:1000A0007C22C09E1D43A1FF4618FAA427799BC558
:1000B00084DA3866E5BB5907DB856739BAE4065848
:1000C0001947A5FB7826C49A653BD987045AB8E638
:1000D000A7F91B45C6987A24F8A6441A99C7257B28
:1000E0003A6486D85B05E7B98CD2306EEDB3510F18
:1000F0004E10F2AC2F7193CD114FADF3702ECC9208
:10010000D38D6F31B2EC0E50AFF1134DCE90722CF7
:100110006D33D18F0C52B0EE326C8ED0530DEFB1E7
:10012000F0AE4C1291CF2D73CA947628ABF51749D7
:100130000856B4EA6937D58B5709EBB536688AD4C7
:1001400095CB2977F4AA4816E9B7550B88D6346AB7
:100150002B7597C94A14F6A8742AC896154BA9F7A7
:10016000B6E80A54D7896B3500000000230026004A
:10017000290004040404040404040202020202022A
:10018000030303030303010204081020408001025B
:1001900004081020010204081020000000002400C0
:1001A00027002A0000000000250028002B00000086
:1001B0000008000201000003040700000000000026
:1001C0000000281411241FBECFEFD8E0DEBFCDBF42
:1001D00012E0A0E0B1E0EEEDF1E302C005900D9277
:1001E000AE34B107D9F723E0AEE4B2E001C01D920E
:1001F000AA3FB207E1F710E0C2EED0E004C02197B9
:10020000FE010E94BA17C13ED107C9F70E94EA0F4A
:100210000C94ED180C94000008958FEF9FEF089553
:100220008FEF9FEF08958091BC0290E091958195AA
:100230009109089585ED8093BC008091BC0084FDF8
:10024000FCCF10929602089540917002262F30E064
:10025000240F311D21323105DCF420919602243027
:10026000C9F4FC0180E090E0861758F430917002E8
:100270002191DC01A25BBD4FA30FB11D2C93019610
:10028000F3CF80917002680F6093700280E0089550
:1002900081E0089582E00895CF93DF9300D0CDB739
:1002A000DEB7CB01642F49835A830E942401498120
:1002B000842F5A81952F0F900F90DF91CF91089541
:1002C000CF93DF931F92CDB7DEB7698361E0CE0194
:1002D00001960E94240181E090E00F90DF91CF9180
:1002E0000895CF93DF93EC0160E08E810E94FA0EB7
:1002F00061E08E810E94FA0E60E08E810E94FA0E0B
:100300008BE891E00197F1F7DF91CF9108950C947C
:1003100055180C9455180C9455180C945518DC016C
:10032000E0E0615038F08D91E827F0E0E859FF4FA8
:10033000E491F7CF8E2F0895EF92FF920F931F93C2
:10034000CF93DF937C018B01D42FDC011596ED91C7
:10035000FC911697138615861486DF011B9633963B
:100360001E92AE17BF07E1F7C0E0B801D70115969E
:100370008D919C9116970E948108811102C080E0A6
:1003800010C0CD130AC067E0C8010E948F01F801B8
:100390009781891302C081E004C0CF5FDC1778F336
:1003A000E4CFDF91CF911F910F91FF90EF900895CF
:1003B000FC0190810180F281E02DF8948181892BEC
:1003C00081832281892F809528232283A7E0B0E0B2
:1003D0001197F1F7218182238183A3E2B0E0119785
:1003E000F1F780817894EFECF0E03197F1F7982302
:1003F00081E009F480E00895FC0190810180F281A0
:10040000E02D892F809560FF12C0F894228182230D
:1004100082838181892B8183A3E2B0E01197F1F778
:100420008281982B9283789487ED90E011C0F894A4
:100430002281822382838181892B8183AFEFB0E087
:100440001197F1F78281982B928378948FE090E056
:100450000197F1F70895CF92DF92EF92FF920F93F9
:100460001F93CF93DF931F92CDB7DEB76C01E62EBB
:1004700008E010E0FF24F39461E08F2D8E2109F451
:1004800060E0C60149830E94FC01FF0C0150110984
:1004900049810115110581F7411115C0F894D60164
:1004A0001196ED91FC91129791818C918095892301
:1004B00081831196ED91FC91129792818C91809598
:1004C0008923828378940F90DF91CF911F910F91B0
:1004D000FF90EF90DF90CF900895CF92DF92EF9250
:1004E000FF920F931F93CF93DF931F92CDB7DEB789
:1004F0008C01F62E40E065E579830E942B02CF2C1B
:100500007981D72E760188E0E80EF11CF601619121
:100510006F0140E0C8010E942B02CE14DF04B1F746
:100520000F90DF91CF911F910F91FF90EF90DF908F
:10053000CF900895FC0190810180F281E02DF89424
:100540008181292F20958223818378948DE743E050
:1005500050E0815021F1DA011197F1F73081392310
:10056000C1F3F8948281822382838181892B8183E4
:100570007894ABE7B7E01197F1F7F89481812823DD
:100580002183A3E1B1E01197F1F78081982381E005
:1005900009F080E07894E3E6F6E03197F1F708950A
:1005A0008F929F92AF92BF92CF92DF92EF92FF9283
:1005B000CF93DF93EC018D819E810E949A0240E0EF
:1005C0006CEC8D819E810E942B02488164E48D81B8
:1005D0009E810E942B028A81882309F44EC0E98102
:1005E000E950E33040F4F0E0EE0FFF1FE15FFE4F13
:1005F0006081718102C06EEE72E08B81882369F1A7
:10060000888181112AC08FB7F8948090ED03909073
:10061000EE03A090EF03B090F0038FBF6B01770F54
:10062000EE08FF088D819E810E94D801813029F15A
:100630002FB7F8948091ED039091EE03A091EF0312
:10064000B091F0032FBF8C199D09AE09BF09881521
:100650009905AA05BB0530F310C0072E000C880BC6
:10066000990BDF91CF91FF90EF90DF90CF90BF90EB
:10067000AF909F908F900C94660FDF91CF91FF9079
:10068000EF90DF90CF90BF90AF909F908F900895A4
:100690004F925F926F927F928F929F92AF92BF9292
:1006A000CF92DF92EF92FF920F931F93CF93DF933E
:1006B00000D0CDB7DEB72C018A01FC01858196817F
:1006C00069837A830E949A0269817A818823C9F1B9
:1006D000F201858196810E946D0240E06EEBF2018D
:1006E000858196810E942B0278014801F9E08F0EE6
:1006F000911CF2016580768088E0A82EB12CCC2474
:10070000C394D12CC3010E94D8018111DC28CC0CE8
:10071000F1E0AF1AB108B1F7F701D1927F01E81506
:10072000F90539F7F201858196810E949A0281309C
:1007300041F468E0C8010E948F0191E0F801208532
:10074000821390E0892F0F900F90DF91CF911F912E
:100750000F91FF90EF90DF90CF90BF90AF909F9060
:100760008F907F906F905F904F900895CF92DF921F
:10077000EF92FF920F931F93CF93DF937C016C0155
:1007800087E0C80ED11CC0E0D0E0062F10E0B80111
:100790000C2E02C0759567950A94E2F76170F60118
:1007A00081916F010E94FA0E2196C430D10579F72C
:1007B000C701DF91CF911F910F91FF90EF90DF90D4
:1007C000CF900C947101CF92DF92EF92FF920F9332
:1007D0001F93CF93DF93EC01F62E642F8C810E9440
:1007E000FA0E8D818F3F19F060E00E94FA0E8F851E
:1007F0000F2D10E084FF25C06E0187E0C80ED11CCC
:10080000E12CF12CB8010E2C02C0759567950A9465
:10081000E2F76170F60181916F010E94FA0EFFEF1D
:10082000EF1AFF0A88E0E816F10461F7CE01DF91C4
:10083000CF911F910F91FF90EF90DF90CF900C948C
:100840007101B80184E0759567958A95E1F7CE014D
:100850000E94B6036F2DCE01DF91CF911F910F91B2
:10086000FF90EF90DF90CF900C94B60341E00E9490
:10087000E30381E090E0089540E00C94E303FC0181
:10088000443008F043E08389481710F04FEF480FD9
:10089000DF01A40FB11D54969C91690F6068CF01D0
:1008A0000C943C041F920F920FB60F9211242F93B9
:1008B0003F934F935F936F937F938F939F93AF93E8
:1008C000BF93EF93FF938091B900887F803609F43E
:1008D0009CC068F5883209F45BC090F4803109F45B
:1008E00054C038F4882309F4F6C0883009F44DC0A8
:1008F000F6C0883109F44CC0803209F45DC0EFC005
:10090000803409F468C048F4803309F455C0883352
:1009100009F0E5C080939502D8C0803509F44FC036
:10092000883509F45DC0883409F0D9C0D6C088394B
:1009300009F4C7C0A8F4883709F467C038F48836CA
:1009400009F463C0803709F460C0C9C0883809F46D
:10095000B8C0803909F45FC0803809F0C0C05BC0FE
:10096000803B09F486C038F4803A09F466C0883ABE
:1009700009F47FC0B4C0803C09F4A7C0883C09F4E6
:10098000A4C0883B09F48AC0AAC08091BB0210C0F1
:100990009091BA028091B902981770F5E091BA026D
:1009A00081E08E0F8093BA02F0E0E756FD4F808120
:1009B0008093BB0085EC86C0809395028EC0E09149
:1009C000BA0281E08E0F8093BA028091BB00F0E002
:1009D000E756FD4F80839091BA028091B9026EC0B4
:1009E000E091BA0281E08E0F8093BA028091BB0041
:1009F000F0E0E756FD4F80838091980281116DC031
:100A000081E08093970284EA61C083E0809396023C
:100A100010929402CFCF80919402803208F051C09E
:100A2000E091940281E08E0F809394028091BB004C
:100A3000F0E0EC58FD4F8083BDCF85EC8093BC0087
:100A40001092960280919402803230F4E0919402E8
:100A5000F0E0EC58FD4F10826091940270E0E0915C
:100A60007202F091730284E792E009951092940269
:100A700036C084E080939602109271021092700248
:100A8000E0916E02F0916F020995809170028111E0
:100A900005C081E08093700210924E02E0917102D5
:100AA00081E08E0F80937102F0E0E25BFD4F808168
:100AB0008093BB009091710280917002981708F4A6
:100AC00079CF85E88093BC000AC085EC8093BC0098
:100AD0001092960204C0109295020E941A01FF9192
:100AE000EF91BF91AF919F918F917F916F915F91A6
:100AF0004F913F912F910F900FBE0F901F9018951F
:100B000008952F923F924F925F926F927F928F92B1
:100B10009F92AF92BF92CF92DF92EF92FF920F938C
:100B20001F93CF93DF93CDB7DEB7C25BD1090FB66A
:100B3000F894DEBF0FBECDBF1C01FC018281938102
:100B40000E94A009F101248135818217930761F089
:100B5000268137818217930739F09DE7A92E91E00E
:100B6000B92E06E811E006C08FE8A82E81E0B82E65
:100B700008E911E0CE0149960E94FD0CF101828145
:100B800093810E940B0D5C8FF101828193810E9401
:100B90000B0DC256DF4F7883CE59D040C156DF4F80
:100BA0008883CF59D040C256DF4F88819981CE5972
:100BB000D0409F8F8E8FF101828193810E940B0D17
:100BC0006D8FF101828193810E940B0D792F98A383
:100BD000C801CE54DF4F7883C25BD0400E945A15C3
:100BE000E82E898FC80103960E945A15F82E8A8F25
:100BF000C80106960E945A15282F8B8F87013C8DBD
:100C00004D8D5E8D6F8DCE54DF4F7881C25BD040AD
:100C1000F101828193810E94820CC555DF4F688368
:100C200079838A839B83CB5AD040CE0141960E9420
:100C3000FD0CF101828193810E940B0D5C8BF1010F
:100C4000828193810E940B0DEF967FAFEF97C15881
:100C5000DF4F8883CF57D040C258DF4F88819981BA
:100C6000CE57D0409F8B8E8BF101828193810E9461
:100C70000B0D6D8BF101828193810E940B0D792FF9
:100C8000988F81EA91E0CE54DF4F7883C25BD040E9
:100C90000E945A15082F898B84EA91E00E945A1508
:100CA000182F8A8B87EA91E00E945A15282F8B8B88
:100CB0003C894D895E896F89CE54DF4F7881C25B54
:100CC000D040F101828193810E94820C6B017C01F2
:100CD000CE0109960E94FD0CF101828193810E9450
:100CE0000B0D5C87F101828193810E940B0D6F9641
:100CF0007FAF6F97A0968FAFA097A0968EAD9FAD58
:100D0000A0979F878E87F101828193810E940B0DAE
:100D10006D87F101828193810E940B0D792F988B51
:100D2000C501CE54DF4F7883C25BD0400E945A1574
:100D3000082F8987C50103960E945A15182F8A87A4
:100D4000C50106960E945A15282F8B873C854D8534
:100D50005E856F85CE54DF4F7881C25BD040F10154
:100D6000828193810E94820C4B015C01CE0101962D
:100D70000E94FD0CF101828193810E940B0D5C8326
:100D8000F101828193810E940B0D7EAF8FAF8EADFA
:100D90009FAD9F838E83F101828193810E940B0D11
:100DA0006D83F101828193810E940B0D792F9887C9
:100DB0008AEA91E0CE54DF4F7883C25BD0400E9434
:100DC0005A15082F89838DEA91E00E945A15182F31
:100DD0008A8380EB91E00E945A15282F8B83F101C2
:100DE0000280F381E02DC755DF4FF983E883C95AAC
:100DF000D0403C814D815E816F81CE54DF4F788140
:100E0000C25BD040CF010E94820C2B013C01C75530
:100E1000DF4F88819981C95AD0400E940B0DF101A2
:100E20002280338089019A01AB01BC01C1010E947B
:100E3000820CAB01BC01C101C155DF4F4883CF5AC1
:100E4000D040C055DF4F5883C05BD040CF54DF4FF8
:100E50006883C15BD040CE54DF4F7883C25BD04003
:100E60000E943B090E943D08C155DF4F4881CF5A7F
:100E7000D040C055DF4F5881C05BD040CF54DF4FCA
:100E80006881C15BD040CE54DF4F7881C25BD040D7
:100E90004416550666067706DCF084169506A60607
:100EA000B706C4F081E090E0C416D506E606F70662
:100EB0009CF0C555DF4F088119812A813B81CB5AAF
:100EC000D040041715072607370734F480E004C024
:100ED00081E001C080E090E0CE54DF4F0FB6F8947F
:100EE000DEBF0FBECDBFDF91CF911F910F91FF905D
:100EF000EF90DF90CF90BF90AF909F908F907F90BA
:100F00006F905F904F903F902F9008950895CF93EA
:100F1000DF93EC0183EB91E00E943D0881E090E0DB
:100F20009B838A8360E08BE0DF91CF910C94FA0E73
:100F300008950895EF92FF920F931F93CF93DF933D
:100F4000EC01623018F08F8588608F876B8B1C8A6C
:100F500080E48D8B80E18E8B80E58F8B61E08C81CE
:100F60000E942A0F8D818F3F19F061E00E942A0FA5
:100F700061E08E810E942A0F7E0187E0E80EF11C5D
:100F800000E010E08F8584FD03C084E090E002C0A3
:100F900088E090E0081719074CF461E0F7018191AF
:100FA0007F010E942A0F0F5F1F4FECCF8BE39DE064
:100FB0000197F1F760E08C810E94FA0E60E08E816B
:100FC0000E94FA0E8D818F3F19F060E00E94FA0EA8
:100FD0006F8564FD1DC063E0CE010E94B6030BE483
:100FE00016E4C8010197F1F763E0CE010E94B60351
:100FF000C8010197F1F763E0CE010E94B60383E5D3
:1010000092E00197F1F762E0CE010E94B60316C0AC
:101010006062CE010E943C048BE496E40197F1F7F4
:101020006F856062CE010E943C0483E592E00197E7
:10103000F1F76F856062CE010E943C046F856062AB
:10104000CE010E943C0484E0888B6CE0CE010E94BB
:101050003C0461E0CE010E943C048BE39FE10197D8
:10106000F1F782E0898B66E0CE01DF91CF911F918D
:101070000F91FF90EF900C943C04CF93DF93BC0151
:1010800089EC92E00E94860BEC0166E372E089EC49
:1010900092E00E94860B8C0F9D1FDF91CF910895E7
:1010A000CF93DF93CDB7DEB729970FB6F894DEBFA5
:1010B0000FBECDBFAE014F5F5F4FBC018EE793E027
:1010C0000E944803882389F08D818F3361F020F4DA
:1010D0008F3159F489E00CC08F3519F08F3739F012
:1010E00004C08BE005C08AE003C080E001C08CE052
:1010F00029960FB6F894DEBF0FBECDBFDF91CF911A
:101100000895AF92BF92CF92DF92EF92FF920F932A
:101110001F93CF93DF931F92CDB7DEB75C01D62E1E
:10112000E72EFC018585811105C0C5010E949A0248
:10113000811106C0F50113861586148680E065C00E
:1011400040E060EFC5010E942B0201E0F12CC12CB0
:1011500011E0C5010E94D801682FC50169830E9472
:10116000D8016981613019F48130B9F433C04F2D51
:1011700050E068131BC0F5018385181730F4E40FA5
:10118000F51F8381802349F402C0181731F060E015
:10119000193058F4F501148708C0F501EF0DF11D61
:1011A0008381802B838361E009C0C12EF501E40FA8
:1011B000F51F9381802F809589238383C5010E9429
:1011C000FC011F5F000F11F4F39401E0F7E0FF153D
:1011D00008F0BFCF113408F4ADCFF501C386C110BC
:1011E00002C081E08587F5018381882309F4A2CFBD
:1011F000D5011396ED2DFE2D9501255F3F4F8D9165
:101200008193A217B307D9F781E00F90DF91CF91B7
:101210001F910F91FF90EF90DF90CF90BF90AF9014
:101220000895EF92FF920F931F93CF93DF93E82ED1
:10123000F62EC7E0D0E0042F10E098010C2E02C07B
:10124000359527950A94E2F7B901617077278E2DBD
:101250000E94FA0E61E08F2D0E94FA0E60E08F2D41
:101260000E94FA0E219748F7DF91CF911F910F91BD
:10127000FF90EF9008950F931F93CF93DF93CDB717
:10128000DEB728970FB6F894DEBF0FBECDBF8C0136
:10129000CE0101960E94FD0CC8010E940B0D3A83FD
:1012A0004B832A3010F480E305C0822F6AE00E944D
:1012B0008617805D809300013AE0822F632F0E94A1
:1012C0008617905D909301018AE3809302012A8141
:1012D0002A3010F480E305C0822F632F0E94861706
:1012E000805D809303013AE0822F632F0E9486176E
:1012F000905D909304018AE3809305012B812A304D
:1013000010F480E305C0822F632F0E948617805D52
:1013100080930601822F6AE00E948617905D909369
:1013200007011092080180E091E028960FB6F8942A
:10133000DEBF0FBECDBFDF91CF911F910F910895FA
:101340000F931F93CF93DF93CDB7DEB766970FB69A
:10135000F894DEBF0FBECDBF8C019EE0E5E3F1E067
:10136000DE01119601900D929A95E1F7CE010F964C
:101370000E94FD0CC8010E940B0D9E012F5F3F4F84
:10138000290F311D290F311DF9013297808191817B
:1013900066960FB6F894DEBF0FBECDBFDF91CF913A
:1013A0001F910F9108950F931F93CF93DF93CDB7A4
:1013B000DEB761970FB6F894DEBF0FBECDBF8C01CC
:1013C00040E0BE01665F7F4F0E949C01811105C015
:1013D00060E070E08EEF92EC4BC0AE014F5F5F4F6C
:1013E000BE01665F7F4FC8010E944803882359F100
:1013F000698148E0649FB00111248A81282F30E080
:10140000322F2227330F330F330F262B372B8A85AA
:101410008031E1F4688570E08F81AB01481B510990
:10142000CA019695982F8827979587950E949217BD
:1014300060517109207F53E0220F331F5A95E1F765
:10144000620F731F04C060E874EE01C0B901613817
:1014500054EE75070CF4BCCF072E000C880B990BCB
:101460000E94871520E030E040E05CE30E94E61532
:1014700061960FB6F894DEBF0FBECDBFDF91CF915E
:101480001F910F910895CF92DF92EF92FF920F93E9
:101490001F93CF93DF936C017A018B01C0E0D0E002
:1014A000CE15DF0589F0D8016D918D01D601ED9142
:1014B000FC910190F081E02DC6010995892B11F472
:1014C0007E0102C02196ECCFC701DF91CF911F9121
:1014D0000F91FF90EF90DF90CF900895FC01918DD8
:1014E000828D981761F0828DDF01A80FB11D5D9686
:1014F0008C91928D9F5F9F73928F90E008958FEFF4
:101500009FEF0895FC01918D828D981731F0828DA7
:10151000E80FF11D858D90E008958FEF9FEF0895FE
:10152000FC01918D228D892F90E0805C9F4F821B62
:1015300091098F739927089589EC92E00E94900A8F
:1015400021E0892B09F420E0822F0895FC01848D8D
:10155000DF01A80FB11DA35ABF4F2C91848D90E0DD
:1015600001968F739927848FA689B7892C93A089B8
:10157000B1898C9180648C93938D848D981306C06F
:101580000288F389E02D80818F7D80830895EF921A
:10159000FF920F931F93CF93DF93EC0181E0888F2D
:1015A0009B8D8C8D981305C0E889F989808185FD14
:1015B00024C0F62E0B8D10E00F5F1F4F0F73112705
:1015C000E02E8C8DE8120CC00FB607FCFACFE8892C
:1015D000F989808185FFF5CFCE010E94A60AF1CF5F
:1015E0008B8DFE01E80FF11DE35AFF4FF0820B8F48
:1015F000EA89FB898081806207C0EE89FF89608368
:10160000E889F98980818064808381E090E0DF91BE
:10161000CF911F910F91FF90EF900895CF93DF939B
:10162000EC01888D8823C9F0EA89FB89808185FDDA
:1016300005C0A889B9898C9186FD0FC00FB607FC3B
:10164000F5CF808185FFF2CFA889B9898C9185FF7C
:10165000EDCFCE010E94A60AE7CFDF91CF9108958A
:1016600080E090E0892B29F00E949C0A81110C9463
:10167000000008950895CF93DF93EC0160E0898125
:101680000E942A0F61E088810E94FA0E89810E94DF
:10169000D10E0197D9F360E08881DF91CF910C944E
:1016A000FA0E0F931F93CF93DF931F92CDB7DEB740
:1016B0008C01462F61E0FC01818149830E942A0F41
:1016C00061E0F80181810E94FA0E61E0F8018081F9
:1016D0000E94FA0E60E0F80181810E94FA0E60E03B
:1016E000F80180810E94FA0E4981F80160818181B0
:1016F0000F90DF91CF911F910F910C941109DC0194
:10170000ED91FC910190F081E02D09946115710536
:1017100079F0FB0101900020E9F73197AF01461BFA
:10172000570BDC01ED91FC910280F381E02D0994CF
:1017300080E090E008954F925F926F927F92EF92D7
:10174000FF920F931F93CF93DF93CDB7DEB7A1978F
:101750000FB6F894DEBF0FBECDBF7C01FA01CB01FE
:1017600019A2223008F42AE08E010F5D1F4F422E8D
:10177000512C612C712CBF01A30192010E94AF1664
:10178000F901CA01015011096A3014F4605D01C009
:10179000695CD8016C93232B242B252B61F7B801AE
:1017A000C7010E94860BA1960FB6F894DEBF0FBE4C
:1017B000CDBFDF91CF911F910F91FF90EF907F9060
:1017C0006F905F904F9008958F929F92AF92BF92CB
:1017D000CF92DF92EF92FF920F931F93CF93DF93FD
:1017E0007C018B016C0182E0C80ED11C4701E5E051
:1017F0008E0E911CC0E0D0E0F60141916F0150E0E7
:1018000060E070E02AE0C8010E949B0B5C016EE280
:10181000C8010E947F0B8A0D9B1DC80FD91FC814D9
:10182000D90451F7F701458150E060E070E02AE00B
:10183000C8010E949B0B8C0F9D1FDF91CF911F91C0
:101840000F91FF90EF90DF90CF90BF90AF909F905F
:101850008F9008951F920F920FB60F9211242F931D
:101860003F934F935F936F937F938F939F93AF9328
:10187000BF93EF93FF9389EC92E00E94A60AFF9139
:10188000EF91BF91AF919F918F917F916F915F91F8
:101890004F913F912F910F900FBE0F901F90189571
:1018A0001F920F920FB60F9211242F938F939F9335
:1018B000EF93FF93E091D902F091DA028081E091F9
:1018C000DF02F091E00282FD12C090818091E2027D
:1018D0008F5F8F732091E302821751F0E091E20253
:1018E000F0E0E753FD4F958F8093E20201C08081C5
:1018F000FF91EF919F918F912F910F900FBE0F90BD
:101900001F901895EF92FF920F931F93CF93DF9341
:10191000CDB7DEB728970FB6F894DEBF0FBECDBFA8
:1019200009831A832B835E836F836E817F81832F6C
:1019300090E050E0E42FF0E03197252F30E02E17B3
:101940003F0744F4D901AF58BE4F2C91820F911D2F
:101950005F5FF3CF433030F09B0123703327232B9D
:1019600009F401964DE651E0649F9001659F300DAA
:10197000749F300D1124215933426D5C7740769568
:10198000679576956795260F371F280F391FA8E1B1
:10199000B0E00E94D11629817B018C01E20EF11C7E
:1019A000011D111DA8019701ACE3B0E00E94A4162F
:1019B0002A817B018C01E20EF11C011D111DA80181
:1019C00097010E94A4162B81DC01CB01820F911D8F
:1019D000A11DB11DBC01CD0160587C4B8249974CC3
:1019E00028960FB6F894DEBF0FBECDBFDF91CF9122
:1019F0001F910F91FF90EF900895FC018EED97E0FD
:101A00009683858381E0848383831082118212828E
:101A100083E0878308959F92AF92BF92CF92DF9227
:101A2000EF92FF920F931F93CF93DF93CDB7DEB763
:101A300060970FB6F894DEBF0FBECDBF8C01CE010C
:101A400001960E94FD0CF8018185882309F447C0A6
:101A500084EE8093BC008091BC0087FFFCCF80EDBA
:101A60008093BB0084EC8093BC008091BC0087FF16
:101A7000FCCF1092BB0084EC8093BC008091BC0032
:101A800087FFFCCF84EE8093BC008091BC0087FF71
:101A9000FCCF81ED8093BB0084EC8093BC008091EF
:101AA000BC0087FFFCCFF8013296C801099634ECE0
:101AB0003093BC002091BC0027FFFCCF2091BB00DD
:101AC0002193E817F907A1F784E88093BC0080917F
:101AD000BC0087FFFCCF84E98093BC0093C060ED1D
:101AE000C8010E94510BC8010E943B0B61E0F80144
:101AF00081810E942A0F40E0F801608181810E946B
:101B00001109C8010E943B0B61EDC8010E94510BF5
:101B1000C8010E943B0B5801F2E0AF0EB11CE12C52
:101B2000F12C60E0F80181810E942A0F87E0C82E25
:101B3000D12C912C61E0F80180810E94FA0EF8010D
:101B400081810E94D10E99270C2C01C0880F0A9424
:101B5000EAF7982A60E0F80180810E94FA0EF1E02D
:101B6000CF1AD10838F7F50191925F0161E0F801D1
:101B70008181F6E0EF16F10449F00E942A0F60E03F
:101B8000F80180810E94FA0E60E008C00E942A0FCE
:101B900060E0F80180810E94FA0E61E0F801818125
:101BA0000E94FA0E61E0F80180810E94FA0E60E066
:101BB000F80180810E94FA0E60E0F80181810E94A4
:101BC0002A0FFFEFEF1AFF0A27E0E216F10409F0EF
:101BD000A8CF61E0F80181810E942A0F60E0F8013E
:101BE00081810E94FA0E61E0F80180810E94FA0E64
:101BF00061E0F80181810E94FA0E60E0F8018181C4
:101C00000E942A0FF8018281982F969596959695B5
:101C10009E70292F220F220F920F8F70890F8B83B6
:101C20008381982F9695969596959E70292F220FD1
:101C3000220F920F8F70890F8A838481282F2F7033
:101C400087FF09C085FB992790F9822FFCE09F9FB1
:101C5000800D112409C08073869586958695982FEE
:101C6000990F990F890F820F8983F80185818887E1
:101C70008681982F9695969596959E70292F220F7E
:101C8000220F920F8F70890F8C838781982F9695E2
:101C9000969596959E70292F220F220F920F8F7086
:101CA000890F8D838085982F92959F708F70FAE0B1
:101CB0009F9F800D112490E08053984F9F838E83C7
:101CC00088E0FE013196DE01199601900D928A9509
:101CD000E1F729853A854B855C856D857E858F8505
:101CE000988960960FB6F894DEBF0FBECDBFDF9126
:101CF000CF911F910F91FF90EF90DF90CF90BF9009
:101D0000AF909F900895833081F028F4813099F04E
:101D10008230A1F008958730A9F08830B9F084307E
:101D2000D1F4809180008F7D03C0809180008F77F7
:101D300080938000089584B58F7702C084B58F7D2D
:101D400084BD08958091B0008F7703C08091B0006A
:101D50008F7D8093B00008953FB7F8948091F2038F
:101D60009091F303A091F403B091F50326B5A89BDD
:101D700005C02F3F19F00196A11DB11D3FBFBA2F1D
:101D8000A92F982F8827820F911DA11DB11DBC017D
:101D9000CD0142E0660F771F881F991F4A95D1F742
:101DA0000895CF93DF93282F30E0F901E255FE4FDD
:101DB0008491F901EA57FE4FD491F901EE58FE4F94
:101DC000C491CC2391F081110E94830EEC2FF0E09E
:101DD000EE0FFF1FE859FE4FA591B491EC91ED2352
:101DE00081E090E021F480E002C080E090E0DF91AB
:101DF000CF9108951F93CF93DF93282F30E0F901FF
:101E0000E255FE4F8491F901EA57FE4FD491F90152
:101E1000EE58FE4FC491CC23C9F0162F81110E94B9
:101E2000830EEC2FF0E0EE0FFF1FEC55FE4FA59157
:101E3000B4918FB7F894111105C09C91ED2FE095E6
:101E4000E92302C0EC91ED2BEC938FBFDF91CF9192
:101E50001F910895CF93DF9390E0FC01EA57FE4F66
:101E60002491FC01EE58FE4F8491882361F190E0AB
:101E7000880F991FFC01E656FE4FC591D491FC01D5
:101E8000EC55FE4FA591B491611109C09FB7F8942C
:101E90008881209582238883EC912E230BC06230A9
:101EA00061F49FB7F8943881822F809583238883CB
:101EB000EC912E2B2C939FBF06C08FB7F894E8812E
:101EC0002E2B28838FBFDF91CF9108958F929F9201
:101ED000AF92BF92CF92DF92EF92FF926B017C01A3
:101EE0000E94AC0E4B015C01C114D104E104F10469
:101EF000F1F00E94AC0EDC01CB0188199909AA0906
:101F0000BB09883E9340A105B10570F321E0C21AD8
:101F1000D108E108F10888EE880E83E0981EA11C24
:101F2000B11CC114D104E104F10419F7DDCFFF9015
:101F3000EF90DF90CF90BF90AF909F908F900895DB
:101F40001F920F920FB60F9211242F933F938F93EE
:101F50009F93AF93BF938091ED039091EE03A09177
:101F6000EF03B091F0033091F10323E0230F2D37FD
:101F700020F40196A11DB11D05C026E8230F02968D
:101F8000A11DB11D2093F1038093ED039093EE0307
:101F9000A093EF03B093F0038091F2039091F303C9
:101FA000A091F403B091F5030196A11DB11D80939A
:101FB000F2039093F303A093F403B093F503BF915E
:101FC000AF919F918F913F912F910F900FBE0F90E6
:101FD0001F901895CF93DF93CDB7DEB761970FB6FB
:101FE000F894DEBF0FBECDBF789484B5826084BD07
:101FF00084B5816084BD85B5826085BD85B581600D
:1020000085BD80916E00816080936E00109281008A
:102010008091810082608093810080918100816045
:102020008093810080918000816080938000809106
:10203000B10084608093B1008091B0008160809392
:10204000B00080917A00846080937A0080917A0059
:10205000826080937A0080917A00816080937A0018
:1020600080917A00806880937A001092C1008EEB94
:1020700091E00E943D088EE090E00E94C017FC01B4
:1020800089E191E09183808385EC91E09387828759
:102090008FEC91E0958784878EE793E09583848326
:1020A00086E693E09783868301E913E01187008732
:1020B00081E090E093838283F093C802E093C702AB
:1020C00088E090E00E94C017FC0181E291E09183DA
:1020D000808384ED91E09583848388ED91E09783FC
:1020E000868313830283F093C402E093C30284E0E7
:1020F00090E00E94C0178C0189E291E0F801918381
:1021000080838CED91E00E943D08F80113821282D9
:1021100061E08BE00E94FA0E1093C6020093C502A4
:1021200082E090E00E94C01721E331E0FC0131839E
:1021300020839093C2028093C10261E089E00E94F3
:102140002A0F61E08AE00E942A0F61E08BE00E9482
:102150002A0F60E087E00E942A0F60E086E00E947C
:102160002A0F60E088E00E942A0F62E086E693E092
:102170000E949A0780919203823101F58091910328
:102180008331E1F481E080939A0361E082E10E946F
:10219000FA0E61E083E10E94FA0E8091B9008E7F11
:1021A0008093B9008091B9008D7F8093B9008CE055
:1021B0008093B80085E08093BC0007C010929A031A
:1021C00061E0809191030E942A0FE0918303F091D6
:1021D0008403138615861486DF011B9633961E92A0
:1021E000AE17BF07E1F71092820301E0BE016F5FF7
:1021F0007F4F80918303909184030E9481088823FC
:1022000009F453C067E0CE0101960E948F019885C2
:102210008913ECCF80917E03811127C080918303C5
:10222000909184030E949A02BE016F5F7F4F80915C
:102230008303909184030E946D0240E064EB8091DF
:102240008303909184030E942B02809183039091D9
:1022500084030E94D801182F8091830390918403F6
:102260000E949A02112309F4CFC210917F03898141
:10227000803109F4E9C2CE0101960E94500881170D
:1022800018F480917F0309C08981803111F48CE0BA
:1022900004C0CE0101960E94500880937F03809174
:1022A00082038F5F80938203A1CF8CE080937F03B2
:1022B000E12CF12C0FE58FE7D82E9FE1C92E2FE3FB
:1022C000B22E8091820390E0E816F9060CF0A6C0C9
:1022D0004E2DBE01665F7F4F8EE793E00E949C010A
:1022E00010917F03193020F01D3018F01CE001C060
:1022F00019E08A85803129F0CE010A960E945008A3
:1023000001C08CE0811709F485C0AE014F5F5F4FBB
:10231000BE01665F7F4F8EE793E00E9448038823EB
:1023200009F478C08A85803109F474C01B3041F00B
:102330001C3021F01A3031F4BD8205C0DD8203C0AB
:102340000D8301C0CD8280918303909184030E940C
:102350009A02BE01665F7F4F809183039091840350
:102360000E946D0240E06EE48091830390918403AB
:102370000E942B0240E06B81809183039091840343
:102380000E942B0240E06C81809183039091840332
:102390000E942B028A85803141F040E06D8180915E
:1023A0008303909184030E942B0280918303909178
:1023B00084030E949A02BE01665F7F4F809183036F
:1023C000909184030E946D0240917E0368E48091A5
:1023D0008303909184030E942B0264E170E080E00B
:1023E00090E00E94660F80917E03882331F06AE0BE
:1023F00070E080E090E00E94660F809183039091EE
:1024000084030E949A0280917F03181708F4182F02
:1024100010937F03FFEFEF1AFF0A53CFE091D90229
:10242000F091DA0282E08083E091D502F091D60249
:102430001082E091D702F091D8028FEC8083109245
:10244000E102E091DD02F091DE0286E08083E0911E
:10245000DB02F091DC02808180618083E091DB020D
:10246000F091DC02808188608083E091DB02F09152
:10247000DC02808180688083E091DB02F091DC02E5
:1024800080818F7D80831092BD021092BE021092D7
:10249000BF021092C00286EE91E00E943D080091BA
:1024A000C7021091C80241E060E0F801868197817F
:1024B0000E943F04F801808591850E94A009BC011B
:1024C000F801868197810E94860B41E068E0F8015F
:1024D000868197810E943F04F801808591850E9442
:1024E0003B09BC01F801868197810E94860B68EC4C
:1024F00070E080E090E00E94660F0091C7021091AA
:10250000C802F801848195810E94D002F80184817B
:1025100095810E94D3096B017C0120E030E040E20C
:1025200051E40E947C1718160CF0D1C020E030E076
:1025300040E252E4C701B6010E94801587FFC7C080
:1025400040E060E0F801868197810E943F04F80135
:1025500062857385868197810E94860B40E068E0E2
:10256000F801868197810E943F04F801A680B78018
:10257000A7019601C701B6010E948117882319F0AF
:1025800062EF71E01AC026013701E89477F82FEF67
:102590003FEF4FE75FE7C301B2010E94811781114E
:1025A00010C02FEF3FEF4FE75FE7C301B2010E947A
:1025B0008015181634F466EF71E0C5010E94860B91
:1025C00078C02FEF3FEF4FE75FE4C701B6010E94ED
:1025D0007C17181654F02FEF3FEF4FE75FECC70161
:1025E000B6010E94801587FF03C06AEF71E0E5CF56
:1025F00020E030E0A901C701B6010E94801587FFE5
:1026000008C06DE2C5010E947F0BF7FAF094F7F85D
:10261000F0942AE037ED43EA5BE3C701B6010E947C
:10262000E1162B013C010E944D176B017C010E94B9
:1026300085159B01AC01C301B2010E94E0162B017C
:102640003C012AE0B701A601C5010E949B0B6EE286
:10265000C5010E947F0B20E030E040E251E4C3015D
:10266000B2010E94E6152B013C010E944D176B013F
:10267000E12CF12C2AE0B701A601C5010E949B0BB9
:10268000C701B6010E9485159B01AC01C301B201CF
:102690000E94E01620E030E040E251E40E94E6159E
:1026A0000E944D17AB0160E070E02AE0C5010E9476
:1026B0009B0B40E06EE0F801868197810E943F0409
:1026C0006EEF71E0F801868197810E94860B86E0AB
:1026D0000E94D10E019741F460E072E089EC92E033
:1026E0000E94860B60E010C087E00E94D10E019727
:1026F000E9F484E192E00E943D0864E272E089EC32
:1027000092E00E94860B61E089E00E94FA0E60E090
:102710008AE00E94FA0E8BE092E00E943D088091D0
:10272000C5029091C6020E94870748C00091C70267
:102730001091C802F801848195810E94D002F801AD
:10274000848195810E94D3090091C5021091C6022F
:10275000F801228133812130310509F058C020E091
:1027600030E048EC51E40E94801587FF0BC08CEDEF
:1027700091E00E943D08F8011382128261E08BE033
:102780000E94FA0E0091C3021091C402C8010E9477
:102790008105892B09F04AC064E272E089EC92E07D
:1027A0000E94860B61E089E00E94FA0E61E08AE0F7
:1027B0000E94FA0E8EE292E00E943D088091BD02D6
:1027C0009091BE02A091BF02B091C0020196A11DDE
:1027D000B11D8138F8E39F07F1E0AF07B1054CF474
:1027E0008093BD029093BE02A093BF02B093C0023B
:1027F00008C01092BD021092BE021092BF02109249
:10280000C0020E94300B4BCE00937E032ECD232BB3
:1028100009F0B8CF20E030E040ED51E40E947C1791
:1028200087FDB0CFC8010E948707ACCFC8010E94C6
:102830008105019709F0BACF60E072E089EC92E07F
:102840000E94860B60E0AFCF1D3008F01ACD1FCD7F
:1028500087E591E090939C0380939B0310929D03E6
:1028600010929E0310929F031092A0031092CC022C
:102870001092CB0248EE53E060E070E04093CD024E
:102880005093CE026093CF027093D00227E431E0E0
:102890003093CA022093C90225EC30E03093D6026F
:1028A0002093D50224EC30E03093D8022093D70255
:1028B00020EC30E03093DA022093D90221EC30E0B2
:1028C0003093DC022093DB0222EC30E03093DE0216
:1028D0002093DD0226EC30E03093E0022093DF020B
:1028E0001092E2021092E3021092E4021092E502CA
:1028F0009093A2038093A1031092A3031092A403C8
:102900001092A5031092A6039093A8038093A703A7
:102910001092A9031092AA031092AB031092AC0379
:102920009093AE038093AD031092AF031092B00367
:102930001092B1031092B2039093B4038093B30347
:102940001092B5031092B6031092B7031092B80319
:102950009093C2038093C1031092C3031092C403E7
:102960001092C5031092C6039093BA038093B903E3
:102970001092BB031092BC031092BD031092BE03D1
:102980009093C8038093C7031092C9031092CA039F
:102990001092CB031092CC039093CE038093CD037F
:1029A0001092CF031092D0031092D1031092D20351
:1029B0001092D6031092D5034093D7035093D803B7
:1029C0006093D9037093DA038DE591E09093D4037B
:1029D0008093D30382E18093920383E180939103F8
:1029E00060E088E00E942A0FEEE8F1E0E491E093D5
:1029F000DF03EAE7F1E0E491F0E0EE0FFF1FE859B2
:102A0000FE4F859194919093E1038093E00310929F
:102A1000EA031092EC031092EB03EAEEF3E0129259
:102A200083E0E23EF807D9F78AE39BE090939003B6
:102A300080938F038FED93E09093840380938303BF
:102A40001092820310927E0389E080937F0381E0DD
:102A5000809380038093810310926903109268032E
:102A60008DE691E090936703809366038CE08093FA
:102A70006A038FEF80936B038DE080936C0385E096
:102A800080936D0384E080936E0383E080936F03F3
:102A900082E080937003109271031092720310927F
:102AA0007303109274031092750361E086E693E05D
:102AB0000C949A07FC0188279927E89421912032E9
:102AC000E9F3293010F02E30C8F32B3241F02D32CB
:102AD00039F4689404C00E947815820F911D2191E9
:102AE00020532A30C0F31EF4909581959F4F08958E
:102AF0007AE0979F902D879F802D910D1124089546
:102B00000E94C21508F481E00895E89409C097FB7B
:102B10003EF490958095709561957F4F8F4F9F4FB4
:102B20009923A9F0F92F96E9BB279395F6958795F8
:102B300077956795B795F111F8CFFAF4BB0F11F4BB
:102B400060FF1BC06F5F7F4F8F4F9F4F16C0882362
:102B500011F096E911C0772321F09EE8872F762F98
:102B600005C0662371F096E8862F70E060E02AF0D9
:102B70009A95660F771F881FDAF7880F96958795C5
:102B800097F90895990F0008550FAA0BE0E8FEEF9A
:102B900016161706E807F907C0F012161306E40721
:102BA000F50798F0621B730B840B950B39F40A261A
:102BB00061F0232B242B252B21F408950A2609F4F8
:102BC000A140A6958FEF811D811D08950E94F915E2
:102BD0000C946A160E945C1638F00E94631620F06E
:102BE000952311F00C9453160C94591611240C943F
:102BF0009E160E947B1670F3959FC1F3950F50E0CF
:102C0000551F629FF001729FBB27F00DB11D639F9E
:102C1000AA27F00DB11DAA1F649F6627B00DA11D44
:102C2000661F829F2227B00DA11D621F739FB00DEA
:102C3000A11D621F839FA00D611D221F749F33275A
:102C4000A00D611D231F849F600D211D822F762FF3
:102C50006A2F11249F5750409AF0F1F088234AF0D0
:102C6000EE0FFF1FBB1F661F771F881F915050403C
:102C7000A9F79E3F510580F00C9453160C949E16B4
:102C80005F3FE4F3983ED4F3869577956795B795C3
:102C9000F795E7959F5FC1F7FE2B880F911D9695DD
:102CA000879597F9089597F99F6780E870E060E04D
:102CB00008959FEF80EC089500240A9416161706D5
:102CC00018060906089500240A941216130614061D
:102CD00005060895092E0394000C11F4882352F080
:102CE000BB0F40F4BF2B11F460FF04C06F5F7F4F38
:102CF0008F4F9F4F089557FD9058440F551F59F01F
:102D00005F3F71F04795880F97FB991F61F09F3FD8
:102D100079F087950895121613061406551FF2CF01
:102D20004695F1DF08C0161617061806991FF1CF51
:102D300086957105610508940895E894BB27662778
:102D40007727CB0197F908950E94D116A59F900D82
:102D5000B49F900DA49F800D911D11240895A1E2B0
:102D60001A2EAA1BBB1BFD010DC0AA1FBB1FEE1F05
:102D7000FF1FA217B307E407F50720F0A21BB30B50
:102D8000E40BF50B661F771F881F991F1A9469F7CC
:102D900060957095809590959B01AC01BD01CF0128
:102DA0000895A29FB001B39FC001A39F700D811D24
:102DB0001124911DB29F700D811D1124911D089544
:102DC0005058BB27AA270E94F8160C946A160E9436
:102DD0005C1638F00E94631620F039F49F3F19F416
:102DE00026F40C9459160EF4E095E7FB0C94531658
:102DF000E92F0E947B1658F3BA17620773078407FE
:102E0000950720F079F4A6F50C949D160EF4E09544
:102E10000B2EBA2FA02D0B01B90190010C01CA0194
:102E2000A0011124FF27591B99F0593F50F4503E3F
:102E300068F11A16F040A22F232F342F4427585F31
:102E4000F3CF469537952795A795F0405395C9F749
:102E50007EF41F16BA0B620B730B840BBAF0915001
:102E6000A1F0FF0FBB1F661F771F881FC2F70EC0A0
:102E7000BA0F621F731F841F48F487957795679573
:102E8000B795F7959E3F08F0B0CF9395880F08F05F
:102E90009927EE0F9795879508950E94831688F0DD
:102EA0009F5798F0B92F9927B751B0F0E1F0660F0E
:102EB000771F881F991F1AF0BA95C9F714C0B1304F
:102EC00091F00E949D16B1E008950C949D16672F15
:102ED000782F8827B85F39F0B93FCCF3869577957E
:102EE0006795B395D9F73EF4909580957095619567
:102EF0007F4F8F4F9F4F08950E94C21508F48FEFA8
:102F000008950E94C215880B990B0895991B79E0CA
:102F100004C0991F961708F0961B881F7A95C9F769
:102F20008095089597FB072E16F4009407D077FD3F
:102F300009D00E94A61707FC05D03EF49095819514
:102F40009F4F0895709561957F4F0895AA1BBB1BF5
:102F500051E107C0AA1FBB1FA617B70710F0A61B99
:102F6000B70B881F991F5A95A9F780959095BC01BA
:102F7000CD010895EE0FFF1F0590F491E02D099407
:102F8000CF93DF938230910510F482E090E0E091DE
:102F9000F803F091F90320E030E0C0E0D0E0309792
:102FA00011F14081518148175907C0F0481759075E
:102FB00061F482819381209719F09B838A832BC0CF
:102FC0009093F9038093F80326C02115310519F079
:102FD0004217530718F49A01BE01DF01EF01028086
:102FE000F381E02DDCCF2115310509F1281B390BC8
:102FF0002430310590F412968D919C9113976115B0
:10300000710521F0FB019383828304C09093F9033F
:103010008093F803FD01329644C0FD01E20FF31FD7
:1030200081939193225031092D933C933AC0209182
:10303000F6033091F703232B41F420910B013091DB
:103040000C013093F7032093F6032091090130918E
:103050000A012115310541F42DB73EB740910D010C
:1030600050910E01241B350BE091F603F091F7030C
:10307000E217F307A0F42E1B3F0B2817390778F04F
:10308000AC014E5F5F4F2417350748F04E0F5F1FAE
:103090005093F7034093F6038193919302C0E0E0CD
:1030A000F0E0CF01DF91CF9108950F931F93CF935D
:1030B000DF93009709F48CC0FC01329713821282CF
:1030C0000091F8031091F9030115110581F4208195
:1030D0003181820F931F2091F6033091F703281757
:1030E000390779F5F093F703E093F60371C0D8013F
:1030F00040E050E0AE17BF0750F412962D913C917E
:103100001397AD012115310509F1D901F3CF9D01C7
:10311000DA013383228360817181860F971F8217C2
:10312000930769F4EC0128813981260F371F2E5F40
:103130003F4F318320838A819B8193838283452BF8
:1031400029F4F093F903E093F80342C01396FC933B
:10315000EE931297ED01499159919E01240F351F6D
:10316000E217F30771F480819181840F951F029615
:1031700011969C938E938281938113969C938E9348
:103180001297E0E0F0E0D80112968D919C91139790
:10319000009719F0F8018C01F6CF8D919C91980160
:1031A0002E5F3F4F820F931F2091F6033091F7035C
:1031B0002817390769F4309729F41092F90310920F
:1031C000F80302C0138212821093F7030093F603F0
:0E31D000DF91CF911F910F910895F894FFCFDA
:1031DE007878787878787878000000FA0380005E46
:1031EE0000BC007701000000009907870100000075
:1031FE000086078B010000000098078D010000007B
:10320E00008005890139023D02410245024902D47E
:10321E0001D80100000000C70A430A900A6E0A8214
:10322E000A0E0B00000000E40B0000000060014CD1
:10323E0001130110010D010C0100000000360443C2
:10324E000A1F1C1F1E1F1E1F1F1E1F1E1F31333A5B
:10325E0030303A30300030373A30303A303000319A
:10326E00333A33303A30300030383A33303A303047
:10327E000031323A30303A30300032333A30303A70
:10328E00303000486561746572204F666600536584
:10329E007475700A005761737365723A2020004C82
:1032AE00756674005361740053756E0048656174E1
:1032BE006572204F6E00696E697469616C69736521
:1032CE0064006E616E00696E66006F766600430084
:1032DE004C69676874204F66660A0050756D7020E1
:1032EE004F666600536572766963654D6F6465203F
:1032FE00736574004C69676874204F6E0A005075D0
:10330E006D70204F6E000D0A004D6F6E0054756586
:0E331E0000576564005468750046726900002F
:00000001FF
