:100000000C94E2000C940A010C940A010C940A016D
:100010000C940A010C940A010C940A010C940A0134
:100020000C940A010C940A010C940A010C940A0124
:100030000C940A010C940A010C940A010C940A0114
:100040000C94290C0C940A010C94E7030C94C10342
:100050000C940A010C940A010C940A010C940A01F4
:100060000C940A010C940A01005EBCE2613FDD833E
:10007000C29C7E20A3FD1F419DC3217FFCA2401E88
:100080005F01E3BD3E6082DC237D9FC1421CFEA078
:10009000E1BF5D0380DE3C62BEE0025CDF81633D68
:1000A0007C22C09E1D43A1FF4618FAA427799BC558
:1000B00084DA3866E5BB5907DB856739BAE4065848
:1000C0001947A5FB7826C49A653BD987045AB8E638
:1000D000A7F91B45C6987A24F8A6441A99C7257B28
:1000E0003A6486D85B05E7B98CD2306EEDB3510F18
:1000F0004E10F2AC2F7193CD114FADF3702ECC9208
:10010000D38D6F31B2EC0E50AFF1134DCE90722CF7
:100110006D33D18F0C52B0EE326C8ED0530DEFB1E7
:10012000F0AE4C1291CF2D73CA947628ABF51749D7
:100130000856B4EA6937D58B5709EBB536688AD4C7
:1001400095CB2977F4AA4816E9B7550B88D6346AB7
:100150002B7597C94A14F6A8742AC896154BA9F7A7
:10016000B6E80A54D7896B3500000000230026004A
:10017000290004040404040404040202020202022A
:10018000030303030303010204081020408001025B
:1001900004081020010204081020000000002400C0
:1001A00027002A0000000000250028002B00000086
:1001B0000008000201000003040700000000000026
:1001C0000000D21011241FBECFEFD8E0DEBFCDBF9C
:1001D00013E0A0E0B1E0E0ECF8E202C005900D927F
:1001E000A436B107D9F724E0A4E6B3E001C01D921C
:1001F000A735B207E1F710E0C2EED0E004C02197C6
:10020000FE010E945314C13ED107C9F70E94730C2E
:100210000C945E140C940000CF92DF92EF92FF9248
:100220000F931F93CF93DF936C017A018B01C0E092
:10023000D0E0CE15DF0589F0D8016D918D01D60192
:10024000ED91FC910190F081E02DC6010995892B7B
:1002500011F47E0102C02196ECCFC701DF91CF914E
:100260001F910F91FF90EF90DF90CF900895FC01C8
:10027000918D828D981761F0828DDF01A80FB11DDD
:100280005D968C91928D9F5F9F73928F90E0089501
:100290008FEF9FEF0895FC01918D828D981731F0BB
:1002A000828DE80FF11D858D90E008958FEF9FEF0F
:1002B0000895FC01918D228D892F90E0805C9F4FE5
:1002C000821B91098F739927089586E693E00E9417
:1002D000590121E0892B09F420E0822F0895FC01C7
:1002E000848DDF01A80FB11DA35ABF4F2C91848DBF
:1002F00090E001968F739927848FA689B7892C93F4
:10030000A089B1898C9180648C93938D848D98138E
:1003100006C00288F389E02D80818F7D8083089557
:10032000EF92FF920F931F93CF93DF93EC0181E045
:10033000888F9B8D8C8D981305C0E889F989808101
:1003400085FD24C0F62E0B8D10E00F5F1F4F0F733D
:100350001127E02E8C8DE8120CC00FB607FCFACFE7
:10036000E889F989808185FFF5CFCE010E946F0170
:10037000F1CF8B8DFE01E80FF11DE35AFF4FF082A4
:100380000B8FEA89FB898081806207C0EE89FF8933
:100390006083E889F98980818064808381E090E0CE
:1003A000DF91CF911F910F91FF90EF900895CF9320
:1003B000DF93EC01888D8823C9F0EA89FB8980816D
:1003C00085FD05C0A889B9898C9186FD0FC00FB63F
:1003D00007FCF5CF808185FFF2CFA889B9898C9180
:1003E00085FFEDCFCE010E946F01E7CFDF91CF9166
:1003F000089580E090E0892B29F00E946501811129
:100400000C94000008950895CF93DF93EC0160E011
:100410008E810E94830B61E08E810E94830B60E0DD
:100420008E810E94830B8BE891E00197F1F7DF91B9
:10043000CF910895CF93DF93CDB7DEB728970FB64E
:10044000F894DEBF0FBECDBF0E94DB07809164032E
:10045000882311F0453128F481E090910504491773
:1004600008F480E028960FB6F894DEBF0FBECDBF2B
:10047000DF91CF9108950E9459146115710579F0AB
:10048000FB0101900020E9F73197AF01461B570BA4
:10049000DC01ED91FC910280F381E02D099480E074
:1004A00090E008954F925F926F927F92EF92FF9249
:1004B0000F931F93CF93DF93CDB7DEB7A1970FB6FE
:1004C000F894DEBF0FBECDBF7C01FA01CB0119A2AB
:1004D000223008F42AE08E010F5D1F4F422E512C6E
:1004E000612C712CBF01A30192010E941D14F9011E
:1004F000CA01015011096A3014F4605D01C0695CE1
:10050000D8016C93232B242B252B61F7B801C7014D
:100510000E943D02A1960FB6F894DEBF0FBECDBF7C
:10052000DF91CF911F910F91FF90EF907F906F908F
:100530005F904F9008954F925F926F927F928F924B
:100540009F92AF92BF92CF92DF92EF92FF92CF93A2
:10055000DF93EC016A017B01B22E9A01AB01C70166
:10056000B6010E94F813882319F065E371E027C0F3
:1005700026013701E89477F82FEF3FEF4FE75FE769
:10058000C301B2010E94F81381110DC02FEF3FEF9C
:100590004FE75FE7C301B2010E942E1218161CF448
:1005A00069E371E00CC02FEF3FEF4FE75FE4C70155
:1005B000B6010E94861318169CF46DE371E0CE011B
:1005C000DF91CF91FF90EF90DF90CF90BF90AF90F1
:1005D0009F908F907F906F905F904F900C943D0212
:1005E0002FEF3FEF4FE75FECC701B6010E942E12DD
:1005F00087FDE3CF20E030E0A901C701B6010E94EA
:100600002E1287FF0EC0E881F9810190F081E02D64
:100610006DE2CE0109954C01F7FAF094F7F8F094E9
:1006200002C0812C912CA12C60E070E080E09FE35F
:10063000AB1441F020E030E040E251E40E9433127C
:10064000A394F6CF9B01AC01C701B6010E94C21171
:100650002B013C010E94A5126B017C010E94D41267
:100660009B01AC01C301B2010E94C1112B013C01ED
:100670002AE0B701A601CE010E9452027C01E80CDB
:10068000F91CBB2051F0E881F9810190F081E02D47
:100690006EE2CE010995E80EF91EDB2CDD2029F172
:1006A00020E030E040E251E4C301B2010E948B132C
:1006B0002B013C010E94A5124B01A12CB12C2AE078
:1006C000B501A401CE010E945202E80EF91EC50137
:1006D000B4010E94D4129B01AC01C301B2010E947B
:1006E000C1112B013C01DA94D9CFC701DF91CF9121
:1006F000FF90EF90DF90CF90BF90AF909F908F9042
:100700007F906F905F904F9008950C943D020E94EF
:10071000DB07209303043093040450930604609392
:100720000704709308048093090490930A0484E1F9
:10073000840F8B3330F081E08093640389ED840F64
:1007400002C0109264038093050461E471E086E6C0
:1007500093E00E9485034091050450E060E070E062
:100760002AE086E693E00E94520260E571E086E6A8
:1007700093E00E9485036FEA71E086E693E00C94B3
:1007800085031F920F920FB60F9211242F933F9360
:100790004F935F936F937F938F939F93AF93BF9389
:1007A000EF93FF9386E693E00E946F01FF91EF9134
:1007B000BF91AF919F918F917F916F915F914F9179
:1007C0003F912F910F900FBE0F901F9018951F9281
:1007D0000F920FB60F9211242F938F939F93EF9345
:1007E000FF93E0917603F09177038081E0917C03A1
:1007F000F0917D0382FD12C0908180917F038F5F15
:100800008F7320918003821751F0E0917F03F0E015
:10081000EA59FC4F958F80937F0301C08081FF913F
:10082000EF919F918F912F910F900FBE0F901F907E
:100830001895DC01E0E0615038F08D91E827F0E098
:10084000E859FF4FE491F7CF8E2F0895FC01908176
:100850000180F281E02DF8948181892B81832281AE
:10086000892F809528232283A7E0B0E01197F1F724
:10087000218182238183A3E2B0E01197F1F7808187
:100880007894EFECF0E03197F1F7982381E009F4E8
:1008900080E00895FC0190810180F281E02D892F94
:1008A000809560FF12C0F894228182238283818127
:1008B000892B8183A3E2B0E01197F1F78281982B15
:1008C0009283789487ED90E011C0F894228182237E
:1008D00082838181892B8183AFEFB0E01197F1F79B
:1008E0008281982B928378948FE090E00197F1F7C2
:1008F0000895CF92DF92EF92FF920F931F93CF93C1
:10090000DF931F92CDB7DEB76C01E62E08E010E052
:10091000FF24F39461E08F2D8E2109F460E0C6017D
:1009200049830E944A04FF0C0150110949810115B5
:10093000110581F7411115C0F894D6011196ED917A
:10094000FC91129791818C918095892381831196D6
:10095000ED91FC91129792818C91809589238283ED
:1009600078940F90DF91CF911F910F91FF90EF90AE
:10097000DF90CF900895CF92DF92EF92FF920F9386
:100980001F93CF93DF931F92CDB7DEB78C01F62E66
:1009900040E065E579830E947904CF2C7981D72ED8
:1009A000760188E0E80EF11CF60161916F0140E0EC
:1009B000C8010E947904CE14DF04B1F70F90DF91D3
:1009C000CF911F910F91FF90EF90DF90CF900895FE
:1009D000FC0190810180F281E02DF8948181292F22
:1009E00020958223818378948DE743E050E0815005
:1009F00021F1DA011197F1F730813923C1F3F8942D
:100A00008281822382838181892B81837894ABE7E1
:100A1000B7E01197F1F7F894818128232183A3E1AE
:100A2000B1E01197F1F78081982381E009F080E02F
:100A30007894E3E6F6E03197F1F70895CF92DF92EC
:100A4000EF92FF920F931F93CF93DF937C016C0182
:100A500087E0C80ED11CC0E0D0E0062F10E0B8013E
:100A60000C2E02C0759567950A94E2F76170F60145
:100A700081916F010E94830B2196C430D10579F7D3
:100A8000C701DF91CF911F910F91FF90EF90DF9001
:100A9000CF900C940402CF92DF92EF92FF920F93CB
:100AA0001F93CF93DF93EC01F62E642F8C810E946D
:100AB000830B8D818F3F19F060E00E94830B8F853F
:100AC0000F2D10E084FF25C06E0187E0C80ED11CF9
:100AD000E12CF12CB8010E2C02C0759567950A9493
:100AE000E2F76170F60181916F010E94830BFFEFC5
:100AF000EF1AFF0A88E0E816F10461F7CE01DF91F2
:100B0000CF911F910F91FF90EF90DF90CF900C94B9
:100B10000402B80184E0759567958A95E1F7CE01E6
:100B20000E941E056F2DCE01DF91CF911F910F9175
:100B3000FF90EF90DF90CF900C941E0541E00E9453
:100B40004B0581E090E0089540E00C944B0560E097
:100B500080E00E946B0961E08BE094E00E94A405B4
:100B60008BE39FE10197F1F766E571E08BE094E09C
:100B70000E94850360E088E00E946B090E94800962
:100B8000AB01BC0122E08BE094E00E949B0260E09C
:100B90008EE00E946B096BE571E08BE094E00C94B1
:100BA0008503CF93DF93C6E3D4E061E089810E949F
:100BB000B30B60E089810E94830B61E088810E9411
:100BC000830B61E089810E94830B60E08981DF9162
:100BD000CF910C94B30BCF93DF93C6E3D4E061E0E5
:100BE00089810E94B30B60E088810E94830B61E0E1
:100BF00089810E94830B61E088810E94830B60E001
:100C000088810E94830B60E08981DF91CF910C94F1
:100C1000B30BEF92FF920F931F93CF93DF93E82EC6
:100C2000F62EC7E0D0E0042F10E098010C2E02C091
:100C3000359527950A94E2F7B901617077278E2DD3
:100C40000E94830B61E08F2D0E94830B60E08F2D4B
:100C50000E94830B219748F7DF91CF911F910F914D
:100C6000FF90EF9008950F931F93CF93DF931F9200
:100C7000CDB7DEB7482F06E314E061E0F8018181CB
:100C800049830E94B30B61E0F80181810E94830BCC
:100C900061E0F80180810E94830B60E0F8018181AE
:100CA0000E94830B60E0F80180810E94830B4981E0
:100CB000F801608181810F90DF91CF911F910F9199
:100CC0000C9409061F93CF93DF9360E08091370463
:100CD0000E94B30BC7E0D0E010E061E080913604E1
:100CE0000E94830B809137040E945A0B9C0133278A
:100CF0000C2E01C0220F0A94EAF7122B60E08091BB
:100D000036040E94830B219740F7812FDF91CF910A
:100D10001F91089560E0809137040E94B30B61E059
:100D2000809136040E94830B809137040E945A0BF5
:100D30000197D1F360E0809136040C94830BCF933C
:100D4000DF931F92CDB7DEB790913F04992309F44A
:100D50003FC094EE9093BC009091BC0097FFFCCFF5
:100D600090ED9093BB0094EC9093BC009091BC00EC
:100D700097FFFCCF8093BB0084EC8093BC008091F4
:100D8000BC0087FFFCCF84EE8093BC008091BC0048
:100D900087FFFCCF81ED8093BB0084EC8093BC0087
:100DA0008091BC0087FFFCCF84EC8093BC008091D5
:100DB000BC0087FFFCCF8091BB0094E89093BC00FF
:100DC0009091BC0097FFFCCF94E99093BC0022C0A7
:100DD000482F80ED49830E9433060E948A0661E015
:100DE000809137040E94B30B498160913604809151
:100DF00037040E9409060E948A0681ED0E9433068C
:100E00000E948A060E94620689830E94EB050E9466
:100E1000D10589810F90DF91CF910895EF92FF92D4
:100E20000F931F93CF93DF93EC01623018F08F85FF
:100E300088608F876B8B1C8A80E48D8B80E18E8B22
:100E400080E58F8B61E08C810E94B30B8D818F3F99
:100E500019F061E00E94B30B61E08E810E94B30B38
:100E60007E0187E0E80EF11C00E010E08F8584FD34
:100E700003C084E090E002C088E090E00817190702
:100E80004CF461E0F70181917F010E94B30B0F5F89
:100E90001F4FECCF8BE39DE00197F1F760E08C8171
:100EA0000E94830B60E08E810E94830B8D818F3FB7
:100EB00019F060E00E94830B6F8564FD1DC063E044
:100EC000CE010E941E050BE416E4C8010197F1F75C
:100ED00063E0CE010E941E05C8010197F1F763E0AF
:100EE000CE010E941E0583E592E00197F1F762E0D2
:100EF000CE010E941E0516C06062CE010E94A405AC
:100F00008BE496E40197F1F76F856062CE010E9451
:100F1000A40583E592E00197F1F76F856062CE0149
:100F20000E94A4056F856062CE010E94A40584E042
:100F3000888B6CE0CE010E94A40561E0CE010E9486
:100F4000A4058BE39FE10197F1F782E0898B66E0CE
:100F5000CE01DF91CF911F910F91FF90EF900C94F4
:100F6000A405CF93DF93BC0186E693E00E943D0287
:100F7000EC016EEA71E086E693E00E943D028C0F80
:100F80009D1FDF91CF910895CF93DF93482F50E0BD
:100F900060E070E02AE086E693E00E945202EC01F5
:100FA0006EEA71E086E693E00E943D028C0F9D1F81
:100FB000DF91CF9108950F931F93CF93DF93CDB718
:100FC000DEB728970FB6F894DEBF0FBECDBF809175
:100FD0003F04882309F446C084EE8093BC008091CE
:100FE000BC0087FFFCCF80ED8093BB0084EC809336
:100FF000BC008091BC0087FFFCCF1092BB0084EC4A
:101000008093BC008091BC0087FFFCCF84EE80936E
:10101000BC008091BC0087FFFCCF81ED8093BB00BA
:1010200084EC8093BC008091BC0087FFFCCFE8E398
:10103000F4E094EC9093BC008091BC0087FFFCCF5F
:101040008091BB00819374E0EF33F70799F784E850
:101050008093BC008091BC0087FFFCCF84E9809323
:10106000BC004BC080ED0E9433060E948A0661E0FE
:10107000809137040E94B30B40E060913604809168
:1010800037040E9409060E948A0681ED0E943306F9
:101090000E948A0600E010E00E946206F801EA5C05
:1010A000FB4F828306301105F9F061E0809137042F
:1010B0000E94B30B60E0809136040E94830B60E0D5
:1010C000809137040E94830B61E0809136040E9476
:1010D000830B60E0809136040E94830B60E0809176
:1010E00037040E94B30B02C00E94EB050F5F1F4F35
:1010F0000730110589F60E94D10580913804482FE8
:101100004695469546954E70942F990F990F490F25
:101110008F70480F80913904382F36953695369563
:101120003E70932F990F990F390F8F70380F809160
:101130003A04282F2F7087FF08C085FB992790F964
:101140008CE0989F200D112409C0807386958695A8
:101150008695982F990F990F890F280FE0913B04DE
:1011600060913C0470913D0480913E04562F569549
:10117000569556955E70952F990F990F590F6F7070
:10118000560F672F6695669566956E70962F990F28
:10119000990F690F7F70670F982F92959F708F70CE
:1011A0007AE0979F800D112490E08053984F9F83A1
:1011B0008E83782F8F819E2F28960FB6F894DEBFEE
:1011C0000FBECDBFDF91CF911F910F910895CF93A7
:1011D000DF93CDB7DEB766970FB6F894DEBF0FBECC
:1011E000CDBF8EE0EFE0F1E0DE01119601900D92AF
:1011F0008A95E1F70E94DB079E012F5F3F4F290F81
:10120000311D290F311DF901329780819181669638
:101210000FB6F894DEBF0FBECDBFDF91CF9108951A
:10122000CF93DF93CDB7DEB728970FB6F894DEBF24
:101230000FBECDBF0E94DB073A834B832A3010F4E8
:1012400080E305C0822F6AE00E94FD13805D8093D9
:1012500000013AE0822F632F0E94FD13905D90936E
:1012600001018AE3809302012A812A3010F480E38D
:1012700005C0822F632F0E94FD13805D80930301C0
:101280003AE0822F632F0E94FD13905D909304013A
:101290008AE3809305012B812A3010F480E305C096
:1012A000822F632F0E94FD13805D80930601822FA1
:1012B0006AE00E94FD13905D90930701109208016F
:1012C00080E091E028960FB6F894DEBF0FBECDBF48
:1012D000DF91CF910895643008F063E090911E048F
:1012E000691710F06FEF690FE62FF0E0E55FFB4F35
:1012F0009489682F690F60688BE094E00C94A405D2
:10130000CF92DF92EF92FF92CF93DF9381E10E9421
:101310009F06D82F82E10E949F06C82F6D2F70E094
:1013200080E090E00E94D4126B017C018C2F90E051
:1013300026E0959587952A95E1F7BC01990F880BD2
:10134000990B0E94D61220E030E040E85EE30E9454
:101350008B139B01AC01C701B6010E94C211DF9142
:10136000CF91FF90EF90DF90CF9008958F929F9252
:10137000AF92BF92CF92DF92EF92FF920F931F93A3
:10138000CF93DF938C01EB01809128049091290485
:101390000E94E804882309F43DC0B8018091280424
:1013A000909129040E94BB0440E06EEB80912804D8
:1013B000909129040E9479048E015E0189E0A80EB3
:1013C000B11C809028049090290488E0C82ED12C6C
:1013D000EE24E394F12CC4010E9426048111FE281E
:1013E000EE0CE1E0CE1AD108B1F7F801F1928F01CD
:1013F000EA15FB0531F780912804909129040E9499
:10140000E804813039F468E0CE010E94190491E0CB
:101410002885821390E0892FDF91CF911F910F9142
:10142000FF90EF90DF90CF90BF90AF909F908F9004
:101430000895CF93DF93CDB7DEB729970FB6F89411
:10144000DEBF0FBECDBFBE016F5F7F4F0E94B609EA
:10145000882389F08D818F3361F020F48F3159F426
:1014600089E00CC08F3519F08F3739F004C08BE05C
:1014700005C08AE003C080E001C08CE029960FB669
:10148000F894DEBF0FBECDBFDF91CF910895AF922C
:10149000BF92CF92DF92EF92FF920F931F93CF9361
:1014A000DF931F92CDB7DEB75C01D62EE72EFC018D
:1014B0008585811105C0C5010E94E804811106C01F
:1014C000F50113861586148680E065C040E060EF64
:1014D000C5010E94790401E0F12CC12C11E0C50185
:1014E0000E942604682FC50169830E942604698131
:1014F000613019F48130B9F433C04F2D50E06813D6
:101500001BC0F5018385181730F4E40FF51F8381A4
:10151000802349F402C0181731F060E0193058F404
:10152000F501148708C0F501EF0DF11D8381802BB3
:10153000838361E009C0C12EF501E40FF51F93819B
:10154000802F809589238383C5010E944A041F5FF1
:10155000000F11F4F39401E0F7E0FF1508F0BFCF9E
:10156000113408F4ADCFF501C386C11002C081E08B
:101570008587F5018381882309F4A2CFD5011396CD
:10158000ED2DFE2D9501255F3F4F8D918193A21783
:10159000B307D9F781E00F90DF91CF911F910F91A1
:1015A000FF90EF90DF90CF90BF90AF9008950F9392
:1015B0001F93CF93DF938C01D62FE0912804F091F5
:1015C0002904138615861486DF011B9633961E9216
:1015D000AE17BF07E1F7C0E0B801809128049091F1
:1015E00029040E94470A811102C080E010C0CD1377
:1015F0000AC067E0C8010E941904F80197818913A5
:1016000002C081E004C0CF5FDC1778F3E5CFDF9143
:10161000CF911F910F910895833081F028F481308C
:1016200099F08230A1F008958730A9F08830B9F0A0
:101630008430D1F4809180008F7D03C08091800040
:101640008F7780938000089584B58F7702C084B52A
:101650008F7D84BD08958091B0008F7703C0809105
:10166000B0008F7D8093B00008953FB7F8948091CB
:10167000530490915404A0915504B091560426B59A
:10168000A89B05C02F3F19F00196A11DB11D3FBFBA
:10169000BA2FA92F982F8827820F911DA11DB11D48
:1016A000BC01CD0142E0660F771F881F991F4A9544
:1016B000D1F70895CF93DF93282F30E0F901E25559
:1016C000FE4F8491F901EA57FE4FD491F901EE588B
:1016D000FE4FC491CC2391F081110E940C0BEC2F92
:1016E000F0E0EE0FFF1FE859FE4FA591B491EC9189
:1016F000ED2381E090E021F480E002C080E090E002
:10170000DF91CF9108951F93CF93DF93282F30E07F
:10171000F901E255FE4F8491F901EA57FE4FD49149
:10172000F901EE58FE4FC491CC23C9F0162F811158
:101730000E940C0BEC2FF0E0EE0FFF1FEC55FE4F5C
:10174000A591B4918FB7F894111105C09C91ED2F1C
:10175000E095E92302C0EC91ED2BEC938FBFDF9174
:10176000CF911F910895CF93DF9390E0FC01EA574A
:10177000FE4F2491FC01EE58FE4F8491882361F1C5
:1017800090E0880F991FFC01E656FE4FC591D49159
:10179000FC01EC55FE4FA591B491611109C09FB7B2
:1017A000F8948881209582238883EC912E230BC0A6
:1017B000623061F49FB7F8943881822F809583233B
:1017C0008883EC912E2B2C939FBF06C08FB7F89483
:1017D000E8812E2B28838FBFDF91CF9108958F92C0
:1017E0009F92AF92BF92CF92DF92EF92FF926B01E6
:1017F0007C010E94350B4B015C01C114D104E10452
:10180000F104F1F00E94350BDC01CB018819990934
:10181000AA09BB09883E9340A105B10570F321E0F8
:10182000C21AD108E108F10888EE880E83E0981EFC
:10183000A11CB11CC114D104E104F10419F7DDCFDE
:10184000FF90EF90DF90CF90BF90AF909F908F90E0
:1018500008951F920F920FB60F9211242F933F936A
:101860008F939F93AF93BF9380914E0490914F04B9
:10187000A0915004B09151043091520423E0230F01
:101880002D3720F40196A11DB11D05C026E8230FB8
:101890000296A11DB11D2093520480934E04909393
:1018A0004F04A0935004B09351048091530490913D
:1018B0005404A0915504B09156040196A11DB11D88
:1018C0008093530490935404A0935504B09356040A
:1018D000BF91AF919F918F913F912F910F900FBE2C
:1018E0000F901F901895CF93DF93CDB7DEB7A997D0
:1018F0000FB6F894DEBF0FBECDBF789484B582607A
:1019000084BD84B5816084BD85B5826085BD85B5A3
:10191000816085BD80916E00816080936E00109221
:10192000810080918100826080938100809181009C
:10193000816080938100809180008160809380002D
:101940008091B10084608093B1008091B00081608B
:101950008093B00080917A00846080937A008091B7
:101960007A00826080937A0080917A00816080930F
:101970007A0080917A00806880937A001092C1008A
:1019800061E089E00E94B30B61E08AE00E94B30B42
:1019900061E08BE00E94B30B62E08BE094E00E9478
:1019A0000E0780913704823101F58091360483312E
:1019B000E1F481E080933F0461E082E10E94830BC7
:1019C00061E083E10E94830B8091B9008E7F809358
:1019D000B9008091B9008D7F8093B9008CE080932D
:1019E000B80085E08093BC0007C010923F0461E01E
:1019F000809136040E94B30BE0912804F0912904F1
:101A0000138615861486DF011B9633961E92AE1739
:101A1000BF07E1F71092270401E0BE016F5F7F4F1F
:101A200080912804909129040E94470A882309F490
:101A300053C067E0CE0101960E941904988589136E
:101A4000ECCF80912304811127C0809128049091CC
:101A500029040E94E804BE016F5F7F4F8091280433
:101A6000909129040E94BB0440E064EB809128041B
:101A7000909129040E94790480912804909129046E
:101A80000E942604182F80912804909129040E9416
:101A9000E804112309F44FC3109124048981803193
:101AA00009F466C3CE0101960E94190A811718F441
:101AB0008091240409C08981803111F48CE004C034
:101AC000CE0101960E94190A809324048091270474
:101AD0008F5F80932704A1CF8CE080932404E12CB6
:101AE000F12C0FE5BFE7DB2E1FE1C12E8FE3B82EEF
:101AF0008091270490E0E816F9060CF0A0C06E2D46
:101B0000CE010A960E94D70A10912404193020F0C1
:101B10001D3018F01CE001C019E08A85803129F0E1
:101B2000CE010A960E94190A01C08CE0811709F4BF
:101B300082C0BE016F5F7F4FCE010A960E94B60938
:101B4000882309F478C08A85803109F474C01B3079
:101B500041F01C3021F01A3031F4BD8205C0DD8225
:101B600003C00D8301C0CD82809128049091290487
:101B70000E94E804BE01665F7F4F80912804909127
:101B800029040E94BB0440E06EE4809128049091F7
:101B900029040E94790440E06B818091280490918F
:101BA00029040E94790440E06C818091280490917E
:101BB00029040E9479048A85803141F040E06D81DA
:101BC00080912804909129040E947904809128042E
:101BD000909129040E94E804BE01665F7F4F8091C6
:101BE0002804909129040E94BB044091230468E4D6
:101BF00080912804909129040E94790464E170E0A6
:101C000080E090E00E94EF0B80912304882331F064
:101C10006AE070E080E090E00E94EF0B8091280481
:101C2000909129040E94E80480912404181708F474
:101C3000182F109324042FEFE21AF20A59CF60E014
:101C400089E00E94830B60E08AE00E94830B60E0E1
:101C50008BE00E94830BE0917603F091770382E0A2
:101C60008083E0917203F09173031082E09174031A
:101C7000F09175038FEC808310927E03E0917A03DC
:101C8000F0917B0386E08083E0917803F091790303
:101C9000808180618083E0917803F0917903808175
:101CA00088608083E0917803F09179038081806877
:101CB0008083E0917803F091790380818F7D808328
:101CC0000E94A7050E94870361E080E00E946B09E3
:101CD0000E94E708BC018BE094E00E94850361E06C
:101CE00088E00E946B090E941009BC018BE094E01F
:101CF0000E94850361E871E086E693E00E94850317
:101D00000E941009BC0186E693E00E9485036FEAF9
:101D100071E086E693E00E94850360E971E080E06F
:101D200090E00E94EF0B80912804909129040E947A
:101D3000E80440E06CEC80912804909129040E9412
:101D400079044091230464E480912804909129044B
:101D50000E94790480912504882309F449C0E09108
:101D60002404E950E33040F4F0E0EE0FFF1FE75F9A
:101D7000FE4F6081718102C06EEE72E08091260498
:101D8000882381F18091230481112CC08FB7F894AE
:101D900080904E0490904F04A0905004B090510455
:101DA0008FBF6B01770FEE08FF0880912804909198
:101DB00029040E9426048130D9F02FB7F89480912D
:101DC0004E0490914F04A0915004B09151042FBF44
:101DD0008C199D09AE09BF0988159905AA05BB058F
:101DE00020F306C0072E000C880B990B0E94EF0B06
:101DF0000E9480096B017C016AE871E086E693E04D
:101E00000E94850322E0B701A60186E693E00E94C6
:101E10009B0268E971E086E693E00E94850360E03A
:101E2000CE0182960E94D70A811107C0C12CD12C05
:101E3000FEEFEF2EF2ECFF2E4BC0BE016F5F7F4F27
:101E4000CE0182960E94B609882359F1698148E043
:101E5000649FB00111248A81282F30E0322F22277D
:101E6000330F330F330F262B372B8AA18031E1F448
:101E7000688570E08F81AB01481B5109CA019695B6
:101E8000982F8827979587950E94091460517109AA
:101E9000207F53E0220F331F5A95E1F7620F731F23
:101EA00004C060E874EE01C0B901613854EE7507F2
:101EB0000CF4BCCF072E000C880B990B0E94D61295
:101EC00020E030E040E05CE30E948B136B017C017A
:101ED00022E0B701A60186E693E00E949B026EEA2B
:101EE00071E086E693E00E943D02809165038111D6
:101EF0004DC10E941A028823C1F10E94870381E02C
:101F00008093650320E030E040E251E4C701B60170
:101F10000E94861318164CF520E030E040E252E4AF
:101F2000C701B6010E942E1287FF1FC060E080E04B
:101F30000E946B0961EB71E08BE094E00E948503E5
:101F400060E088E00E946B0922E0B701A6018BE007
:101F500094E00E949B0260E08EE00E946B096BE5BA
:101F600071E08BE094E00E9485030E94DB07722EF3
:101F70002A873B874C875D876E877F87888B998B05
:101F80000E94DB07E32E2A8B3B8B4C8B5D8B6E8B89
:101F90007F8B888F998F0E94DB07642E2A8F3B8F5F
:101FA0004C8F5D8F6E8F7F8F88A399A30E94E70867
:101FB00021E08B3B920709F4C1C08F5B914009F48B
:101FC000BDC00DE511E096E6C92E91E0D92E6FED6A
:101FD00071E086E693E00E948503C8010E94B10784
:101FE000480153E0850E911C63EC71E086E693E0B6
:101FF0000E948503C4010E94B107580186E0A80E23
:10200000B11C6DEC71E086E693E00E948503C5018A
:102010000E94B107C6010E949B11F82EC8010E94C0
:102020009B11482EC60103960E949B11582EC40195
:102030000E949B11182FC60106960E949B11D82E54
:10204000C5010E949B11082F67ED71E086E693E0C1
:102050000E948503842D0E94C4076AEE71E086E623
:1020600093E00E948503812F0E94C4076FEF71E007
:1020700086E693E00E948503802F0E94C40764E1F6
:1020800072E086E693E00E9485038F2D0E94C407CC
:1020900066E272E086E693E00E948503852D0E9449
:1020A000C4076AE372E086E693E00E9485038D2D03
:1020B0000E94C407F71458F48EE492E00E94B1071E
:1020C000741418F482E792E013C0741469F07F105E
:1020D00021C05E14D8F485EC92E00E94B107E116AD
:1020E000A8F48CED92E004C0E11660F480E892E080
:1020F0000E94B10766E473E086E693E00E948503E0
:1021000060E013C05E14C0F17F1004C0E11202C091
:10211000D61428F18EE193E00E94B1076BE273E0E0
:1021200086E693E00E94850361E089E00E94830BCC
:102130000E94F901C9CD00932304AECC66E373E09D
:1021400086E693E00E9485038FE691E00E94B10746
:102150000FE611E088E7C82E81E0D82E38CF8CEE4C
:1021600092E00E94B1076016A8F68EE093E0C0CF1F
:102170001D3008F09DCCA2CCE11205C0601618F409
:102180008FE992E0B5CF7F10C5CFA5CF0E941A028C
:10219000882309F4EACE0E948703109265030E9407
:1021A000A705E3CECF93DF931092690310926803E3
:1021B00088EE93E0A0E0B0E080936A0390936B0315
:1021C000A0936C03B0936D0381E291E09093670359
:1021D0008093660385EC90E0909373038093720381
:1021E00084EC90E0909375038093740380EC90E00E
:1021F000909377038093760381EC90E0909379033A
:102200008093780382EC90E090937B0380937A0331
:1022100086EC90E090937D0380937C0310927F0383
:1022200010928003109281031092820382E18093C6
:10223000370483E18093360460E088E00E94B30BAA
:10224000EEE8F1E0E491E0934004EAE7F1E0E491A4
:10225000F0E0EE0FFF1FE859FE4F859194919093A7
:1022600042048093410410924B0410924D0410924A
:102270004C04EBE4F4E0129284E0E334F807D9F77D
:1022800083E092E0909335048093340480E494E0FA
:102290009093290480932804109227041092230419
:1022A00089E080932404C1E0C0932504C0932604F0
:1022B00010920E0410920D0481E391E090930C04AF
:1022C00080930B048CE080930F048FEF80931004B5
:1022D0008BE08093110485E08093120484E0809366
:1022E0001304D3E0D093140482E080931504109279
:1022F00016041092170410921804109219041092E8
:102300001A0461E08BE094E00E940E078EED97E0E6
:102310009093090480930804C0930704C0930604B3
:10232000109203041092040410920504D0930A043E
:10233000DF91CF910895FC0188279927E894219196
:102340002032E9F3293010F02E30C8F32B3241F05F
:102350002D3239F4689404C00E94B911820F911D86
:10236000219120532A30C0F31EF4909581959F4F00
:1023700008957AE0979F902D879F802D910D1124CD
:1023800008955058BB27AA270E94D9110C944C13CA
:102390000E943E1338F00E94451320F039F49F3F0D
:1023A00019F426F40C943B130EF4E095E7FB0C941F
:1023B0003513E92F0E945D1358F3BA1762077307AC
:1023C0008407950720F079F4A6F50C947F130EF49A
:1023D000E0950B2EBA2FA02D0B01B90190010C0135
:1023E000CA01A0011124FF27591B99F0593F50F44D
:1023F000503E68F11A16F040A22F232F342F4427A5
:10240000585FF3CF469537952795A795F04053959C
:10241000C9F77EF41F16BA0B620B730B840BBAF06C
:102420009150A1F0FF0FBB1F661F771F881FC2F7D7
:102430000EC0BA0F621F731F841F48F487957795EB
:102440006795B795F7959E3F08F0B0CF9395880FA5
:1024500008F09927EE0F9795879508950E9411131C
:1024600008F481E008950E9447120C944C130E94D6
:10247000451358F00E943E1340F029F45F3F29F0C5
:102480000C94351351110C9480130C943B130E943F
:102490005D1368F39923B1F3552391F3951B550B05
:1024A000BB27AA2762177307840738F09F5F5F4F27
:1024B000220F331F441FAA1FA9F335D00E2E3AF066
:1024C000E0E832D091505040E695001CCAF72BD07E
:1024D000FE2F29D0660F771F881FBB1F26173707CF
:1024E0004807AB07B0E809F0BB0B802DBF01FF2701
:1024F00093585F4F3AF09E3F510578F00C94351396
:102500000C9480135F3FE4F3983ED4F3869577955F
:102510006795B795F7959F5FC9F7880F911D9695B9
:10252000879597F90895E1E0660F771F881FBB1F15
:10253000621773078407BA0720F0621B730B840BC2
:10254000BA0BEE1F88F7E09508950E94651388F096
:102550009F5798F0B92F9927B751B0F0E1F0660F67
:10256000771F881F991F1AF0BA95C9F714C0B130A8
:1025700091F00E947F13B1E008950C947F13672FB0
:10258000782F8827B85F39F0B93FCCF386957795D7
:102590006795B395D9F73EF49095809570956195C0
:1025A0007F4F8F4F9F4F0895E89409C097FB3EF4EB
:1025B00090958095709561957F4F8F4F9F4F992390
:1025C000A9F0F92F96E9BB279395F695879577950E
:1025D0006795B795F111F8CFFAF4BB0F11F460FFCE
:1025E0001BC06F5F7F4F8F4F9F4F16C0882311F026
:1025F00096E911C0772321F09EE8872F762F05C03A
:10260000662371F096E8862F70E060E02AF09A95D4
:10261000660F771F881FDAF7880F9695879597F9C9
:102620000895990F0008550FAA0BE0E8FEEF161663
:102630001706E807F907C0F012161306E407F507B6
:1026400098F0621B730B840B950B39F40A2661F02A
:10265000232B242B252B21F408950A2609F4A140CD
:10266000A6958FEF811D811D089597F99F6780E8DA
:1026700070E060E008959FEF80EC089500240A94D4
:102680001616170618060906089500240A9412164D
:102690001306140605060895092E0394000C11F480
:1026A000882352F0BB0F40F4BF2B11F460FF04C02D
:1026B0006F5F7F4F8F4F9F4F089557FD9058440F86
:1026C000551F59F05F3F71F04795880F97FB991F91
:1026D00061F09F3F79F0879508951216130614064E
:1026E000551FF2CF4695F1DF08C0161617061806DB
:1026F000991FF1CF86957105610508940895E894B6
:10270000BB2766277727CB0197F908950E941113FD
:1027100008F48FEF08950E949E130C944C130E94AE
:102720003E1338F00E94451320F0952311F00C94CD
:1027300035130C943B1311240C9480130E945D13E9
:1027400070F3959FC1F3950F50E0551F629FF00104
:10275000729FBB27F00DB11D639FAA27F00DB11D1D
:10276000AA1F649F6627B00DA11D661F829F2227A6
:10277000B00DA11D621F739FB00DA11D621F839F2D
:10278000A00D611D221F749F3327A00D611D231F03
:10279000849F600D211D822F762F6A2F11249F5751
:1027A00050409AF0F1F088234AF0EE0FFF1FBB1F54
:1027B000661F771F881F91505040A9F79E3F510513
:1027C00080F00C9435130C9480135F3FE4F3983E33
:1027D000D4F3869577956795B795F795E7959F5FBD
:1027E000C1F7FE2B880F911D9695879597F908954F
:1027F0000E941113880B990B0895991B79E004C06E
:10280000991F961708F0961B881F7A95C9F780952F
:10281000089597FB072E16F4009407D077FD09D092
:102820000E943F1407FC05D03EF4909581959F4F80
:102830000895709561957F4F0895A1E21A2EAA1B05
:10284000BB1BFD010DC0AA1FBB1FEE1FFF1FA21760
:10285000B307E407F50720F0A21BB30BE40BF50B5D
:10286000661F771F881F991F1A9469F760957095E6
:10287000809590959B01AC01BD01CF010895AA1BE5
:10288000BB1B51E107C0AA1FBB1FA617B70710F05B
:10289000A61BB70B881F991F5A95A9F7809590958D
:1028A000BC01CD010895EE0FFF1F0590F491E02DBE
:1028B000099481E090E0F8940C945E14F894FFCFB2
:1028C0007878787878787878005E00BC0077015066
:1028D00003540358035C036003BB01BF0100000005
:1028E0000090010C01590137014B01D70100000094
:1028F000009E050C016E616E00696E66006F766663
:1029000000746F67676C6554696D65202020200036
:102910002020202020004C75667400430032323A9B
:1029200030303A30300030373A33303A30300031DE
:10293000393A33353A35300031393A33353A343073
:102940000054696D653A2020200061697220746529
:102950006D702069733A2000202020202054656D7E
:1029600070657261747572652069733A20000D0A92
:10297000005761737365723A2020005361740053ED
:10298000756E006F66666D696E202020006F66664A
:1029900073656320202000696E7465676572206F1F
:1029A0006666686F757220202000696E74656765C1
:1029B00072206F66666D696E7574652020200069EF
:1029C0006E7465676572206F66667365636F6E64AB
:1029D00020202000696E7465676572206F6E686FD5
:1029E000757220202000696E7465676572206F6EB5
:1029F0006D696E75746520202000696E7465676569
:102A000072206F6E7365636F6E64202020006163B7
:102A10007475616C20686F7572206772656174658A
:102A200072207468616E20737065632E20686F7504
:102A300072004C69676874206F6E20686F75720051
:102A400061637475616C206D696E206C6F776520B1
:102A50007468616E20696E746D696E4F66660061A0
:102A6000637475616C207365636F6E64206C6F773F
:102A70006572207468616E20696E746D696E53654D
:102A8000636F6E6400686F757220657175616C208C
:102A90006D696E2067726561746572004C69676864
:102AA00074206F6E206D696E75746500686F757245
:102AB00020657175616C206D696E20657175616C42
:102AC00020736563206772656174657220004C69CC
:102AD000676874206F6E207365636F6E64004C6965
:102AE000676874206973206F6666004C6967687454
:102AF000206F66660A0054696D656C696E654F6685
:102B00006620202020004C69676874204F6E0A0000
:102B10004D6F6E005475650057656400546875000C
:042B20004672690090
:00000001FF
