:100000000C94E3000C940B010C940B010C940B0169
:100010000C940B010C940B010C940B010C940B0130
:100020000C940B010C940B010C940B010C940B0120
:100030000C940B010C940B010C940B010C940B0110
:100040000C94DA0E0C940B010C94F0080C94CA0872
:100050000C940B010C940B010C940B010C940B01F0
:100060000C9407030C940B010000000025002800ED
:100070002B0000000008000201000003040700003C
:1000800000000000000000000000240027002A00FB
:10009000005EBCE2613FDD83C29C7E20A3FD1F4168
:1000A0009DC3217FFCA2401E5F01E3BD3E6082DC58
:1000B000237D9FC1421CFEA0E1BF5D0380DE3C6248
:1000C000BEE0025CDF81633D7C22C09E1D43A1FF38
:1000D0004618FAA427799BC584DA3866E5BB590728
:1000E000DB856739BAE406581947A5FB7826C49A18
:1000F000653BD987045AB8E6A7F91B45C6987A2408
:10010000F8A6441A99C7257B3A6486D85B05E7B9F7
:100110008CD2306EEDB3510F4E10F2AC2F7193CDE7
:10012000114FADF3702ECC92D38D6F31B2EC0E50D7
:10013000AFF1134DCE90722C6D33D18F0C52B0EEC7
:10014000326C8ED0530DEFB1F0AE4C1291CF2D73B7
:10015000CA947628ABF517490856B4EA6937D58BA7
:100160005709EBB536688AD495CB2977F4AA481697
:10017000E9B7550B88D6346A2B7597C94A14F6A887
:10018000742AC896154BA9F7B6E80A54D7896B3577
:1001900000000000230026002900040404040404D5
:1001A0000404020202020202030303030303010226
:1001B00004081020408001020408102001020408F5
:1001C00010207922981E11241FBECFEFD8E0DEBF89
:1001D000CDBF13E0A0E0B1E0EAE6F2E502C0059091
:1001E0000D92A239B107D9F725E0A2E9B3E001C029
:1001F0001D92A23CB207E1F710E0C2EED0E004C0CD
:100200002197FE010E941627C13ED107C9F70E941F
:100210009E1E0C9428290C94000080E008950895F7
:1002200081E090E03091250420912404321710F4ED
:1002300080E090E091958195910908958091250441
:1002400090912404891730F48F5F8093250480E017
:1002500090E008958FEF9FEF08958091240490E03F
:1002600020912504821B91090895089580E090E073
:10027000089585ED8093BC008091BC0084FDFCCF87
:100280001092210408954091B403262F30E0240FEA
:10029000311D21323105DCF4209121042430C9F4D0
:1002A000FC0180E090E0861758F43091B40321916E
:1002B000DC01AE56BC4FA30FB11D2C930196F3CFBA
:1002C0008091B403680F6093B40380E0089581E0E7
:1002D000089582E00895CF92DF92EF92FF920F93FC
:1002E0001F93CF93DF937C01262F972F8A01809154
:1002F000FD03882391F0C62FD72F6E01C40ED51EA3
:10030000CC15DD0571F06991D701ED91FC9101905B
:10031000F081E02DC7010995F3CF642F822F0E9451
:100320004301C801DF91CF911F910F91FF90EF9092
:10033000DF90CF900895CF93DF931F92CDB7DEB7B4
:1003400069832091FD032223D1F0209122042032E1
:1003500040F021E030E0FC013383228380E090E034
:1003600015C080912304E82FF0E0E250FC4F998102
:1003700090838F5F809323048093220405C061E003
:10038000CE0101960E94430181E090E00F90DF9141
:10039000CF9108950C94B1270C94B1270C94B127F8
:1003A0000C94B1279B0190E00496982F8827642F26
:1003B000820F931F0C941316CF93DF93C82FD62F61
:1003C000472F60E170E00E94D2014D2F61E170E0A3
:1003D0008C2FDF91CF910C94D20190E0982F882739
:1003E00044E050E0845F9B4F0C94E41508958CBD6D
:1003F0009DBD0895CF93FC01C48121E02093FD03AE
:10040000C0931E0410922304109222048385682B4B
:1004100082E095E00E949B0180912204813208F0E5
:1004200046C0909121049111FCCF92E09093210459
:1004300091E0909320049FEF9093FC031092FB03B4
:100440008093FA03AEEFB3E02AED33E0F9019E2F7B
:10045000921B981718F49D919193F9CF1092D9039C
:100460008091D903CC0FC82BC093D90380911F046E
:10047000813061F410921F048091D9038093BB00F6
:100480008091BC0083FDF8CF85EC01C085EE8093A0
:10049000BC00809121048230E1F38091FC038F3F06
:1004A00031F08091FC03803211F08091FC031092B6
:1004B0002304109222041092FD03CF9108950F930C
:1004C0001F93CF938C01C62F0E94FA016C2F64609A
:1004D000C8010E94FA016C2F6B7FC8010E94FA01CB
:1004E00083EC90E00197F1F7CF911F910F91089560
:1004F000FF920F931F93CF93DF931F92CDB7DEB779
:100500008C01F62E962F907F692F642BC8014983AA
:100510000E945F0280E1F89EB00111244981642BA2
:10052000C8010F90DF91CF911F910F91FF900C9414
:100530005F0241E00E94780281E090E00895CF934D
:10054000DF93CDB7DEB728970FB6F894DEBF0FBEA6
:10055000CDBF9C0188E0E7E1F1E0DE01119601905A
:100560000D928A95E1F7F9018085841710F44FEF19
:10057000480FFE013196E40FF11DE40FF11D90814B
:10058000690F606840E0C90128960FB6F894DEBF95
:100590000FBECDBFDF91CF910C9478028EBD0000CD
:1005A0000DB407FEFDCF8EB508950F931F93CF9323
:1005B000DF931F92CDB7DEB790E00496982F88277F
:1005C0008C01060F171F0E94B2158FE00E94CE0209
:1005D000812F0E94CE02802F0E94CE0280E00E94D6
:1005E000CE0289830E94B01589810F90DF91CF914F
:1005F0001F910F910895CF93C82F80E590E00E943E
:10060000F70163E070E08C2FCF910C94D5021F921C
:100610000F920FB60F9211242F933F934F935F9336
:100620006F937F938F939F93AF93BF93EF93FF93BA
:100630008091B900887F803609F49CC068F58832C3
:1006400009F45BC090F4803109F454C038F4882375
:1006500009F4F6C0883009F44DC0F6C0883109F4B9
:100660004CC0803209F45DC0EFC0803409F468C02A
:1006700048F4803309F455C0883309F0E5C080930D
:10068000FC03D8C0803509F44FC0883509F45DC03B
:10069000883409F0D9C0D6C0883909F4C7C0A8F495
:1006A000883709F467C038F4883609F463C08037A6
:1006B00009F460C0C9C0883809F4B8C0803909F4A9
:1006C0005FC0803809F0C0C05BC0803B09F486C0C1
:1006D00038F4803A09F466C0883A09F47FC0B4C09F
:1006E000803C09F4A7C0883C09F4A4C0883B09F405
:1006F0008AC0AAC08091D90310C09091FB03809159
:10070000FA03981770F5E091FB0381E08E0F809358
:10071000FB03F0E0E652FC4F80818093BB0085EC48
:1007200086C08093FC038EC0E091FB0381E08E0FB6
:100730008093FB038091BB00F0E0E652FC4F808386
:100740009091FB038091FA036EC0E091FB0381E07E
:100750008E0F8093FB038091BB00F0E0E652FC4FCC
:1007600080838091200481116DC081E080931F04FB
:1007700084EA61C083E0809321041092D803CFCF34
:100780008091D803803208F051C0E091D80381E015
:100790008E0F8093D8038091BB00F0E0E854FC4FAB
:1007A0008083BDCF85EC8093BC00109221048091A2
:1007B000D803803230F4E091D803F0E0E854FC4FE5
:1007C00010826091D80370E0E091B603F091B70316
:1007D00088EB93E009951092D80336C084E08093AB
:1007E00021041092B5031092B403E091B203F0918A
:1007F000B30309958091B403811105C081E0809312
:10080000B40310929203E091B50381E08E0F8093C0
:10081000B503F0E0EE56FC4F80818093BB009091D1
:10082000B5038091B403981708F479CF85E88093D5
:10083000BC000AC085EC8093BC001092210404C067
:100840001092FC030E943901FF91EF91BF91AF918B
:100850009F918F917F916F915F914F913F912F91D8
:100860000F900FBE0F901F90189508952F923F92F2
:100870004F925F926F927F928F929F92AF92BF92B0
:10088000CF92DF92EF92FF920F931F93CF93DF935C
:10089000CDB7DEB7CF5AD1090FB6F894DEBF0FBE81
:1008A000CDBF1C01FC01828193810E94D509F10119
:1008B000248135818217930781F026813781821741
:1008C000930759F021E6622E22E0722E3AE6A32E1B
:1008D00032E0B32E03E712E00AC08CE7682E82E014
:1008E000782E95E8A92E92E0B92E0EE812E0CE01FE
:1008F00049960E942E1BF101828193810E943C1B2C
:100900005C8FF101828193810E943C1BC256DF4FB4
:100910007883CE59D040C156DF4F8883CF59D0401D
:10092000C256DF4F88819981CE59D0409F8F8E8FDC
:10093000F101828193810E943C1B6D8FF1018281C4
:1009400093810E943C1B792F98A3C801C155DF4FAA
:100950007883CF5AD0400E947F24E82E898FC80127
:1009600003960E947F24F82E8A8FC80106960E9463
:100970007F24282F8B8F87013C8D4D8D5E8D6F8D51
:10098000C155DF4F7881CF5AD040F10182819381E8
:100990000E94B31AC555DF4F688379838A839B838E
:1009A000CB5AD040CE0141960E942E1BF10182818C
:1009B00093810E943C1B5C8BF101828193810E9498
:1009C0003C1BEF967FAFEF97C158DF4F8883CF571F
:1009D000D040C258DF4F88819981CE57D0409F8B3D
:1009E0008E8BF101828193810E943C1B6D8BF10102
:1009F000828193810E943C1B792F988F87E992E036
:100A0000C155DF4F7883CF5AD0400E947F24082FF2
:100A1000898B8AE992E00E947F24182F8A8B8DE9C6
:100A200092E00E947F24282F8B8B3C894D895E8920
:100A30006F89C155DF4F7881CF5AD040F101828153
:100A400093810E94B31A6B017C01CE0109960E942A
:100A50002E1BF101828193810E943C1B5C87F10176
:100A6000828193810E943C1B6F967FAF6F97A09607
:100A70008FAFA097A0968EAD9FADA0979F878E87D2
:100A8000F101828193810E943C1B6D87F10182817B
:100A900093810E943C1B792F988BC501C155DF4F74
:100AA0007883CF5AD0400E947F24082F8987C501C0
:100AB00003960E947F24182F8A87C50106960E94FC
:100AC0007F24282F8B873C854D855E856F85C1559A
:100AD000DF4F7881CF5AD040F101828193810E940B
:100AE000B31A4B015C01CE0101960E942E1BF1014D
:100AF000828193810E943C1B5C83F10182819381FE
:100B00000E943C1B7EAF8FAF8EAD9FAD9F838E83C7
:100B1000F101828193810E943C1B6D83F1018281EE
:100B200093810E943C1B792F9887C301C155DF4FE9
:100B30007883CF5AD0400E947F24082F8983C30135
:100B400003960E947F24182F8A83C30106960E9471
:100B50007F24282F8B83F1010280F381E02DC7557C
:100B6000DF4FF983E883C95AD0403C814D815E81D3
:100B70006F81C155DF4F7881CF5AD040CF010E949D
:100B8000B31A2B013C01C755DF4F88819981C95A9F
:100B9000D0400E943C1B89019A01AB01BC01F101CC
:100BA000828193810E94B31A461657066806790619
:100BB000FCF086169706A806B906C4F0C616D70636
:100BC000E806F906ACF031E020E0C555DF4FE880DB
:100BD000F9800A811B81CB5AD040E616F706080738
:100BE00019070CF430E0832F922F04C080E001C07D
:100BF00081E090E0C155DF4F0FB6F894DEBF0FBE25
:100C0000CDBFDF91CF911F910F91FF90EF90DF90BB
:100C1000CF90BF90AF909F908F907F906F905F909C
:100C20004F903F902F9008950895CF93DF93EC015C
:100C300060EA72E087E594E00E94B60881E090E007
:100C40009B838A8360E08BE0DF91CF910C94600CF2
:100C500008958F929F92AF92BF92CF92DF92EF92C0
:100C6000FF920F931F93CF93DF93EC018C819D81B3
:100C70000E94901D8C819D810E94980A6B017C01CD
:100C800020E030E040E251E40E94D82618160CF033
:100C9000D7C020E030E040E252E4C701B6010E9434
:100CA000A52487FFCDC040E060E08E819F810E9437
:100CB0009F026A857B858E819F810E94120840E099
:100CC00068E08E819F810E949F020E811F81A70193
:100CD0009601C701B6010E94DD26882319F06BEA50
:100CE00072E01AC046015701E894B7F82FEF3FEFC2
:100CF0004FE75FE7C501B4010E94DD26811110C0F6
:100D00002FEF3FEF4FE75FE7C501B4010E94A52435
:100D1000181634F46FEA72E0C8010E94120878C015
:100D20002FEF3FEF4FE75FE4C701B6010E94D826DF
:100D3000181654F02FEF3FEF4FE75FECC701B601F5
:100D40000E94A52487FF03C063EB72E0E5CF20E09B
:100D500030E0A901C701B6010E94A52487FF08C0A1
:100D60006DE2C8010E940B08F7FAF094F7F8F094CE
:100D70002AE037ED43EA5BE3C701B6010E943D2656
:100D80004B015C010E94A9266B017C010E94AA24F0
:100D90009B01AC01C501B4010E943C264B015C01E2
:100DA0002AE0B701A601C8010E9427086EE2C80127
:100DB0000E940B0820E030E040E251E4C501B4019C
:100DC0000E940B254B015C010E94A9266B01E12CBE
:100DD000F12C2AE0B701A601C8010E942708C7012B
:100DE000B6010E94AA249B01AC01C501B4010E9476
:100DF0003C2620E030E040E251E40E940B250E94B6
:100E0000A926AB0160E070E02AE0C8010E94270833
:100E100040E06EE08E819F810E949F0267EB72E04E
:100E20008E819F81DF91CF911F910F91FF90EF9065
:100E3000DF90CF90BF90AF909F908F900C9412084E
:100E4000DF91CF911F910F91FF90EF90DF90CF90A6
:100E5000BF90AF909F908F9008950895CF92DF92AA
:100E6000EF92FF920F931F93CF93DF936C017A0160
:100E70008B01C0E0D0E0CE15DF0589F0D8016D917F
:100E80008D01D601ED91FC910190F081E02DC6011C
:100E90000995892B11F47E0102C02196ECCFC70180
:100EA000DF91CF911F910F91FF90EF90DF90CF9046
:100EB0000895FC01538D448D252F30E0842F90E060
:100EC000821B930B541710F0CF9608950197089545
:100ED000FC01918D828D981761F0828DDF01A80F42
:100EE000B11D5D968C91928D9F5F9F73928F90E064
:100EF00008958FEF9FEF0895FC01918D828D9817D3
:100F000031F0828DE80FF11D858D90E008958FEF0F
:100F10009FEF0895FC01918D228D892F90E0805CD8
:100F20009F4F821B91098F739927089587E594E05D
:100F30000E948A0721E0892B09F420E0822F08957E
:100F40000E941329EF92FF920F931F93CF93DF9389
:100F5000EC0181E0888F9B8D8C8D981305C0E8890A
:100F6000F989808185FD24C0F62E0B8D10E00F5F7E
:100F70001F4F0F731127E02E8C8DE8120CC00FB697
:100F800007FCFACFE889F989808185FFF5CFCE018A
:100F90000E94921AF1CF8B8DFE01E80FF11DE35AEA
:100FA000FF4FF0820B8FEA89FB898081806207C046
:100FB000EE89FF896083E889F98980818064808374
:100FC00081E090E0DF91CF911F910F91FF90EF9022
:100FD0000895CF93DF93EC01888D8823C9F0EA89C7
:100FE000FB89808185FD05C0A889B9898C9186FD22
:100FF0000FC00FB607FCF5CF808185FFF2CFA8891F
:10100000B9898C9185FFEDCFCE010E94921AE7CF6E
:10101000DF91CF910895DC01ED91FC910190F08179
:10102000E02D09946115710579F0FB010190002014
:10103000E9F73197AF01461B570BDC01ED91FC91AD
:101040000280F381E02D099480E090E008954F92B2
:101050005F926F927F92EF92FF920F931F93CF93C5
:10106000DF93CDB7DEB7A1970FB6F894DEBF0FBE02
:10107000CDBF7C01FA01CB0119A2223008F42AE08D
:101080008E010F5D1F4F422E512C612C712CBF0120
:10109000A30192010E940B26F901CA010150110916
:1010A0006A3014F4605D01C0695CD8016C93232B35
:1010B000242B252B61F7B801C7010E941208A196C5
:1010C0000FB6F894DEBF0FBECDBFDF91CF911F9159
:1010D0000F91FF90EF907F906F905F904F900895E9
:1010E0008F929F92AF92BF92CF92DF92EF92FF9238
:1010F0000F931F93CF93DF937C018B016C0182E0F0
:10110000C80ED11C4701E5E08E0E911CC0E0D0E076
:10111000F60141916F0150E060E070E02AE0C80103
:101120000E9427085C016EE2C8010E940B088A0D2C
:101130009B1DC80FD91FC814D90451F7F701458169
:1011400050E060E070E02AE0C8010E9427088C0FA0
:101150009D1FDF91CF911F910F91FF90EF90DF9036
:10116000CF90BF90AF909F908F9008950F931F9353
:10117000CF93DF93EC010E9412088C0169EB72E0BF
:10118000CE010E941208800F911FDF91CF911F9115
:101190000F9108951F920F920FB60F9211242F9363
:1011A0003F934F935F936F937F938F939F93AF93EF
:1011B000BF93EF93FF9387E594E00E94921AFF910B
:1011C000EF91BF91AF919F918F917F916F915F91BF
:1011D0004F913F912F910F900FBE0F901F90189538
:1011E0001F920F920FB60F9211242F938F939F93FC
:1011F000EF93FF93E0916704F09168048081E091A0
:101200006D04F0916E0482FD12C090818091700493
:101210008F5F8F7320917104821751F0E0917004F9
:10122000F0E0E95AFB4F958F8093700401C08081F4
:10123000FF91EF919F918F912F910F900FBE0F9083
:101240001F901895833081F028F4813099F0823016
:10125000A1F008958730A9F08830B9F08430D1F436
:10126000809180008F7D03C0809180008F77809374
:101270008000089584B58F7702C084B58F7D84BDCA
:1012800008958091B0008F7703C08091B0008F7D6A
:101290008093B00008953FB7F894809148049091EE
:1012A0004904A0914A04B0914B0426B5A89B05C0FF
:1012B0002F3F19F00196A11DB11D3FBFBA2FA92FD5
:1012C000982F8827820F911DA11DB11DBC01CD0152
:1012D00042E0660F771F881F991F4A95D1F708953E
:1012E0000F931F93CF93DF93CDB7DEB728970FB639
:1012F000F894DEBF0FBECDBF8C01CE0101960E94D7
:101300002E1BC8010E943C1B3A834B832A3010F4E9
:1013100080E305C0822F6AE00E94E226805D809310
:1013200006013AE0822F632F0E94E226905D90939F
:1013300007018AE3809308012A812A3010F480E3B0
:1013400005C0822F632F0E94E226805D80930901F1
:101350003AE0822F632F0E94E226905D90930A016B
:101360008AE380930B012B812A3010F480E305C0BF
:10137000822F632F0E94E226805D80930C01822FD2
:101380006AE00E94E226905D90930D0110920E019A
:1013900086E091E028960FB6F894DEBF0FBECDBF71
:1013A000DF91CF911F910F9108950F931F93CF93CA
:1013B000DF93CDB7DEB766970FB6F894DEBF0FBEEA
:1013C000CDBF8C019EE0EFE3F1E0DE0111960190CC
:1013D0000D929A95E1F7CE010F960E942E1BC8013F
:1013E0000E943C1B9E012F5F3F4F290F311D290F8B
:1013F000311DF90132978081918166960FB6F8947C
:10140000DEBF0FBECDBFDF91CF911F910F91089529
:10141000AF92BF92CF92DF92EF92FF920F931F9302
:10142000CF93DF931F92CDB7DEB75C01D62EE72EA8
:10143000FC018585811105C0C5010E94E71281115B
:1014400006C0F50113861586148680E065C040E06D
:1014500060EFC5010E94FD1C01E0F12CC12C11E0E0
:10146000C5010E946C1D682FC50169830E946C1D17
:101470006981613019F48130B9F433C04F2D50E0E7
:1014800068131BC0F5018385181730F4E40FF51FAE
:101490008381802349F402C0181731F060E01930CD
:1014A00058F4F501148708C0F501EF0DF11D838193
:1014B000802B838361E009C0C12EF501E40FF51F85
:1014C0009381802F809589238383C5010E94B81260
:1014D0001F5F000F11F4F39401E0F7E0FF1508F02F
:1014E000BFCF113408F4ADCFF501C386C11002C0DF
:1014F00081E08587F5018381882309F4A2CFD50196
:101500001396ED2DFE2D9501255F3F4F8D91819313
:10151000A217B307D9F781E00F90DF91CF911F9108
:101520000F91FF90EF90DF90CF90BF90AF90089514
:101530000F931F93CF93DF93CDB7DEB761970FB6AD
:10154000F894DEBF0FBECDBF8C0140E0BE01665FE8
:101550007F4F0E94C11C811105C060E070E08EEFDA
:1015600092EC4BC0AE014F5F5F4FBE01665F7F4F95
:10157000C8010E94001E882359F1698148E0649FD8
:10158000B00111248A81282F30E0322F2227330F17
:10159000330F330F262B372B8A858031E1F4688592
:1015A00070E08F81AB01481B5109CA019695982FB5
:1015B0008827979587950E94EE2660517109207FB4
:1015C00053E0220F331F5A95E1F7620F731F04C0D7
:1015D00060E874EE01C0B901613854EE75070CF48F
:1015E000BCCF072E000C880B990B0E94AC2420E086
:1015F00030E040E05CE30E940B2561960FB6F89462
:10160000DEBF0FBECDBFDF91CF911F910F91089527
:10161000E7E5F4E0A089B18982E08C93A485B585E3
:101620001C92A685B7858FEC8C93108EA489B58902
:1016300086E08C93A289B3898C9180618C93A28976
:10164000B3898C9188608C93A289B3898C918068CE
:101650008C930288F389E02D80818F7D80830895AB
:10166000CF93C82F462F61E070E00E94D20161E065
:1016700070E08C2F0E94D5028111F9CFCF9108958F
:10168000CF93DF93CDB7DEB729970FB6F894DEBFBF
:101690000FBECDBFAE014F5F5F4FBC0185E495E04B
:1016A0000E94001E882389F08D818F3361F020F421
:1016B0008F3159F489E00CC08F3519F08F3739F02C
:1016C00004C08BE005C08AE003C080E001C08CE06C
:1016D00029960FB6F894DEBF0FBECDBFDF91CF9134
:1016E00008959F92AF92BF92CF92DF92EF92FF92B6
:1016F0000F931F93CF93DF93982E8B015A016901AB
:1017000064E270E00E94D502E82EF12C65E270E000
:10171000892D0E94D502FE2CEE24E82AE701C00F95
:10172000D11F9E013770E92CF12CC701880F991F3A
:10173000AC014D5C5B4F7A01FA0180819181820F8F
:10174000931FA9014C0D5D1D4130584090F000E001
:1017500018E0021B130BA801B5010E94E415A601B5
:10176000401B510BB501600F711FF7018081918102
:1017700002C0A601B5010E94E415CC0DDD1D4D2F60
:1017800064E270E0892D0E94D2014C2F65E270E086
:10179000892DDF91CF911F910F91FF90EF90DF90F6
:1017A000CF90BF90AF909F900C94D201FF920F9377
:1017B0001F93CF93DF93F82EC0E0D0E08F2D0E94CF
:1017C00035168C01892B21F08F2D0E943516EC01E6
:1017D000C017D10799F7CE01DF91CF911F910F91DB
:1017E000FF900895AF92BF92CF92DF92EF92FF9257
:1017F0000F931F93CF93DF9300D0CDB7DEB77A83DB
:101800006983BA01A901E981FA81F770082F10E014
:10181000000F111F055C1B4FD8018D919C918E0FFD
:101820009F1F2E0F3F1F2130384098F07A015B0137
:1018300020E038E06901CE1ADF0AA6010E94B41543
:10184000A7014C195D09B5016C0D7D1DF801808162
:1018500091810F900F90DF91CF911F910F91FF9089
:10186000EF90DF90CF90BF90AF900C94B415CF93D2
:10187000DF93282F30E0F901EE58FF4F8491F901F2
:10188000E255FE4FD491F901E656FE4FC491CC23A8
:1018900091F081110E942209EC2FF0E0EE0FFF1F62
:1018A000E057FE4FA591B491EC91ED2381E090E0DB
:1018B00021F480E002C080E090E0DF91CF910895B4
:1018C0001F93CF93DF93282F30E0F901EE58FF4F9D
:1018D0008491F901E255FE4FD491F901E656FE4F8D
:1018E000C491CC23C9F0162F81110E942209EC2F3C
:1018F000F0E0EE0FFF1FE859FF4FA591B4918FB7AD
:10190000F894111105C09C91ED2FE095E92302C0D8
:10191000EC91ED2BEC938FBFDF91CF911F91089548
:10192000CF93DF9390E0FC01E255FE4F2491FC0140
:10193000E656FE4F8491882361F190E0880F991F4D
:10194000FC01EA57FF4FC591D491FC01E859FF4FC4
:10195000A591B491611109C09FB7F8948881209531
:1019600082238883EC912E230BC0623061F49FB7F1
:10197000F8943881822F809583238883EC912E2BD5
:101980002C939FBF06C08FB7F894E8812E2B288335
:101990008FBFDF91CF91089580916705823101F566
:1019A000809166058331E1F481E080936F0561E009
:1019B00082E10E94600C61E083E10E94600C8091F2
:1019C000B9008E7F8093B9008091B9008D7F80939C
:1019D000B9008CE08093B80085E08093BC00089546
:1019E00010926F0561E0809166050C94900C8F92C7
:1019F0009F92AF92BF92CF92DF92EF92FF926B01D4
:101A00007C010E944B094B015C01C114D104E1042B
:101A1000F104F1F00E944B09DC01CB01881999090E
:101A2000AA09BB09883E9340A105B10570F321E0E6
:101A3000C21AD108E108F10888EE880E83E0981EEA
:101A4000A11CB11CC114D104E104F10419F7DDCFCC
:101A5000FF90EF90DF90CF90BF90AF909F908F90CE
:101A60000895CF92DF92EF92FF920F931F93CF933F
:101A7000DF93CDB7DEB7C254D1090FB6F894DEBFFD
:101A80000FBECDBFFC0182819381A481B5812396D5
:101A90008CAF9DAFAEAFBFAF239721E023962FAFA2
:101AA000239723964CAD5DAD6EAD7FAD23974BABC9
:101AB0005CAB6DAB7EAB89AF9AAFABAFBCAF8DA764
:101AC0009EA7AFA7B8AB28AB4DA55EA56FA578A91B
:101AD0004FA358A769A77AA72EAB4BA95CA96DA9FC
:101AE0007EA949A35AA36BA37CA38B8F9C8FAD8F38
:101AF000BE8F49E552E05C8B4B8B3FEF3D8B3E8BBD
:101B00003F8B188E5E874D872AA7CFA0D8A4E9A463
:101B1000FAA4CF86D88AE98AFA8A2CA309A11AA145
:101B20002BA13CA109871A872B873C875A834983BD
:101B30008B839C83AD83BE836CE271E080E090E098
:101B40000E94F70C1FB7F89480914C04811127C0B4
:101B5000E4EAF1E08491E8EBF1E09491E82FF0E021
:101B6000EE0FFF1FEA57FF4FA591B491EC91E923C7
:101B700021F461E08AE00E94600C61E08AE00E944A
:101B8000900C8CB580618CBD8CB580648CBD61E09F
:101B90008DE00E94900C61E08BE00E94900C80919F
:101BA0004C048F5F80934C041FBF229A80E590E025
:101BB0000E94F70160E880E090E00E94131665E55E
:101BC0008BE190E00E94131665E58AE190E00E94A7
:101BD00013160E94F60180E090E490933404809301
:101BE000330480E090E690933C0480933B0480E0D3
:101BF00098E4909336048093350480E098E69093BF
:101C00003E0480933D0480E090E5909338048093F7
:101C1000370480E090E79093400480933F0480E095
:101C200098E590933A048093390480E098E7909384
:101C300042048093410480E590E00E94F70146E071
:101C400050E060E071E089E090E00E94E41544E03B
:101C500050E0BE016D5F7F4F8FE090E00E94E41581
:101C600044E050E0BE01615F7F4F81E090E00E9460
:101C7000E41544E050E0BE016B5E7F4F85E090E0EC
:101C80000E94E4150E94F60181E08C8789859A857F
:101C9000AB85BC858093F6049093F704A093F80479
:101CA000B093F904CE5BDF4F0FB6F894DEBF0FBEE2
:101CB000CDBFDF91CF911F910F91FF90EF90DF90FB
:101CC000CF900895CF93DF93823028F090913E0516
:101CD000986090933E058093410562E370E080E058
:101CE00090E00E94F70C6091440589E395E00E9422
:101CF000FA0168EE73E080E090E00E94F70C60E388
:101D000089E395E00E945F02CBE4D6E4CE0101971F
:101D1000F1F760E389E395E00E945F022197F1F714
:101D200060E389E395E00E945F0283E592E001971A
:101D3000F1F760E289E395E00E945F0260913E0561
:101D4000606240E089E395E00E94780284E080933D
:101D50003F0540E06CE089E395E00E94780240E0B6
:101D600061E089E395E00E947802CBE3DFE1CE01F8
:101D70000197F1F782E08093400540E066E089E357
:101D800095E00E94780240E062E089E395E00E94DD
:101D900078022197F1F7DF91CF9108952FB7F8944A
:101DA00060914404709145048091460490914704E9
:101DB0002FBF08951F920F920FB60F9211242F93E9
:101DC0003F938F939F93AF93BF93809144049091DF
:101DD0004504A0914604B09147043091430423E0A8
:101DE000230F2D3720F40196A11DB11D05C026E853
:101DF000230F0296A11DB11D209343048093440438
:101E000090934504A0934604B093470480914804FE
:101E100090914904A0914A04B0914B040196A11DF0
:101E2000B11D8093480490934904A0934A04B09351
:101E30004B04BF91AF919F918F913F912F910F9044
:101E40000FBE0F901F9018950895CF93DF931F92A8
:101E5000CDB7DEB76983DC01ED91FC910280F3819F
:101E6000E02D41E050E0BE016F5F7F4F09950F907C
:101E7000DF91CF910895FC01818D928D0895FC0131
:101E800084899589089529E532E0FC013183208316
:101E9000FB014089518962897389FC014283538324
:101EA000648375830895DC01ED91FC91048CF58DBC
:101EB000E02D0994CF93DF931F92CDB7DEB76983EE
:101EC000DC01ED91FC910280F381E02D41E050E0D6
:101ED000BE016F5F7F4F09950F90DF91CF910895FD
:101EE000BF92CF92DF92EF92FF920F931F93CF9307
:101EF000DF9300D000D000D0CDB7DEB7FC01208D3D
:101F0000243009F04CC06A017B018C01B12C63E0E4
:101F100070E08B2D0E94D502811103C0F801B08EB4
:101F200006C08831D9F3B394F4E0BF12F0CFF801C2
:101F3000808D8430A1F196E0EDE4F1E0DE011196B0
:101F400001900D929A95E1F7F70193819F779C8319
:101F500094819D8395819E83B7016E5F7F4F0E9420
:101F6000ED01B601F801808D0E94DC01F801808D41
:101F700090E0982F882746E050E0BE016F5F7F4FCA
:101F80008A5F9B4F0E94E415F801128E118E20E8A3
:101F9000A60162E0808D0E941E1781E001C080E0F2
:101FA00026960FB6F894DEBF0FBECDBFDF91CF915E
:101FB0001F910F91FF90EF90DF90CF90BF90089509
:101FC000CF93DF931F92CDB7DEB7FC01218D328D09
:101FD000232B49F0BE016F5F7F4F808D0E944D160D
:101FE000898190E002C08FEF9FEF0F90DF91CF913A
:101FF0000895CF93DF93FC01218D328D211531059A
:1020000019F48FEF9FEF11C0EC014217530708F04E
:10201000A901888D0E949A161816190694F7298D21
:102020003A8D281B390B3A8F298FDF91CF91089574
:102030000F931F93CF93DF931F92CDB7DEB7FC01B1
:10204000218D328D232B61F08C0141E050E0BE01E7
:102050006F5F7F4F808D0E949A16181619061CF02C
:102060008FEF9FEF08C0F801818D928D0197928FBD
:10207000818F898190E00F90DF91CF911F910F9117
:1020800008950F931F93CF93DF93CDB7DEB72897B3
:102090000FB6F894DEBF0FBECDBF8C01F801818D65
:1020A000928D892B49F0D801ED91FC910284F38542
:1020B000E02DC8010995F2CF808D0E947816181680
:1020C00019065CF548E050E0BE016F5F7F4FD80114
:1020D00058968C910E949A169C0118161906DCF4E9
:1020E00089819A81AB81BC81F801808B918BA28B15
:1020F000B38B8D8190E0982F88272E81820F911DC0
:10210000958B848B2F8130E0322F22278885280FF2
:10211000311D328F218FC90102C080E090E02896E6
:102120000FB6F894DEBF0FBECDBFDF91CF911F91E8
:102130000F910895AF92BF92CF92DF92FF920F93CB
:102140001F93CF93DF938C015B01EA01FC01C688EA
:10215000D788F08C80E590E00E94F7018F2D0E94D7
:10216000D60B8C179D0720F48F2D0E94D60BEC0107
:102170009E01A501B6018F2D0E94710B0E94F601F0
:10218000F801868997898C0F9D1F978B868BCE01CE
:10219000DF91CF911F910F91FF90DF90CF90BF9073
:1021A000AF900895FF920F931F93CF93DF93FB019E
:1021B000DC0157961C921E9256975896FC9082818D
:1021C000811109C08381811106C08481811103C0FE
:1021D00085818823C1F041155105A9F08A01EF01DD
:1021E00080E590E00E94F701BE016E5F7F4F8F2D6A
:1021F0000E94ED01B8018F2D0E94DC010E94F601C2
:1022000081E090E002C080E090E0DF91CF911F91EB
:102210000F91FF900895CF93FC01C08D80E590E071
:102220000E94F70160E270E08C2F0E94300B62E0A8
:1022300070E08C2F0E94D50284FD19C062E070E02E
:102240008C2F0E94D50283FF0BC048E162E070E052
:102250008C2F0E94D2010E94F60180E090E011C014
:102260000E94F60180E590E00E94F701E0CF40E196
:1022700062E070E08C2F0E94D2010E94F60181E0A2
:1022800090E0CF910895CF92DF92EF92FF920F935B
:102290001F93CF93DF93CDB7DEB7AF970FB6F89408
:1022A000DEBF0FBECDBF7C016A0109E512E01A83D3
:1022B00009831C861B8688EE93E0A0E0B0E08D8742
:1022C0009E87AF87B88B8FE791E09A878987188FB1
:1022D0000F8B198E1A8E1B8E1C8E84E089A31DA372
:1022E0000CA31EA21FA218A619A68091F604909115
:1022F000F704A091F804B091F9048CA79DA7AEA7AC
:10230000BFA78B839C83AD83BE8318861F82AE01DB
:102310004C5D5F4FCE0101960E94351381309105CF
:10232000B1F4D701ED91FC910488F589E02D1BA74C
:102330000AA78EA19FA1A8A5B9A58CA79DA7AEA706
:10234000BFA7A601BE01665D7F4FC7010995AF9685
:102350000FB6F894DEBF0FBECDBFDF91CF911F91B6
:102360000F91FF90EF90DF90CF900895CF93DF9380
:10237000EC01888D843061F00E940A17E88DF0E04E
:10238000EE0FFF1FE35BFB4F1182108284E0888F0A
:10239000DF91CF910895EF92FF921F93CF93DF9338
:1023A000FC01208D243011F080E01CC07B01EC0189
:1023B00010E0812F0E94FB02811102C0188F05C01E
:1023C0008831E1F31F5F1430A1F7888D843061F309
:1023D000FD86EC861A8E198E20E0A70162E00E942D
:1023E0001E1781E0DF91CF911F91FF90EF9008952C
:1023F0002F923F924F925F926F927F928F929F9215
:10240000AF92BF92CF92DF92FF920F931F93CF9321
:10241000DF93CDB7DEB761970FB6F894DEBF0FBE7E
:10242000CDBF8C015B014A018DE494E09F878E87CC
:10243000998B888BF12CC12CD12C38EE432E33E0B4
:10244000532E612C712C4BE1242E42E0342E1C8241
:102450001B824D825E826F8278863A822982FD8657
:10246000E889F98921913191F98BE88BD80114968B
:102470008D919C91159728173907B9F4CE010196D3
:102480000E94D718843171F0CE0101960E94D718AE
:102490008C3159F4CE0101960E94DC17892B09F486
:1024A00059C003C0CC24C394D12CF394B4E0FB12E4
:1024B000CECFCD2841F4D801ED91FC910084F18577
:1024C000E02DC8010995F12C612C712C88EE282E85
:1024D00083E0382E412C512C9BE1C92E92E0D92E5D
:1024E0001C821B822D823E824F825886DA82C982EC
:1024F000FD86EE85FF8521913191FF87EE87D8011A
:1025000014968D919C9115972817390731F4CE01B7
:1025100001960E94D718873111F1F394B4E0FB12B1
:10252000DFCFC30161960FB6F894DEBF0FBECDBFFB
:10253000DF91CF911F910F91FF90DF90CF90BF90CF
:10254000AF909F908F907F906F905F904F903F9053
:102550002F900895CE0101960E947019A6CFA40174
:10256000B501CE0101960E94E517680E791ED5CF00
:10257000FC0190810180F281E02D892F809560FF20
:1025800012C0F8942281822382838181892B8183E6
:10259000A3E2B0E01197F1F78281982B92837894AF
:1025A00087ED90E011C0F89422818223828381819B
:1025B000892B8183AFEFB0E01197F1F78281982BDF
:1025C000928378948FE090E00197F1F70895FC01F1
:1025D00090810180F281E02DF8948181292F20954E
:1025E0008223818378948DE743E050E0815021F18C
:1025F000DA011197F1F730813923C1F3F894828120
:10260000822382838181892B81837894ABE7B7E031
:102610001197F1F7F894818128232183A3E1B1E098
:102620001197F1F78081982381E009F080E0789498
:10263000E3E6F6E03197F1F708951F93CF93DF9328
:10264000182F66E270E00E94D502C82FD0E067E242
:1026500070E0812F0E94D502DC2FCC279E01282B11
:10266000C901DF91CF911F9108952F923F924F9210
:102670005F926F927F928F929F92AF92BF92CF9212
:10268000DF92EF92FF920F931F93CF93DF93CDB71B
:10269000DEB765970FB6F894DEBF0FBECDBF7C01E5
:1026A0006B013A01FB0120E080E090E06AE03191AB
:1026B000332309F140ED430F4A3080F4689FA001B5
:1026C000699F500D1124CA01C097830F911D37FDDA
:1026D0009A958F3F910559F350F313C03E3289F418
:1026E000233079F0D301A20FB11D12968C932F5F86
:1026F00080E090E0DCCF233021F4F301858381E09A
:1027000021C0F70142815381648175818091FE046B
:102710009091FF04A0910005B09101054817590759
:102720006A077B0709F49EC10E94CE0E8701085FED
:102730001F4F6F7077277C5FC8010E94CB118130DB
:1027400019F080E090E0F3C189E592E09A838983F3
:10275000F70182819381A481B5818B839C83AD83B2
:10276000BE8345E350E0BE016F5F7F4FC8010E940A
:10277000D210892B19F4C12CD12C6FC10E94CE0E1E
:10278000F701778366837627672776277A836983BD
:1027900042E050E0BE016F5F7F4FC8010E949A1077
:1027A00081E090E09E878D8742E050E0BE01635F4C
:1027B0007F4FC8010E949A1080E091E09E878D872C
:1027C00042E050E0BE01635F7F4FC8010E949A1053
:1027D0001E861D8642E050E0BE01635F7F4FC80148
:1027E0000E949A1042E050E0BE01635F7F4FC80133
:1027F0000E949A1042E050E0BE01635F7F4FC80123
:102800000E949A105601F5018081882311F1F6018A
:102810005F018191811115C045018C189D08181424
:10282000190494F48F8641E050E0BE01615F7F4F50
:10283000C8010E949A10A401B601C8010E949A1012
:1028400003C08E3229F7E8CF6501FFEFCF1ADF0A08
:10285000DACF1F8641E050E0BE01615F7F4FC801C3
:102860000E949A10C12CDD24D394DE86CD8642E0EE
:1028700050E0BE01635F7F4FC8010E949A10DE8660
:10288000CD8642E050E0BE01635F7F4FC8010E94E9
:102890009A10C8010E940B11892B09F46CCF63E0D8
:1028A000A62EB12CF2E06F0E711C0E94CE0E1B0101
:1028B0002C01C8010E94411018161906A4F00E94AC
:1028C000CE0EDC01CB0182199309A409B509893820
:1028D0009341A105B105D0F462E370E080E090E09F
:1028E0000E94F70CE6CFF701428153816481758124
:1028F000808D918DA28DB38D481759076A077B078C
:1029000041F4848D958DC59721F406C02FEF3FEFDC
:102910009AC02EEF3FEF97C0F70181A192A10C97CB
:102920000CF4A6C04CE050E0BE016F5F7F4FC801C1
:102930000E94F90F8B8190E0982F88272C81822BA1
:102940009A8B898B298130E0322F22274A81242BD0
:10295000F701468157814217530709F086C097FF58
:1029600084C08F709270892B09F0DEC0CF80D12C8B
:10297000DC2CCC248885C82AC114D10409F4D1C028
:10298000812C912C8D8190E0982F88272E81822B8D
:102990008816990608F46FC0812C912C41E050E014
:1029A000BE016D5E7F4FC8010E94F90F8B89982F81
:1029B000907C09F093C0811186C08B898111EECF84
:1029C00042E050E0BE01615F7F4FC8010E94F90FF5
:1029D00042E050E0BE01635F7F4FC8010E94F90FE3
:1029E000C8010E941810C8010E941810C8010E9456
:1029F0001810C8010E94181042E050E0BE016F5E3E
:102A00007F4FC8010E94F90F8F85988981159140E9
:102A100009F069C02D853E853227232732272130D2
:102A2000310509F060C089899A898115944009F0BF
:102A300075C044E050E0B301C8012C8B3D8B0E946F
:102A4000F90F2C893D896901F1E0AF1AB10829F02D
:102A50002FEFC216D20609F428CFC8010E94B61182
:102A6000C60165C08EEF9FEF62C02CEF3FEFEBCF4A
:102A70002DEF3FEFE8CF41E050E0BE01635F7F4FB5
:102A8000C8010E94F90F8D85811113C08D858111B8
:102A9000F2CFC8010E941810C8010E941810C80186
:102AA0000E941810C8010E941810FFEF8F1A9F0A89
:102AB00069CF8D859FEF980F9D87882339F3C801D3
:102AC0000E941810F6CF8B899FEF980F9B8B88235D
:102AD00009F473CFC8010E941810F5CFC8010E94F5
:102AE00018101B8A6ACF412C512C89899A89982702
:102AF000892798274816590638F4C8010E941810EB
:102B00008FEF481A580AF1CFEFEF8E1A9E0A8C14F5
:102B10009D0409F043CF26EF3FEF95CF27EF3FEF1E
:102B200092CF2AEF3FEF8FCF2BEF3FEF8CCF659601
:102B30000FB6F894DEBF0FBECDBFDF91CF911F91CE
:102B40000F91FF90EF90DF90CF90BF90AF909F904C
:102B50008F907F906F905F904F903F902F9008954F
:102B60002A9A08952A980895CF92DF92EF92FF92C1
:102B70000F931F93CF93DF93EC017A018B016C01CC
:102B8000C40ED51ECC15DD05A9F00E94B2158FE04C
:102B90000E94CE028D2F0E94CE028C2F0E94CE0268
:102BA000219680E00E94CE02F80181938F010E945D
:102BB000B015E8CFC701DF91CF911F910F91FF9022
:102BC000EF90DF90CF900895CF92DF92EF92FF9237
:102BD0000F931F93CF93DF93EC017A018B016C016C
:102BE000C40ED51ECC15DD05A1F00E94B21580EFF4
:102BF0000E94CE028D2F0E94CE028C2F0E94CE0208
:102C00002196F80181918F010E94CE020E94B01599
:102C1000E9CFC701DF91CF911F910F91FF90EF9006
:102C2000DF90CF9008951F93CF93DF9300D0CDB75F
:102C3000DEB7182F6A8399830E94B21580EF0E9435
:102C4000CE029981892F0E94CE02812F0E94CE024E
:102C50006A81862F0E94CE020E94B01581E00F90FB
:102C60000F90DF91CF911F9108951F93CF93DF9322
:102C7000182F60E270E00E94D502C82FD0E061E218
:102C800070E0812F0E94D502DC2FCC279E01282BDB
:102C9000C901DF91CF911F910895EF92FF921F9389
:102CA000CF93DF93182F7B0180E590E00E94F7011E
:102CB00068E270E0812F0E94D502C82FD0E069E25F
:102CC00070E0812F0E94D502DC2FCC27BE01682B3B
:102CD00021E030E0A701812F0E94F20B0E94F60153
:102CE00081E090E0DF91CF911F91FF90EF900895E8
:102CF000FF920F931F93CF93DF93F82E80E590E020
:102D00000E94F701C0E0D0E08F2D0E941D138C01BE
:102D1000892B21F08F2D0E941D13EC01C017D107C4
:102D200099F70E94F601CE01DF91CF911F910F918B
:102D3000FF900895AF92BF92DF92EF92FF920F93B0
:102D40001F93CF93DF93D82E7B018A0180E590E01B
:102D50000E94F701C0E0D0E08D2D0E941D135C01A0
:102D6000892B21F08D2D0E941D13EC01CA15DB0566
:102D700099F7209799F463E070E08D2D0E94D502B9
:102D80008431D9F18823C9F1C1E0D0E08C3111F44C
:102D9000C0E0D0E0D195C195D1092FC00C171D0717
:102DA0000CF4E8011C161D0644F568E270E08D2D58
:102DB0000E94D502082F10E069E270E08D2D0E947C
:102DC000D502102F0027082B9E01A701B8018D2DD9
:102DD0000E94F20B0C0F1D1F412F68E270E08D2D39
:102DE0000E94D201402F69E270E08D2D0E94D20135
:102DF00060E470E08D2D0E94300B0E94F601CE0140
:102E0000DF91CF911F910F91FF90EF90DF90BF90D6
:102E1000AF900895CF93C82F80E590E00E94F7010E
:102E200060E170E08C2F0E94300B4FEF62E070E0A9
:102E30008C2F0E94D201CF910C94F601FF920F9338
:102E40001F93CF93DF9300D0CDB7DEB7F82E8A0162
:102E50002A8369830E940A1780E590E00E94F701A7
:102E60002A816981462F422B60E070E08F2D0E94FD
:102E7000D2010115110551F4009155041091560429
:102E80000F5F1F4F1093560400935504412F64E0C9
:102E900070E08F2D0E94D201402F65E070E08F2DF1
:102EA0000E94D20161E070E08F2D0E94300B0E94E1
:102EB000F60181E00F900F90DF91CF911F910F915C
:102EC000FF900895FC019485FB018485981303C04D
:102ED00081E0943009F480E0089521E0FC018485CC
:102EE000843009F420E0822F08950895CF93DF9372
:102EF0001F92CDB7DEB76983DC01ED91FC910280B2
:102F0000F381E02D41E050E0BE016F5F7F4F0995F6
:102F10000F90DF91CF910895DC01ED91FC91068C2B
:102F2000F78DE02D099591E089270895862F089562
:102F300081E0862708950F931F93CF93DF931F920D
:102F4000CDB7DEB78C01DC01ED91FC910084F185F9
:102F5000E02D0995892B51F0BE016F5F7F4FF8017D
:102F600084850E944D16898190E002C08FEF9FEF0B
:102F70000F90DF91CF911F910F910895FC018485EF
:102F80000C949A16CF93DF931F92CDB7DEB741E032
:102F900050E0BE016F5F7F4FFC0184850E949A164E
:102FA000181619061CF4898190E002C08FEF9FEF7C
:102FB0000F90DF91CF910895FC018485843011F04A
:102FC0000C94781680E090E008958F929F92AF92D3
:102FD000BF92CF92DF92EF92FF920F931F93CF9306
:102FE000DF936C015B017A01FC01C485C43041F4BC
:102FF00081E090E0F6019383828380E090E057C007
:103000008A014130584010F000E018E080E590E07F
:103010000E94F7018C2F0E94D60B4C0163E070E0F8
:103020008C2F0E94D502D82F0E94F601D73111F0C3
:10303000DC3121F48016910648F302C000E010E074
:1030400080E590E00E94F7019801A50160E070E042
:103050008C2F0E94710B60E270E08C2F0E94300B6D
:1030600062E070E08C2F0E94D50284FD14C063E002
:1030700070E08C2F0E94D502811106C00E94F601DB
:103080008C2F0E940A17B4CF0E94F60180E590E0D1
:103090000E94F701E5CF40E162E070E08C2F0E94D2
:1030A000D2010E94F601012B09F4A2CFC701DF91E2
:1030B000CF911F910F91FF90EF90DF90CF90BF9035
:1030C000AF909F908F900895CF92DF92EF92FF92F2
:1030D0000F931F93CF93DF93CDB7DEB7AF970FB6A4
:1030E000F894DEBF0FBECDBF7C016A0109E512E096
:1030F0001A8309831C861B8688EE93E0A0E0B0E06B
:103100008D879E87AF87B88B8FE791E09A878987F5
:10311000188F0F8B198E1A8E1B8E1C8E84E089A33C
:103120001DA30CA31EA21FA218A619A68091F60427
:103130009091F704A091F804B091F9048CA79DA791
:10314000AEA7BFA78B839C83AD83BE8318861F82E7
:10315000AE014C5D5F4FCE0101960E943513813068
:103160009105B1F4D701ED91FC910684F785E02D2E
:103170001BA70AA78EA19FA1A8A5B9A58CA79DA74B
:10318000AEA7BFA7A601BE01665D7F4FC701099527
:10319000AF960FB6F894DEBF0FBECDBFDF91CF91D3
:1031A0001F910F91FF90EF90DF90CF900895FC0159
:1031B0008485843011F00C94FB0280E008958F9296
:1031C0009F92AF92BF92CF92DF92EF92FF920F93B6
:1031D0001F93CF93DF93CDB7DEB72D970FB6F8943B
:1031E000DEBF0FBECDBF7C0100E010E038EE832EC5
:1031F00033E0932EA12CB12C4BE1C42E42E0D42E0F
:103200001C821B828D829E82AF82B886DA82C9823E
:103210000D87CE0101960E94D718811125C0F701B4
:103220004481558120E061E0802F0E941E1780E5D7
:1032300090E00E94F70163E070E0802F0E94D502C9
:10324000833129F462E070E0802F0E94300B0E94ED
:10325000F601F70184819581000F111FF801E35BEE
:10326000FB4F9183808305C00F5F1F4F0430110512
:1032700039F62D960FB6F894DEBF0FBECDBFDF91A5
:10328000CF911F910F91FF90EF90DF90CF90BF9063
:10329000AF909F908F900895CF93DF93FC0124858A
:1032A0002430D1F0EC010E94D718843181F08823BA
:1032B00071F0883161F08C3161F4E881F98100842A
:1032C000F185E02DCE01099521E0892B19F420E04C
:1032D00001C021E0822F01C080E0DF91CF910895ED
:1032E000CF92DF92EF92FF921F93CF93DF93FC0177
:1032F00014851430A9F1EC0180E590E00E94F701FB
:1033000068E070E0812F0E94300B0E94F6010E945D
:10331000CE0E6B017C01CE010E94D7188823B1F03C
:1033200061E070E080E090E00E94F70C0E94CE0E19
:10333000DC01CB018C199D09AE09BF09883E934081
:10334000A105B10540F38C850E940A17EC85F0E0D9
:10335000EE0FFF1FE35BFB4F1182108284E08C872E
:10336000DF91CF911F91FF90EF90DF90CF90089564
:10337000CF92DF92FF920F931F93CF93DF93FC01C5
:103380002485243009F072C06A01EB018C01F12C14
:103390008F2D0E94FB02811103C0F801F48607C043
:1033A0008B7F8831D1F3F394F4E0FF12F1CFF80171
:1033B0008485843009F45AC020910F0130911001A6
:1033C0002F5F3F4F11F420E030EC30931001209339
:1033D0000F0140910F015091100120E061E00E9427
:1033E0001E17F801F4848A818F3F51F48B818F3F3F
:1033F00091F48C818F3F79F48D818F3F61F433C0DC
:10340000811109C08B81811106C08C81811103C09B
:103410008D81882341F1C114D10429F180E590E028
:103420000E94F701BE016E5F7F4F8F2D0E94ED015C
:10343000B6018F2D0E94DC0164E070E08F2D0E94A8
:10344000300B0E94F601C8010E94D718873189F01D
:1034500061E070E080E090E00E94F70CC8010E94FB
:10346000D7188111F0CF84E0F801848780E090E0E4
:1034700002C081E090E0DF91CF911F910F91FF900A
:10348000DF90CF90089580E090E0892B29F00E9492
:10349000960781110C94000008950895CF93DF934F
:1034A000EC0160E089810E94900C61E088810E94BB
:1034B000600C89810E94370C0197D9F360E0888104
:1034C000DF91CF910C94600C0F931F93CF93DF93F8
:1034D0001F92CDB7DEB78C01462F61E0FC018181E0
:1034E00049830E94900C61E0F80181810E94600C88
:1034F00061E0F80180810E94600C60E0F801818148
:103500000E94600C60E0F80180810E94600C49819B
:10351000F801608181810F90DF91CF911F910F9110
:103520000C946E1EFC01848DDF01A80FB11DA35AFF
:10353000BF4F2C91848D90E001968F739927848FD3
:10354000A689B7892C93A089B1898C9180648C93CA
:10355000938D848D981306C00288F389E02D8081B5
:103560008F7D80830895EF92FF920F931F93CF93E7
:10357000DF93CDB7DEB728970FB6F894DEBF0FBE46
:10358000CDBF09831A832B835E836F836E817F8116
:10359000832F90E050E0E42FF0E03197252F30E0CA
:1035A0002E173F0744F4D901A755BE4F2C91820F27
:1035B000911D5F5FF3CF433030F09B0123703327C1
:1035C000232B09F401964DE651E0649F9001659F1D
:1035D000300D749F300D1124215933426D5C7740BA
:1035E0007695679576956795260F371F280F391FB3
:1035F000A8E1B0E00E942D2629817B018C01E20E1A
:10360000F11C011D111DA8019701ACE3B0E00E945F
:10361000C9252A817B018C01E20EF11C011D111DBF
:10362000A80197010E94C9252B81DC01CB01820FE3
:10363000911DA11DB11DBC01CD0160587C4B82497B
:10364000974C28960FB6F894DEBF0FBECDBFDF9122
:10365000CF911F910F91FF90EF900895FC018EED97
:1036600097E09683858381E084838383108211822F
:10367000128283E0878308959F92AF92BF92CF9288
:10368000DF92EF92FF920F931F93CF93DF93CDB70B
:10369000DEB760970FB6F894DEBF0FBECDBF8C01CA
:1036A000CE0101960E942E1BF8018185882309F422
:1036B00047C084EE8093BC008091BC0087FFFCCFA4
:1036C00080ED8093BB0084EC8093BC008091BC00B3
:1036D00087FFFCCF1092BB0084EC8093BC008091EC
:1036E000BC0087FFFCCF84EE8093BC008091BC00BF
:1036F00087FFFCCF81ED8093BB0084EC8093BC00FE
:103700008091BC0087FFFCCFF8013296C801099672
:1037100034EC3093BC002091BC0027FFFCCF2091FB
:10372000BB002193E817F907A1F784E88093BC0058
:103730008091BC0087FFFCCF84E98093BC0093C0DC
:1037400060EDC8010E94641AC8010E944E1A61E02F
:10375000F80181810E94900C40E0F8016081818134
:103760000E946E1EC8010E944E1A61EDC8010E949F
:10377000641AC8010E944E1A5801F2E0AF0EB11C43
:10378000E12CF12C60E0F80181810E94900C87E02F
:10379000C82ED12C912C61E0F80180810E94600C30
:1037A000F80181810E94370C99270C2C01C0880FE9
:1037B0000A94EAF7982A60E0F80180810E94600C80
:1037C000F1E0CF1AD10838F7F50191925F0161E07D
:1037D000F8018181F6E0EF16F10449F00E94900CA7
:1037E00060E0F80180810E94600C60E008C00E94E7
:1037F000900C60E0F80180810E94600C61E0F801AB
:1038000081810E94600C61E0F80180810E94600C5F
:1038100060E0F80180810E94600C60E0F801818125
:103820000E94900CFFEFEF1AFF0A27E0E216F10466
:1038300009F0A8CF61E0F80181810E94900C60E05E
:10384000F80181810E94600C61E0F80180810E9492
:10385000600C61E0F80181810E94600C60E0F80179
:1038600081810E94900CF8018281982F96959695FF
:1038700096959E70292F220F220F920F8F70890F1D
:103880008B838381982F9695969596959E70292F78
:10389000220F220F920F8F70890F8A838481282F25
:1038A0002F7087FF09C085FB992790F9822FFCE0D4
:1038B0009F9F800D112409C08073869586958695FB
:1038C000982F990F990F890F820F8983F8018581AD
:1038D00088878681982F9695969596959E70292F24
:1038E000220F220F920F8F70890F8C838781982F60
:1038F0009695969596959E70292F220F220F920FDE
:103900008F70890F8D838085982F92959F708F700F
:10391000FAE09F9F800D112490E08053984F9F8381
:103920008E8388E0FE013196DE01199601900D929A
:103930008A95E1F729853A854B855C856D857E857D
:103940008F85988960960FB6F894DEBF0FBECDBF05
:10395000DF91CF911F910F91FF90EF90DF90CF906B
:10396000BF90AF909F900895DC01E0E0615038F087
:103970008D91E827F0E0E057FF4FE491F7CF8E2FCD
:103980000895EF92FF920F931F93CF93DF937C01E3
:103990008B01D42FDC011596ED91FC9116971386BF
:1039A00015861486DF011B9633961E92AE17BF074D
:1039B000E1F7C0E0B801D70115968D919C9116975B
:1039C0000E94080A811102C080E010C0CD130AC015
:1039D00067E0C8010E94B41CF8019781891302C0F6
:1039E00081E004C0CF5FDC1778F3E4CFDF91CF91A3
:1039F0001F910F91FF90EF900895CF92DF92EF9279
:103A0000FF920F931F93CF93DF931F92CDB7DEB733
:103A10006C01E62E08E010E0FF24F39461E08F2DA6
:103A20008E2109F460E0C60149830E94B812FF0CA0
:103A30000150110949810115110581F7411115C086
:103A4000F894D6011196ED91FC91129791818C9189
:103A50008095892381831196ED91FC911297928133
:103A60008C9180958923828378940F90DF91CF91F8
:103A70001F910F91FF90EF90DF90CF900895CF921C
:103A8000DF92EF92FF920F931F93CF93DF931F92DA
:103A9000CDB7DEB78C01F62E40E065E579830E9454
:103AA000FD1CCF2C7981D72E760188E0E80EF11C21
:103AB000F60161916F0140E0C8010E94FD1CCE1427
:103AC000DF04B1F70F90DF91CF911F910F91FF901D
:103AD000EF90DF90CF900895FC0190810180F281FA
:103AE000E02DF8948181892B81832281892F809513
:103AF00028232283A7E0B0E01197F1F721818223E8
:103B00008183A3E2B0E01197F1F780817894EFEC24
:103B1000F0E03197F1F7982381E009F480E008950F
:103B20008F929F92AF92BF92CF92DF92EF92FF92CD
:103B30000F931F93CF93DF93EC018D819E810E94A1
:103B4000E71240E06CEC8D819E810E94FD1C488153
:103B500064E48D819E810E94FD1C8A81882309F482
:103B600042C0E981E950E33040F4F0E0EE0FFF1F7E
:103B7000ED55FE4F0081118102C00EEE12E08B81E7
:103B80008823F9F0888181111CC00E94CE0E4B0160
:103B90005C016801110FEE08FF088D819E810E9473
:103BA0006C1D813001F10E94CE0EDC01CB018C191D
:103BB0009D09AE09BF0988159905AA05BB0568F3DB
:103BC00012C0B801110F880B990BDF91CF911F9193
:103BD0000F91FF90EF90DF90CF90BF90AF909F90AC
:103BE0008F900C94F70CDF91CF911F910F91FF9064
:103BF000EF90DF90CF90BF90AF909F908F900895FF
:103C00004F925F926F927F928F929F92AF92BF92EC
:103C1000CF92DF92EF92FF920F931F93CF93DF9398
:103C200000D0CDB7DEB72C018A01FC0185819681D9
:103C300069837A830E94E71269817A818823C9F1B6
:103C4000F201858196810E943F1D40E06EEBF201FA
:103C5000858196810E94FD1C78014801F9E08F0E54
:103C6000911CF2016580768088E0A82EB12CCC24CE
:103C7000C394D12CC3010E946C1D8111DC28CC0C93
:103C8000F1E0AF1AB108B1F7F701D1927F01E81561
:103C9000F90539F7F201858196810E94E71281309A
:103CA00041F468E0C8010E94B41C91E0F80120854D
:103CB000821390E0892F0F900F90DF91CF911F9189
:103CC0000F91FF90EF90DF90CF90BF90AF909F90BB
:103CD0008F907F906F905F904F900895EF92FF923A
:103CE0000F931F93CF93DF93E82EF62EC7E0D0E01B
:103CF000042F10E098010C2E02C0359527950A94E8
:103D0000E2F7B901617077278E2D0E94600C61E0A7
:103D10008F2D0E94600C60E08F2D0E94600C219717
:103D200048F7DF91CF911F910F91FF90EF90089589
:103D300080910E0590910F050C94B127CF93DF93DE
:103D4000CDB7DEB761970FB6F894DEBF0FBECDBF1B
:103D5000789484B5826084BD84B5816084BD85B566
:103D6000826085BD85B5816085BD80916E00816072
:103D700080936E0010928100809181008260809318
:103D8000810080918100816080938100809180001A
:103D90008160809380008091B10084608093B10045
:103DA0008091B00081608093B00080917A0084603F
:103DB00080937A0080917A00826080937A0080916B
:103DC0007A00816080937A0080917A008068809385
:103DD0007A001092C1000E94080B6CEB72E087E53C
:103DE00094E00E94B60810922504109224041092C8
:103DF0002304109222041092210481E08093200475
:103E000010921F0461E082E10E94600C61E083E196
:103E10000E94600C8091B9008E7F8093B9008091E0
:103E2000B9008D7F8093B90088E48093B80085E461
:103E30008093BC0010923E05809143050E94620E63
:103E40000E94CC0C82E00E94620E88E080934405C0
:103E500060E089E395E00E94FA011092260463EC89
:103E600072E087E594E00E94B6080E94CC0CE091D5
:103E70004A05F0914B05138615861486DF011B96C3
:103E800033961E92AE17BF07E1F71092490501E085
:103E9000BE016F5F7F4F80914A0590914B050E9454
:103EA000080A882309F453C067E0CE0101960E94F6
:103EB000B41C98858913ECCF80914505811127C0EA
:103EC00080914A0590914B050E94E712BE016F5FF9
:103ED0007F4F80914A0590914B050E943F1D40E025
:103EE00064EB80914A0590914B050E94FD1C8091E6
:103EF0004A0590914B050E946C1D182F80914A0530
:103F000090914B050E94E712112309F413C21091FE
:103F100046058981803109F4E8C2CE0101960E94EC
:103F2000400B811718F48091460509C089818031C2
:103F300011F48CE004C0CE0101960E94400B8093E6
:103F40004605809149058F5F80934905A1CF8CE09C
:103F500080934605E12CF12C0FE59FE7B92E2FE168
:103F6000A22E3FE3932E8091490590E0E816F906D2
:103F70000CF0A6C04E2DBE01665F7F4F85E495E034
:103F80000E94C11C10914605193020F01D3018F018
:103F90001CE001C019E08A85803129F0CE010A9623
:103FA0000E94400B01C08CE0811709F485C0AE016E
:103FB0004F5F5F4FBE01665F7F4F85E495E00E94D3
:103FC000001E882309F478C08A85803109F474C002
:103FD0001B3041F01C3021F01A3031F49D8205C0B5
:103FE000BD8203C00D8301C0AD8280914A059091CE
:103FF0004B050E94E712BE01665F7F4F80914A0524
:1040000090914B050E943F1D40E06EE480914A056F
:1040100090914B050E94FD1C40E06B8180914A0508
:1040200090914B050E94FD1C40E06C8180914A05F7
:1040300090914B050E94FD1C8A85803141F040E043
:104040006D8180914A0590914B050E94FD1C8091E5
:104050004A0590914B050E94E712BE01665F7F4FB3
:1040600080914A0590914B050E943F1D4091450566
:1040700068E480914A0590914B050E94FD1C64E123
:1040800070E080E090E00E94F70C80914505882365
:1040900031F06AE070E080E090E00E94F70C8091DF
:1040A0004A0590914B050E94E7128091460518172A
:1040B00008F4182F109346052FEFE21AF20A53CF97
:1040C00010922704109228041092290410922A04B6
:1040D0006FEC72E087E594E00E94B60889E592E013
:1040E0009A8389838091350590913605A091370593
:1040F000B09138058B839C83AD83BE83CE0101963E
:104100000E94310D0E94080B68EE73E080E090E0A1
:104110000E94F70C80E295E00E94DF1861E089E0E0
:104120000E94900C61E08CE00E94900C61E08BE0BA
:104130000E94900C62E087E00E94900C62E086E0B2
:104140000E94900C60E088E00E94900C8EE090E06D
:104150000E941C27FC0183E291E0918380838BED18
:1041600092E09387828785EE92E09587848785E445
:1041700095E09583848389E395E09783868306E6BB
:1041800015E01187008781E090E093838283F093AC
:104190003204E093310488E090E00E941C27FC0187
:1041A0008BE291E0918380838AEE92E09583848311
:1041B0008EEE92E09783868313830283F0932E041E
:1041C000E0932D0484E090E00E941C278C0183E39F
:1041D00091E0F8019183808362EF72E087E594E0DB
:1041E0000E94B608F8011382128261E08BE00E94FF
:1041F000600C1093300400932F0484E090E00E9440
:104200001C272BE331E0FC013183208313821282CF
:1042100090932C0480932B0468EE73E080E090E090
:104220000E94F70C6CEF72E087E594E00E94B608FC
:10423000EE24E394F12C68E073E087E594E00E94BB
:10424000B60868EE73E080E090E00E94F70C009101
:1042500031041091320463E173E087E594E00E9439
:10426000B60841E060E0F801868197810E949F02D4
:1042700063E173E087E594E00E94B608F801808569
:1042800091850E94D509BC01F801868197810E9421
:10429000120841E068E0F801868197810E949F0240
:1042A000F801808591850E947009BC0187E594E042
:1042B0000E94B608F801808591850E947009BC01B2
:1042C000F801868197810E9412086BE173E087E50F
:1042D00094E00E941208F801808591850E9470097F
:1042E000BC0187E594E00E9412086AEB72E087E562
:1042F00094E00E94120880913104909132040E944F
:10430000290668EC70E080E090E00E94F70C809154
:104310003104909132040E94290686E00E94370CF5
:10432000892B59F464E273E087E594E00E94B608B3
:1043300060E0C0C000934505EACD87E00E94370CDD
:10434000892B09F4B0C00091310410913204F801B6
:10435000848195810E94901DF801848195810E943D
:10436000980A4B015C0100912F0410913004F80170
:104370008281938181309105F1F468E373E087E5F0
:1043800094E00E94B60820E030E048EE51E4C50118
:10439000B4010E94A52487FF23C062EF72E087E585
:1043A00094E00E94B608F8011382128261E08BE06B
:1043B0000E94600C15C0892B99F469E473E087E5CD
:1043C00094E00E94B60820E030E048EF51E4C501D7
:1043D000B4010E94D82687FD03C0C8010E941506BB
:1043E00000912D0410912E04C8010E943604892BDF
:1043F00071F469E573E087E594E00E94B60862E62F
:1044000073E087E594E00E94B60861E012C0C8013D
:104410000E943604019781F46CE673E087E594E02E
:104420000E94B60864E273E087E594E00E94B60853
:1044300060E089E00E94600C00912B0410912C0434
:1044400061E08CE00E94600CF801F382E28266E792
:1044500073E087E594E00E94B6088091270490916C
:104460002804A0912904B0912A040196A11DB11D30
:104470008138F8E39F07F1E0AF07B1054CF4809372
:10448000270490932804A0932904B0932A0408C019
:1044900010922704109228041092290410922A04E2
:1044A0000E94431AC8CE62E673E087E594E00E945A
:1044B000B60861E089E00E94600C00912B04109125
:1044C0002C0460E08CE00E94600CF80113821282E0
:1044D0006FE273E087E594E00E94B60880912F04B4
:1044E000909130040E941506B8CF1D3008F01BCD06
:1044F00020CDCF92DF92EF92FF9289E592E09093E8
:1045000077058093760510927805109279051092C0
:104510007A0510927B0510925A041092590448EEC5
:1045200053E060E070E040935B0450935C04609360
:104530005D0470935E0429EB31E0309358042093BE
:10454000570425EC30E0309364042093630424EC9A
:1045500030E0309366042093650420EC30E0309323
:1045600068042093670421EC30E030936A042093C0
:10457000690422EC30E030936C0420936B0426EC49
:1045800030E030936E0420936D041092700410920A
:104590007104109272041092730490937D058093BD
:1045A0007C0510927E0510927F0510928005109276
:1045B0008105909383058093820510928405109263
:1045C0008505109286051092870590938905809342
:1045D000880510928A0510928B0510928C05109216
:1045E0008D0590938F0580938E0510929005109203
:1045F00091051092920510929305909395058093E2
:1046000094051092960510929705109298051092B5
:1046100099059093F5048093F4041092F604109297
:10462000F7041092F8041092F9049093FD0480931B
:10463000FC041092FE041092FF04109200051092E8
:10464000010590939B0580939A0510929C0510920A
:104650009D0510929E0510929F059093A105809351
:10466000A0051092A2051092A3051092A405109225
:10467000A5059093A7058093A6051092A805109212
:10468000A9051092AA051092AB059093AD058093F1
:10469000AC051092AE051092AF051092B0051092C5
:1046A000B1059093B3058093B2051092B4051092B2
:1046B000B5051092B6051092B7059093B905809391
:1046C000B8051092BA051092BB051092BC05109265
:1046D000BD05109205051092040540930605509300
:1046E000070560930805709309052BEC31E03093C2
:1046F0000305209302059093710580937005109235
:10470000720510927305109274051092750582E17E
:104710008093670583E18093660560E088E00E94EE
:10472000900CE6EBF1E0E491E0935805E2EAF1E069
:10473000E491F0E0EE0FFF1FE057FE4F859194915A
:1047400090935A0580935905109263051092650560
:1047500010926405E3E6F5E0129285E0EB35F80788
:10476000D9F78DE49AE1909357058093560588E533
:1047700095E090934B0580934A051092490510925D
:10478000450589E08093460581E080934705809345
:10479000480510923C0510923B0581E492E090930D
:1047A0003A058093390587E280933D0550E15093A7
:1047B000420522E0209343051092440589E592E0EA
:1047C000909334058093330540EC4093350538EAE7
:1047D000309336051092370566E1609338051092E4
:1047E00029051092280568EEC62E63E0D62EE12C2E
:1047F000F12CC0922A05D0922B05E0922C05F09264
:104800002D056BE172E0709327056093260564E047
:104810006093320510922305109222056DED71E030
:10482000709321056093200567E170E07093250582
:104830006093240590931B0580931A0568EB6093A1
:104840001C056CEB60931D0550931E055EE95093AB
:104850001F0590931505809314054093160530931A
:104860001705109218052093190510920F05109244
:104870000E0510921105109210051092130510925A
:10488000120561E070E080E090E00E944928009706
:1048900089F090930F0580930E05109211051092E8
:1048A00010052091120530911305232BE1F4FC0132
:1048B000108219C080910E0590910F05009711F09C
:1048C0000E94B12710920F0510920E051092130549
:1048D000109212051092110510921005FF90EF90A2
:1048E000DF90CF90089510921305109212056BEB94
:1048F00072E0FF90EF90DF90CF900C942129FC01A3
:1049000088279927E89421912032E9F3293010F083
:104910002E30C8F32B3241F02D3239F4689404C0A4
:104920000E949D24820F911D219120532A30C0F3B3
:104930001EF4909581959F4F08957AE0979F902D52
:10494000879F802D910D112408950E94E72408F47B
:1049500081E00895E89409C097FB3EF49095809516
:10496000709561957F4F8F4F9F4F9923A9F0F92F35
:1049700096E9BB279395F695879577956795B795B3
:10498000F111F8CFFAF4BB0F11F460FF1BC06F5F99
:104990007F4F8F4F9F4F16C0882311F096E911C0AB
:1049A000772321F09EE8872F762F05C0662371F0CC
:1049B00096E8862F70E060E02AF09A95660F771FE0
:1049C000881FDAF7880F9695879597F90895990FBC
:1049D0000008550FAA0BE0E8FEEF16161706E807C9
:1049E000F907C0F012161306E407F50798F0621BEA
:1049F000730B840B950B39F40A2661F0232B242BBF
:104A0000252B21F408950A2609F4A140A6958FEFDD
:104A1000811D811D08950E941E250C948F250E94E2
:104A2000812538F00E94882520F0952311F00C9400
:104A300078250C947E2511240C94C3250E94A02572
:104A400070F3959FC1F3950F50E0551F629FF001E1
:104A5000729FBB27F00DB11D639FAA27F00DB11DFA
:104A6000AA1F649F6627B00DA11D661F829F222783
:104A7000B00DA11D621F739FB00DA11D621F839F0A
:104A8000A00D611D221F749F3327A00D611D231FE0
:104A9000849F600D211D822F762F6A2F11249F572E
:104AA00050409AF0F1F088234AF0EE0FFF1FBB1F31
:104AB000661F771F881F91505040A9F79E3F5105F0
:104AC00080F00C9478250C94C3255F3FE4F3983E66
:104AD000D4F3869577956795B795F795E7959F5F9A
:104AE000C1F7FE2B880F911D9695879597F908952C
:104AF00097F99F6780E870E060E008959FEF80EC91
:104B0000089500240A941616170618060906089533
:104B100000240A9412161306140605060895092E99
:104B20000394000C11F4882352F0BB0F40F4BF2B08
:104B300011F460FF04C06F5F7F4F8F4F9F4F089548
:104B400057FD9058440F551F59F05F3F71F047953E
:104B5000880F97FB991F61F09F3F79F08795089523
:104B6000121613061406551FF2CF4695F1DF08C042
:104B7000161617061806991FF1CF8695710561055F
:104B800008940895E894BB2766277727CB0197F907
:104B900008950E942D26A59F900DB49F900DA49F6F
:104BA000800D911D112408952F923F924F925F9294
:104BB0006F927F928F929F92AF92BF92CF92DF922D
:104BC000EF92FF920F931F93CF93DF93CDB7DEB792
:104BD000CA1BDB0B0FB6F894DEBF0FBECDBF099426
:104BE0002A88398848885F846E847D848C849B847D
:104BF000AA84B984C884DF80EE80FD800C811B818B
:104C0000AA81B981CE0FD11D0FB6F894DEBF0FBEB9
:104C1000CDBFED010895A1E21A2EAA1BBB1BFD0119
:104C20000DC0AA1FBB1FEE1FFF1FA217B307E4078B
:104C3000F50720F0A21BB30BE40BF50B661F771FE3
:104C4000881F991F1A9469F76095709580959095C3
:104C50009B01AC01BD01CF010895A29FB001B39F9C
:104C6000C001A39F700D811D1124911DB29F700D75
:104C7000811D1124911D08955058BB27AA270E9419
:104C800054260C948F250E94812538F00E94882597
:104C900020F039F49F3F19F426F40C947E250EF48D
:104CA000E095E7FB0C947825E92F0E94A02558F3A6
:104CB000BA17620773078407950720F079F4A6F501
:104CC0000C94C2250EF4E0950B2EBA2FA02D0B01EB
:104CD000B90190010C01CA01A0011124FF27591B41
:104CE00099F0593F50F4503E68F11A16F040A22F47
:104CF000232F342F4427585FF3CF469537952795B8
:104D0000A795F0405395C9F77EF41F16BA0B620BB6
:104D1000730B840BBAF09150A1F0FF0FBB1F661FFD
:104D2000771F881FC2F70EC0BA0F621F731F841F40
:104D300048F4879577956795B795F7959E3F08F066
:104D4000B0CF9395880F08F09927EE0F9795879528
:104D500008950E94A82588F09F5798F0B92F9927A9
:104D6000B751B0F0E1F0660F771F881F991F1AF056
:104D7000BA95C9F714C0B13091F00E94C225B1E0D4
:104D800008950C94C225672F782F8827B85F39F0D3
:104D9000B93FCCF3869577956795B395D9F73EF4EF
:104DA00090958095709561957F4F8F4F9F4F089597
:104DB0000E94E72408F48FEF08950E94E724880BEF
:104DC000990B0895991B79E004C0991F961708F074
:104DD000961B881F7A95C9F78095089597FB072E33
:104DE00016F4009407D077FD09D00E94022707FC33
:104DF00005D03EF4909581959F4F089570956195EB
:104E00007F4F0895AA1BBB1B51E107C0AA1FBB1F00
:104E1000A617B70710F0A61BB70B881F991F5A9546
:104E2000A9F780959095BC01CD010895EE0FFF1F65
:104E30000590F491E02D0994CF93DF938230910592
:104E400010F482E090E0E091C005F091C10520E00F
:104E500030E0C0E0D0E0309711F140815181481737
:104E60005907C0F04817590761F482819381209750
:104E700019F09B838A832BC09093C1058093C00552
:104E800026C02115310519F04217530718F49A016D
:104E9000BE01DF01EF010280F381E02DDCCF21159F
:104EA000310509F1281B390B2430310590F4129695
:104EB0008D919C9113976115710521F0FB019383EE
:104EC000828304C09093C1058093C005FD01329692
:104ED00044C0FD01E20FF31F8193919322503109E9
:104EE0002D933C933AC02091BE053091BF05232BF2
:104EF00041F420911301309114013093BF052093A8
:104F0000BE0520911101309112012115310541F4A6
:104F10002DB73EB74091150150911601241B350B5A
:104F2000E091BE05F091BF05E217F307A0F42E1B38
:104F30003F0B2817390778F0AC014E5F5F4F2417FD
:104F4000350748F04E0F5F1F5093BF054093BE05D5
:104F50008193919302C0E0E0F0E0CF01DF91CF9127
:104F600008950F931F93CF93DF93009709F48CC09C
:104F7000FC013297138212820091C0051091C10585
:104F80000115110581F420813181820F931F209139
:104F9000BE053091BF052817390779F5F093BF0595
:104FA000E093BE0571C0D80140E050E0AE17BF07E6
:104FB00050F412962D913C911397AD0121153105B6
:104FC00009F1D901F3CF9D01DA0133832283608196
:104FD0007181860F971F8217930769F4EC0128816E
:104FE0003981260F371F2E5F3F4F318320838A81FF
:104FF0009B8193838283452B29F4F093C105E09331
:10500000C00542C01396FC93EE931297ED014991AF
:1050100059919E01240F351FE217F30771F4808127
:105020009181840F951F029611969C938E93828195
:10503000938113969C938E931297E0E0F0E0D80151
:1050400012968D919C911397009719F0F8018C019D
:10505000F6CF8D919C9198012E5F3F4F820F931F49
:105060002091BE053091BF052817390769F43097A4
:1050700029F41092C1051092C00502C01382128259
:105080001093BF050093BE05DF91CF911F910F9143
:105090000895A0E0B0E0EFE4F8E20C94D825EC012C
:1050A000009721F4CB010E941C27B8C0FC01E60F39
:1050B000F71F9C0122503109E217F30708F4ACC036
:1050C000D9010D911C91119706171707B0F0053003
:1050D000110508F49FC0C80104978617970708F4C4
:1050E00099C002501109061B170B019311936D9380
:1050F0007C93CF010E94B1278DC05B01A01AB10A39
:105100004C01800E911EA091C005B091C10540E0F8
:1051100050E0E12CF12C109709F44AC0A815B9050C
:10512000D1F56D907C901197630182E0C80ED11C7F
:10513000CA14DB0480F1A3014A195B096A0182E009
:10514000C80ED11C1296BC9012971396AC91B5E084
:10515000CB16D10440F0B282A38351834083D9019E
:105160006D937C930AC00E5F1F4FC301800F911F88
:10517000F90191838083EB2DFA2FE114F10431F0D2
:10518000D7011396FC93EE93129744C0F093C10598
:10519000E093C0053FC08D919C9111974817590726
:1051A00008F4AC017D0112960D90BC91A02DB3CFF7
:1051B0008091BE059091BF0588159905E1F44617C9
:1051C0005707C8F48091110190911201009741F4A2
:1051D0008DB79EB74091150150911601841B950B18
:1051E000E817F907C8F4F093BF05E093BE05F9018D
:1051F000718360830FC0CB010E941C277C01009744
:1052000059F0A801BE010E941829CE010E94B127C1
:10521000C70104C0CE0102C080E090E0CDB7DEB788
:10522000EEE00C94F42581E090E0F8940C942829A9
:10523000FB01DC0102C001900D9241505040D8F7B3
:105240000895FB01DC0101900D920020E1F7089523
:1052500010E0C2EED0E004C0FE010E9416272196A5
:0A526000C33ED107C9F7F894FFCF51
:10526A00DEADBEEFFEED7878787878787878000051
:10527A00C00000C205800000004000140054000075
:10528A000000002D07D001000000001406CC010028
:10529A000000002806CE01000000003504CA017E85
:1052AA0003820386038A038E03EA02EE0201005E8A
:1052BA0000000000000000A007A0073601A007A018
:1052CA0007A007A007A0070D01A007A007A007A035
:1052DA0007A007A007A007A007A007000000002555
:1052EA000F9A103601240F3B0F1810E00FCB1170E4
:1052FA000FB611D21043110B114110F90F530F437E
:10530A000F3F0F5E00BC0077011F1C1F1E1F1E1FD0
:10531A001F1E1F1E1F00000000A2072E075907E9C3
:10532A00078A0768077C07000000009B016B0136AB
:10533A00010F012D011E011001000000005A0FF893
:10534A001136013501DF1800000000A007A007365A
:10535A0001A007A007A007A007A007A007A007A011
:10536A0007A007A00700000000A0072E0736013596
:10537A0001A007A007A007000000007617E517366E
:10538A00017517DC17C2179B17B8196418BE177076
:10539A00194C196D179817961762178C1700000089
:1053AA000099022E073601350100000000A0072EE1
:1053BA00073601350100000000700800000000A057
:1053CA000732313A34353A30300031333A30303AF4
:1053DA0030300030373A30303A30300032333A30F9
:1053EA00303A30300031333A33303A3030003038E6
:1053FA003A33303A30300031323A30303A303000D5
:10540A00486561746572204F6666006E616E006958
:10541A006E66006F76660043000D0A005365747568
:10542A00700A007265616479207365747570006929
:10543A006E697469616C6973656400576173736539
:10544A00723A2020004C75667400536174005375DB
:10545A006E00486561746572204F6E0073796E63E1
:10546A0068726F6E697365006C6F6F702062656732
:10547A00696E0073657454696D650054696D653AA7
:10548A00202020004C69676874204F66660A005025
:10549A00756D70204F666600486561746572737435
:1054AA0061747573206F666600486561746572730E
:1054BA007461747573206F6E006C69676874206F0D
:1054CA006E004C69676874204F6E0A006C696768E1
:1054DA0074206F66660050756D70204F6E004D6FB8
:1054EA006E0054756500576564005468750046720D
:0254FA00690047
:00000001FF
