:100000000C94E2000C940A010C940A010C940A016D
:100010000C940A010C940A010C940A010C940A0134
:100020000C940A010C940A010C940A010C940A0124
:100030000C940A010C940A010C940A010C940A0114
:100040000C94C00D0C940A010C9465030C943F03AE
:100050000C940A010C940A010C940A010C940A01F4
:100060000C940A010C940A01005EBCE2613FDD833E
:10007000C29C7E20A3FD1F419DC3217FFCA2401E88
:100080005F01E3BD3E6082DC237D9FC1421CFEA078
:10009000E1BF5D0380DE3C62BEE0025CDF81633D68
:1000A0007C22C09E1D43A1FF4618FAA427799BC558
:1000B00084DA3866E5BB5907DB856739BAE4065848
:1000C0001947A5FB7826C49A653BD987045AB8E638
:1000D000A7F91B45C6987A24F8A6441A99C7257B28
:1000E0003A6486D85B05E7B98CD2306EEDB3510F18
:1000F0004E10F2AC2F7193CD114FADF3702ECC9208
:10010000D38D6F31B2EC0E50AFF1134DCE90722CF7
:100110006D33D18F0C52B0EE326C8ED0530DEFB1E7
:10012000F0AE4C1291CF2D73CA947628ABF51749D7
:100130000856B4EA6937D58B5709EBB536688AD4C7
:1001400095CB2977F4AA4816E9B7550B88D6346AB7
:100150002B7597C94A14F6A8742AC896154BA9F7A7
:10016000B6E80A54D7896B35000000002500280046
:100170002B0000000008000201000003040700003B
:1001800000000000000000000000230026002900FD
:10019000040404040404040402020202020203032D
:1001A0000303030301020408102040800102040835
:1001B0001020010204081020000000002400270085
:1001C0002A00661211241FBECFEFD8E0DEBFCDBFDC
:1001D00012E0A0E0B1E0EAE5FDE202C005900D9278
:1001E000A833B107D9F723E0A8E3B2E001C01D921C
:1001F000A133B207E1F710E0C2EED0E004C02197CE
:10020000FE010E947815C13ED107C9F70E940A0E6F
:100210000C94AB160C940000CF92DF92EF92FF92F9
:100220000F931F93CF93DF936C017A018B01C0E092
:10023000D0E0CE15DF0589F0D8016D918D01D60192
:10024000ED91FC910190F081E02DC6010995892B7B
:1002500011F47E0102C02196ECCFC701DF91CF914E
:100260001F910F91FF90EF90DF90CF900895FC01C8
:10027000918D828D981761F0828DDF01A80FB11DDD
:100280005D968C91928D9F5F9F73928F90E0089501
:100290008FEF9FEF0895FC01918D828D981731F0BB
:1002A000828DE80FF11D858D90E008958FEF9FEF0F
:1002B0000895FC01918D228D892F90E0805C9F4FE5
:1002C000821B91098F739927089584E492E00E941C
:1002D000590121E0892B09F420E0822F0895FC01C7
:1002E000848DDF01A80FB11DA35ABF4F2C91848DBF
:1002F00090E001968F739927848FA689B7892C93F4
:10030000A089B1898C9180648C93938D848D98138E
:1003100006C00288F389E02D80818F7D8083089557
:10032000EF92FF920F931F93CF93DF93EC0181E045
:10033000888F9B8D8C8D981305C0E889F989808101
:1003400085FD24C0F62E0B8D10E00F5F1F4F0F733D
:100350001127E02E8C8DE8120CC00FB607FCFACFE7
:10036000E889F989808185FFF5CFCE010E946F0170
:10037000F1CF8B8DFE01E80FF11DE35AFF4FF082A4
:100380000B8FEA89FB898081806207C0EE89FF8933
:100390006083E889F98980818064808381E090E0CE
:1003A000DF91CF911F910F91FF90EF900895CF9320
:1003B000DF93EC01888D8823C9F0EA89FB8980816D
:1003C00085FD05C0A889B9898C9186FD0FC00FB63F
:1003D00007FCF5CF808185FFF2CFA889B9898C9180
:1003E00085FFEDCFCE010E946F01E7CFDF91CF9166
:1003F000089580E090E0892B29F00E946501811129
:100400000C9400000895EF92FF920F931F93CF93E7
:10041000DF93CDB7DEB728970FB6F894DEBF0FBED7
:10042000CDBF09831A832B835E836F836E817F81A7
:10043000832F90E050E0E42FF0E03197252F30E05B
:100440002E173F0744F4D901AB5EBE4F2C91820FAB
:10045000911D5F5FF3CF433030F09B012370332752
:10046000232B09F401964DE651E0649F9001659FAE
:10047000300D749F300D1124215933426D5C77404B
:100480007695679576956795260F371F280F391F44
:10049000A8E1B0E00E944A1529817B018C01E20E9F
:1004A000F11C011D111DA8019701ACE3B0E00E94F1
:1004B00059152A817B018C01E20EF11C011D111DD1
:1004C000A80197010E9459152B81DC01CB01820FF5
:1004D000911DA11DB11DBC01CD0160587C4B82490D
:1004E000974C28960FB6F894DEBF0FBECDBFDF91B4
:1004F000CF911F910F91FF90EF9008950895CF93A2
:10050000DF93EC0160E08E810E94280C61E08E8117
:100510000E94280C60E08E810E94280C8BE891E0FC
:100520000197F1F7DF91CF910895CF93DF93EC011D
:1005300060E089810E944A0D61E088810E94280C58
:1005400089810E94FF0B0197D9F360E08881DF91D8
:10055000CF910C94280C0F931F93CF93DF931F928E
:10056000CDB7DEB78C01462F61E0FC018181498364
:100570000E944A0D61E0F80181810E94280C61E02F
:10058000F80180810E94280C60E0F80181810E94BE
:10059000280C60E0F80180810E94280C4981F80154
:1005A000608181810F90DF91CF911F910F910C9409
:1005B000FB0C0C9413160C9413160C9413160C9439
:1005C00013166115710579F0FB0101900020E9F720
:1005D0003197AF01461B570BDC01ED91FC91028076
:1005E000F381E02D099480E090E008954F925F92AE
:1005F0006F927F92EF92FF920F931F93CF93DF93AF
:10060000CDB7DEB7A1970FB6F894DEBF0FBECDBF52
:100610007C01FA01CB0119A2223008F42AE08E01F4
:100620000F5D1F4F422E512C612C712CBF01A30175
:1006300092010E942815F901CA01015011096A307E
:1006400014F4605D01C0695CD8016C93232B242BEA
:10065000252B61F7B801C7010E94E102A1960FB6F0
:10066000F894DEBF0FBECDBFDF91CF911F910F91E8
:10067000FF90EF907F906F905F904F9008951F9242
:100680000F920FB60F9211242F933F934F935F93C6
:100690006F937F938F939F93AF93BF93EF93FF934A
:1006A00084E492E00E946F01FF91EF91BF91AF91BE
:1006B0009F918F917F916F915F914F913F912F917A
:1006C0000F900FBE0F901F9018951F920F920FB6AC
:1006D0000F9211242F938F939F93EF93FF93E091A9
:1006E0005402F09155028081E0915A02F0915B0230
:1006F00082FD12C0908180915D028F5F8F73209187
:100700005E02821751F0E0915D02F0E0EC5BFD4F7C
:10071000958F80935D0201C08081FF91EF919F9141
:100720008F912F910F900FBE0F901F901895FC0185
:100730008EED97E09683858381E0848383831082A6
:100740001182128283E0878308959F92AF92BF92B5
:10075000CF92DF92EF92FF920F931F93CF93DF938D
:10076000CDB7DEB760970FB6F894DEBF0FBECDBF32
:100770008C01CE0101960E949703F80181858823A0
:1007800009F447C084EE8093BC008091BC0087FFD1
:10079000FCCF80ED8093BB0084EC8093BC00809103
:1007A000BC0087FFFCCF1092BB0084EC8093BC00A0
:1007B0008091BC0087FFFCCF84EE8093BC008091C9
:1007C000BC0087FFFCCF81ED8093BB0084EC80935D
:1007D000BC008091BC0087FFFCCFF8013296C801B5
:1007E000099634EC3093BC002091BC0027FFFCCF6D
:1007F0002091BB002193E817F907A1F784E88093C3
:10080000BC008091BC0087FFFCCF84E98093BC00D2
:1008100093C060EDC8010E94AB02C8010E9495021E
:1008200061E0F80181810E944A0D40E0F801608199
:1008300081810E94FB0CC8010E94950261EDC801F4
:100840000E94AB02C8010E9495025801F2E0AF0E6F
:10085000B11CE12CF12C60E0F80181810E944A0D6D
:1008600087E0C82ED12C912C61E0F80180810E9494
:10087000280CF80181810E94FF0B99270C2C01C0E4
:10088000880F0A94EAF7982A60E0F80180810E94B4
:10089000280CF1E0CF1AD10838F7F50191925F01E9
:1008A00061E0F8018181F6E0EF16F10449F00E9461
:1008B0004A0D60E0F80180810E94280C60E008C0C9
:1008C0000E944A0D60E0F80180810E94280C61E0DE
:1008D000F80181810E94280C61E0F80180810E946A
:1008E000280C60E0F80180810E94280C60E0F8018B
:1008F00081810E944A0DFFEFEF1AFF0A27E0E216FE
:10090000F10409F0A8CF61E0F80181810E944A0D4D
:1009100060E0F80181810E94280C61E0F80180818B
:100920000E94280C61E0F80181810E94280C60E09F
:10093000F80181810E944A0DF8018281982F9695D5
:10094000969596959E70292F220F220F920F8F70E9
:10095000890F8B838381982F9695969596959E7097
:10096000292F220F220F920F8F70890F8A83848183
:10097000282F2F7087FF09C085FB992790F9822FB8
:10098000FCE09F9F800D112409C080738695869599
:100990008695982F990F990F890F820F8983F801F7
:1009A000858188878681982F9695969596959E70D5
:1009B000292F220F220F920F8F70890F8C8387812E
:1009C000982F9695969596959E70292F220F220F17
:1009D000920F8F70890F8D838085982F92959F70CD
:1009E0008F70FAE09F9F800D112490E08053984F04
:1009F0009F838E8388E0FE013196DE011996019077
:100A00000D928A95E1F729853A854B855C856D8540
:100A10007E858F85988960960FB6F894DEBF0FBEED
:100A2000CDBFDF91CF911F910F91FF90EF90DF909D
:100A3000CF90BF90AF909F900895DC01E0E06150AF
:100A400038F08D91E827F0E0E859FF4FE491F7CFB7
:100A50008E2F0895EF92FF920F931F93CF93DF9302
:100A60007C018B01D42FDC011596ED91FC9116973A
:100A7000138615861486DF011B9633961E92AE17D9
:100A8000BF07E1F7C0E0B801D70115968D919C91A1
:100A900016970E94670A811102C080E010C0CD1332
:100AA0000AC067E0C8010E941D05F80197818913FB
:100AB00002C081E004C0CF5FDC1778F3E4CFDF91A0
:100AC000CF911F910F91FF90EF900895FC019081BD
:100AD0000180F281E02DF8948181892B818322812C
:100AE000892F809528232283A7E0B0E01197F1F7A2
:100AF000218182238183A3E2B0E01197F1F7808105
:100B00007894EFECF0E03197F1F7982381E009F465
:100B100080E00895FC0190810180F281E02D892F11
:100B2000809560FF12C0F8942281822382838181A4
:100B3000892B8183A3E2B0E01197F1F78281982B92
:100B40009283789487ED90E011C0F89422818223FB
:100B500082838181892B8183AFEFB0E01197F1F718
:100B60008281982B928378948FE090E00197F1F73F
:100B70000895CF92DF92EF92FF920F931F93CF933E
:100B8000DF931F92CDB7DEB76C01E62E08E010E0D0
:100B9000FF24F39461E08F2D8E2109F460E0C601FB
:100BA00049830E948A05FF0C0150110949810115F2
:100BB000110581F7411115C0F894D6011196ED91F8
:100BC000FC91129791818C91809589238183119654
:100BD000ED91FC91129792818C918095892382836B
:100BE00078940F90DF91CF911F910F91FF90EF902C
:100BF000DF90CF900895CF92DF92EF92FF920F9304
:100C00001F93CF93DF931F92CDB7DEB78C01F62EE3
:100C100040E065E579830E94B905CF2C7981D72E14
:100C2000760188E0E80EF11CF60161916F0140E069
:100C3000C8010E94B905CE14DF04B1F70F90DF910F
:100C4000CF911F910F91FF90EF90DF90CF9008957B
:100C5000FC0190810180F281E02DF8948181292F9F
:100C600020958223818378948DE743E050E0815082
:100C700021F1DA011197F1F730813923C1F3F894AA
:100C80008281822382838181892B81837894ABE75F
:100C9000B7E01197F1F7F894818128232183A3E12C
:100CA000B1E01197F1F78081982381E009F080E0AD
:100CB0007894E3E6F6E03197F1F708958F929F92EA
:100CC000AF92BF92CF92DF92EF92FF92CF93DF93DA
:100CD000EC018D819E810E94280640E06CEC8D81A4
:100CE0009E810E94B905488164E48D819E810E94A5
:100CF000B9058A81882309F44EC0E981E950E330BF
:100D000040F4F0E0EE0FFF1FE15FFE4F6081718164
:100D100002C06EEE72E08B81882369F188818111B7
:100D20002AC08FB7F8948090240390902503A09058
:100D30002603B09027038FBF6B01770FEE08FF08E3
:100D40008D819E810E946605813029F12FB7F8942C
:100D50008091240390912503A0912603B09127034D
:100D60002FBF8C199D09AE09BF0988159905AA05E1
:100D7000BB0530F310C0072E000C880B990BDF91D8
:100D8000CF91FF90EF90DF90CF90BF90AF909F906A
:100D90008F900C94860DDF91CF91FF90EF90DF90B4
:100DA000CF90BF90AF909F908F9008954F925F9299
:100DB0006F927F928F929F92AF92BF92CF92DF926B
:100DC000EF92FF920F931F93CF93DF9300D0CDB795
:100DD000DEB72C018A01FC018581968169837A83C3
:100DE0000E94280669817A818823C9F1F2018581F0
:100DF00096810E94FB0540E06EEBF20185819681B1
:100E00000E94B90578014801F9E08F0E911CF201AA
:100E10006580768088E0A82EB12CCC24C394D12C98
:100E2000C3010E9466058111DC28CC0CF1E0AF1AE9
:100E3000B108B1F7F701D1927F01E815F90539F74B
:100E4000F201858196810E942806813041F468E094
:100E5000C8010E941D0591E0F8012085821390E0F1
:100E6000892F0F900F90DF91CF911F910F91FF90DD
:100E7000EF90DF90CF90BF90AF909F908F907F903A
:100E80006F905F904F900895CF92DF92EF92FF9214
:100E90000F931F93CF93DF937C016C0187E0C80E03
:100EA000D11CC0E0D0E0062F10E0B8010C2E02C02B
:100EB000759567950A94E2F76170F60181916F016B
:100EC0000E94280C2196C430D10579F7C701DF9123
:100ED000CF911F910F91FF90EF90DF90CF900C94E6
:100EE0007F02CF92DF92EF92FF920F931F93CF93E7
:100EF000DF93EC01F62E642F8C810E94280C8D81EB
:100F00008F3F19F060E00E94280C8F850F2D10E0B4
:100F100084FF25C06E0187E0C80ED11CE12CF12CA6
:100F2000B8010E2C02C0759567950A94E2F76170BE
:100F3000F60181916F010E94280CFFEFEF1AFF0A62
:100F400088E0E816F10461F7CE01DF91CF911F919F
:100F50000F91FF90EF90DF90CF900C947F02B8013B
:100F600084E0759567958A95E1F7CE010E94440764
:100F70006F2DCE01DF91CF911F910F91FF90EF90D8
:100F8000DF90CF900C94440741E00E94710781E00C
:100F900090E0089540E00C947107FC01443008F0A3
:100FA00043E08389481710F04FEF480FDF01A40F8B
:100FB000B11D54969C91690F6068CF010C94CA07CB
:100FC00008952F923F924F925F926F927F928F92ED
:100FD0009F92AF92BF92CF92DF92EF92FF920F93C8
:100FE0001F93CF93DF93CDB7DEB7C25BD1090FB6A6
:100FF000F894DEBF0FBECDBF1C01FC01828193813E
:101000000E945C0BF101248135818217930761F006
:10101000268137818217930739F097E6A92E91E050
:10102000B92E00E711E006C089E7A82E81E0B82EAE
:1010300002E811E0CE0149960E949703F1018281F6
:1010400093810E94A5035C8FF101828193810E94AC
:10105000A503C256DF4F7883CE59D040C156DF4F2B
:101060008883CF59D040C256DF4F88819981CE59AD
:10107000D0409F8F8E8FF101828193810E94A503C2
:101080006D8FF101828193810E94A503792F98A32E
:10109000C801CE54DF4F7883C25BD0400E94181342
:1010A000E82E898FC80103960E941813F82E8A8FA4
:1010B000C80106960E941813282F8B8F87013C8D3C
:1010C0004D8D5E8D6F8DCE54DF4F7881C25BD040E9
:1010D000F101828193810E940302C555DF4F68832D
:1010E00079838A839B83CB5AD040CE0141960E945C
:1010F0009703F101828193810E94A5035C8BF1012A
:10110000828193810E94A503EF967FAFEF97C1582C
:10111000DF4F8883CF57D040C258DF4F88819981F5
:10112000CE57D0409F8B8E8BF101828193810E949C
:10113000A5036D8BF101828193810E94A503792F14
:10114000988F8BE891E0CE54DF4F7883C25BD0401C
:101150000E941813082F898B8EE891E00E941813C3
:10116000182F8A8B81E991E00E941813282F8B8B0E
:101170003C894D895E896F89CE54DF4F7881C25B8F
:10118000D040F101828193810E9403026B017C01B6
:10119000CE0109960E949703F101828193810E94FA
:1011A000A5035C87F101828193810E94A5036F965C
:1011B0007FAF6F97A0968FAFA097A0968EAD9FAD93
:1011C000A0979F878E87F101828193810E94A5035A
:1011D0006D87F101828193810E94A503792F988BFD
:1011E000C501CE54DF4F7883C25BD0400E941813F4
:1011F000082F8987C50103960E941813182F8A8724
:10120000C50106960E941813282F8B873C854D85B3
:101210005E856F85CE54DF4F7881C25BD040F1018F
:10122000828193810E9403024B015C01CE010196F1
:101230000E949703F101828193810E94A5035C8340
:10124000F101828193810E94A5037EAF8FAF8EADA5
:101250009FAD9F838E83F101828193810E94A503BC
:101260006D83F101828193810E94A503792F988774
:1012700084E991E0CE54DF4F7883C25BD0400E9476
:101280001813082F898387E991E00E941813182FFB
:101290008A838AE991E00E941813282F8B83F10139
:1012A0000280F381E02DC755DF4FF983E883C95AE7
:1012B000D0403C814D815E816F81CE54DF4F78817B
:1012C000C25BD040CF010E9403022B013C01C755F5
:1012D000DF4F88819981C95AD0400E94A503F1014E
:1012E0002280338089019A01AB01BC01C1010E94B7
:1012F0000302AB01BC01C101C155DF4F4883CF5A86
:10130000D040C055DF4F5883C05BD040CF54DF4F33
:101310006883C15BD040CE54DF4F7883C25BD0403E
:101320000E94F70A0E94230AC155DF4F4881CF5A15
:10133000D040C055DF4F5881C05BD040CF54DF4F05
:101340006881C15BD040CE54DF4F7881C25BD04012
:101350004416550666067706DCF084169506A60642
:10136000B706C4F081E090E0C416D506E606F7069D
:101370009CF0C555DF4F088119812A813B81CB5AEA
:10138000D040041715072607370734F480E004C05F
:1013900081E001C080E090E0CE54DF4F0FB6F894BA
:1013A000DEBF0FBECDBFDF91CF911F910F91FF9098
:1013B000EF90DF90CF90BF90AF909F908F907F90F5
:1013C0006F905F904F903F902F9008950895CF9326
:1013D000DF93EC018DE991E00E94230A81E090E027
:1013E0009B838A8360E08BE0DF91CF910C94280C83
:1013F00008950895833081F028F4813099F0823087
:10140000A1F008958730A9F08830B9F08430D1F484
:10141000809180008F7D03C0809180008F778093C2
:101420008000089584B58F7702C084B58F7D84BD18
:1014300008958091B0008F7703C08091B0008F7DB8
:101440008093B0000895CF93DF93BC0184E492E0D1
:101450000E94E102EC0160E272E084E492E00E940A
:10146000E1028C0F9D1FDF91CF910895CF93DF9301
:10147000CDB7DEB729970FB6F894DEBF0FBECDBF4C
:10148000AE014F5F5F4FBC0189EF92E00E94D6062C
:10149000882389F08D818F3361F020F48F3159F4E6
:1014A00089E00CC08F3519F08F3739F004C08BE01C
:1014B00005C08AE003C080E001C08CE029960FB629
:1014C000F894DEBF0FBECDBFDF91CF910895AF92EC
:1014D000BF92CF92DF92EF92FF920F931F93CF9321
:1014E000DF931F92CDB7DEB75C01D62EE72EFC014D
:1014F0008585811105C0C5010E942806811106C09D
:10150000F50113861586148680E065C040E060EF23
:10151000C5010E94B90501E0F12CC12C11E0C50103
:101520000E946605682FC50169830E94660569816E
:10153000613019F48130B9F433C04F2D50E0681395
:101540001BC0F5018385181730F4E40FF51F838164
:10155000802349F402C0181731F060E0193058F4C4
:10156000F501148708C0F501EF0DF11D8381802B73
:10157000838361E009C0C12EF501E40FF51F93815B
:10158000802F809589238383C5010E948A051F5F70
:10159000000F11F4F39401E0F7E0FF1508F0BFCF5E
:1015A000113408F4ADCFF501C386C11002C081E04B
:1015B0008587F5018381882309F4A2CFD50113968D
:1015C000ED2DFE2D9501255F3F4F8D918193A21743
:1015D000B307D9F781E00F90DF91CF911F910F9161
:1015E000FF90EF90DF90CF90BF90AF9008950F9352
:1015F0001F93CF93DF93CDB7DEB728970FB6F8943C
:10160000DEBF0FBECDBF8C01CE0101960E949703B5
:10161000C8010E94A5033A834B832A3010F480E36B
:1016200005C0822F6AE00E940815805D809300014A
:101630003AE0822F632F0E940815905D909301017C
:101640008AE3809302012A812A3010F480E305C0E6
:10165000822F632F0E940815805D809303013AE07A
:10166000822F632F0E940815905D909304018AE3F6
:10167000809305012B812A3010F480E305C0822F6E
:10168000632F0E940815805D80930601822F6AE017
:101690000E940815905D909307011092080180E068
:1016A00091E028960FB6F894DEBF0FBECDBFDF9154
:1016B000CF911F910F9108950F931F93CF93DF93B5
:1016C000CDB7DEB766970FB6F894DEBF0FBECDBFBD
:1016D0008C019EE0E1E4F1E0DE01119601900D92B3
:1016E0009A95E1F7CE010F960E949703C8010E94D8
:1016F000A5039E012F5F3F4F290F311D290F311D7B
:10170000F90132978081918166960FB6F894DEBF19
:101710000FBECDBFDF91CF911F910F9108950F9311
:101720001F93CF93DF93CDB7DEB761970FB6F894D1
:10173000DEBF0FBECDBF8C0140E0BE01665F7F4FB4
:101740000E942A05811105C060E070E08EEF92ECE6
:101750004BC0AE014F5F5F4FBE01665F7F4FC80158
:101760000E94D606882359F1698148E0649FB00140
:1017700011248A81282F30E0322F2227330F330F94
:10178000330F262B372B8A858031E1F4688570E092
:101790008F81AB01481B5109CA019695982F882764
:1017A000979587950E94141560517109207F53E029
:1017B000220F331F5A95E1F7620F731F04C060E8D0
:1017C00074EE01C0B901613854EE75070CF4BCCF5A
:1017D000072E000C880B990B0E94E11320E030E0EB
:1017E00040E05CE30E94961461960FB6F894DEBF69
:1017F0000FBECDBFDF91CF911F910F910895CF9371
:10180000DF93282F30E0F901EE58FE4F8491F90163
:10181000EC55FE4FD491F901E057FE4FC491CC2313
:1018200091F081110E94FA09EC2FF0E0EE0FFF1FFA
:10183000EA57FE4FA591B491EC91ED2381E090E041
:1018400021F480E002C080E090E0DF91CF91089524
:101850001F93CF93DF93282F30E0F901EE58FE4F0E
:101860008491F901EC55FE4FD491F901E057FE4FF8
:10187000C491CC23C9F0162F81110E94FA09EC2FD4
:10188000F0E0EE0FFF1FE859FE4FA591B4918FB71E
:10189000F894111105C09C91ED2FE095E92302C049
:1018A000EC91ED2BEC938FBFDF91CF911F910895B9
:1018B000EF92FF920F931F93CF93DF93EC0162306F
:1018C00018F08F8588608F876B8B1C8A80E48D8BE6
:1018D00080E18E8B80E58F8B61E08C810E944A0DC8
:1018E0008D818F3F19F061E00E944A0D61E08E8189
:1018F0000E944A0D7E0187E0E80EF11C00E010E036
:101900008F8584FD03C084E090E002C088E090E011
:10191000081719074CF461E0F70181917F010E94DB
:101920004A0D0F5F1F4FECCF8BE39DE00197F1F75E
:1019300060E08C810E94280C60E08E810E94280C5F
:101940008D818F3F19F060E00E94280C6F8564FD47
:101950001DC063E0CE010E9444070BE416E4C801F9
:101960000197F1F763E0CE010E944407C801019797
:10197000F1F763E0CE010E94440783E592E001970E
:10198000F1F762E0CE010E94440716C06062CE010A
:101990000E94CA078BE496E40197F1F76F856062B5
:1019A000CE010E94CA0783E592E00197F1F76F85A7
:1019B0006062CE010E94CA076F856062CE010E94FC
:1019C000CA0784E0888B6CE0CE010E94CA0761E000
:1019D000CE010E94CA078BE39FE10197F1F782E0F5
:1019E000898B66E0CE01DF91CF911F910F91FF901F
:1019F000EF900C94CA07EF92FF920F931F93CF932F
:101A0000DF93E82EF62EC7E0D0E0042F10E0980117
:101A10000C2E02C0359527950A94E2F7B901617042
:101A200077278E2D0E94280C61E08F2D0E94280CB4
:101A300060E08F2D0E94280C219748F7DF91CF910D
:101A40001F910F91FF90EF9008953FB7F894809108
:101A5000290390912A03A0912B03B0912C0326B562
:101A6000A89B05C02F3F19F00196A11DB11D3FBFD6
:101A7000BA2FA92F982F8827820F911DA11DB11D64
:101A8000BC01CD0142E0660F771F881F991F4A9560
:101A9000D1F70895CF93DF9390E0FC01EC55FE4F12
:101AA0002491FC01E057FE4F8491882361F190E07E
:101AB000880F991FFC01E854FE4FC591D491FC0199
:101AC000E859FE4FA591B491611109C09FB7F894F0
:101AD0008881209582238883EC912E230BC062306D
:101AE00061F49FB7F8943881822F8095832388838F
:101AF000EC912E2B2C939FBF06C08FB7F894E881F2
:101B00002E2B28838FBFDF91CF9108958F929F92C4
:101B1000AF92BF92CF92DF92EF92FF926B017C0166
:101B20000E94250D4B015C01C114D104E104F104B4
:101B3000F1F00E94250DDC01CB0188199909AA0951
:101B4000BB09883E9340A105B10570F321E0C21A9C
:101B5000D108E108F10888EE880E83E0981EA11CE8
:101B6000B11CC114D104E104F10419F7DDCFFF90D9
:101B7000EF90DF90CF90BF90AF909F908F9008959F
:101B80001F920F920FB60F9211242F933F938F93B2
:101B90009F93AF93BF938091240390912503A091CD
:101BA0002603B09127033091280323E0230F2D371C
:101BB00020F40196A11DB11D05C026E8230F029651
:101BC000A11DB11D20932803809324039093250326
:101BD000A0932603B09327038091290390912A03B1
:101BE000A0912B03B0912C030196A11DB11D8093F0
:101BF000290390932A03A0932B03B0932C03BF9146
:101C0000AF919F918F913F912F910F900FBE0F90A9
:101C10001F901895CF93DF93CDB7DEB761970FB6BE
:101C2000F894DEBF0FBECDBF789484B5826084BDCA
:101C300084B5816084BD85B5826085BD85B58160D0
:101C400085BD80916E00816080936E00109281004E
:101C50008091810082608093810080918100816009
:101C600080938100809180008160809380008091CA
:101C7000B10084608093B1008091B0008160809356
:101C8000B00080917A00846080937A0080917A001D
:101C9000826080937A0080917A00816080937A00DC
:101CA00080917A00806880937A001092C10088EA5F
:101CB00091E00E94230A8EE090E00E947E15FC01D4
:101CC00085E291E0918380838FEA91E09387828718
:101CD00089EB91E09587848789EF92E095838483EF
:101CE00081EE92E0978386830CE013E011870087F2
:101CF00081E090E093838283F0934302E093420279
:101D000088E090E00E947E15FC018DE291E09183D5
:101D100080838EEB91E09583848382EC91E09783BE
:101D2000868313830283F0933F02E0933E0284E0B4
:101D300090E00E947E158C0185E391E0D8018D939F
:101D40009C9386EC91E00E94230AF8011382128290
:101D500061E08BE00E94280C109341020093400246
:101D600082E090E00E947E152DE331E0DC012D93AE
:101D70003C9390933D0280933C0261E089E00E9495
:101D80004A0D61E08AE00E944A0D61E08BE00E940A
:101D90004A0D60E087E00E944A0D60E086E00E9404
:101DA0004A0D60E088E00E944A0D62E081EE92E018
:101DB0000E94580C80910D03823101F580910C0333
:101DC0008331E1F481E08093150361E082E10E94B8
:101DD000280C61E083E10E94280C8091B9008E7F7D
:101DE0008093B9008091B9008D7F8093B9008CE019
:101DF0008093B80085E08093BC0007C01092150363
:101E000061E080910C030E944A0DE091FE02F09186
:101E1000FF02138615861486DF011B9633961E92E9
:101E2000AE17BF07E1F71092FD0201E0BE016F5F40
:101E30007F4F8091FE029091FF020E94670A8823E3
:101E400009F453C067E0CE0101960E941D059885F4
:101E50008913ECCF8091F902811127C08091FE0295
:101E60009091FF020E942806BE016F5F7F4F809114
:101E7000FE029091FF020E94FB0540E064EB80911E
:101E8000FE029091FF020E94B9058091FE0290919E
:101E9000FF020E946605182F8091FE029091FF02BA
:101EA0000E942806112309F4EDC21091FA028981DB
:101EB000803109F407C3CE0101960E94360A8117CA
:101EC00018F48091FA0209C08981803111F48CE004
:101ED00004C0CE0101960E94360A8093FA028091D6
:101EE000FD028F5F8093FD02A1CF8CE08093FA0208
:101EF000E12CF12C0FE58FE7D82E9FE1C92E2FE3BF
:101F0000B22E8091FD0290E0E816F9060CF0A6C012
:101F10004E2DBE01665F7F4F89EF92E00E942A0539
:101F20001091FA02193020F01D3018F01CE001C0A9
:101F300019E08A85803129F0CE010A960E94360A7E
:101F400001C08CE0811709F485C0AE014F5F5F4F7F
:101F5000BE01665F7F4F89EF92E00E94D60688231C
:101F600009F478C08A85803109F474C01B3041F0CF
:101F70001C3021F01A3031F4BD8205C0DD8203C06F
:101F80000D8301C0CD828091FE029091FF020E94DC
:101F90002806BE01665F7F4F8091FE029091FF028E
:101FA0000E94FB0540E06EE48091FE029091FF02EA
:101FB0000E94B90540E06B818091FE029091FF0282
:101FC0000E94B90540E06C818091FE029091FF0271
:101FD0000E94B9058A85803141F040E06D81809191
:101FE000FE029091FF020E94B9058091FE0290913D
:101FF000FF020E942806BE01665F7F4F8091FE02AD
:102000009091FF020E94FB054091F90268E48091E3
:10201000FE029091FF020E94B90564E170E080E049
:1020200090E00E94860D8091F902882331F06AE0E9
:1020300070E080E090E00E94860D8091FE02909119
:10204000FF020E9428068091FA02181708F4182F40
:102050001093FA02BFEFEB1AFB0A53CFE091540240
:10206000F091550282E08083E0915002F09151029C
:102070001082E0915202F09153028FEC8083109213
:102080005C02E0915802F091590286E08083E09171
:102090005602F0915702808180618083E091560260
:1020A000F0915702808188608083E0915602F09120
:1020B0005702808180688083E0915602F091570238
:1020C00080818F7D808310923802109239021092A5
:1020D0003A0210923B0280ED91E00E94230A0091A7
:1020E00042021091430241E060E0F801868197814D
:1020F0000E94CD07D80118968D919C9119970E9446
:102100005C0BBC01F801868197810E94E10241E0ED
:1021100068E0D80116968D919C9117970E94CD0783
:10212000F801808591850E94F70ABC01D8011696B6
:102130008D919C9117970E94E10268EC70E080E01D
:1021400090E00E94860DA0904202B0904302F501FB
:10215000848195810E945E06D50114968D919C9193
:1021600015970E948F0B6B017C0120E030E040E26C
:1021700051E40E94911418160CF0E3C020E030E006
:1021800040E252E4C701B6010E94AB1387FFD9C0F9
:1021900040E060E0F501868197810E94CD07D5017E
:1021A0001A966D917C911B9716968D919C9117971D
:1021B0000E94E10240E068E0F501868197810E947B
:1021C000CD07D50116960D911C911797A701960181
:1021D000C701B6010E940315882319F06CED71E068
:1021E0001AC026013701E89477F82FEF3FEF4FE749
:1021F0005FE7C301B2010E940315811110C02FEFE8
:102200003FEF4FE75FE7C301B2010E94AB1318161F
:1022100034F460EE71E0C8010E94E10282C02FEF49
:102220003FEF4FE75FE4C701B6010E949114181613
:1022300054F02FEF3FEF4FE75FECC701B6010E946C
:10224000AB1387FF03C064EE71E0E5CF20E030E020
:10225000A901C701B6010E94AB1387FF0DC0D801C9
:10226000ED91FC910190F081E02D6DE2C80109959E
:10227000F7FAF094F7F8F0942AE037ED43EA5BE3DD
:10228000C701B6010E943F132B013C010E94B0130D
:102290006B017C010E94DF139B01AC01C301B20101
:1022A0000E943E132B013C012AE0B701A601C801A0
:1022B0000E94F602D801ED91FC910190F081E02D91
:1022C0006EE2C801099520E030E040E251E4C3012C
:1022D000B2010E9496142B013C010E94B0136B01C5
:1022E000E12CF12C2AE0B701A601C8010E94F602F8
:1022F000C701B6010E94DF139B01AC01C301B2010B
:102300000E943E1320E030E040E251E40E94961427
:102310000E94B013AB0160E070E02AE0C8010E94A7
:10232000F60240E06EE0F501868197810E94CD07BC
:1023300068EE71E0D50116968D919C9117970E94D9
:10234000E10286E00E94FF0B019741F46AEE71E022
:1023500084E492E00E94E10260E010C087E00E9405
:10236000FF0B0197E9F48EEF91E00E94230A6EE0E3
:1023700072E084E492E00E94E10261E089E00E9460
:10238000280C60E08AE00E94280C85EF91E00E9412
:10239000230A80914002909141020E94E7094CC0BB
:1023A0000091420210914302D80114968D919C91A4
:1023B00015970E945E06F801848195810E948F0B1B
:1023C0000091400210914102D80112962D913C914A
:1023D00013972130310509F058C020E030E048EC77
:1023E00051E40E94AB1387FF0BC086EC91E00E9482
:1023F000230AF8011382128261E08BE00E94280C0C
:1024000000913E0210913F02C8010E94E107892B12
:1024100009F04AC06EE072E084E492E00E94E102BA
:1024200061E089E00E94280C61E08AE00E94280CAB
:1024300088E192E00E94230A80913802909139024B
:10244000A0913A02B0913B020196A11DB11D8138C5
:10245000F8E39F07F1E0AF07B1054CF48093380231
:1024600090933902A0933A02B0933B0208C01092B5
:1024700038021092390210923A0210923B020E94E6
:10248000F9012DCE0093F90210CD232B09F0B8CF1E
:1024900020E030E040ED51E40E94911487FDB0CF80
:1024A000C8010E94E709ACCFC8010E94E10701976B
:1024B00009F0BACF6AEE71E084E492E00E94E10292
:1024C00060E0AFCF1D3008F0FCCC01CD1092470288
:1024D0001092460288EE93E0A0E0B0E080934802BC
:1024E00090934902A0934A02B0934B0283E591E096
:1024F000909345028093440285EC90E090935102C2
:102500008093500284EC90E09093530280935202A7
:1025100080EC90E0909355028093540281EC90E01F
:10252000909357028093560282EC90E09093590268
:102530008093580286EC90E090935B0280935A025D
:1025400010925D0210925E0210925F021092600281
:1025500082E180930D0383E180930C0360E088E0C7
:102560000E944A0DECEAF1E0E491E0931603E8E9F9
:10257000F1E0E491F0E0EE0FFF1FEA57FE4F859186
:102580009491909318038093170310922103109253
:10259000230310922203E1E2F3E0129283E0E93197
:1025A000F807D9F78EE792E090930B0380930A0324
:1025B00086E193E09093FF028093FE021092FD0269
:1025C0001092F90289E08093FA0281E08093FB0285
:1025D0008093FC021092E4021092E30283E691E001
:1025E0009093E2028093E1028CE08093E5028FEF0A
:1025F0008093E6028DE08093E70285E08093E80215
:1026000084E08093E90283E08093EA0282E0809391
:10261000EB021092EC021092ED021092EE02109278
:10262000EF021092F00261E081EE92E00C94580CFF
:10263000FC0188279927E89421912032E9F3293079
:1026400010F02E30C8F32B3241F02D3239F468945B
:1026500004C00E943613820F911D219120532A300D
:10266000C0F31EF4909581959F4F08957AE0979F4F
:10267000902D879F802D910D112408955058BB27D0
:10268000AA270E9456130C9457140E94491438F03C
:102690000E94501420F039F49F3F19F426F40C9452
:1026A00046140EF4E095E7FB0C944014E92F0E94C9
:1026B000681458F3BA17620773078407950720F068
:1026C00079F4A6F50C948A140EF4E0950B2EBA2F2B
:1026D000A02D0B01B90190010C01CA01A001112428
:1026E000FF27591B99F0593F50F4503E68F11A16D4
:1026F000F040A22F232F342F4427585FF3CF469565
:1027000037952795A795F0405395C9F77EF41F1686
:10271000BA0B620B730B840BBAF09150A1F0FF0F50
:10272000BB1F661F771F881FC2F70EC0BA0F621F3C
:10273000731F841F48F4879577956795B795F7952C
:102740009E3F08F0B0CF9395880F08F09927EE0FC1
:102750009795879508950E941C1408F481E00895C8
:102760000E94701488F09F5798F0B92F9927B7519D
:10277000B0F0E1F0660F771F881F991F1AF0BA9525
:10278000C9F714C0B13091F00E948A14B1E00895E5
:102790000C948A14672F782F8827B85F39F0B93FD7
:1027A000CCF3869577956795B395D9F73EF49095D8
:1027B0008095709561957F4F8F4F9F4F0895E89456
:1027C00009C097FB3EF490958095709561957F4F79
:1027D0008F4F9F4F9923A9F0F92F96E9BB27939527
:1027E000F695879577956795B795F111F8CFFAF437
:1027F000BB0F11F460FF1BC06F5F7F4F8F4F9F4F68
:1028000016C0882311F096E911C0772321F09EE8C5
:10281000872F762F05C0662371F096E8862F70E02B
:1028200060E02AF09A95660F771F881FDAF7880F05
:102830009695879597F90895990F0008550FAA0B5B
:10284000E0E8FEEF16161706E807F907C0F01216C3
:102850001306E407F50798F0621B730B840B950BC6
:1028600039F40A2661F0232B242B252B21F408951B
:102870000A2609F4A140A6958FEF811D811D0895B8
:1028800097F99F6780E870E060E008959FEF80EC23
:10289000089500240A9416161706180609060895C6
:1028A00000240A9412161306140605060895092E2C
:1028B0000394000C11F4882352F0BB0F40F4BF2B9B
:1028C00011F460FF04C06F5F7F4F8F4F9F4F0895DB
:1028D00057FD9058440F551F59F05F3F71F04795D1
:1028E000880F97FB991F61F09F3F79F087950895B6
:1028F000121613061406551FF2CF4695F1DF08C0D5
:10290000161617061806991FF1CF869571056105F1
:1029100008940895E894BB2766277727CB0197F999
:1029200008950E941C1408F48FEF08950E94A914C2
:102930000C9457140E94491438F00E94501420F04F
:10294000952311F00C9440140C94461411240C940B
:102950008B140E94681470F3959FC1F3950F50E09B
:10296000551F629FF001729FBB27F00DB11D639F41
:10297000AA27F00DB11DAA1F649F6627B00DA11DE7
:10298000661F829F2227B00DA11D621F739FB00D8D
:10299000A11D621F839FA00D611D221F749F3327FD
:1029A000A00D611D231F849F600D211D822F762F96
:1029B0006A2F11249F5750409AF0F1F088234AF073
:1029C000EE0FFF1FBB1F661F771F881F91505040DF
:1029D000A9F79E3F510580F00C9440140C948B1481
:1029E0005F3FE4F3983ED4F3869577956795B79566
:1029F000F795E7959F5FC1F7FE2B880F911D969580
:102A0000879597F908950E941C14880B990B0895D7
:102A1000991B79E004C0991F961708F0961B881F30
:102A20007A95C9F78095089597FB072E16F40094C0
:102A300007D077FD09D00E94641507FC05D03EF44D
:102A4000909581959F4F0895709561957F4F08955A
:102A5000A1E21A2EAA1BBB1BFD010DC0AA1FBB1FA2
:102A6000EE1FFF1FA217B307E407F50720F0A21B14
:102A7000B30BE40BF50B661F771F881F991F1A9481
:102A800069F760957095809590959B01AC01BD01AB
:102A9000CF010895A29FB001B39FC001A39F700D05
:102AA000811D1124911DB29F700D811D1124911D56
:102AB00008950E944A15A59F900DB49F900DA49F64
:102AC000800D911D11240895AA1BBB1B51E107C065
:102AD000AA1FBB1FA617B70710F0A61BB70B881FAE
:102AE000991F5A95A9F780959095BC01CD0108953D
:102AF000EE0FFF1F0590F491E02D0994CF93DF9323
:102B00008230910510F482E090E0E0912F03F09183
:102B1000300320E030E0C0E0D0E0309711F1408198
:102B2000518148175907C0F04817590761F482814D
:102B30009381209719F09B838A832BC09093300355
:102B400080932F0326C02115310519F04217530732
:102B500018F49A01BE01DF01EF010280F381E02D3C
:102B6000DCCF2115310509F1281B390B2430310543
:102B700090F412968D919C9113976115710521F037
:102B8000FB019383828304C09093300380932F03CF
:102B9000FD01329644C0FD01E20FF31F8193919332
:102BA000225031092D933C933AC020912D0330914E
:102BB0002E03232B41F420910B0130910C01309313
:102BC0002E0320932D032091090130910A01211534
:102BD000310541F42DB73EB740910D0150910E01E2
:102BE000241B350BE0912D03F0912E03E217F30720
:102BF000A0F42E1B3F0B2817390778F0AC014E5F6D
:102C00005F4F2417350748F04E0F5F1F50932E0378
:102C100040932D038193919302C0E0E0F0E0CF0157
:102C2000DF91CF9108950F931F93CF93DF93009778
:102C300009F48CC0FC0132971382128200912F0399
:102C4000109130030115110581F420813181820F2B
:102C5000931F20912D0330912E032817390779F502
:102C6000F0932E03E0932D0371C0D80140E050E0B3
:102C7000AE17BF0750F412962D913C911397AD01FA
:102C80002115310509F1D901F3CF9D01DA01338313
:102C9000228360817181860F971F8217930769F4E1
:102CA000EC0128813981260F371F2E5F3F4F31837A
:102CB00020838A819B8193838283452B29F4F0931F
:102CC0003003E0932F0342C01396FC93EE931297C8
:102CD000ED01499159919E01240F351FE217F30729
:102CE00071F480819181840F951F029611969C93B7
:102CF0008E938281938113969C938E931297E0E03A
:102D0000F0E0D80112968D919C911397009719F0DD
:102D1000F8018C01F6CF8D919C9198012E5F3F4F69
:102D2000820F931F20912D0330912E03281739070E
:102D300069F4309729F41092300310922F0302C0E7
:102D40001382128210932E0300932D03DF91CF91F3
:0A2D50001F910F910895F894FFCF32
:102D5A007878787878787878000000310380005E97
:102D6A0000BC0077011F1C1F1E1F1E1F1F1E1F1ED7
:102D7A001F00000000F909DF0200000000E609D97F
:102D8A000200000000F809DD0200000000E007DB95
:102D9A0002230227022B022F023302BE01C20100C4
:102DAA0000000090010C01590137014B01D70100C5
:102DBA00000000C4070C0131333A30303A30300099
:102DCA0030373A30303A30300031333A33303A30F3
:102DDA00300030383A33303A30300031323A30301D
:102DEA003A30300032333A30303A30300048656198
:102DFA00746572204F66660053657475700A0057D1
:102E0A0061737365723A2020004C756674005361D1
:102E1A00740053756E00486561746572204F6E00C8
:102E2A00696E697469616C69736564006E616E00CC
:102E3A00696E66006F76660043004C6967687420A5
:102E4A004F66660A0050756D70204F6666005365BE
:102E5A0072766963654D6F646520736574004C69A9
:102E6A00676874204F6E0A0050756D70204F6E00AF
:102E7A000D0A004D6F6E0054756500576564005465
:082E8A00687500467269000042
:00000001FF
