:100000000C94E2000C940A010C940A010C940A016D
:100010000C940A010C940A010C940A010C940A0134
:100020000C940A010C940A010C940A010C940A0124
:100030000C940A010C940A010C940A010C940A0114
:100040000C94B40B0C940A010C9456040C943004D8
:100050000C940A010C940A010C940A010C940A01F4
:100060000C940A010C940A01005EBCE2613FDD833E
:10007000C29C7E20A3FD1F419DC3217FFCA2401E88
:100080005F01E3BD3E6082DC237D9FC1421CFEA078
:10009000E1BF5D0380DE3C62BEE0025CDF81633D68
:1000A0007C22C09E1D43A1FF4618FAA427799BC558
:1000B00084DA3866E5BB5907DB856739BAE4065848
:1000C0001947A5FB7826C49A653BD987045AB8E638
:1000D000A7F91B45C6987A24F8A6441A99C7257B28
:1000E0003A6486D85B05E7B98CD2306EEDB3510F18
:1000F0004E10F2AC2F7193CD114FADF3702ECC9208
:10010000D38D6F31B2EC0E50AFF1134DCE90722CF7
:100110006D33D18F0C52B0EE326C8ED0530DEFB1E7
:10012000F0AE4C1291CF2D73CA947628ABF51749D7
:100130000856B4EA6937D58B5709EBB536688AD4C7
:1001400095CB2977F4AA4816E9B7550B88D6346AB7
:100150002B7597C94A14F6A8742AC896154BA9F7A7
:10016000B6E80A54D7896B35000000002400270048
:100170002A0000000000250028002B0000000008D5
:10018000000201000003040700000000000000005E
:1001900000000000230026002900040404040404D5
:1001A0000404020202020202030303030303010226
:1001B00004081020408001020408102001020408F5
:1001C00010209B1311241FBECFEFD8E0DEBFCDBFA0
:1001D00012E0A0E0B1E0E0EFF0E302C005900D9284
:1001E000A23AB107D9F723E0A2EAB2E001C01D921A
:1001F000AB39B207E1F710E0C2EED0E004C02197BE
:10020000FE010E943E17C13ED107C9F70E94490F67
:100210000C9476180C940000CF92DF92EF92FF922C
:100220000F931F93CF93DF936C017A018B01C0E092
:10023000D0E0CE15DF0589F0D8016D918D01D60192
:10024000ED91FC910190F081E02DC6010995892B7B
:1002500011F47E0102C02196ECCFC701DF91CF914E
:100260001F910F91FF90EF90DF90CF900895FC01C8
:10027000918D828D981761F0828DDF01A80FB11DDD
:100280005D968C91928D9F5F9F73928F90E0089501
:100290008FEF9FEF0895FC01918D828D981731F0BB
:1002A000828DE80FF11D858D90E008958FEF9FEF0F
:1002B0000895FC01918D228D892F90E0805C9F4FE5
:1002C000821B91098F739927089587EB92E00E9412
:1002D000590121E0892B09F420E0822F0895FC01C7
:1002E000848DDF01A80FB11DA35ABF4F2C91848DBF
:1002F00090E001968F739927848FA689B7892C93F4
:10030000A089B1898C9180648C93938D848D98138E
:1003100006C00288F389E02D80818F7D8083089557
:10032000EF92FF920F931F93CF93DF93EC0181E045
:10033000888F9B8D8C8D981305C0E889F989808101
:1003400085FD24C0F62E0B8D10E00F5F1F4F0F733D
:100350001127E02E8C8DE8120CC00FB607FCFACFE7
:10036000E889F989808185FFF5CFCE010E946F0170
:10037000F1CF8B8DFE01E80FF11DE35AFF4FF082A4
:100380000B8FEA89FB898081806207C0EE89FF8933
:100390006083E889F98980818064808381E090E0CE
:1003A000DF91CF911F910F91FF90EF900895CF9320
:1003B000DF93EC01888D8823C9F0EA89FB8980816D
:1003C00085FD05C0A889B9898C9186FD0FC00FB63F
:1003D00007FCF5CF808185FFF2CFA889B9898C9180
:1003E00085FFEDCFCE010E946F01E7CFDF91CF9166
:1003F000089580E090E0892B29F00E946501811129
:100400000C9400000895EF92FF920F931F93CF93E7
:10041000DF93CDB7DEB728970FB6F894DEBF0FBED7
:10042000CDBF09831A832B835E836F836E817F81A7
:10043000832F90E050E0E42FF0E03197252F30E05B
:100440002E173F0744F4D901AB5EBE4F2C91820FAB
:10045000911D5F5FF3CF433030F09B012370332752
:10046000232B09F401964DE651E0649F9001659FAE
:10047000300D749F300D1124215933426D5C77404B
:100480007695679576956795260F371F280F391F44
:10049000A8E1B0E00E94101729817B018C01E20ED7
:1004A000F11C011D111DA8019701ACE3B0E00E94F1
:1004B0001F172A817B018C01E20EF11C011D111D09
:1004C000A80197010E941F172B81DC01CB01820F2D
:1004D000911DA11DB11DBC01CD0160587C4B82490D
:1004E000974C28960FB6F894DEBF0FBECDBFDF91B4
:1004F000CF911F910F91FF90EF9008950895CF93A2
:10050000DF93EC0161E089810E94300E60E0888118
:100510000E94D60D61E089810E94D60D61E088813C
:100520000E94D60D60E088810E94D60D60E089812E
:10053000DF91CF910C94300ECF93DF93EC0160E00C
:100540008E810E94D60D61E08E810E94D60D60E002
:100550008E810E94D60D8BE891E00197F1F7DF9133
:10056000CF910895FF920F931F93CF93DF938C0148
:1005700060E0FC0181810E94300EC7E0D0E0F12CE8
:1005800061E0F80180810E94D60DF80181810E940E
:10059000AD0D9C0133270C2E01C0220F0A94EAF7FF
:1005A000F22A60E0F80180810E94D60D219740F781
:1005B0008F2DDF91CF911F910F91FF9008950C9493
:1005C000D9170C94D9170C94D9170C94D917DC01AE
:1005D000ED91FC910190F081E02D09946115710578
:1005E00079F0FB0101900020E9F73197AF01461B3C
:1005F000570BDC01ED91FC910280F381E02D099411
:1006000080E090E008954F925F926F927F92EF9218
:10061000FF920F931F93CF93DF93CDB7DEB7A197D0
:100620000FB6F894DEBF0FBECDBF7C01FA01CB013F
:1006300019A2223008F42AE08E010F5D1F4F422ECE
:10064000512C612C712CBF01A30192010E94CF1685
:10065000F901CA01015011096A3014F4605D01C04A
:10066000695CD8016C93232B242B252B61F7B801EF
:10067000C7010E94EE02A1960FB6F894DEBF0FBE2E
:10068000CDBFDF91CF911F910F91FF90EF907F90A1
:100690006F905F904F9008954F925F926F927F920C
:1006A0008F929F92AF92BF92CF92DF92EF92FF9282
:1006B000CF93DF93EC016A017B01B22E9A01AB016B
:1006C000C701B6010E94AA16882319F067E671E0F7
:1006D00027C026013701E89477F82FEF3FEF4FE767
:1006E0005FE7C301B2010E94AA1681110DC02FEF6E
:1006F0003FEF4FE75FE7C301B2010E94E014181615
:100700001CF46BE671E00CC02FEF3FEF4FE75FE4A6
:10071000C701B6010E94381618169CF46FE671E006
:10072000CE01DF91CF91FF90EF90DF90CF90BF90FF
:10073000AF909F908F907F906F905F904F900C94B0
:10074000EE022FEF3FEF4FE75FECC701B6010E94CB
:10075000E01487FDE3CF20E030E0A901C701B60136
:100760000E94E01487FF0AC06DE2CE010E94E702FA
:100770004C01F7FAF094F7F8F09402C0812C912C18
:10078000A12C60E070E080E09FE3AB1441F020E03A
:1007900030E040E251E40E94E514A394F6CF9B01BF
:1007A000AC01C701B6010E9474142B013C010E94E8
:1007B00057156B017C010E9486159B01AC01C3019A
:1007C000B2010E9473142B013C012AE0B701A6017B
:1007D000CE010E9403037C01E80CF91CBB2031F020
:1007E0006EE2CE010E94E702E80EF91EDB2CDD204E
:1007F00029F120E030E040E251E4C301B2010E945F
:100800003D162B013C010E9457154B01A12CB12C28
:100810002AE0B501A401CE010E940303E80EF91EEF
:10082000C501B4010E9486159B01AC01C301B20150
:100830000E9473142B013C01DA94D9CFC701DF91D8
:10084000CF91FF90EF90DF90CF90BF90AF909F90AF
:100850008F907F906F905F904F9008950C94EE0270
:100860001F920F920FB60F9211242F933F934F9325
:100870005F936F937F938F939F93AF93BF93EF9308
:10088000FF9387EB92E00E946F01FF91EF91BF9180
:10089000AF919F918F917F916F915F914F913F9118
:1008A0002F910F900FBE0F901F9018951F920F92CF
:1008B0000FB60F9211242F938F939F93EF93FF9373
:1008C000E091C702F091C8028081E091CD02F091E1
:1008D000CE0282FD12C090818091D0028F5F8F7313
:1008E0002091D102821751F0E091D002F0E0E9545A
:1008F000FD4F958F8093D00201C08081FF91EF91D1
:100900009F918F912F910F900FBE0F901F90189570
:100910000F931F93CF93DF931F92CDB7DEB78C0158
:10092000462F61E0FC01818149830E94300E49819C
:10093000F801608181810F90DF91CF911F910F911C
:100940000C94060ECF93DF93EC0160E089810E9446
:10095000300E61E088810E94D60D89810E94AD0D24
:100960000197D9F360E08881DF91CF910C94D60D87
:10097000CF93DF93EC0161E089810E94300E60E04B
:1009800089810E94D60D61E088810E94D60D61E0C8
:1009900089810E94D60D60E08981DF91CF910C940E
:1009A000300E0F931F93CF93DF931F92CDB7DEB717
:1009B0008C01462F61E0FC01818149830E94300E49
:1009C00061E0F80181810E94D60D61E0F80180812B
:1009D0000E94D60D60E0F80181810E94D60D60E092
:1009E000F80180810E94D60D4981F80160818181E2
:1009F0000F90DF91CF911F910F910C94060ECF9223
:100A0000DF92EF92FF920F931F93CF93DF93CDB7B7
:100A1000DEB728970FB6F894DEBF0FBECDBF8C01AE
:100A2000DC0119968C91882309F447C084EE8093E9
:100A3000BC008091BC0087FFFCCF80ED8093BB00A1
:100A400084EC8093BC008091BC0087FFFCCF1092A7
:100A5000BB0084EC8093BC008091BC0087FFFCCF7E
:100A600084EE8093BC008091BC0087FFFCCF81EDB9
:100A70008093BB0084EC8093BC008091BC0087FF16
:100A8000FCCFF8013296C801099634EC3093BC00D3
:100A90002091BC0027FFFCCF2091BB002193E817D9
:100AA000F907A1F784E88093BC008091BC0087FF20
:100AB000FCCF84E98093BC0053C060EDC8010E9464
:100AC000D104C8010E94A20460E0C8010E94880409
:100AD000C8010E94A20461EDC8010E94D104C801AE
:100AE0000E94A2046801B2E0CB0ED11CE12CF12CD3
:100AF000C8010E94B202F60181936F01F6E0EF1681
:100B0000F10409F161E0D80111968C910E94300E38
:100B100060E0F80180810E94D60D60E0D801119656
:100B20008C910E94D60D61E0F80180810E94D60D63
:100B300060E0D8018C910E94D60D60E0F8018181BF
:100B40000E94300E03C0C8010E947F02FFEFEF1A1F
:100B5000FF0A77E0E716F10459F6C8010E94B804CD
:100B6000D80112968C911297482F46954695469536
:100B70004E70942F990F990F490F8F70480F13964D
:100B80008C911397382F3695369536953E70932F66
:100B9000990F990F390F8F70380F14968C91282F59
:100BA0002F7087FF08C085FB992790F9BCE09B9FB9
:100BB000200D112409C08073869586958695982FFF
:100BC000990F990F890F280FD8011596EC91159759
:100BD00016966C91169717967C91179718968C918C
:100BE000562F5695569556955E70952F990F990FDD
:100BF000590F6F70560F672F6695669566956E70E4
:100C0000962F990F990F690F7F70670F982F929504
:100C10009F708F70BAE09B9F800D112490E08053ED
:100C2000984F9F838E83782F8F819E2F28960FB6A3
:100C3000F894DEBF0FBECDBFDF91CF911F910F9112
:100C4000FF90EF90DF90CF9008954F925F926F9258
:100C50007F928F929F92AF92BF92CF92DF92EF924C
:100C6000FF920F931F93CF93DF93CDB7DEB7CC5690
:100C7000D1090FB6F894DEBF0FBECDBF7C01DC01F9
:100C800012968D919C9113970E945E0CF70124811E
:100C900035818217930771F0268137818217930778
:100CA00049F023E7C22E21E0D22E3CE7A32E31E00B
:100CB000B32E08C085E8C82E81E0D82E9EE8A92E64
:100CC00091E0B92EC5010E944D14082FC6010E9463
:100CD0004D14682EC50103960E944D14182FC601AD
:100CE00003960E944D14782EC50106960E944D145D
:100CF000B82EC60106960E944D14D82ED701129622
:100D00008D919C9113970E94FF045C87F70182816B
:100D100093810E94FF046F967FAF6F97A0968FAF6D
:100D2000A097A0968EAD9FADA0979F878E87D70185
:100D300012968D919C9113970E94FF046D87F70185
:100D4000828193810E94FF04988B09871A87BB8652
:100D50002B2D3C854D855E856F85792FD7011296A9
:100D60008D919C9113970E9403024B015C0167E9EE
:100D700071E087EB92E00E942E04C501B4010E944D
:100D8000270CF701828193810E94FF045C83D701C5
:100D900012968D919C9113970E94FF047EAF8FAFA6
:100DA0008EAD9FAD9F838E83F701828193810E94D8
:100DB000FF046D83D70112968D919C9113970E9429
:100DC000FF04988769827A82DB8283012D2D3C8122
:100DD0004D815E816F81792FF701828193810E941D
:100DE00003022B013C0165EA71E087EB92E00E946F
:100DF0002E04C301B2010E94270CD70112968D91D7
:100E00009C9113970E94FF04F701C280D38089014F
:100E10009A01AB01BC01C6010E940302AD966CAF02
:100E20007DAF8EAF9FAFAD97481459046A047B0421
:100E30000CF056C086169706A806B90624F5C6011A
:100E40000E94FF0431E0350F09811A812B814D8109
:100E50005E816F817885D70112968D919C91139751
:100E60000E9403022B013C0164EB71E087EB92E0EE
:100E70000E942E04C301B2010E94270C4814590499
:100E80006A047B046CF5AD962CAD3DAD4EAD5FAD07
:100E9000AD97241535054605570514F5D70112966B
:100EA0008D919C9113970E94FF043FEF350F0985A8
:100EB0001A852B854D855E856F857889F70182813E
:100EC00093810E9403024B015C016BEC71E087EBA4
:100ED00092E00E942E04C501B4010E94270C0BC0B1
:100EE000AD962CAD3DAD4EAD5FADAD974216530600
:100EF000640675067CF081E090E0AD962CAD3DADCA
:100F00004EAD5FADAD9782169306A406B50624F4E8
:100F100080E002C081E090E0C459DF4F0FB6F89442
:100F2000DEBF0FBECDBFDF91CF911F910F91FF901C
:100F3000EF90DF90CF90BF90AF909F908F907F9079
:100F40006F905F904F9008951F93CF93DF93FC01B4
:100F50002185222309F43FC084EE8093BC00809158
:100F6000BC0087FFFCCF80ED8093BB0084EC8093B6
:100F7000BC008091BC0087FFFCCF6093BB0084EC79
:100F80008093BC008091BC0087FFFCCF84EE8093EF
:100F9000BC008091BC0087FFFCCF81ED8093BB003B
:100FA00084EC8093BC008091BC0087FFFCCF84EC74
:100FB0008093BC008091BC0087FFFCCF1091BB00E8
:100FC00084E88093BC008091BC0087FFFCCF84E95B
:100FD0008093BC0020C0162FEC0160ED0E94D1046C
:100FE000CE010E94A204612FCE010E948804CE018E
:100FF0000E94A20461EDCE010E94D104CE010E94A4
:10100000A204CE010E94B202182FCE010E947F02DC
:10101000CE010E94B804812FDF91CF911F910895D6
:10102000DC01E0E0615038F08D91E827F0E0E8590C
:10103000FF4FE491F7CF8E2F0895EF92FF920F9319
:101040001F93CF93DF937C018B01D42FDC01159686
:10105000ED91FC911697138615861486DF011B9679
:1010600033961E92AE17BF07E1F7C0E0B801D70173
:1010700015968D919C9116970E940A0D811102C0C0
:1010800080E010C0CD130AC067E0C8010E941008BC
:10109000F8019781891302C081E004C0CF5FDC179B
:1010A00078F3E4CFDF91CF911F910F91FF90EF90F4
:1010B0000895FC0190810180F281E02DF8948181F6
:1010C000892B81832281892F809528232283A7E081
:1010D000B0E01197F1F7218182238183A3E2B0E090
:1010E0001197F1F780817894EFECF0E03197F1F708
:1010F000982381E009F480E00895FC01908101804B
:10110000F281E02D892F809560FF12C0F894228132
:10111000822382838181892B8183A3E2B0E01197AE
:10112000F1F78281982B9283789487ED90E011C03B
:10113000F8942281822382838181892B8183AFEF7E
:10114000B0E01197F1F78281982B928378948FE029
:1011500090E00197F1F70895CF92DF92EF92FF921E
:101160000F931F93CF93DF931F92CDB7DEB76C0120
:10117000E62E08E010E0FF24F39461E08F2D8E212D
:1011800009F460E0C60149830E947D08FF0C01500C
:10119000110949810115110581F7411115C0F89414
:1011A000D6011196ED91FC91129791818C918095C9
:1011B000892381831196ED91FC91129792818C91F4
:1011C00080958923828378940F90DF91CF911F912E
:1011D0000F91FF90EF90DF90CF900895CF92DF9224
:1011E000EF92FF920F931F93CF93DF931F92CDB790
:1011F000DEB78C01F62E40E065E579830E94AC08ED
:10120000CF2C7981D72E760188E0E80EF11CF6010B
:1012100061916F0140E0C8010E94AC08CE14DF0468
:10122000B1F70F90DF91CF911F910F91FF90EF9049
:10123000DF90CF900895FC0190810180F281E02D34
:10124000F8948181292F20958223818378948DE7DA
:1012500043E050E0815021F1DA011197F1F730813C
:101260003923C1F3F8948281822382838181892B7F
:1012700081837894ABE7B7E01197F1F7F894818117
:1012800028232183A3E1B1E01197F1F7808198230E
:1012900081E009F080E07894E3E6F6E03197F1F739
:1012A00008954F925F926F927F928F929F92AF922A
:1012B000BF92CF92DF92EF92FF920F931F93CF9343
:1012C000DF9300D0CDB7DEB72C018A01FC01858108
:1012D000968169837A830E941B0969817A818823B8
:1012E000C9F1F201858196810E94EE0840E06EEB23
:1012F000F201858196810E94AC0878014801F9E0ED
:101300008F0E911CF2016580768088E0A82EB12CAA
:10131000CC24C394D12CC3010E9459088111DC282C
:10132000CC0CF1E0AF1AB108B1F7F701D1927F010F
:10133000E815F90539F7F201858196810E941B09AC
:10134000813041F468E0C8010E94100891E0F80182
:101350002085821390E0892F0F900F90DF91CF911D
:101360001F910F91FF90EF90DF90CF90BF90AF90C3
:101370009F908F907F906F905F904F900895CF9245
:10138000DF92EF92FF920F931F93CF93DF937C0135
:101390006C0187E0C80ED11CC0E0D0E0062F10E041
:1013A000B8010C2E02C0759567950A94E2F761703A
:1013B000F60181916F010E94D60D2196C430D105AE
:1013C00079F7C701DF91CF911F910F91FF90EF90B7
:1013D000DF90CF900C949C02CF92DF92EF92FF921D
:1013E0000F931F93CF93DF93EC01F62E642F8C8124
:1013F0000E94D60D8D818F3F19F060E00E94D60DBE
:101400008F850F2D10E084FF25C06E0187E0C80E88
:10141000D11CE12CF12CB8010E2C02C075956795FA
:101420000A94E2F76170F60181916F010E94D60D76
:10143000FFEFEF1AFF0A88E0E816F10461F7CE012A
:10144000DF91CF911F910F91FF90EF90DF90CF90A0
:101450000C949C02B80184E0759567958A95E1F734
:10146000CE010E94BF096F2DCE01DF91CF911F9158
:101470000F91FF90EF90DF90CF900C94BF0941E067
:101480000E94EC0981E090E0089540E00C94EC09A2
:10149000FC01443008F043E08389481710F04FEF17
:1014A000480FDF01A40FB11D54969C91690F60682D
:1014B000CF010C94450A0895CF93DF93EC010E946D
:1014C0002506892B41F461EE71E087EB92E00E94E2
:1014D0002E0461E00CC0CE010E942506019761F444
:1014E0006BEE71E087EB92E00E942E0460E089E0F1
:1014F000DF91CF910C94D60DDF91CF91089508958F
:1015000008954F925F926F927F928F929F92AF92C7
:10151000BF92EF92FF920F931F93CF93DF93CDB7BC
:10152000DEB761970FB6F894DEBF0FBECDBF8C015A
:10153000DC011496ED90FC901597F701858196815A
:101540000E941B0940E06CECD70115968D919C918F
:1015500016970E94AC08F701408164E4858196816A
:101560000E94AC08D70112968C911297882309F437
:1015700049C01196EC91E950E33040F4F0E0EE0FF1
:10158000FF1FE15FFE4F6081718102C06EEE72E06D
:10159000F7018381882381F1808181112DC08FB76C
:1015A000F8944090A2025090A3026090A402709020
:1015B000A5028FBF4B01770FAA08BB08D70115966C
:1015C0008D919C9116970E9459088130D9F02FB7C0
:1015D000F8948091A2029091A302A091A402B091EC
:1015E000A5022FBF88199909AA09BB098415950579
:1015F000A605B70518F306C0072E000C880B990B3B
:101600000E940F0F66EF71E087EB92E00E942E04BC
:10161000F8010481158140E0BE01665F7F4FC8017B
:101620000E941D08811107C0812C912CFEEFAF2E66
:10163000F2ECBF2E4DC0AE014F5F5F4FBE01665F43
:101640007F4FC8010E945109882359F16981F8E050
:101650006F9FB00111248A81282F30E0322F22277A
:10166000330F330F330F262B372B8A858031E1F46C
:10167000688570E08F81AB01481B5109CA019695BE
:10168000982F8827979587950E94BB1660517109FE
:10169000207F53E0220F331F5A95E1F7620F731F2B
:1016A00004C060E874EE01C0B901613854EE7507FA
:1016B0000CF4BACF072E000C880B990B0E948815EA
:1016C00020E030E040E05CE30E943D164B015C010D
:1016D00022E0B501A40187EB92E00E944C036CE08C
:1016E00072E087EB92E00E94EE02C501B4016196C0
:1016F0000FB6F894DEBF0FBECDBFDF91CF911F9123
:101700000F91FF90EF90BF90AF909F908F907F9040
:101710006F905F904F90089508950E9471183FB7A1
:10172000F8948091B3029091B402A091B502B09167
:10173000B60226B5A89B05C02F3F19F00196A11D42
:10174000B11D3FBFBA2FA92F982F8827820F911D57
:10175000A11DB11DBC01CD0142E0660F771F881F9E
:10176000991F4A95D1F708951F920F920FB60F92C5
:1017700011242F933F938F939F93AF93BF938091A7
:10178000A2029091A302A091A402B091A50230916F
:10179000B20223E0230F2D3720F40196A11DB11DC5
:1017A00005C026E8230F0296A11DB11D2093B202A9
:1017B0008093A2029093A302A093A402B093A502E7
:1017C0008091B3029091B402A091B502B091B6029B
:1017D0000196A11DB11D8093B3029093B402A09312
:1017E000B502B093B602BF91AF919F918F913F9197
:1017F0002F910F900FBE0F901F901895833081F09E
:1018000028F4813099F08230A1F008958730A9F052
:101810008830B9F08430D1F4809180008F7D03C08E
:10182000809180008F7780938000089584B58F77B2
:1018300002C084B58F7D84BD08958091B0008F77FC
:1018400003C08091B0008F7D8093B0000895CF9247
:10185000DF92EF92FF92CF93DF936B017C0197FFB2
:1018600016C06DE287EB92E00E94E702EC0144278C
:101870005527BA014C195D096E097F092AE087EBEB
:1018800092E00E9403037C01EC0EFD1E08C02AE0DA
:10189000AB01BC0187EB92E00E9403037C016CE08A
:1018A00072E087EB92E00E94EE028E0D9F1DDF91A9
:1018B000CF91FF90EF90DF90CF900895CF93DF937B
:1018C000CDB7DEB766970FB6F894DEBF0FBECDBFBB
:1018D0002EE0E1E4F1E0DE01119601900D922A95EF
:1018E000E1F70E94FF049E012F5F3F4F290F311D3A
:1018F000290F311DF90132978081918166960FB6CB
:10190000F894DEBF0FBECDBFDF91CF910895CF9386
:10191000DF9390918803992349F194EE9093BC0052
:101920009091BC0097FFFCCF90ED9093BB0094EC9E
:101930009093BC009091BC0097FFFCCF8093BB00BC
:1019400084EC8093BC008091BC0087FFFCCF609347
:10195000BB0084EC8093BC008091BC0087FFFCCF6F
:1019600084E98093BC00DF91CF910895C62FD82FD2
:1019700060ED8FE793E00E94D1048FE793E00E942F
:10198000A2046D2F8FE793E00E9488048FE793E015
:101990000E94A2046C2F8FE793E00E9488048FE7D7
:1019A00093E00E94A2048FE793E0DF91CF910C9423
:1019B000B804CF93DF93CDB7DEB729970FB6F8946D
:1019C000DEBF0FBECDBFAE014F5F5F4FBC018CE6E7
:1019D00093E00E945109882389F08D818F3361F053
:1019E00020F48F3159F489E00CC08F3519F08F370E
:1019F00039F004C08BE005C08AE003C080E001C07C
:101A00008CE029960FB6F894DEBF0FBECDBFDF91F4
:101A1000CF910895AF92BF92CF92DF92EF92FF9253
:101A20000F931F93CF93DF931F92CDB7DEB75C0167
:101A3000D62EE72EFC018585811105C0C5010E94C7
:101A40001B09811106C0F50113861586148680E0F6
:101A500065C040E060EFC5010E94AC0801E0F12CD8
:101A6000C12C11E0C5010E945908682FC501698386
:101A70000E9459086981613019F48130B9F433C08A
:101A80004F2D50E068131BC0F5018385181730F403
:101A9000E40FF51F8381802349F402C0181731F049
:101AA00060E0193058F4F501148708C0F501EF0D16
:101AB000F11D8381802B838361E009C0C12EF50174
:101AC000E40FF51F9381802F809589238383C501BF
:101AD0000E947D081F5F000F11F4F39401E0F7E00E
:101AE000FF1508F0BFCF113408F4ADCFF501C38660
:101AF000C11002C081E08587F5018381882309F444
:101B0000A2CFD5011396ED2DFE2D9501255F3F4FF8
:101B10008D918193A217B307D9F781E00F90DF91E0
:101B2000CF911F910F91FF90EF90DF90CF90BF90DA
:101B3000AF900895CF93DF93BC0187EB92E00E94B2
:101B4000EE02EC016CE072E087EB92E00E94EE02A4
:101B50008C0F9D1FDF91CF910895CF93DF93282F96
:101B600030E0F901E458FE4F8491F901E255FE4F4F
:101B7000D491F901E656FE4FC491CC2391F0811126
:101B80000E94FE0BEC2FF0E0EE0FFF1FE057FE4F20
:101B9000A591B491EC91ED2381E090E021F480E0F7
:101BA00002C080E090E0DF91CF9108951F93CF9322
:101BB000DF93282F30E0F901E458FE4F8491F901BA
:101BC000E255FE4FD491F901E656FE4FC491CC2365
:101BD000C9F0162F81110E94FE0BEC2FF0E0EE0FE2
:101BE000FF1FEE58FE4FA591B4918FB7F8941111D5
:101BF00005C09C91ED2FE095E92302C0EC91ED2BFF
:101C0000EC938FBFDF91CF911F910895EF92FF92D8
:101C10000F931F93CF93DF93E82EF62EC7E0D0E00B
:101C2000042F10E098010C2E02C0359527950A94D8
:101C3000E2F7B901617077278E2D0E94D60D61E021
:101C40008F2D0E94D60D60E08F2D0E94D60D21971A
:101C500048F7DF91CF911F910F91FF90EF9008957A
:101C6000CF93DF9390E0FC01E255FE4F2491FC01FD
:101C7000E656FE4F8491882361F190E0880F991F0A
:101C8000FC01E859FE4FC591D491FC01EE58FE4F7E
:101C9000A591B491611109C09FB7F89488812095EE
:101CA00082238883EC912E230BC0623061F49FB7AE
:101CB000F8943881822F809583238883EC912E2B92
:101CC0002C939FBF06C08FB7F894E8812E2B2883F2
:101CD0008FBFDF91CF910895EF92FF920F931F93E3
:101CE000CF93DF93EC01623018F08F8588608F8787
:101CF0006B8B1C8A80E48D8B80E18E8B80E58F8BD3
:101D000061E08C810E94300E8D818F3F19F061E07F
:101D10000E94300E61E08E810E94300E7E0187E0CD
:101D2000E80EF11C00E010E08F8584FD03C084E024
:101D300090E002C088E090E0081719074CF461E0D9
:101D4000F70181917F010E94300E0F5F1F4FECCF92
:101D50008BE39DE00197F1F760E08C810E94D60D46
:101D600060E08E810E94D60D8D818F3F19F060E07A
:101D70000E94D60D6F8564FD1DC063E0CE010E94F8
:101D8000BF090BE416E4C8010197F1F763E0CE0147
:101D90000E94BF09C8010197F1F763E0CE010E94DC
:101DA000BF0983E592E00197F1F762E0CE010E945E
:101DB000BF0916C06062CE010E94450A8BE496E41A
:101DC0000197F1F76F856062CE010E94450A83E5B5
:101DD00092E00197F1F76F856062CE010E94450A9B
:101DE0006F856062CE010E94450A84E0888B6CE0BA
:101DF000CE010E94450A61E0CE010E94450A8BE3B4
:101E00009FE10197F1F782E0898B66E0CE01DF91D7
:101E1000CF911F910F91FF90EF900C94450A8F92F4
:101E20009F92AF92BF92CF92DF92EF92FF926B019F
:101E30007C010E948F0B4B015C01C114D104E104B1
:101E4000F104F1F00E948F0BDC01CB018819990994
:101E5000AA09BB09883E9340A105B10570F321E0B2
:101E6000C21AD108E108F10888EE880E83E0981EB6
:101E7000A11CB11CC114D104E104F10419F7DDCF98
:101E8000FF90EF90DF90CF90BF90AF909F908F909A
:101E90000895CF93DF93CDB7DEB761970FB6F8946F
:101EA000DEBF0FBECDBF789484B5826084BD84B59B
:101EB000816084BD85B5826085BD85B5816085BD45
:101EC00080916E00816080936E00109281008091FD
:101ED0008100826080938100809181008160809385
:101EE0008100809180008160809380008091B100AA
:101EF00084608093B1008091B00081608093B000D5
:101F000080917A00846080937A0080917A00826068
:101F100080937A0080917A00816080937A0080912A
:101F20007A00806880937A001092C1008EE090E081
:101F30000E944417FC0185E291E0918380838FE049
:101F400092E09387828789E192E0958784878CE687
:101F500093E09583848384E593E0978386830FE7FA
:101F600013E01187008781E090E093838283F093F0
:101F7000B102E093B00288E090E00E944417FC01B7
:101F80008DE291E0918380838EE192E0958384835A
:101F900082E292E09783868313830283F093A70201
:101FA000E093A60282E090E00E94441725E331E02E
:101FB000FC01318320839093AB028093AA0282E0DC
:101FC00090E00E9444172DE331E0FC01318320832F
:101FD0009093A9028093A80261E089E00E94300EEC
:101FE00061E08AE00E94300E61E08BE00E94300EDA
:101FF00060E087E00E94300E60E086E00E94300ED4
:1020000062E084E593E00E946C0E8091800382314F
:1020100001F580917F038331E1F481E080938803AF
:1020200061E082E10E94D60D61E083E10E94D60D5D
:102030008091B9008E7F8093B9008091B9008D7F27
:102040008093B9008CE08093B80085E08093BC0059
:1020500007C01092880361E080917F030E94300ED8
:10206000E0917103F0917203138615861486DF01E7
:102070001B9633961E92AE17BF07E1F710927003BE
:1020800001E0BE016F5F7F4F8091710390917203F9
:102090000E940A0D882309F453C067E0CE0101961F
:1020A0000E94100898858913ECCF80916C038111F0
:1020B00027C080917103909172030E941B09BE0199
:1020C0006F5F7F4F80917103909172030E94EE08C1
:1020D00040E064EB80917103909172030E94AC0820
:1020E00080917103909172030E945908182F80917A
:1020F0007103909172030E941B09112309F4E7C236
:1021000010916D038981803109F411C3CE010196CC
:102110000E94D90C811718F480916D0309C0898140
:10212000803111F48CE004C0CE0101960E94D90CDC
:1021300080936D03809170038F5F80937003A1CFB4
:102140008CE080936D03E12CF12C0FE55FE7D52E39
:102150006FE1C62E7FE3B72E8091700390E0E81602
:10216000F9060CF0A6C04E2DBE01665F7F4F8CE6CF
:1021700093E00E941D0810916D03193020F01D306E
:1021800018F01CE001C019E08A85803129F0CE01E9
:102190000A960E94D90C01C08CE0811709F485C011
:1021A000AE014F5F5F4FBE01665F7F4F8CE693E0ED
:1021B0000E945109882309F478C08A85803109F486
:1021C00074C01B3041F01C3021F01A3031F4BD8254
:1021D00005C0DD8203C00D8301C0CD8280917103F3
:1021E000909172030E941B09BE01665F7F4F809130
:1021F0007103909172030E94EE0840E06EE48091BA
:102200007103909172030E94AC0840E06B81809151
:102210007103909172030E94AC0840E06C81809140
:102220007103909172030E94AC088A85803141F05D
:1022300040E06D8180917103909172030E94AC081F
:1022400080917103909172030E941B09BE01665F29
:102250007F4F80917103909172030E94EE0840912C
:102260006C0368E480917103909172030E94AC0842
:1022700064E170E080E090E00E940F0F80916C03B9
:10228000882331F06AE070E080E090E00E940F0F58
:1022900080917103909172030E941B0980916D03DC
:1022A000181708F4182F10936D03FFEFEF1AFF0AA9
:1022B00053CFE091C702F091C80282E08083E091A1
:1022C000C302F091C4021082E091C502F091C602EF
:1022D0008FEC80831092CF02E091CB02F091CC0280
:1022E00086E08083E091C902F091CA02808180611A
:1022F0008083E091C902F091CA0280818860808366
:10230000E091C902F091CA02808180688083E091E7
:10231000C902F091CA0280818F7D80831092AC0245
:102320001092AD021092AE021092AF0260E087E010
:102330000E94D60D60E086E00E94D60D67E186E03F
:102340000E94870C64E085E00E94870C65E284E0CF
:102350000E94870C62E083E00E94870C63E282E0C7
:102360000E94870C67E581E00E94870C60E580E0B1
:102370000E94870C9AE0F92E20E3E22E30EA432EE9
:102380003FE0532E612C712CCC24C394D12C0091AE
:10239000B0021091B10241E060E0F80186819781BE
:1023A0000E94480AF801808591850E945E0CBC015C
:1023B000F801868197810E942E0441E068E0F801CF
:1023C000868197810E94480AF801808591850E9444
:1023D000FF0429833A834B835C836D837E838F83E1
:1023E00098872A3018F4E092000107C0822F6F2DE1
:1023F0000E94AF16805D80930001822F6F2D0E9496
:10240000AF16905D90930101FAE3F09302012A81E7
:102410002A3018F4E092030107C0822F6F2D0E942A
:10242000AF16805D80930301822F6F2D0E94AF163F
:10243000905D909304012AE3209305012B812A30BB
:1024400018F4E092060107C0822F6F2D0E94AF168C
:10245000805D80930601822F6F2D0E94AF16905DE4
:10246000909307011092080160E071E0F801868105
:1024700097810E942E0468EC70E080E090E00E945A
:102480000F0F2091AC023091AD024091AE025091FD
:10249000AF02A8ECB0E00E941F17A30192010E94B6
:1024A000F116672B682B692B09F0BAC066E272E05F
:1024B00087EB92E00E942E040091B0021091B102CD
:1024C000F80182819381019789F413821282C801F5
:1024D0000E94810A4B015C0120E030E040E251E4BF
:1024E0000E94381618160CF45DC096C088E392E07E
:1024F0000E949A0DF801D382C2828AE492E00E947F
:102500009A0D40E060E0F801868197810E94480AB8
:1025100061E0F801868197810E94450A8BE39FE183
:102520000197F1F7F80164857585868197810E948E
:102530002E0440E068E0F801868197810E94480AF5
:10254000F801A084B18461E1C5010E94A407382E7E
:1025500062E1C5010E94A407282E632D70E080E08F
:1025600090E00E9486154B015C01622D70E086E0D0
:10257000759567958A95E1F7072E000C880B990BE6
:102580000E94881520E030E040E85EE30E943D169E
:102590009B01AC01C501B4010E947414AB01BC01E4
:1025A00022E026C020E030E040E252E4C501B40160
:1025B0000E94E01487FF30C082E692E00E949A0DEC
:1025C00040E060E0F801868197810E94480AF801A6
:1025D00062857385868197810E942E0440E068E0C1
:1025E000F801868197810E94480A22E0B501A40182
:1025F000F801868197810E944C0340E06EE0F8016B
:10260000868197810E94480A60E672E0F80186811F
:1026100097810E942E0404C087E792E00E949A0DE1
:1026200086E00E94AD0D019799F46BEE71E087EBA7
:1026300092E00E942E0460E089E00E94D60D60E0E6
:102640008AE00E94D60D60E08BE00E94D60D19C092
:1026500087E00E94AD0D0197E9F58091A602909167
:10266000A7020E945C0A60E08AE00E94D60D60E04A
:102670008BE00E94D60D8091A6029091A7020E9445
:102680005C0A8091AC029091AD02A091AE02B09133
:10269000AF020196A11DB11D8138F8E39F07F1E05B
:1026A000AF07B1054CF48093AC029093AD02A093B8
:1026B000AE02B093AF0208C01092AC021092AD020D
:1026C0001092AE021092AF020E94F90160CE009308
:1026D0006C0316CD8091B0029091B1020E94810AE4
:1026E0004B015C0120E030E040E252E40E943816E9
:1026F0001816D4F020E030E040E251E4C501B40106
:102700000E94E01487FD10C020E030E048EC51E466
:10271000C501B4010E943816181614F460E001C017
:1027200061E08BE00E94D60D61E08AE0A2CF1D300F
:1027300008F0F2CCF7CC1092BA021092B90288EEEF
:1027400093E0A0E0B0E08093BB029093BC02A09322
:10275000BD02B093BE0283E591E09093B8028093EE
:10276000B70285EC90E09093C4028093C30284EC9E
:1027700090E09093C6028093C50280EC90E0909325
:10278000C8028093C70281EC90E09093CA028093C4
:10279000C90282EC90E09093CC028093CB0286EC4D
:1027A00090E09093CE028093CD021092D0021092CE
:1027B000D1021092D2021092D30282E18093800360
:1027C00083E180937F0360E088E00E94300EE6EBB7
:1027D000F1E0E491E0938903E2EAF1E0E491F0E0D2
:1027E000EE0FFF1FE057FE4F8591949190938B035E
:1027F00080938A031092940310929603109295038B
:10280000E4E9F3E0129283E0EC38F807D9F78EE7B9
:1028100092E090937E0380937D0389E893E0909308
:102820007203809371031092700310926C0389E01D
:1028300080936D0381E080936E0380936F03109209
:1028400057031092560383E691E0909355038093CB
:1028500054038CE0809358038FEF809359038DE0ED
:1028600080935A0385E080935B0384E080935C034C
:1028700083E080935D0382E080935E0310925F03A8
:10288000109260031092610310926203109263032E
:1028900061E084E593E00C946C0EFC018827992795
:1028A000E89421912032E9F3293010F02E30C8F35A
:1028B0002B3241F02D3239F4689404C00E946B141D
:1028C000820F911D219120532A30C0F31EF4909560
:1028D00081959F4F08957AE0979F902D879F802D37
:1028E000910D112408955058BB27AA270E948B14DC
:1028F0000C94FE150E94F01538F00E94F71520F098
:1029000039F49F3F19F426F40C94ED150EF4E0957C
:10291000E7FB0C94E715E92F0E940F1658F3BA173E
:10292000620773078407950720F079F4A6F50C94E5
:1029300031160EF4E0950B2EBA2FA02D0B01B90124
:1029400090010C01CA01A0011124FF27591B99F025
:10295000593F50F4503E68F11A16F040A22F232F31
:10296000342F4427585FF3CF469537952795A79581
:10297000F0405395C9F77EF41F16BA0B620B730B28
:10298000840BBAF09150A1F0FF0FBB1F661F771F99
:10299000881FC2F70EC0BA0F621F731F841F48F44E
:1029A000879577956795B795F7959E3F08F0B0CFD7
:1029B0009395880F08F09927EE0F979587950895BE
:1029C0000E94C31508F481E008950E94F9140C9444
:1029D000FE150E94F71558F00E94F01540F029F4FA
:1029E0005F3F29F00C94E71551110C9432160C94AA
:1029F000ED150E940F1668F39923B1F3552391F357
:102A0000951B550BBB27AA2762177307840738F05D
:102A10009F5F5F4F220F331F441FAA1FA9F335D0BA
:102A20000E2E3AF0E0E832D091505040E695001C6E
:102A3000CAF72BD0FE2F29D0660F771F881FBB1F28
:102A4000261737074807AB07B0E809F0BB0B802D06
:102A5000BF01FF2793585F4F3AF09E3F510578F032
:102A60000C94E7150C9432165F3FE4F3983ED4F3D0
:102A7000869577956795B795F7959F5FC9F7880F06
:102A8000911D9695879597F90895E1E0660F771F58
:102A9000881FBB1F621773078407BA0720F0621BE9
:102AA000730B840BBA0BEE1F88F7E09508950E9414
:102AB000171688F09F5798F0B92F9927B751B0F0A3
:102AC000E1F0660F771F881F991F1AF0BA95C9F7B2
:102AD00014C0B13091F00E943116B1E008950C9409
:102AE0003116672F782F8827B85F39F0B93FCCF3BC
:102AF000869577956795B395D9F73EF4909580952F
:102B0000709561957F4F8F4F9F4F0895E89409C04E
:102B100097FB3EF490958095709561957F4F8F4F10
:102B20009F4F9923A9F0F92F96E9BB279395F69526
:102B3000879577956795B795F111F8CFFAF4BB0FA4
:102B400011F460FF1BC06F5F7F4F8F4F9F4F16C008
:102B5000882311F096E911C0772321F09EE8872F92
:102B6000762F05C0662371F096E8862F70E060E04E
:102B70002AF09A95660F771F881FDAF7880F9695C7
:102B8000879597F90895990F0008550FAA0BE0E86B
:102B9000FEEF16161706E807F907C0F0121613061F
:102BA000E407F50798F0621B730B840B950B39F45F
:102BB0000A2661F0232B242B252B21F408950A26C5
:102BC00009F4A140A6958FEF811D811D089597F905
:102BD0009F6780E870E060E008959FEF80EC0895C3
:102BE00000240A94161617061806090608950024EC
:102BF0000A9412161306140605060895092E039466
:102C0000000C11F4882352F0BB0F40F4BF2B11F4D9
:102C100060FF04C06F5F7F4F8F4F9F4F089557FD38
:102C20009058440F551F59F05F3F71F04795880F3A
:102C300097FB991F61F09F3F79F0879508951216D1
:102C400013061406551FF2CF4695F1DF08C016167D
:102C500017061806991FF1CF86957105610508942E
:102C60000895E894BB2766277727CB0197F9089545
:102C70000E94C31508F48FEF08950E9450160C941B
:102C8000FE150E94F01538F00E94F71520F09523EC
:102C900011F00C94E7150C94ED1511240C943216D8
:102CA0000E940F1670F3959FC1F3950F50E0551FCA
:102CB000629FF001729FBB27F00DB11D639FAA2791
:102CC000F00DB11DAA1F649F6627B00DA11D661FE0
:102CD000829F2227B00DA11D621F739FB00DA11D01
:102CE000621F839FA00D611D221F749F3327A00DBB
:102CF000611D231F849F600D211D822F762F6A2F57
:102D000011249F5750409AF0F1F088234AF0EE0FBB
:102D1000FF1FBB1F661F771F881F91505040A9F7E8
:102D20009E3F510580F00C94E7150C9432165F3FDE
:102D3000E4F3983ED4F3869577956795B795F79524
:102D4000E7959F5FC1F7FE2B880F911D969587959C
:102D500097F908950E94C315880B990B0895991B44
:102D600079E004C0991F961708F0961B881F7A9582
:102D7000C9F78095089597FB072E16F4009407D0A5
:102D800077FD09D00E942A1707FC05D03EF49095E4
:102D900081959F4F0895709561957F4F0895A1E2A9
:102DA0001A2EAA1BBB1BFD010DC0AA1FBB1FEE1FC5
:102DB000FF1FA217B307E407F50720F0A21BB30B10
:102DC000E40BF50B661F771F881F991F1A9469F78C
:102DD00060957095809590959B01AC01BD01CF01E8
:102DE0000895052E97FB1EF400940E94081757FDC6
:102DF00007D00E94CF1607FC03D04EF40C9408179E
:102E000050954095309521953F4F4F4F5F4F089516
:102E100090958095709561957F4F8F4F9F4F089546
:102E2000A29FB001B39FC001A39F700D811D11240B
:102E3000911DB29F700D811D1124911D08950E9456
:102E40001017A59F900DB49F900DA49F800D911D0C
:102E500011240895AA1BBB1B51E107C0AA1FBB1F69
:102E6000A617B70710F0A61BB70B881F991F5A9516
:102E7000A9F780959095BC01CD010895EE0FFF1F35
:102E80000590F491E02D0994CF93DF938230910562
:102E900010F482E090E0E0919903F0919A0320E031
:102EA00030E0C0E0D0E0309711F140815181481707
:102EB0005907C0F04817590761F482819381209720
:102EC00019F09B838A832BC090939A038093990374
:102ED00026C02115310519F04217530718F49A013D
:102EE000BE01DF01EF010280F381E02DDCCF21156F
:102EF000310509F1281B390B2430310590F4129665
:102F00008D919C9113976115710521F0FB019383BD
:102F1000828304C090939A0380939903FD013296B3
:102F200044C0FD01E20FF31F8193919322503109B8
:102F30002D933C933AC02091970330919803232B13
:102F400041F420910B0130910C01309398032093B0
:102F500097032091090130910A012115310541F4AF
:102F60002DB73EB740910D0150910E01241B350B3A
:102F7000E0919703F0919803E217F307A0F42E1B5A
:102F80003F0B2817390778F0AC014E5F5F4F2417CD
:102F9000350748F04E0F5F1F5093980340939703F7
:102FA0008193919302C0E0E0F0E0CF01DF91CF91F7
:102FB00008950F931F93CF93DF93009709F48CC06C
:102FC000FC013297138212820091990310919A03A7
:102FD0000115110581F420813181820F931F209109
:102FE0009703309198032817390779F5F0939803E0
:102FF000E093970371C0D80140E050E0AE17BF07DF
:1030000050F412962D913C911397AD012115310585
:1030100009F1D901F3CF9D01DA0133832283608165
:103020007181860F971F8217930769F4EC0128813D
:103030003981260F371F2E5F3F4F318320838A81CE
:103040009B8193838283452B29F4F0939A03E09329
:10305000990342C01396FC93EE931297ED014991A8
:1030600059919E01240F351FE217F30771F48081F7
:103070009181840F951F029611969C938E93828165
:10308000938113969C938E931297E0E0F0E0D80121
:1030900012968D919C911397009719F0F8018C016D
:1030A000F6CF8D919C9198012E5F3F4F820F931F19
:1030B00020919703309198032817390769F43097C6
:1030C00029F410929A031092990302C0138212827B
:1030D0001093980300939703DF91CF911F910F9165
:1030E000089581E090E0F8940C947618F894FFCF5E
:1030F00078787878787878780000009B0380005E94
:1031000000BC0077011F1C1F1E1F1E1F1F1E1F1E3D
:103110001F000000008C0BE502000000007F0AE1A8
:103120000200000000800AE302000000005B0ADFEA
:10313000028E02920296029A029E021E0222020051
:1031400000000090010C01590137014B01D701002B
:103150000000003F0A0C016E616E00696E66006F30
:1031600076660030303A30303A34300032333A3517
:10317000383A31300031393A33353A353000303968
:103180003A33353A343000756E69784F6E54696D54
:10319000653A202000756E69784F666654696D65E2
:1031A0003A202000756E69786F666654696D6520F7
:1031B0002B20312044617920202000756E69786FC2
:1031C0006E54696D65202D203120446179202020C6
:1031D000004C69676874204F6E0A004C6967687418
:1031E000204F66660A00202020202054656D7065FF
:1031F0007261747572652069733A20000D0A005778
:1032000061737365723A2020004C756674005361D7
:10321000740053756E00746F67676C652054656D3C
:103220007065726174757200737769746368207475
:103230006F2041697254656D700054656D706572E0
:103240006174757220537461747573206F666600C3
:10325000430054656D7065726174757220537461BA
:10326000747573206F6E00726561642074656D7093
:1032700065726174757265206572726F72004D6F50
:103280006E00547565005765640054687500467299
:023290006900D3
:00000001FF
