:100000000C94E2000C940A010C940A010C940A016D
:100010000C940A010C940A010C940A010C940A0134
:100020000C940A010C940A010C940A010C940A0124
:100030000C940A010C940A010C940A010C940A0114
:100040000C94380B0C940A010C9481030C945B0300
:100050000C940A010C940A010C940A010C940A01F4
:100060000C940A010C940A01005EBCE2613FDD833E
:10007000C29C7E20A3FD1F419DC3217FFCA2401E88
:100080005F01E3BD3E6082DC237D9FC1421CFEA078
:10009000E1BF5D0380DE3C62BEE0025CDF81633D68
:1000A0007C22C09E1D43A1FF4618FAA427799BC558
:1000B00084DA3866E5BB5907DB856739BAE4065848
:1000C0001947A5FB7826C49A653BD987045AB8E638
:1000D000A7F91B45C6987A24F8A6441A99C7257B28
:1000E0003A6486D85B05E7B98CD2306EEDB3510F18
:1000F0004E10F2AC2F7193CD114FADF3702ECC9208
:10010000D38D6F31B2EC0E50AFF1134DCE90722CF7
:100110006D33D18F0C52B0EE326C8ED0530DEFB1E7
:10012000F0AE4C1291CF2D73CA947628ABF51749D7
:100130000856B4EA6937D58B5709EBB536688AD4C7
:1001400095CB2977F4AA4816E9B7550B88D6346AB7
:100150002B7597C94A14F6A8742AC896154BA9F7A7
:10016000B6E80A54D7896B35000000002400270048
:100170002A0000000000250028002B0000000008D5
:10018000000201000003040700000000000000005E
:1001900000000000230026002900040404040404D5
:1001A0000404020202020202030303030303010226
:1001B00004081020408001020408102001020408F5
:1001C0001020C41311241FBECFEFD8E0DEBFCDBF77
:1001D00012E0A0E0B1E0E2E4F1E302C005900D928C
:1001E000A239B107D9F723E0A2E9B2E001C01D921C
:1001F000AB38B207E1F710E0C2EED0E004C02197BF
:10020000FE010E946717C13ED107C9F70E949D0FEA
:100210000C949F180C940000CF92DF92EF92FF9203
:100220000F931F93CF93DF936C017A018B01C0E092
:10023000D0E0CE15DF0589F0D8016D918D01D60192
:10024000ED91FC910190F081E02DC6010995892B7B
:1002500011F47E0102C02196ECCFC701DF91CF914E
:100260001F910F91FF90EF90DF90CF900895FC01C8
:10027000918D828D981761F0828DDF01A80FB11DDD
:100280005D968C91928D9F5F9F73928F90E0089501
:100290008FEF9FEF0895FC01918D828D981731F0BB
:1002A000828DE80FF11D858D90E008958FEF9FEF0F
:1002B0000895FC01918D228D892F90E0805C9F4FE5
:1002C000821B91098F739927089587EA92E00E9413
:1002D000590121E0892B09F420E0822F0895FC01C7
:1002E000848DDF01A80FB11DA35ABF4F2C91848DBF
:1002F00090E001968F739927848FA689B7892C93F4
:10030000A089B1898C9180648C93938D848D98138E
:1003100006C00288F389E02D80818F7D8083089557
:10032000EF92FF920F931F93CF93DF93EC0181E045
:10033000888F9B8D8C8D981305C0E889F989808101
:1003400085FD24C0F62E0B8D10E00F5F1F4F0F733D
:100350001127E02E8C8DE8120CC00FB607FCFACFE7
:10036000E889F989808185FFF5CFCE010E946F0170
:10037000F1CF8B8DFE01E80FF11DE35AFF4FF082A4
:100380000B8FEA89FB898081806207C0EE89FF8933
:100390006083E889F98980818064808381E090E0CE
:1003A000DF91CF911F910F91FF90EF900895CF9320
:1003B000DF93EC01888D8823C9F0EA89FB8980816D
:1003C00085FD05C0A889B9898C9186FD0FC00FB63F
:1003D00007FCF5CF808185FFF2CFA889B9898C9180
:1003E00085FFEDCFCE010E946F01E7CFDF91CF9166
:1003F000089580E090E0892B29F00E946501811129
:100400000C9400000895EF92FF920F931F93CF93E7
:10041000DF93CDB7DEB728970FB6F894DEBF0FBED7
:10042000CDBF09831A832B835E836F836E817F81A7
:10043000832F90E050E0E42FF0E03197252F30E05B
:100440002E173F0744F4D901AB5EBE4F2C91820FAB
:10045000911D5F5FF3CF433030F09B012370332752
:10046000232B09F401964DE651E0649F9001659FAE
:10047000300D749F300D1124215933426D5C77404B
:100480007695679576956795260F371F280F391F44
:10049000A8E1B0E00E94391729817B018C01E20EAE
:1004A000F11C011D111DA8019701ACE3B0E00E94F1
:1004B00048172A817B018C01E20EF11C011D111DE0
:1004C000A80197010E9448172B81DC01CB01820F04
:1004D000911DA11DB11DBC01CD0160587C4B82490D
:1004E000974C28960FB6F894DEBF0FBECDBFDF91B4
:1004F000CF911F910F91FF90EF9008950895CF93A2
:10050000DF93EC0160E08E810E942A0E61E08E8113
:100510000E942A0E60E08E810E942A0E8BE891E0F4
:100520000197F1F7DF91CF910895FF920F931F93F9
:10053000CF93DF938C0160E0FC0181810E94840EE7
:10054000C7E0D0E0F12C61E0F80180810E942A0E22
:10055000F80181810E94010E9C0133270C2E01C0FD
:10056000220F0A94EAF7F22A60E0F80180810E94E3
:100570002A0E219740F78F2DDF91CF911F910F9178
:10058000FF900895CF93DF93EC0160E089810E9492
:10059000840E61E088810E942A0E89810E94010EEA
:1005A0000197D9F360E08881DF91CF910C942A0EF6
:1005B000CF93DF93EC0161E089810E94840E60E0BB
:1005C00088810E942A0E61E089810E942A0E61E0E2
:1005D00088810E942A0E60E088810E942A0E60E0D5
:1005E0008981DF91CF910C94840ECF93DF93EC013E
:1005F00061E089810E94840E60E089810E942A0E58
:1006000061E088810E942A0E61E089810E942A0EA1
:1006100060E08981DF91CF910C94840E0F931F933A
:10062000CF93DF931F92CDB7DEB78C01462F61E0E9
:10063000FC01818149830E94840E61E0F80181817F
:100640000E942A0E61E0F80180810E942A0E60E07B
:10065000F80181810E942A0E60E0F80180810E94E9
:100660002A0E4981F801608181810F90DF91CF913D
:100670001F910F910C945A0E0C9402180C940218AE
:100680000C9402180C9402186115710579F0FB01A5
:1006900001900020E9F73197AF01461B570BDC01B1
:1006A000ED91FC910280F381E02D099480E090E0CF
:1006B00008950C9444031F920F920FB60F921124C9
:1006C0002F933F934F935F936F937F938F939F935A
:1006D000AF93BF93EF93FF9387EA92E00E946F017D
:1006E000FF91EF91BF91AF919F918F917F916F910A
:1006F0005F914F913F912F910F900FBE0F901F90E0
:1007000018951F920F920FB60F9211242F938F936B
:100710009F93EF93FF93E091B702F091B80280812D
:10072000E091BD02F091BE0282FD12C090818091E5
:10073000C0028F5F8F732091C102821751F0E09148
:10074000C002F0E0E955FD4F958F8093C00201C0D3
:100750008081FF91EF919F918F912F910F900FBE0C
:100760000F901F901895FC018EED97E0968385837E
:1007700081E08483838310821182128283E08783E5
:100780000895CF92DF92EF92FF920F931F93CF9332
:10079000DF93CDB7DEB760970FB6F894DEBF0FBE1C
:1007A000CDBF8C01CE0101960E94B303F801818573
:1007B000882309F447C084EE8093BC008091BC007C
:1007C00087FFFCCF80ED8093BB0084EC8093BC005E
:1007D0008091BC0087FFFCCF1092BB0084EC80931B
:1007E000BC008091BC0087FFFCCF84EE8093BC00EE
:1007F0008091BC0087FFFCCF81ED8093BB0084EC2F
:100800008093BC008091BC0087FFFCCFF80132963A
:10081000C801099634EC3093BC002091BC0027FF3E
:10082000FCCF2091BB002193E817F907A1F784E8DA
:100830008093BC008091BC0087FFFCCF84E980934B
:10084000BC0058C060EDC8010E940E03C8010E94A0
:10085000C20261E0F80181810E94840E40E0F8014B
:10086000608181810E945A0EC8010E94C20261ED1E
:10087000C8010E940E03C8010E94C2026801F2E092
:10088000CF0ED11CE12CF12CC8010E949502F6017B
:1008900081936F01F6E0EF16F104F9F061E0F801E1
:1008A00081810E94840E60E0F80180810E942A0EFE
:1008B00060E0F80181810E942A0E61E0F8018081E8
:1008C0000E942A0E60E0F80180810E942A0E60E0FA
:1008D000F80181810E94840E03C0C8010E94D802E1
:1008E000FFEFEF1AFF0A27E0E216F10469F6C801EC
:1008F0000E94F502F8018281982F9695969596951B
:100900009E70292F220F220F920F8F70890F8B83D9
:100910008381982F9695969596959E70292F220FF4
:10092000220F920F8F70890F8A838481282F2F7056
:1009300087FF09C085FB992790F9822FFCE09F9FD4
:10094000800D112409C08073869586958695982F11
:10095000990F990F890F820F8983F8018581888704
:100960008681982F9695969596959E70292F220FA1
:10097000220F920F8F70890F8C838781982F969505
:10098000969596959E70292F220F220F920F8F70A9
:10099000890F8D838085982F92959F708F70FAE0D4
:1009A0009F9F800D112490E08053984F9F838E83EA
:1009B00088E0FE013196DE01199601900D928A952C
:1009C000E1F729853A854B855C856D857E858F8528
:1009D000988960960FB6F894DEBF0FBECDBFDF9149
:1009E000CF911F910F91FF90EF90DF90CF900895DE
:1009F0002F923F924F925F926F927F928F929F922F
:100A0000AF92BF92CF92DF92EF92FF920F931F931C
:100A1000CF93DF93CDB7DEB7CF5AD1090FB6F89495
:100A2000DEBF0FBECDBF1C01FC01828193810E94FD
:100A3000950CF101248135818217930761F026819D
:100A400037818217930739F097E6692E91E0792E66
:100A500000E711E006C089E7682E81E0782E02E801
:100A600011E0CE0149960E94B303F1018281938186
:100A70000E94C1035C8FF101828193810E94C103B6
:100A8000C256DF4F7883CE59D040C156DF4F88839E
:100A9000CF59D040C256DF4F88819981CE59D0407E
:100AA0009F8F8E8FF101828193810E94C1036D8F90
:100AB000F101828193810E94C103792F98A3C8011B
:100AC000C155DF4F7883CF5AD0400E947614E82E6C
:100AD000898FC80103960E947614F82E8A8FC80168
:100AE00006960E947614282F8B8F87013C8D4D8DA2
:100AF0005E8D6F8DC155DF4F7881CF5AD040F101A7
:100B0000828193810E940302C555DF4F68837983F8
:100B10008A839B83CB5AD040CE0141960E94B30377
:100B2000F101828193810E94C1035C8BF10182817A
:100B300093810E94C103EF967FAFEF97C158DF4FBB
:100B40008883CF57D040C258DF4F88819981CE57D4
:100B5000D0409F8B8E8BF101828193810E94C103D3
:100B60006D8BF101828193810E94C103792F988F4F
:100B70008BE891E0C155DF4F7883CF5AD0400E9477
:100B80007614082F898B8EE891E00E947614182F36
:100B90008A8B81E991E00E947614282F8B8B3C8907
:100BA0004D895E896F89C155DF4F7881CF5AD0401A
:100BB000F101828193810E9403026B017C01CE01CD
:100BC00009960E94B303F101828193810E94C103BF
:100BD0005C87F101828193810E94C1036F967FAF90
:100BE0006F97A0968FAFA097A0968EAD9FADA09760
:100BF0009F878E87F101828193810E94C1036D8757
:100C0000F101828193810E94C103792F988B84E93D
:100C100091E0C155DF4F7883CF5AD0400E947614BF
:100C2000082F898787E991E00E947614182F8A8718
:100C30008AE991E00E947614282F8B873C854D85A8
:100C40005E856F85C155DF4F7881CF5AD040F10165
:100C5000828193810E9403024B015C01CE010196C7
:100C60000E94B303F101828193810E94C1035C83DE
:100C7000F101828193810E94C1037EAF8FAF8EAD5F
:100C80009FAD9F838E83F101828193810E94C10376
:100C90006D83F101828193810E94C103792F98872E
:100CA000C301C155DF4F7883CF5AD0400E947614DC
:100CB000082F8983C30103960E947614182F8A8314
:100CC000C30106960E947614282F8B83F1010280BF
:100CD000F381E02DC755DF4FF983E883C95AD0402F
:100CE0003C814D815E816F81C155DF4F7881CF5A44
:100CF000D040CF010E9403022B013C01C755DF4FBA
:100D000088819981C95AD0400E94C10389019A0102
:100D1000AB01BC01F101828193810E94030246165E
:100D2000570668067906FCF086169706A806B906E7
:100D3000C4F0C616D706E806F906ACF031E020E0AC
:100D4000C555DF4FE880F9800A811B81CB5AD0401E
:100D5000E616F706080719070CF430E0832F922FE8
:100D600004C080E001C081E090E0C155DF4F0FB6C4
:100D7000F894DEBF0FBECDBFDF91CF911F910F91D1
:100D8000FF90EF90DF90CF90BF90AF909F908F90AB
:100D90007F906F905F904F903F902F900895EF92CB
:100DA000FF921F93CF93DF931F92CDB7DEB7FC0165
:100DB0002185222309F43FC084EE8093BC008091FA
:100DC000BC0087FFFCCF80ED8093BB0084EC809358
:100DD000BC008091BC0087FFFCCF6093BB0084EC1B
:100DE0008093BC008091BC0087FFFCCF84EE809391
:100DF000BC008091BC0087FFFCCF81ED8093BB00DD
:100E000084EC8093BC008091BC0087FFFCCF84EC15
:100E10008093BC008091BC0087FFFCCF1091BB0089
:100E200084E88093BC008091BC0087FFFCCF84E9FC
:100E30008093BC0028C0462F7C0160ED49830E944E
:100E40000E03C7010E94C20261E0F70181810E9486
:100E5000840E4981F701608181810E945A0EC70189
:100E60000E94C20261EDC7010E940E03C7010E94E9
:100E7000C202C7010E949502182FC7010E94D80222
:100E8000C7010E94F502812F0F90DF91CF911F9132
:100E9000FF90EF900895DC01E0E0615038F08D9113
:100EA000E827F0E0E859FF4FE491F7CF8E2F08953F
:100EB000EF92FF920F931F93CF93DF937C018B01EF
:100EC000D42FDC011596ED91FC91169713861586AB
:100ED0001486DF011B9633961E92AE17BF07E1F70B
:100EE000C0E0B801D70115968D919C9116970E948C
:100EF0000C0D811102C080E010C0CD130AC067E064
:100F0000C8010E944B07F8019781891302C081E054
:100F100004C0CF5FDC1778F3E4CFDF91CF911F914E
:100F20000F91FF90EF900895FC0190810180F28174
:100F3000E02DF8948181892B81832281892F8095EE
:100F400028232283A7E0B0E01197F1F721818223C3
:100F50008183A3E2B0E01197F1F780817894EFEC00
:100F6000F0E03197F1F7982381E009F480E00895EB
:100F7000FC0190810180F281E02D892F809560FF36
:100F800012C0F8942281822382838181892B8183FC
:100F9000A3E2B0E01197F1F78281982B92837894C5
:100FA00087ED90E011C0F8942281822382838181B1
:100FB000892B8183AFEFB0E01197F1F78281982BF5
:100FC000928378948FE090E00197F1F70895CF92A3
:100FD000DF92EF92FF920F931F93CF93DF931F92B5
:100FE000CDB7DEB76C01E62E08E010E0FF24F394E5
:100FF00061E08F2D8E2109F460E0C60149830E94D3
:10100000B807FF0C0150110949810115110581F73D
:10101000411115C0F894D6011196ED91FC911297EB
:1010200091818C918095892381831196ED91FC911A
:10103000129792818C9180958923828378940F9066
:10104000DF91CF911F910F91FF90EF90DF90CF90A4
:101050000895CF92DF92EF92FF920F931F93CF9359
:10106000DF931F92CDB7DEB78C01F62E40E065E529
:1010700079830E94E707CF2C7981D72E760188E00B
:10108000E80EF11CF60161916F0140E0C8010E9479
:10109000E707CE14DF04B1F70F90DF91CF911F91D6
:1010A0000F91FF90EF90DF90CF900895FC01908119
:1010B0000180F281E02DF8948181292F20958223EF
:1010C000818378948DE743E050E0815021F1DA018B
:1010D0001197F1F730813923C1F3F894828182238B
:1010E00082838181892B81837894ABE7B7E0119764
:1010F000F1F7F894818128232183A3E1B1E01197CE
:10110000F1F78081982381E009F080E07894E3E6AC
:10111000F6E03197F1F708954F925F926F927F92C8
:101120008F929F92AF92BF92CF92DF92EF92FF92F7
:101130000F931F93CF93DF9300D0CDB7DEB72C0171
:101140008A01FC018581968169837A830E94560811
:1011500069817A818823C9F1F201858196810E9493
:10116000290840E06EEBF201858196810E94E70735
:1011700078014801F9E08F0E911CF20165807680BC
:1011800088E0A82EB12CCC24C394D12CC3010E949A
:1011900094078111DC28CC0CF1E0AF1AB108B1F74B
:1011A000F701D1927F01E815F90539F7F201858140
:1011B00096810E945608813041F468E0C8010E947F
:1011C0004B0791E0F8012085821390E0892F0F9062
:1011D0000F90DF91CF911F910F91FF90EF90DF90D3
:1011E000CF90BF90AF909F908F907F906F905F90C7
:1011F0004F900895CF92DF92EF92FF920F931F933B
:10120000CF93DF937C016C0187E0C80ED11CC0E056
:10121000D0E0062F10E0B8010C2E02C0759567953E
:101220000A94E2F76170F60181916F010E942A0E23
:101230002196C430D10579F7C701DF91CF911F9175
:101240000F91FF90EF90DF90CF900C947F02CF92A0
:10125000DF92EF92FF920F931F93CF93DF93EC01F6
:10126000F62E642F8C810E942A0E8D818F3F19F0FB
:1012700060E00E942A0E8F850F2D10E084FF25C0AC
:101280006E0187E0C80ED11CE12CF12CB8010E2CA8
:1012900002C0759567950A94E2F76170F601819135
:1012A0006F010E942A0EFFEFEF1AFF0A88E0E8168E
:1012B000F10461F7CE01DF91CF911F910F91FF9063
:1012C000EF90DF90CF900C947F02B80184E0759589
:1012D00067958A95E1F7CE010E94FA086F2DCE013D
:1012E000DF91CF911F910F91FF90EF90DF90CF9002
:1012F0000C94FA0841E00E94270981E090E00895EB
:1013000040E00C942709FC01443008F043E0838955
:10131000481710F04FEF480FDF01A40FB11D54968E
:101320009C91690F6068CF010C9480090895CF9358
:10133000DF93EC010E94F804892B41F46DE971E020
:1013400087EA92E00E94590361E00CC0CE010E943E
:10135000F804019761F467EA71E087EA92E00E947D
:10136000590360E089E0DF91CF910C942A0EDF9160
:10137000CF910895089508954F925F926F927F9252
:101380008F929F92AF92BF92EF92FF920F931F9313
:10139000CF93DF93CDB7DEB761970FB6F894DEBF7A
:1013A0000FBECDBF8C01DC011496ED90FC9015971B
:1013B000F701858196810E94560840E06CECD701C8
:1013C00015968D919C9116970E94E707F701408131
:1013D00064E4858196810E94E707D70112968C917B
:1013E0001297882309F449C01196EC91E950E33033
:1013F00040F4F0E0EE0FFF1FE15FFE4F608171816E
:1014000002C06EEE72E0F7018381882381F1808152
:1014100081112DC08FB7F8944090920250909302A2
:1014200060909402709095028FBF4B01770FAA08CD
:10143000BB08D70115968D919C9116970E94940731
:101440008130D9F02FB7F894809192029091930255
:10145000A0919402B09195022FBF88199909AA0909
:10146000BB0984159505A605B70518F306C0072E18
:10147000000C880B990B0E94630F62EB71E087EA06
:1014800092E00E945903F8010481158140E0BE01F9
:10149000665F7F4FC8010E945807811107C0812CE9
:1014A000912CFEEFAF2EF2ECBF2E4DC0AE014F5F80
:1014B0005F4FBE01665F7F4FC8010E948C08882382
:1014C00059F16981F8E06F9FB00111248A81282FBA
:1014D00030E0322F2227330F330F330F262B372BD9
:1014E0008A858031E1F4688570E08F81AB01481B0B
:1014F0005109CA019695982F8827979587950E943C
:10150000E41660517109207F53E0220F331F5A9572
:10151000E1F7620F731F04C060E874EE01C0B90107
:10152000613854EE75070CF4BACF072E000C880B07
:10153000990B0E94B11520E030E040E05CE30E948E
:1015400066164B015C0122E0B501A40187EA92E036
:101550000E94820B68EC71E087EA92E00E944403EB
:10156000C501B40161960FB6F894DEBF0FBECDBFC2
:10157000DF91CF911F910F91FF90EF90BF90AF90AF
:101580009F908F907F906F905F904F9008950895F7
:101590004F925F926F927F92EF92FF920F931F9301
:1015A000CF93DF93CDB7DEB7A1970FB6F894DEBF28
:1015B0000FBECDBF7C01FA01CB0119A2223008F485
:1015C0002AE08E010F5D1F4F422E512C612C712C91
:1015D000BF01A30192010E94F816F901CA0101504E
:1015E00011096A3014F4605D01C0695CD8016C9324
:1015F000232B242B252B61F7B801C7010E9444033C
:10160000A1960FB6F894DEBF0FBECDBFDF91CF918C
:101610001F910F91FF90EF907F906F905F904F9090
:1016200008950E949A183FB7F8948091A302909170
:10163000A402A091A502B091A60226B5A89B05C060
:101640002F3F19F00196A11DB11D3FBFBA2FA92F41
:10165000982F8827820F911DA11DB11DBC01CD01BE
:1016600042E0660F771F881F991F4A95D1F70895AA
:101670001F920F920FB60F9211242F933F938F93C7
:101680009F93AF93BF938091920290919302A09108
:101690009402B09195023091A20223E0230F2D37DE
:1016A00020F40196A11DB11D05C026E8230F029666
:1016B000A11DB11D2093A2028093920290939302E8
:1016C000A0939402B09395028091A3029091A402FA
:1016D000A091A502B091A6020196A11DB11D809313
:1016E000A3029093A402A093A502B093A602BF9177
:1016F000AF919F918F913F912F910F900FBE0F90BF
:101700001F9018954F925F926F927F928F929F9247
:10171000AF92BF92CF92DF92EF92FF92CF93DF937F
:10172000EC016A017B01B22E9A01AB01C701B6013F
:101730000E94D316882319F06BEC71E027C02601B4
:101740003701E89477F82FEF3FEF4FE75FE7C301EA
:10175000B2010E94D31681110DC02FEF3FEF4FE76A
:101760005FE7C301B2010E94091518161CF46FEC63
:1017700071E00CC02FEF3FEF4FE75FE4C701B60108
:101780000E94611618169CF463ED71E0CE01DF91A2
:10179000CF91FF90EF90DF90CF90BF90AF909F9050
:1017A0008F907F906F905F904F900C9444032FEF39
:1017B0003FEF4FE75FECC701B6010E94091587FDB7
:1017C000E3CF20E030E0A901C701B6010E9409156E
:1017D00087FF0EC0E881F9810190F081E02D6DE274
:1017E000CE0109954C01F7FAF094F7F8F09402C095
:1017F000812C912CA12C60E070E080E09FE3AB1481
:1018000041F020E030E040E251E40E940E15A39444
:10181000F6CF9B01AC01C701B6010E949D142B01BC
:101820003C010E9480156B017C010E94AF159B0159
:10183000AC01C301B2010E949C142B013C012AE0BF
:10184000B701A601CE010E94C80A7C01E80CF91C70
:10185000BB2051F0E881F9810190F081E02D6EE22A
:10186000CE010995E80EF91EDB2CDD2029F120E0E0
:1018700030E040E251E4C301B2010E9466162B0140
:101880003C010E9480154B01A12CB12C2AE0B5012E
:10189000A401CE010E94C80AE80EF91EC501B401D8
:1018A0000E94AF159B01AC01C301B2010E949C14C0
:1018B0002B013C01DA94D9CFC701DF91CF91FF9082
:1018C000EF90DF90CF90BF90AF909F908F907F90E0
:1018D0006F905F904F900895833081F028F48130AD
:1018E00099F08230A1F008958730A9F08830B9F0DE
:1018F0008430D1F4809180008F7D03C0809180007E
:101900008F7780938000089584B58F7702C084B567
:101910008F7D84BD08958091B0008F7703C0809142
:10192000B0008F7D8093B00008950F931F93CF93E5
:10193000DF93CDB7DEB766970FB6F894DEBF0FBE64
:10194000CDBF8C019EE0E1E4F1E0DE011196019053
:101950000D929A95E1F7CE010F960E94B303C8014C
:101960000E94C1039E012F5F3F4F290F311D290F98
:10197000311DF90132978081918166960FB6F894F6
:10198000DEBF0FBECDBFDF91CF911F910F910895A4
:10199000CF93DF93BC0187EA92E00E944403EC01FD
:1019A00068EC71E087EA92E00E9444038C0F9D1F6F
:1019B000DF91CF910895CF93DF93CDB7DEB729970D
:1019C0000FB6F894DEBF0FBECDBFAE014F5F5F4FC5
:1019D000BC018CE593E00E948C08882389F08D81FE
:1019E0008F3361F020F48F3159F489E00CC08F35CA
:1019F00019F08F3739F004C08BE005C08AE003C0CE
:101A000080E001C08CE029960FB6F894DEBF0FBECF
:101A1000CDBFDF91CF910895AF92BF92CF92DF9269
:101A2000EF92FF920F931F93CF93DF931F92CDB747
:101A3000DEB75C01D62EE72EFC018585811105C03D
:101A4000C5010E945608811106C0F501138615864E
:101A5000148680E065C040E060EFC5010E94E707A2
:101A600001E0F12CC12C11E0C5010E949407682F00
:101A7000C50169830E9494076981613019F481303E
:101A8000B9F433C04F2D50E068131BC0F5018385B6
:101A9000181730F4E40FF51F8381802349F402C046
:101AA000181731F060E0193058F4F501148708C0B8
:101AB000F501EF0DF11D8381802B838361E009C067
:101AC000C12EF501E40FF51F9381802F80958923A6
:101AD0008383C5010E94B8071F5F000F11F4F394C0
:101AE00001E0F7E0FF1508F0BFCF113408F4ADCFE7
:101AF000F501C386C11002C081E08587F5018381AD
:101B0000882309F4A2CFD5011396ED2DFE2D950162
:101B1000255F3F4F8D918193A217B307D9F781E0DD
:101B20000F90DF91CF911F910F91FF90EF90DF9079
:101B3000CF90BF90AF9008950F931F93CF93DF93F3
:101B4000CDB7DEB728970FB6F894DEBF0FBECDBF76
:101B50008C01CE0101960E94B303C8010E94C1030B
:101B60003A834B832A3010F480E305C0822F6AE069
:101B70000E94D816805D809300013AE0822F632F87
:101B80000E94D816905D909301018AE38093020130
:101B90002A812A3010F480E305C0822F632F0E942F
:101BA000D816805D809303013AE0822F632F0E9454
:101BB000D816905D909304018AE3809305012B81F0
:101BC0002A3010F480E305C0822F632F0E94D816BC
:101BD000805D80930601822F6AE00E94D816905D96
:101BE000909307011092080180E091E028960FB6CB
:101BF000F894DEBF0FBECDBFDF91CF911F910F9143
:101C00000895CF93DF93282F30E0F901E458FE4F79
:101C10008491F901E255FE4FD491F901E656FE4F49
:101C2000C491CC2391F081110E946C0CEC2FF0E058
:101C3000EE0FFF1FE057FE4FA591B491EC91ED23FD
:101C400081E090E021F480E002C080E090E0DF914C
:101C5000CF9108951F93CF93DF93282F30E0F901A0
:101C6000E458FE4F8491F901E255FE4FD491F901F9
:101C7000E656FE4FC491CC23C9F0162F81110E9465
:101C80006C0CEC2FF0E0EE0FFF1FEE58FE4FA5910D
:101C9000B4918FB7F894111105C09C91ED2FE09588
:101CA000E92302C0EC91ED2BEC938FBFDF91CF9134
:101CB0001F910895EF92FF920F931F93CF93DF939D
:101CC000E82EF62EC7E0D0E0042F10E098010C2E8D
:101CD00002C0359527950A94E2F7B901617077271C
:101CE0008E2D0E942A0E61E08F2D0E942A0E60E048
:101CF0008F2D0E942A0E219748F7DF91CF911F91D7
:101D00000F91FF90EF900895CF93DF9390E0FC0147
:101D1000E255FE4F2491FC01E656FE4F8491882344
:101D200061F190E0880F991FFC01E859FE4FC591C1
:101D3000D491FC01EE58FE4FA591B491611109C0F8
:101D40009FB7F8948881209582238883EC912E2375
:101D50000BC0623061F49FB7F8943881822F809570
:101D600083238883EC912E2B2C939FBF06C08FB7C3
:101D7000F894E8812E2B28838FBFDF91CF910895AF
:101D8000EF92FF920F931F93CF93DF93EC0162309A
:101D900018F08F8588608F876B8B1C8A80E48D8B11
:101DA00080E18E8B80E58F8B61E08C810E94840EB8
:101DB0008D818F3F19F061E00E94840E61E08E8179
:101DC0000E94840E7E0187E0E80EF11C00E010E026
:101DD0008F8584FD03C084E090E002C088E090E03D
:101DE000081719074CF461E0F70181917F010E9407
:101DF000840E0F5F1F4FECCF8BE39DE00197F1F74F
:101E000060E08C810E942A0E60E08E810E942A0E82
:101E10008D818F3F19F060E00E942A0E6F8564FD6E
:101E20001DC063E0CE010E94FA080BE416E4C8016D
:101E30000197F1F763E0CE010E94FA08C80101970B
:101E4000F1F763E0CE010E94FA0883E592E0019782
:101E5000F1F762E0CE010E94FA0816C06062CE017E
:101E60000E9480098BE496E40197F1F76F85606228
:101E7000CE010E94800983E592E00197F1F76F851A
:101E80006062CE010E9480096F856062CE010E946F
:101E9000800984E0888B6CE0CE010E94800961E0BB
:101EA000CE010E9480098BE39FE10197F1F782E068
:101EB000898B66E0CE01DF91CF911F910F91FF904A
:101EC000EF900C9480098F929F92AF92BF92CF9225
:101ED000DF92EF92FF926B017C010E94130B4B018A
:101EE0005C01C114D104E104F104F1F00E94130B70
:101EF000DC01CB0188199909AA09BB09883E9340E6
:101F0000A105B10570F321E0C21AD108E108F1087A
:101F100088EE880E83E0981EA11CB11CC114D10468
:101F2000E104F10419F7DDCFFF90EF90DF90CF903F
:101F3000BF90AF909F908F900895CF93DF93CDB7D0
:101F4000DEB761970FB6F894DEBF0FBECDBF7894B1
:101F500084B5826084BD84B5816084BD85B58260AE
:101F600085BD85B5816085BD80916E00816080935F
:101F70006E001092810080918100826080938100C8
:101F800080918100816080938100809180008160D8
:101F9000809380008091B10084608093B100809133
:101FA000B00081608093B00080917A00846080935B
:101FB0007A0080917A00826080937A0080917A0022
:101FC000816080937A0080917A00806880937A00A3
:101FD0001092C1008EE090E00E946D17FC0185E236
:101FE00091E09183808387ED91E09387828781EEF2
:101FF00091E0958784878CE593E09583848384E4DE
:1020000093E0978386830FE613E01187008781E0D2
:1020100090E093838283F093A102E093A00288E092
:1020200090E00E946D17FC018DE291E09183808326
:1020300086EE91E0958384838AEE91E09783868390
:1020400013830283F0939702E093960282E090E07C
:102050000E946D1725E331E0FC01318320839093CA
:102060009B0280939A0282E090E00E946D172DE31C
:1020700031E0FC0131832083909399028093980290
:1020800061E089E00E94840E61E08AE00E94840E93
:1020900061E08BE00E94840E60E087E00E94840E85
:1020A00060E086E00E94840E60E088E00E94840E7A
:1020B00062E084E493E00E94C00E8091700382315C
:1020C00001F580916F038331E1F481E0809378031F
:1020D00061E082E10E942A0E61E083E10E942A0E03
:1020E0008091B9008E7F8093B9008091B9008D7F77
:1020F0008093B9008CE08093B80085E08093BC00A9
:1021000007C01092780361E080916F030E94840EF3
:10211000E0916103F0916203138615861486DF0156
:102120001B9633961E92AE17BF07E1F7109260031D
:1021300001E0BE016F5F7F4F809161039091620368
:102140000E940C0D882309F453C067E0CE0101966C
:102150000E944B0798858913ECCF80915C03811115
:1021600027C080916103909162030E945608BE01CE
:102170006F5F7F4F80916103909162030E942908F5
:1021800040E064EB80916103909162030E94E70755
:1021900080916103909162030E949407182F8091AF
:1021A0006103909162030E945608112309F4B2C2A0
:1021B00010915D038981803109F4E2C2CE0101965C
:1021C0000E94DB0C811718F480915D0309C089819E
:1021D000803111F48CE004C0CE0101960E94DB0C2A
:1021E00080935D03809160038F5F80936003A1CF34
:1021F0008CE080935D03E12CF12C0FE54FE7D42EAA
:102200005FE1C52E6FE3B62E8091600390E0E81683
:10221000F9060CF0A6C04E2DBE01665F7F4F8CE51F
:1022200093E00E94580710915D03193020F01D3093
:1022300018F01CE001C019E08A85803129F0CE0138
:102240000A960E94DB0C01C08CE0811709F485C05E
:10225000AE014F5F5F4FBE01665F7F4F8CE593E03D
:102260000E948C08882309F478C08A85803109F49B
:1022700074C01B3041F01C3021F01A3031F4BD82A3
:1022800005C0DD8203C00D8301C0CD828091610352
:10229000909162030E945608BE01665F7F4F809155
:1022A0006103909162030E94290840E06EE48091EE
:1022B0006103909162030E94E70740E06B81809187
:1022C0006103909162030E94E70740E06C81809176
:1022D0006103909162030E94E7078A85803141F093
:1022E00040E06D8180916103909162030E94E70755
:1022F00080916103909162030E945608BE01665F5F
:102300007F4F80916103909162030E942908409160
:102310005C0368E480916103909162030E94E70787
:1023200064E170E080E090E00E94630F80915C03C4
:10233000882331F06AE070E080E090E00E94630F53
:1023400080916103909162030E94560880915D0321
:10235000181708F4182F10935D03FFEFEF1AFF0A08
:1023600053CFE091B702F091B80282E08083E09110
:10237000B302F091B4021082E091B502F091B6027E
:102380008FEC80831092BF02E091BB02F091BC02FF
:1023900086E08083E091B902F091BA028081806189
:1023A0008083E091B902F091BA02808188608083D5
:1023B000E091B902F091BA02808180688083E09157
:1023C000B902F091BA0280818F7D808310929C02C5
:1023D00010929D0210929E0210929F0260E087E090
:1023E0000E942A0E60E086E00E942A0E90EAC92E22
:1023F0009FE0D92EE12CF12CAA24A394B12C3BE32D
:10240000832E3FE1932E0091A0021091A10241E0A2
:1024100060E0F801868197810E948309F801808538
:1024200091850E94950CBC01F801868197810E94DC
:10243000590341E068E0F801868197810E94830991
:10244000F801808591850E949C0DBC01F801868170
:1024500097810E9459036EEE71E087EA92E00E9434
:102460005903F801808591850E949C0DBC0187EA83
:1024700092E00E94590369EC71E087EA92E00E94C1
:10248000590368EC70E080E090E00E94630F2091B7
:102490009C0230919D0240919E0250919F02A8ECB7
:1024A000B0E00E944817A70196010E941A17672BF7
:1024B000682B692B09F0CEC067EF71E087EA92E0E4
:1024C0000E9459030091A0021091A102F80182819B
:1024D0009381019731F513821282C8010E94BC09D1
:1024E0002B013C0169E072E087EA92E00E94590307
:1024F00022E0B301A20187EA92E00E94820B68EC1D
:1025000071E087EA92E00E94440320E030E040E27C
:1025100051E4C301B2010E94611618160CF45CC0AC
:1025200095C087E192E00E94C80CF801B382A282B4
:1025300089E292E00E94C80C40E060E0F8018681E8
:1025400097810E94830961E0F801868197810E944A
:102550008009C4010197F1F7F801648575858681CA
:1025600097810E94590340E068E0F80186819781D5
:102570000E948309F8014084518461E1C2010E94F4
:10258000CF06782E62E1C2010E94CF06382E672D59
:1025900070E080E090E00E94AF152B013C01632DBC
:1025A00070E086E0759567958A95E1F7072E000C37
:1025B000880B990B0E94B11520E030E040E85EE303
:1025C0000E9466169B01AC01C301B2010E949D14DA
:1025D000AB01BC0122E026C020E030E040E252E442
:1025E000C301B2010E94091587FF30C081E492E067
:1025F0000E94C80C40E060E0F801868197810E944B
:102600008309F80162857385868197810E94590349
:1026100040E068E0F801868197810E94830922E00A
:10262000B301A201F801868197810E94820B40E0EC
:102630006EE0F801868197810E9483096FE372E062
:10264000F801868197810E94590304C086E592E0D3
:102650000E94C80C86E00E94010E0197B9F467EA57
:1026600071E087EA92E00E94590360E089E00E94ED
:102670002A0E60E08AE00E942A0E8DE692E00E9417
:10268000C80C60E08BE00E942A0E1EC087E00E940A
:10269000010E019709F041C0809196029091970236
:1026A0000E94970960E08AE00E942A0E8DE692E07F
:1026B0000E94C80C60E08BE00E942A0E8091960276
:1026C000909197020E94970980919C0290919D029F
:1026D000A0919E02B0919F020196A11DB11D81386B
:1026E000F8E39F07F1E0AF07B1054CF480939C023B
:1026F00090939D02A0939E02B0939F0208C01092F7
:102700009C0210929D0210929E0210929F020E94C3
:10271000F90179CE00935C034BCD8091A00290919A
:10272000A1020E94BC092B013C0120E030E040E204
:1027300052E40E946116181654F020E030E040E2A6
:1027400051E4C301B2010E94091587FF02C061E094
:102750000BC020E030E040E252E4C301B2010E942D
:1027600061161816A4F760E08BE00E942A0E61E063
:102770008AE00E942A0E86E792E00E94C80C9ECF53
:102780001D3008F021CD26CD1092AA021092A90288
:1027900088EE93E0A0E0B0E08093AB029093AC02AF
:1027A000A093AD02B093AE0283E591E09093A802AE
:1027B0008093A70285EC90E09093B4028093B302DB
:1027C00084EC90E09093B6028093B50280EC90E0A8
:1027D0009093B8028093B70281EC90E09093BA0294
:1027E0008093B90282EC90E09093BC028093BB028C
:1027F00086EC90E09093BE028093BD021092C002DE
:102800001092C1021092C2021092C30282E1809320
:10281000700383E180936F0360E088E00E94840E80
:10282000E6EBF1E0E491E0937903E2EAF1E0E49190
:10283000F0E0EE0FFF1FE057FE4F859194919093CB
:102840007B0380937A031092840310928603109284
:102850008503E4E8F3E0129283E0EC37F807D9F758
:102860008EE792E090936E0380936D0389E793E087
:1028700090936203809361031092600310925C0353
:1028800089E080935D0381E080935E0380935F0322
:10289000109247031092460383E691E0909345031C
:1028A000809344038CE0809348038FEF8093490327
:1028B0008DE080934A0385E080934B0384E080930E
:1028C0004C0383E080934D0382E080934E0310928B
:1028D0004F03109250031092510310925203109222
:1028E000530361E084E493E00C94C00EFC0188275C
:1028F0009927E89421912032E9F3293010F02E3005
:10290000C8F32B3241F02D3239F4689404C00E9490
:102910009414820F911D219120532A30C0F31EF48C
:10292000909581959F4F08957AE0979F902D879F6E
:10293000802D910D112408955058BB27AA270E947D
:10294000B4140C9427160E94191638F00E94201611
:1029500020F039F49F3F19F426F40C9416160EF467
:10296000E095E7FB0C941016E92F0E94381658F3F7
:10297000BA17620773078407950720F079F4A6F564
:102980000C945A160EF4E0950B2EBA2FA02D0B01C5
:10299000B90190010C01CA01A0011124FF27591BA4
:1029A00099F0593F50F4503E68F11A16F040A22FAA
:1029B000232F342F4427585FF3CF4695379527951B
:1029C000A795F0405395C9F77EF41F16BA0B620B1A
:1029D000730B840BBAF09150A1F0FF0FBB1F661F61
:1029E000771F881FC2F70EC0BA0F621F731F841FA4
:1029F00048F4879577956795B795F7959E3F08F0CA
:102A0000B0CF9395880F08F09927EE0F979587958B
:102A100008950E94EC1508F481E008950E942215A3
:102A20000C9427160E94201658F00E94191640F0A8
:102A300029F45F3F29F00C94101651110C945B1689
:102A40000C9416160E94381668F39923B1F3552397
:102A500091F3951B550BBB27AA27621773078407B1
:102A600038F09F5F5F4F220F331F441FAA1FA9F347
:102A700035D00E2E3AF0E0E832D091505040E69535
:102A8000001CCAF72BD0FE2F29D0660F771F881F96
:102A9000BB1F261737074807AB07B0E809F0BB0B89
:102AA000802DBF01FF2793585F4F3AF09E3F51059D
:102AB00078F00C9410160C945B165F3FE4F3983E8C
:102AC000D4F3869577956795B795F7959F5FC9F786
:102AD000880F911D9695879597F90895E1E0660F07
:102AE000771F881FBB1F621773078407BA0720F080
:102AF000621B730B840BBA0BEE1F88F7E0950895E9
:102B00000E94401688F09F5798F0B92F9927B75127
:102B1000B0F0E1F0660F771F881F991F1AF0BA9581
:102B2000C9F714C0B13091F00E945A16B1E008956F
:102B30000C945A16672F782F8827B85F39F0B93F61
:102B4000CCF3869577956795B395D9F73EF4909534
:102B50008095709561957F4F8F4F9F4F0895E894B2
:102B600009C097FB3EF490958095709561957F4FD5
:102B70008F4F9F4F9923A9F0F92F96E9BB27939583
:102B8000F695879577956795B795F111F8CFFAF493
:102B9000BB0F11F460FF1BC06F5F7F4F8F4F9F4FC4
:102BA00016C0882311F096E911C0772321F09EE822
:102BB000872F762F05C0662371F096E8862F70E088
:102BC00060E02AF09A95660F771F881FDAF7880F62
:102BD0009695879597F90895990F0008550FAA0BB8
:102BE000E0E8FEEF16161706E807F907C0F0121620
:102BF0001306E407F50798F0621B730B840B950B23
:102C000039F40A2661F0232B242B252B21F4089577
:102C10000A2609F4A140A6958FEF811D811D089514
:102C200097F99F6780E870E060E008959FEF80EC7F
:102C3000089500240A941616170618060906089522
:102C400000240A9412161306140605060895092E88
:102C50000394000C11F4882352F0BB0F40F4BF2BF7
:102C600011F460FF04C06F5F7F4F8F4F9F4F089537
:102C700057FD9058440F551F59F05F3F71F047952D
:102C8000880F97FB991F61F09F3F79F08795089512
:102C9000121613061406551FF2CF4695F1DF08C031
:102CA000161617061806991FF1CF8695710561054E
:102CB00008940895E894BB2766277727CB0197F9F6
:102CC00008950E94EC1508F48FEF08950E9479167C
:102CD0000C9427160E94191638F00E94201620F036
:102CE000952311F00C9410160C94161611240C94C4
:102CF0005B160E94381670F3959FC1F3950F50E054
:102D0000551F629FF001729FBB27F00DB11D639F9D
:102D1000AA27F00DB11DAA1F649F6627B00DA11D43
:102D2000661F829F2227B00DA11D621F739FB00DE9
:102D3000A11D621F839FA00D611D221F749F332759
:102D4000A00D611D231F849F600D211D822F762FF2
:102D50006A2F11249F5750409AF0F1F088234AF0CF
:102D6000EE0FFF1FBB1F661F771F881F915050403B
:102D7000A9F79E3F510580F00C9410160C945B1639
:102D80005F3FE4F3983ED4F3869577956795B795C2
:102D9000F795E7959F5FC1F7FE2B880F911D9695DC
:102DA000879597F908950E94EC15880B990B089563
:102DB000991B79E004C0991F961708F0961B881F8D
:102DC0007A95C9F78095089597FB072E16F400941D
:102DD00007D077FD09D00E94531707FC05D03EF4B9
:102DE000909581959F4F0895709561957F4F0895B7
:102DF000A1E21A2EAA1BBB1BFD010DC0AA1FBB1FFF
:102E0000EE1FFF1FA217B307E407F50720F0A21B70
:102E1000B30BE40BF50B661F771F881F991F1A94DD
:102E200069F760957095809590959B01AC01BD0107
:102E3000CF010895052E97FB1EF400940E943117D0
:102E400057FD07D00E94F81607FC03D04EF40C94EF
:102E5000311750954095309521953F4F4F4F5F4F1B
:102E6000089590958095709561957F4F8F4F9F4FF6
:102E70000895A29FB001B39FC001A39F700D811D53
:102E80001124911DB29F700D811D1124911D089573
:102E90000E943917A59F900DB49F900DA49F800D9F
:102EA000911D11240895AA1BBB1B51E107C0AA1F45
:102EB000BB1FA617B70710F0A61BB70B881F991FDB
:102EC0005A95A9F780959095BC01CD010895EE0F14
:102ED000FF1F0590F491E02D0994CF93DF9382308A
:102EE000910510F482E090E0E0918903F0918A036B
:102EF00020E030E0C0E0D0E0309711F14081518116
:102F000048175907C0F04817590761F48281938127
:102F1000209719F09B838A832BC090938A03809318
:102F2000890326C02115310519F04217530718F4FB
:102F30009A01BE01DF01EF010280F381E02DDCCFB9
:102F40002115310509F1281B390B2430310590F486
:102F500012968D919C9113976115710521F0FB01DB
:102F60009383828304C090938A0380938903FD0135
:102F7000329644C0FD01E20FF31F819391932250DA
:102F800031092D933C933AC02091870330918803F7
:102F9000232B41F420910B0130910C0130938803D5
:102FA000209387032091090130910A0121153105F1
:102FB00041F42DB73EB740910D0150910E01241BF5
:102FC000350BE0918703F0918803E217F307A0F433
:102FD0002E1B3F0B2817390778F0AC014E5F5F4F6F
:102FE0002417350748F04E0F5F1F50938803409316
:102FF00087038193919302C0E0E0F0E0CF01DF917D
:10300000CF9108950F931F93CF93DF93009709F407
:103010008CC0FC01329713821282009189031091B7
:103020008A030115110581F420813181820F931FDC
:1030300020918703309188032817390779F5F09399
:103040008803E093870371C0D80140E050E0AE17D9
:10305000BF0750F412962D913C911397AD012115A5
:10306000310509F1D901F3CF9D01DA0133832283C0
:1030700060817181860F971F8217930769F4EC01B5
:1030800028813981260F371F2E5F3F4F31832083E0
:103090008A819B8193838283452B29F4F0938A0351
:1030A000E093890342C01396FC93EE931297ED01CF
:1030B000499159919E01240F351FE217F30771F4CE
:1030C00080819181840F951F029611969C938E9317
:1030D0008281938113969C938E931297E0E0F0E0A7
:1030E000D80112968D919C911397009719F0F801D1
:1030F0008C01F6CF8D919C9198012E5F3F4F820FEE
:10310000931F20918703309188032817390769F4AA
:10311000309729F410928A031092890302C0138217
:1031200012821093880300938703DF91CF911F9140
:103130000F91089581E090E0F8940C949F18F89412
:02314000FFCFBF
:1031420078787878787878780000008B0380005E51
:1031520000BC0077011F1C1F1E1F1E1F1F1E1F1EEB
:103162001F00000000C70A420300000000BA093C29
:103172000300000000BB0940030000000096093E66
:10318200037E02820286028A028E02E601EA0100C0
:1031920000000090010C01590137014B01D70100D9
:1031A2000000007A090C0132323A33303A303000F2
:1031B20030373A30303A30300032333A30303A3009
:1031C200300030383A33303A30300031323A303031
:1031D2003A30300031333A33303A3030004C69679C
:1031E2006874204F6E0A004C69676874204F6666E7
:1031F2000A00202020202054656D7065726174756C
:1032020072652069733A20000D0A006E616E0069D2
:103212006E66006F7666005761737365723A20209E
:10322200004C756674005361740053756E005469E6
:103232006D653A20202000746F67676C65205465C5
:103242006D706572617475720054656D706572613E
:103252007475723A20200073776974636820746F02
:103262002041697254656D700054656D70657261BC
:1032720074757220537461747573206F66660043AF
:103282000054656D70657261747572205374617457
:103292007573206F6E00726561642074656D706570
:1032A200726174757265206572726F720050756D0D
:1032B20070204F66660050756D70204F6E004D6F26
:1032C2006E00547565005765640054687500467257
:0232D200690091
:00000001FF
