:100000000C94E2000C940A010C940A010C940A016D
:100010000C940A010C940A010C940A010C940A0134
:100020000C940A010C940A010C940A010C940A0124
:100030000C940A010C940A010C940A010C940A0114
:100040000C94010A0C940A010C948A030C94640326
:100050000C940A010C940A010C940A010C940A01F4
:100060000C940A010C940A01005EBCE2613FDD833E
:10007000C29C7E20A3FD1F419DC3217FFCA2401E88
:100080005F01E3BD3E6082DC237D9FC1421CFEA078
:10009000E1BF5D0380DE3C62BEE0025CDF81633D68
:1000A0007C22C09E1D43A1FF4618FAA427799BC558
:1000B00084DA3866E5BB5907DB856739BAE4065848
:1000C0001947A5FB7826C49A653BD987045AB8E638
:1000D000A7F91B45C6987A24F8A6441A99C7257B28
:1000E0003A6486D85B05E7B98CD2306EEDB3510F18
:1000F0004E10F2AC2F7193CD114FADF3702ECC9208
:10010000D38D6F31B2EC0E50AFF1134DCE90722CF7
:100110006D33D18F0C52B0EE326C8ED0530DEFB1E7
:10012000F0AE4C1291CF2D73CA947628ABF51749D7
:100130000856B4EA6937D58B5709EBB536688AD4C7
:1001400095CB2977F4AA4816E9B7550B88D6346AB7
:100150002B7597C94A14F6A8742AC896154BA9F7A7
:10016000B6E80A54D7896B3500000000230026004A
:10017000290004040404040404040202020202022A
:10018000030303030303010204081020408001025B
:1001900004081020010204081020000000002400C0
:1001A00027002A0000000000250028002B00000086
:1001B0000008000201000003040700000000000026
:1001C0000000360D11241FBECFEFD8E0DEBFCDBF3B
:1001D00011E0A0E0B1E0EEE0F1E202C005900D9286
:1001E000A839B107D9F722E0A8E9B1E001C01D9212
:1001F000A138B207E1F710E0C2EED0E004C02197C9
:10020000FE010E947A10C13ED107C9F70E944B0A35
:100210000C9485100C940000CF92DF92EF92FF9225
:100220000F931F93CF93DF936C017A018B01C0E092
:10023000D0E0CE15DF0589F0D8016D918D01D60192
:10024000ED91FC910190F081E02DC6010995892B7B
:1002500011F47E0102C02196ECCFC701DF91CF914E
:100260001F910F91FF90EF90DF90CF900895FC01C8
:10027000918D828D981761F0828DDF01A80FB11DDD
:100280005D968C91928D9F5F9F73928F90E0089501
:100290008FEF9FEF0895FC01918D828D981731F0BB
:1002A000828DE80FF11D858D90E008958FEF9FEF0F
:1002B0000895FC01918D228D892F90E0805C9F4FE5
:1002C000821B91098F739927089588E991E00E9414
:1002D000590121E0892B09F420E0822F0895FC01C7
:1002E000848DDF01A80FB11DA35ABF4F2C91848DBF
:1002F00090E001968F739927848FA689B7892C93F4
:10030000A089B1898C9180648C93938D848D98138E
:1003100006C00288F389E02D80818F7D8083089557
:10032000EF92FF920F931F93CF93DF93EC0181E045
:10033000888F9B8D8C8D981305C0E889F989808101
:1003400085FD24C0F62E0B8D10E00F5F1F4F0F733D
:100350001127E02E8C8DE8120CC00FB607FCFACFE7
:10036000E889F989808185FFF5CFCE010E946F0170
:10037000F1CF8B8DFE01E80FF11DE35AFF4FF082A4
:100380000B8FEA89FB898081806207C0EE89FF8933
:100390006083E889F98980818064808381E090E0CE
:1003A000DF91CF911F910F91FF90EF900895CF9320
:1003B000DF93EC01888D8823C9F0EA89FB8980816D
:1003C00085FD05C0A889B9898C9186FD0FC00FB63F
:1003D00007FCF5CF808185FFF2CFA889B9898C9180
:1003E00085FFEDCFCE010E946F01E7CFDF91CF9166
:1003F000089580E090E0892B29F00E946501811129
:100400000C94000008950895CF93DF93EC0160E011
:100410008E810E940B0861E08E810E940B0860E0D3
:100420008E810E940B088BE891E00197F1F7DF9134
:10043000CF9108950E9480106115710579F0FB013C
:1004400001900020E9F73197AF01461B570BDC0103
:10045000ED91FC910280F381E02D099480E090E021
:1004600008954F925F926F927F92EF92FF920F9357
:100470001F93CF93DF93CDB7DEB7A1970FB6F89454
:10048000DEBF0FBECDBF7C01FA01CB0119A2223025
:1004900008F42AE08E010F5D1F4F422E512C612C73
:1004A000712CBF01A30192010E944410F901CA01FD
:1004B000015011096A3014F4605D01C0695CD80113
:1004C0006C93232B242B252B61F7B801C7010E94C5
:1004D0001C02A1960FB6F894DEBF0FBECDBFDF9110
:1004E000CF911F910F91FF90EF907F906F905F9051
:1004F0004F9008954F925F926F927F928F929F924A
:10050000AF92BF92CF92DF92EF92FF92CF93DF93A1
:10051000EC016A017B01B22E9A01AB01C701B60161
:100520000E941F10882319F065E371E027C026019F
:100530003701E89477F82FEF3FEF4FE75FE7C3010C
:10054000B2010E941F1081110DC02FEF3FEF4FE746
:100550005FE7C301B2010E94550E18161CF469E34F
:1005600071E00CC02FEF3FEF4FE75FE4C701B6012A
:100570000E94AD0F18169CF46DE371E0CE01DF917F
:10058000CF91FF90EF90DF90CF90BF90AF909F9072
:100590008F907F906F905F904F900C941C022FEF84
:1005A0003FEF4FE75FECC701B6010E94550E87FD94
:1005B000E3CF20E030E0A901C701B6010E94550E4B
:1005C00087FF0EC0E881F9810190F081E02D6DE296
:1005D000CE0109954C01F7FAF094F7F8F09402C0B7
:1005E000812C912CA12C60E070E080E09FE3AB14A3
:1005F00041F020E030E040E251E40E945A0EA39422
:10060000F6CF9B01AC01C701B6010E94E90D2B0199
:100610003C010E94CC0E6B017C010E94FB0E9B01F1
:10062000AC01C301B2010E94E80D2B013C012AE09C
:10063000B701A601CE010E9431027C01E80CF91C31
:10064000BB2051F0E881F9810190F081E02D6EE24C
:10065000CE010995E80EF91EDB2CDD2029F120E002
:1006600030E040E251E4C301B2010E94B20F2B011D
:100670003C010E94CC0E4B01A12CB12C2AE0B5010B
:10068000A401CE010E943102E80EF91EC501B40199
:100690000E94FB0E9B01AC01C301B2010E94E80D58
:1006A0002B013C01DA94D9CFC701DF91CF91FF90A4
:1006B000EF90DF90CF90BF90AF909F908F907F9002
:1006C0006F905F904F9008951F920F920FB60F9208
:1006D00011242F933F934F935F936F937F938F9347
:1006E0009F93AF93BF93EF93FF9388E991E00E94AC
:1006F0006F01FF91EF91BF91AF919F918F917F918A
:100700006F915F914F913F912F910F900FBE0F907E
:100710001F9018951F920F920FB60F9211242F93CE
:100720008F939F93EF93FF93E091A801F091A9011C
:100730008081E091AE01F091AF0182FD12C0908105
:100740008091B1018F5F8F732091B201821751F0B8
:10075000E091B101F0E0E856FE4F958F8093B10132
:1007600001C08081FF91EF919F918F912F910F9008
:100770000FBE0F901F901895DC01E0E0615038F03B
:100780008D91E827F0E0E859FF4FE491F7CF8E2FE5
:100790000895FC0190810180F281E02DF89481811F
:1007A000892B81832281892F809528232283A7E0AA
:1007B000B0E01197F1F7218182238183A3E2B0E0B9
:1007C0001197F1F780817894EFECF0E03197F1F731
:1007D000982381E009F480E00895FC019081018074
:1007E000F281E02D892F809560FF12C0F89422815C
:1007F000822382838181892B8183A3E2B0E01197D8
:10080000F1F78281982B9283789487ED90E011C064
:10081000F8942281822382838181892B8183AFEFA7
:10082000B0E01197F1F78281982B928378948FE052
:1008300090E00197F1F70895CF92DF92EF92FF9247
:100840000F931F93CF93DF931F92CDB7DEB76C0149
:10085000E62E08E010E0FF24F39461E08F2D8E2156
:1008600009F460E0C60149830E94ED03FF0C0150CA
:10087000110949810115110581F7411115C0F8943D
:10088000D6011196ED91FC91129791818C918095F2
:10089000892381831196ED91FC91129792818C911D
:1008A00080958923828378940F90DF91CF911F9157
:1008B0000F91FF90EF90DF90CF900895CF92DF924D
:1008C000EF92FF920F931F93CF93DF931F92CDB7B9
:1008D000DEB78C01F62E40E065E579830E941C04AA
:1008E000CF2C7981D72E760188E0E80EF11CF60135
:1008F00061916F0140E0C8010E941C04CE14DF0426
:10090000B1F70F90DF91CF911F910F91FF90EF9072
:10091000DF90CF900895FC0190810180F281E02D5D
:10092000F8948181292F20958223818378948DE703
:1009300043E050E0815021F1DA011197F1F7308165
:100940003923C1F3F8948281822382838181892BA8
:1009500081837894ABE7B7E01197F1F7F894818140
:1009600028232183A3E1B1E01197F1F78081982337
:1009700081E009F080E07894E3E6F6E03197F1F762
:100980000895CF92DF92EF92FF920F931F93CF9330
:10099000DF937C016C0187E0C80ED11CC0E0D0E081
:1009A000062F10E0B8010C2E02C0759567950A94C9
:1009B000E2F76170F60181916F010E940B082196A8
:1009C000C430D10579F7C701DF91CF911F910F9105
:1009D000FF90EF90DF90CF900C940402CF92DF92C3
:1009E000EF92FF920F931F93CF93DF93EC01F62EBC
:1009F000642F8C810E940B088D818F3F19F060E07D
:100A00000E940B088F850F2D10E084FF25C06E011A
:100A100087E0C80ED11CE12CF12CB8010E2C02C0CD
:100A2000759567950A94E2F76170F60181916F01FF
:100A30000E940B08FFEFEF1AFF0A88E0E816F104A6
:100A400061F7CE01DF91CF911F910F91FF90EF9051
:100A5000DF90CF900C940402B80184E075956795FF
:100A60008A95E1F7CE010E94C1046F2DCE01DF917E
:100A7000CF911F910F91FF90EF90DF90CF900C944A
:100A8000C10441E00E94EE0481E090E0089540E05E
:100A90000C94EE04EF92FF920F931F93CF93DF938A
:100AA000EC01623018F08F8588608F876B8B1C8A11
:100AB00080E48D8B80E18E8B80E58F8B61E08C8173
:100AC0000E943B088D818F3F19F061E00E943B0836
:100AD00061E08E810E943B087E0187E0E80EF11CF8
:100AE00000E010E08F8584FD03C084E090E002C048
:100AF00088E090E0081719074CF461E0F701819154
:100B00007F010E943B080F5F1F4FECCF8BE39DE0FE
:100B10000197F1F760E08C810E940B0860E08E8104
:100B20000E940B088D818F3F19F060E00E940B0836
:100B30006F8564FD1DC063E0CE010E94C1040BE41B
:100B400016E4C8010197F1F763E0CE010E94C104E9
:100B5000C8010197F1F763E0CE010E94C10483E56B
:100B600092E00197F1F762E0CE010E94C10416C045
:100B70006062CE010E9447058BE496E40197F1F78D
:100B80006F856062CE010E94470583E592E0019780
:100B9000F1F76F856062CE010E9447056F85606244
:100BA000CE010E94470584E0888B6CE0CE010E9454
:100BB000470561E0CE010E9447058BE39FE1019765
:100BC000F1F782E0898B66E0CE01DF91CF911F9132
:100BD0000F91FF90EF900C944705AF92BF92CF9288
:100BE000DF92EF92FF920F931F93CF93DF931F92A9
:100BF000CDB7DEB75C01D62EE72EFC0185858111CD
:100C000005C0C5010E948B04811106C0F501138641
:100C10001586148680E065C040E060EFC5010E9443
:100C20001C0401E0F12CC12C11E0C5010E94C90394
:100C3000682FC50169830E94C9036981613019F475
:100C40008130B9F433C04F2D50E068131BC0F5015B
:100C50008385181730F4E40FF51F8381802349F44E
:100C600002C0181731F060E0193058F4F50114870C
:100C700008C0F501EF0DF11D8381802B838361E0B6
:100C800009C0C12EF501E40FF51F9381802F8095D7
:100C900089238383C5010E94ED031F5F000F11F4B8
:100CA000F39401E0F7E0FF1508F0BFCF113408F42A
:100CB000ADCFF501C386C11002C081E08587F50183
:100CC0008381882309F4A2CFD5011396ED2DFE2D43
:100CD0009501255F3F4F8D918193A217B307D9F7F7
:100CE00081E00F90DF91CF911F910F91FF90EF90D6
:100CF000DF90CF90BF90AF900895AF92BF92CF9208
:100D0000DF92EF92FF920F931F93CF93DF938B01AC
:100D1000BC0180915202909153020E945E0440E017
:100D20006EEB80915202909153020E941C04E801E4
:100D3000680189E0C80ED11CA0905202B090530205
:100D400088E0E82EF12C01E010E0C5010E94C90303
:100D50008111102B000F81E0E81AF108B1F7199307
:100D6000CC15DD0549F780915202909153020E9403
:100D70008B0491E0813009F090E0892FDF91CF91D1
:100D80001F910F91FF90EF90DF90CF90BF90AF90A9
:100D900008950F931F93CF93DF93CDB7DEB72997B5
:100DA0000FB6F894DEBF0FBECDBFFC01208120310D
:100DB00061F18C0180915202909153020E948B0448
:100DC000882309F1BE016F5F7F4FC8010E947D0635
:100DD0008823C9F068E0CE0101960E94BC03998582
:100DE000891311C08D818F3361F020F48F3159F454
:100DF00089E00CC08F3519F08F3739F004C08BE0D3
:100E000005C08AE003C080E001C08CE029960FB6DF
:100E1000F894DEBF0FBECDBFDF91CF911F910F9130
:100E20000895643008F063E090914802691710F06B
:100E30006FEF690FE62FF0E0EB5CFD4F9489682FB0
:100E4000690F606885E392E00C94470560E080914B
:100E500061020E943B0861E0809160020E940B08E1
:100E6000809161020E94E2070197D1F360E08091D6
:100E700060020C940B08EF92FF920F931F93CF9395
:100E8000DF93E82EF62EC7E0D0E0042F10E09801A3
:100E90000C2E02C0359527950A94E2F7B9016170CE
:100EA00077278E2D0E940B0861E08F2D0E940B0882
:100EB00060E08F2D0E940B08219748F7DF91CF91BA
:100EC0001F910F91FF90EF9008950F931F93CF9371
:100ED000DF931F92CDB7DEB7482F00E612E061E046
:100EE000F801818149830E943B0861E0F80181811A
:100EF0000E940B0861E0F80180810E940B0860E00D
:100F0000F80181810E940B0860E0F80180810E9455
:100F10000B084981F801608181810F90DF91CF91A9
:100F20001F910F910C943B07833081F028F481309E
:100F300099F08230A1F008958730A9F08830B9F097
:100F40008430D1F4809180008F7D03C08091800037
:100F50008F7780938000089584B58F7702C084B521
:100F60008F7D84BD08958091B0008F7703C08091FC
:100F7000B0008F7D8093B00008953FB7F8948091C2
:100F80007D0290917E02A0917F02B091800226B5F1
:100F9000A89B05C02F3F19F00196A11DB11D3FBFB1
:100FA000BA2FA92F982F8827820F911DA11DB11D3F
:100FB000BC01CD0142E0660F771F881F991F4A953B
:100FC000D1F70895CF93DF93282F30E0F901E25550
:100FD000FE4F8491F901EA57FE4FD491F901EE5882
:100FE000FE4FC491CC2391F081110E949407EC2F05
:100FF000F0E0EE0FFF1FE859FE4FA591B491EC9180
:10100000ED2381E090E021F480E002C080E090E0F8
:10101000DF91CF9108951F93CF93DF93282F30E076
:10102000F901E255FE4F8491F901EA57FE4FD49140
:10103000F901EE58FE4FC491CC23C9F0162F81114F
:101040000E949407EC2FF0E0EE0FFF1FEC55FE4FCF
:10105000A591B4918FB7F894111105C09C91ED2F13
:10106000E095E92302C0EC91ED2BEC938FBFDF916B
:10107000CF911F910895CF93DF9390E0FC01EA5741
:10108000FE4F2491FC01EE58FE4F8491882361F1BC
:1010900090E0880F991FFC01E656FE4FC591D49150
:1010A000FC01EC55FE4FA591B491611109C09FB7A9
:1010B000F8948881209582238883EC912E230BC09D
:1010C000623061F49FB7F8943881822F8095832332
:1010D0008883EC912E2B2C939FBF06C08FB7F8947A
:1010E000E8812E2B28838FBFDF91CF910895DF9267
:1010F000EF92FF920F931F93CF93DF93CDB7DEB79D
:1011000028970FB6F894DEBF0FBECDBF809169025D
:10111000882309F446C084EE8093BC008091BC0013
:1011200087FFFCCF80ED8093BB0084EC8093BC00F4
:101130008091BC0087FFFCCF1092BB0084EC8093B1
:10114000BC008091BC0087FFFCCF84EE8093BC0084
:101150008091BC0087FFFCCF81ED8093BB0084ECC5
:101160008093BC008091BC0087FFFCCFE2E6F2E0F8
:1011700094EC9093BC008091BC0087FFFCCF8091E1
:10118000BB00819372E0E936F70799F784E8809312
:10119000BC008091BC0087FFFCCF84E98093BC0039
:1011A00089C080ED0E9465070E94260761E080915A
:1011B00061020E943B0840E0609160028091610200
:1011C0000E943B070E94260781ED0E9465070E944E
:1011D000260700E010E060E0809161020E943B0879
:1011E00087E0E82EF12CD12C61E0809160020E9412
:1011F0000B08809161020E94E20799270E2C01C022
:10120000880F0A94EAF7D82A60E0809160020E9471
:101210000B0881E0E81AF10838F7F801E05AFD4FB1
:10122000D28261E0809161020630110549F00E948E
:101230003B0860E0809160020E940B0860E008C0FB
:101240000E943B0860E0809160020E940B0861E010
:10125000809161020E940B0861E0809160020E940F
:101260000B0860E0809160020E940B0860E08091B2
:1012700061020E943B080F5F1F4F0730110509F004
:10128000AACF61E0809161020E943B0860E08091FA
:1012900061020E940B0861E0809160020E940B08CD
:1012A00061E0809161020E940B0860E08091610220
:1012B0000E943B0880916202482F469546954695CC
:1012C0004E70942F990F990F490F8F70480F80918E
:1012D0006302382F3695369536953E70932F990FC9
:1012E000990F390F8F70380F80916402282F2F705B
:1012F00087FF08C085FB992790F98CE0989F200D07
:10130000112409C08073869586958695982F990F2C
:10131000990F890F280FE091650260916602709124
:10132000670280916802562F5695569556955E70C5
:10133000952F990F990F590F6F70560F672F66955C
:10134000669566956E70962F990F990F690F7F704D
:10135000670F982F92959F708F707AE0979F800DFE
:10136000112490E08053984F9F838E83782F8F8134
:101370009E2F28960FB6F894DEBF0FBECDBFDF912B
:10138000CF911F910F91FF90EF90DF9008958F9272
:101390009F92AF92BF92CF92DF92EF92FF926B013A
:1013A0007C010E94BD074B015C01C114D104E10422
:1013B000F104F1F00E94BD07DC01CB018819990905
:1013C000AA09BB09883E9340A105B10570F321E04D
:1013D000C21AD108E108F10888EE880E83E0981E51
:1013E000A11CB11CC114D104E104F10419F7DDCF33
:1013F000FF90EF90DF90CF90BF90AF909F908F9035
:1014000008951F920F920FB60F9211242F933F93BE
:101410008F939F93AF93BF938091780290917902BD
:10142000A0917A02B0917B0230917C0223E0230FDD
:101430002D3720F40196A11DB11D05C026E8230F0C
:101440000296A11DB11D20937C0280937802909397
:101450007902A0937A02B0937B0280917D029091F1
:101460007E02A0917F02B09180020196A11DB11D64
:1014700080937D0290937E02A0937F02B0938002BE
:10148000BF91AF919F918F913F912F910F900FBE80
:101490000F901F901895CF93DF93CDB7DEB7669767
:1014A0000FB6F894DEBF0FBECDBF789484B58260CE
:1014B00084BD84B5816084BD85B5826085BD85B5F8
:1014C000816085BD80916E00816080936E00109276
:1014D00081008091810082608093810080918100F1
:1014E0008160809381008091800081608093800082
:1014F0008091B10084608093B1008091B0008160E0
:101500008093B00080917A00846080937A0080910B
:101510007A00826080937A0080917A008160809363
:101520007A0080917A00806880937A001092C100DE
:1015300061E089E00E943B0861E08AE00E943B088C
:1015400061E08BE00E943B0862E085E392E00E944C
:101550004A0580916102823101F5809160028331F8
:10156000E1F481E08093690261E082E10E940B086E
:1015700061E083E10E940B088091B9008E7F809327
:10158000B9008091B9008D7F8093B9008CE0809381
:10159000B80085E08093BC0007C01092690261E04A
:1015A000809160020E943B08E0915202F091530248
:1015B000138615861486DF011B9633961E92AE178E
:1015C000BF07E1F71092510211E0BE016F5F7F4F3C
:1015D00080915202909153020E94ED05882309F4F4
:1015E0004AC067E0CE0101960E94BC03988589132A
:1015F000ECCF80914D02811127C0809152029091D1
:1016000053020E948B04BE016F5F7F4F8091520294
:10161000909153020E945E0440E064EB809152027C
:10162000909153020E941C048091520290915302A7
:101630000E94C903082F80915202909153020E9488
:101640008B04002309F4B3C100914E02CE01019630
:101650000E94C906801718F480914E0204C0CE0182
:1016600001960E94C90680934E02809151028F5FBD
:1016700080935102AACF60E089E00E940B0860E0ED
:101680008AE00E940B0860E08BE00E940B08E0916A
:10169000A801F091A90182E08083E091A401F0917A
:1016A000A5011082E091A601F091A7018FEC808343
:1016B0001092B001E091AC01F091AD0186E0808321
:1016C000E091AA01F091AB01808180618083E0917B
:1016D000AA01F091AB01808188608083E091AA012A
:1016E000F091AB01808180688083E091AA01F09144
:1016F000AB0180818F7D8083BEE0EB2E1AE000E39A
:101700008AE3F82E61E080E00E941107E9E0F1E051
:10171000DE0111968E2D01900D928A95E1F70E94BF
:101720007708E92F2F87388B498B5A8B6B8B7C8BF3
:101730008D8B9E8BCE0101968E0F911D8E0F911D6C
:10174000FC0132976081718185E392E00E941C0266
:1017500061E088E00E9411070E94770829833A839C
:101760004B835C836D837E838F8398872A3018F444
:101770000093000107C0822F612F0E942410805D1A
:1017800080930001822F612F0E942410905D90931E
:101790000101F09202012A812A3018F4009303011A
:1017A00007C0822F612F0E942410805D8093030167
:1017B000822F612F0E942410905D90930401F0927B
:1017C00005012B812A3018F40093060107C0822FEF
:1017D000612F0E942410805D80930601822F612F6B
:1017E0000E942410905D909307011092080160E020
:1017F00071E085E392E00E941C0260E971E080E004
:1018000090E00E94C70980915202909153020E9479
:101810008B0440E06CEC80915202909153020E9444
:101820001C0440914D0264E4809152029091530255
:101830000E941C0480914F02882309F449C0E09162
:101840004E02E950E33040F4F0E0EE0FFF1FE95E96
:10185000FE4F6081718102C06EEE72E08091500295
:10186000882381F180914D0281112CC08FB7F894AB
:10187000409078025090790260907A0270907B02DA
:101880008FBF4B01770FAA08BB088091520290913D
:1018900053020E94C9038130D9F02FB7F894809188
:1018A000780290917902A0917A02B0917B022FBFC9
:1018B00088199909AA09BB0984159505A605B705D4
:1018C00020F306C0072E000C880B990B0E94C70955
:1018D00061E471E088E991E00E941C02E09152020B
:1018E000F0915302138615861486DF011B96CF01F3
:1018F00003961E92A817B907E1F7BE01615F7F4FFB
:10190000CF010E94ED05882349F067E0CE010F96D4
:101910000E94BC039E89891709F44CC0812C912C2C
:101920008EEFA82E82ECB82E22E0B501A40188E942
:1019300091E00E947A0262E571E088E991E00E94FC
:101940001C0220E030E040E251E4C501B4010E94F5
:10195000AD0F18164CF520E030E040E252E4C5012E
:10196000B4010E94550E87FF1FC060E080E00E9416
:10197000110765E571E085E392E00E941C0260E0DA
:1019800086E00E94110722E0B501A40185E392E000
:101990000E947A0260E08CE00E9411076DE571E020
:1019A00085E392E00E941C020E94F901ABCE1093E5
:1019B0004D024ACE80915202909153020E948B04B4
:1019C0008823F1F1BE016F5F7F4FCE010F960E9419
:1019D0007D068823A9F168E0CE0101960E94BC0330
:1019E000998589132DC0698148E0649FB001112455
:1019F0008A81282F30E0322F2227330F330F330F05
:101A0000262B372B8F858031C9F4688570E08F8154
:101A1000AB01481B5109CA019695982F88279795C5
:101A200087950E94301060517109207F53E0220F8A
:101A3000331F5A95E1F7620F731F04C0B90102C04A
:101A400060E874EE613854EE75070CF467CF072E2A
:101A5000000C880B990B0E94FD0E20E030E040E066
:101A60005CE30E94B20F4B015C015ECF10929B01C0
:101A700010929A0188EE93E0A0E0B0E080939C0180
:101A800090939D01A0939E01B0939F0181E291E00C
:101A9000909399018093980185EC90E09093A50133
:101AA0008093A40184EC90E09093A7018093A60119
:101AB00080EC90E09093A9018093A80181EC90E0E4
:101AC0009093AB018093AA0182EC90E09093AD01DA
:101AD0008093AC0186EC90E09093AF018093AE01CF
:101AE0001092B1011092B2011092B3011092B401A0
:101AF00082E18093610283E18093600260E088E08C
:101B00000E943B08EEE8F1E0E491E0936A02EAE724
:101B1000F1E0E491F0E0EE0FFF1FE859FE4F8591F0
:101B2000949190936C0280936B02109275021092C4
:101B3000770210927602E5E7F2E0129282E0ED364B
:101B4000F807D9F783E092E090935F0280935E02FA
:101B50008AE692E0909353028093520210925102CF
:101B600010924D0289E080934E0281E080934F02F3
:101B700080935002109238021092370281E391E074
:101B800090933602809335028CE0809339028FEF78
:101B900080933A028BE080933B0285E080933C0285
:101BA00084E080933D0283E080933E0282E0809354
:101BB0003F02109240021092410210924202109293
:101BC00043021092440261E085E392E00C944A05DE
:101BD0005058BB27AA270E94000E0C94730F0E9436
:101BE000650F38F00E946C0F20F039F49F3F19F414
:101BF00026F40C94620F0EF4E095E7FB0C945C0F56
:101C0000E92F0E94840F58F3BA17620773078407FD
:101C1000950720F079F4A6F50C94A60F0EF4E09544
:101C20000B2EBA2FA02D0B01B90190010C01CA0196
:101C3000A0011124FF27591B99F0593F50F4503E41
:101C400068F11A16F040A22F232F342F4427585F33
:101C5000F3CF469537952795A795F0405395C9F74B
:101C60007EF41F16BA0B620B730B840BBAF0915003
:101C7000A1F0FF0FBB1F661F771F881FC2F70EC0A2
:101C8000BA0F621F731F841F48F487957795679575
:101C9000B795F7959E3F08F0B0CF9395880F08F061
:101CA0009927EE0F9795879508950E94380F08F4AD
:101CB00081E008950E946E0E0C94730F0E946C0FC9
:101CC00058F00E94650F40F029F45F3F29F00C9412
:101CD0005C0F51110C94A70F0C94620F0E94840F9B
:101CE00068F39923B1F3552391F3951B550BBB274B
:101CF000AA2762177307840738F09F5F5F4F220F90
:101D0000331F441FAA1FA9F335D00E2E3AF0E0E886
:101D100032D091505040E695001CCAF72BD0FE2FD0
:101D200029D0660F771F881FBB1F26173707480764
:101D3000AB07B0E809F0BB0B802DBF01FF2793581C
:101D40005F4F3AF09E3F510578F00C945C0F0C9475
:101D5000A70F5F3FE4F3983ED4F386957795679598
:101D6000B795F7959F5FC9F7880F911D9695879551
:101D700097F90895E1E0660F771F881FBB1F621770
:101D800073078407BA0720F0621B730B840BBA0B2E
:101D9000EE1F88F7E09508950E948C0F88F09F57FA
:101DA00098F0B92F9927B751B0F0E1F0660F771F7F
:101DB000881F991F1AF0BA95C9F714C0B13091F075
:101DC0000E94A60FB1E008950C94A60F672F782FFC
:101DD0008827B85F39F0B93FCCF38695779567953A
:101DE000B395D9F73EF490958095709561957F4FA6
:101DF0008F4F9F4F0895E89409C097FB3EF490954C
:101E00008095709561957F4F8F4F9F4F9923A9F0D3
:101E1000F92F96E9BB279395F69587957795679562
:101E2000B795F111F8CFFAF4BB0F11F460FF1BC0A6
:101E30006F5F7F4F8F4F9F4F16C0882311F096E939
:101E400011C0772321F09EE8872F762F05C06623E7
:101E500071F096E8862F70E060E02AF09A95660FA0
:101E6000771F881FDAF7880F9695879597F9089559
:101E7000990F0008550FAA0BE0E8FEEF161617069B
:101E8000E807F907C0F012161306E407F50798F003
:101E9000621B730B840B950B39F40A2661F0232B1C
:101EA000242B252B21F408950A2609F4A140A69598
:101EB0008FEF811D811D089597F99F6780E870E07D
:101EC00060E008959FEF80EC089500240A941616B0
:101ED000170618060906089500240A941216130618
:101EE000140605060895092E0394000C11F48823A6
:101EF00052F0BB0F40F4BF2B11F460FF04C06F5FC2
:101F00007F4F8F4F9F4F089557FD9058440F551F97
:101F100059F05F3F71F04795880F97FB991F61F06B
:101F20009F3F79F087950895121613061406551FE2
:101F3000F2CF4695F1DF08C0161617061806991F4E
:101F4000F1CF86957105610508940895E894BB2743
:101F500066277727CB0197F908950E94380F08F478
:101F60008FEF08950E94C50F0C94730F0E94650FA8
:101F700038F00E946C0F20F0952311F00C945C0F48
:101F80000C94620F11240C94A70F0E94840F70F31D
:101F9000959FC1F3950F50E0551F629FF001729F0E
:101FA000BB27F00DB11D639FAA27F00DB11DAA1F1D
:101FB000649F6627B00DA11D661F829F2227B00D6A
:101FC000A11D621F739FB00DA11D621F839FA00DF5
:101FD000611D221F749F3327A00D611D231F849F45
:101FE000600D211D822F762F6A2F11249F5750409C
:101FF0009AF0F1F088234AF0EE0FFF1FBB1F661F17
:10200000771F881F91505040A9F79E3F510580F0DF
:102010000C945C0F0C94A70F5F3FE4F3983ED4F34D
:10202000869577956795B795F795E7959F5FC1F783
:10203000FE2B880F911D9695879597F908950E941C
:10204000380F880B990B0895991B79E004C0991FEC
:10205000961708F0961B881F7A95C9F78095089502
:1020600097FB072E16F4009407D077FD09D00E9445
:10207000661007FC05D03EF4909581959F4F08951A
:10208000709561957F4F0895A1E21A2EAA1BBB1B84
:10209000FD010DC0AA1FBB1FEE1FFF1FA217B30734
:1020A000E407F50720F0A21BB30BE40BF50B661F4A
:1020B000771F881F991F1A9469F76095709580950E
:1020C00090959B01AC01BD01CF010895AA1BBB1BDC
:1020D00051E107C0AA1FBB1FA617B70710F0A61B28
:1020E000B70B881F991F5A95A9F780959095BC0149
:1020F000CD010895EE0FFF1F0590F491E02D099496
:0E21000081E090E0F8940C948510F894FFCFE5
:10210E007878787878787878005F0166016E017853
:10211E00018101880191015E00BC00770100000081
:10212E000090010C01590137014B01D7010000004D
:10213E000041050C016E616E00696E66006F766679
:10214E000054656D70657261747572652069733ABD
:10215E0020000D0A0054656D703A20200043004D9A
:10216E006F6E6461790054756573646179005765AB
:10217E00646E657364617900546875727364617915
:10218E000046726964617900536174757264617995
:08219E000053756E64617900C5
:00000001FF
