:100000000C94E2000C940A010C940A010C940A016D
:100010000C940A010C940A010C940A010C940A0134
:100020000C940A010C940A010C940A010C940A0124
:100030000C940A010C940A010C940A010C940A0114
:100040000C9424220C940A010C9482180C945C18D1
:100050000C940A010C940A010C940A010C940A01F4
:100060000C944C090C940A010000000023002600A7
:10007000290004040404040404040202020202022B
:10008000030303030303010204081020408001025C
:1000900004081020010204081020000000002500C0
:1000A00028002B00000000080002010000030407E4
:1000B00000000000000000000000000024002700F5
:1000C0002A00005EBCE2613FDD83C29C7E20A3FD6E
:1000D0001F419DC3217FFCA2401E5F01E3BD3E6026
:1000E00082DC237D9FC1421CFEA0E1BF5D0380DE58
:1000F0003C62BEE0025CDF81633D7C22C09E1D430A
:10010000A1FF4618FAA427799BC584DA3866E5BBB7
:100110005907DB856739BAE406581947A5FB7826E5
:10012000C49A653BD987045AB8E6A7F91B45C69817
:100130007A24F8A6441A99C7257B3A6486D85B05C9
:10014000E7B98CD2306EEDB3510F4E10F2AC2F7177
:1001500093CD114FADF3702ECC92D38D6F31B2ECA5
:100160000E50AFF1134DCE90722C6D33D18F0C52D7
:10017000B0EE326C8ED0530DEFB1F0AE4C1291CF89
:100180002D73CA947628ABF517490856B4EA693737
:10019000D58B5709EBB536688AD495CB2977F4AA65
:1001A0004816E9B7550B88D6346A2B7597C94A1497
:1001B000F6A8742AC896154BA9F7B6E80A54D78949
:1001C0006B35042A11241FBECFEFD8E0DEBFCDBFB0
:1001D00013E0A0E0B1E0E0ECFFE502C005900D9275
:1001E000AC35B107D9F725E0ACE5B3E001C01D920D
:1001F000A93BB207E1F710E0C2EED0E004C02197BE
:10020000FE010E94922EC13ED107C9F70E946E22C4
:100210000C94DE2F0C94000080E3FB018083329667
:10022000842F82958F7090E1899F401911244A3064
:1002300014F4405D01C0495C4293482F8111F0CF16
:1002400008952F923F924F925F926F927F928F927A
:100250009F92AF92BF92CF92DF92EF92FF920F9355
:100260001F93CF93DF93CDB7DEB7E3970FB6F89424
:10027000DEBF0FBECDBF7C011A012B0139010E94E8
:1002800018224B015C0187010D5B1F4FC8010E94C2
:10029000212018161906A4F00E941822DC01CB01B7
:1002A00088199909AA09BB09281639064A065B0666
:1002B000D8F062E370E080E090E00E94621DE6CF3B
:1002C00042E250E0BE016F5F7F4FC8010E94D91F1C
:1002D0008981823011F080E061C1F80184899589BB
:1002E00083349105C1F702C08FEF58C16D817E81C3
:1002F0008F8198850E94772E4B015C01F30160830A
:1003000071838283938346E050E0B701685F7F4F3B
:10031000CE014D960E94CA2F892BE9F6F701808104
:100320009181A281B38188169906AA06BB0698F22C
:1003300084819581A681B78188159905AA05BB0599
:1003400050F289899A89AB89BC8986879787A08B67
:10035000B18B8EECA82EB12CC8010E94F81FF1E0E1
:10036000AF1AB108C9F719A6670182E2C80ED11CFD
:10037000F701B696FBA7EAA7C7018A969DA78CA7A7
:100380003C974F0189969FA78EA73897F9ABE8ABAA
:100390001701F6E12F0E311CC5979BAB8AABF80114
:1003A000818D928D181619060CF0F7C0C8010E94B5
:1003B000F81F8333910509F4CBC0FCF4813091051B
:1003C000C9F11CF4892B59F3DCC083309105D1F1BC
:1003D000069709F0D6C0C8010E94F81F5C0144E0EE
:1003E00050E06AA97BA9C8010E94D91F412C512C59
:1003F000BB24F4E0AF1AB10840C08A33910509F478
:100400007BC03CF48533910569F0C69709F440C080
:10041000B8C08B33910509F485C08F3F910509F46D
:10042000BECFAFC0C8010E94F81FC8010E94F81FCC
:1004300089A7B5CFC8010E94F81F44E050E068A921
:1004400079A93AC0C8010E94F81F5C0144E050E05D
:10045000B101C8010E94D91F412C512CBB2494E04A
:10046000A91AB1084A145B040CF099CFC8010E9484
:10047000F81FEFEF4E1A5E0AF5CF4A145B040CF03A
:100480008ECFC8010E94F81F8FEF481A580AF5CF87
:10049000C8010E94F81FB82EF701828D811110C08B
:1004A000838D81110DC0848D81110AC0858D8111CC
:1004B00007C044E050E0B401C8010E94D91F6FCFCB
:1004C000EEA5FFA54080518062807380B401CE010B
:1004D00083960E944C188DA19EA1AFA1B8A584154A
:1004E0009505A605B70529F3BB2009F458CFC80127
:1004F0000E94F81FBA94F8CFC8010E94F81F44E088
:1005000050E06AA57BA5C8010E94D91FF70166A12A
:1005100077A180A591A50E94772E66A377A380A7D7
:1005200091A73DCFC8010E94F81F44E050E06CA5A0
:100530007DA5C8010E94D91FF70162A573A584A5F6
:1005400095A50E94772E62A773A784A795A727CFAA
:10055000C8010E94F81F44E050E0B601C8010E94A3
:10056000D91FF70162A173A184A195A10E94772EE2
:1005700062A373A384A395A366A777A780AB91AB6F
:100580000ECFC8010E94F81FB82EBB2009F407CF78
:10059000C8010E94F81FBA94F8CF89A5E3960FB658
:1005A000F894DEBF0FBECDBFDF91CF911F910F91A9
:1005B000FF90EF90DF90CF90BF90AF909F908F9083
:1005C0007F906F905F904F903F902F9008957F9213
:1005D0008F929F92AF92BF92CF92DF92EF92FF9253
:1005E0000F931F93CF93DF93CDB7DEB7A6970FB6C8
:1005F000F894DEBF0FBECDBF8C01762E942E852ED3
:1006000020E2B22ECE0101967C01FC012B2D11922D
:100610002A95E9F781E092E09AA389A38FEF8BA353
:100620008CA38DA38EA3680183E4C80ED11C43E480
:1006300050E0BE016F5D7F4FC6010E94D713019647
:1006400009F4BFC081E089838A8386E0A82EAB824B
:100650001C82F80164817581868197810E94772EC2
:100660006D837E838F83988789869A8680E890E061
:100670009C878B874CE150E0B701C6010E947A202D
:10068000F7012B2D11922A95E9F7480188E0880E91
:10069000911CF401D70101900D92AA94E1F740E179
:1006A00050E0B701C6010E947A20F7011192BA9476
:1006B000E9F796E0A92EB12C40E250E0B701C6015F
:1006C0000E947A20F1E0AF1AB108B1F783E689837E
:1006D00092E89A8393E59B838C8385E38D8381E005
:1006E0008E837F829DE3988797E099878A8786E04B
:1006F000F401DE011B9601900D928A95E1F78CE0E2
:10070000898B8A8B6FEF72E0CE0143960E94D72FC0
:10071000F8014385BE01675E7F4FC8010E940C014E
:10072000F8014485BE01655E7F4FC8010E940C013F
:10073000F8014585BE01635E7F4FC8010E940C0130
:100740004EE150E0B701C6010E947A20F3E07F122B
:100750001EC082E3898384E08A83F80196859B83A7
:1007600097859C8390899D8391899E8396E39F833F
:100770008887828D8987838D8A87848D8B87858DF5
:100780008C874CE050E0B701C6010E947A2087E3D5
:10079000898386E08A8391E09B8393E09C838D83A9
:1007A0008FE08E838AE38F838BE388878FEF89873F
:1007B00049E050E0B701C6010E947A20C6010E94BC
:1007C0009F13A6960FB6F894DEBF0FBECDBFDF9184
:1007D000CF911F910F91FF90EF90DF90CF90BF903E
:1007E000AF909F908F907F9008951F93CF93DF934A
:1007F000182F66E270E00E941A09C82FD0E067E265
:1008000070E0812F0E941A09DC2FCC279E01282B33
:10081000C901DF91CF911F9108952F923F924F927E
:100820005F926F927F928F929F92AF92BF92CF9280
:10083000DF92EF92FF920F931F93CF93DF93CDB789
:10084000DEB727970FB6F894DEBF0FBECDBF8C0181
:100850000E94F62B2FEC37E040E050E00E944E2D36
:10086000DC01CB010196A11DB11DF80184839583A4
:10087000A683B78380839183A283B3835801F3E473
:10088000AF0EB11CC5010E94831464E470E0C50181
:100890000E949814882309F43CC10E9418222B015D
:1008A0003C01812C912C1D82C8018E5B9F4F9F8340
:1008B0008E8343E0342E58EEC52E53E0D52EE12C26
:1008C000F12C62E0262EAE81BF818C91833009F439
:1008D00007C1811120C0F80184819581A681B7816B
:1008E0000196A11DB11D84839583A683B7830E94C1
:1008F00018226419750986099709A70196010E94B3
:10090000802DA90161E0C8010E94E70281E0AE816B
:10091000BF818C93C6C08430F9F4F801848195813D
:10092000A681B7810196A11DB11D84839583A683FD
:10093000B7830E9418226419750986099709A701CF
:1009400096010E94802DA90163E0C8010E94E70280
:10095000AE81BF812C92A5C0813061F5F80142AD16
:1009600053AD64AD75AD9E012F5F3F4FC8010E942E
:1009700021018D83823009F094C089819A81AB81F5
:10098000BC81F80184839583A683B7830E941822D3
:100990006419750986099709A70196010E94802D9F
:1009A000A90163E0C8010E94E702ED81AE81BF8129
:1009B000EC937EC0823009F074C0D801DA964D9174
:1009C0005D916D917C91DD979E012F5F3F4FC80136
:1009D0000E9421018D83853009F05CC0EE81FF818A
:1009E0003082F80182A193A1A4A1B5A1892B8A2B01
:1009F0008B2B41F484E893E0A0E0B0E082A393A3C2
:100A0000A4A3B5A3F80186A197A1A0A5B1A5892BA0
:100A10008A2B8B2B61F482A193A1A4A1B5A1B695D9
:100A2000A7959795879586A397A3A0A7B1A7F80147
:100A300082A593A5A4A5B5A5892B8A2B8B2BA9F4F8
:100A400082A193A1A4A1B5A1AC01BD0123E076953B
:100A50006795579547952A95D1F7841B950BA60B5B
:100A6000B70B82A793A7A4A7B5A7F80186A197A162
:100A7000A0A5B1A586A797A7A0ABB1AB82A593A56A
:100A8000A4A5B5A582AB93ABA4ABB5AB88248394E6
:100A9000912C0EC0FD81F63021F4AE81BF811C92F5
:100AA00007C0BD81BF3F21F4EE81FF8110821D820E
:100AB000F1E08F16910409F406CF0E941822DC01A0
:100AC000CB0184199509A609B709F80126A937A908
:100AD00040AD51AD281739074A075B0708F0F3CE40
:100AE000C5010E948314F80184819581A681B78194
:100AF0000196A11DB11D84839583A683B7830E94AF
:100B00001822F801FE966083718382839383C40167
:100B100002C080E090E027960FB6F894DEBF0FBECB
:100B2000CDBFDF91CF911F910F91FF90EF90DF909C
:100B3000CF90BF90AF909F908F907F906F905F907D
:100B40004F903F902F9008952A9A08952A980895DB
:100B5000CF92DF92EF92FF920F931F93CF93DF9389
:100B6000EC017A018B016C01C40ED51ECC15DD059C
:100B7000A9F00E94A6058FE00E9413098D2F0E9404
:100B800013098C2F0E941309219680E00E941309FB
:100B9000F80181938F010E94A405E8CFC701DF917E
:100BA000CF911F910F91FF90EF90DF90CF9008951C
:100BB000CF92DF92EF92FF920F931F93CF93DF9329
:100BC000EC017A018B016C01C40ED51ECC15DD053C
:100BD000A1F00E94A60580EF0E9413098D2F0E94AC
:100BE00013098C2F0E9413092196F80181918F011E
:100BF0000E9413090E94A405E9CFC701DF91CF919C
:100C00001F910F91FF90EF90DF90CF9008951F9369
:100C1000CF93DF9300D0CDB7DEB7182F6A839983C7
:100C20000E94A60580EF0E9413099981892F0E94D6
:100C30001309812F0E9413096A81862F0E941309CC
:100C40000E94A40581E00F900F90DF91CF911F913A
:100C500008951F93CF93DF93182F60E270E00E94F6
:100C60001A09C82FD0E061E270E0812F0E941A09B2
:100C7000DC2FCC279E01282BC901DF91CF911F913A
:100C80000895FF920F931F93CF93DF9300D0CDB7BA
:100C9000DEB7F82E8A012A8369830E942D0880E539
:100CA00090E00E942A082A816981462F422B60E049
:100CB00070E08F2D0E9405080115110551F4009177
:100CC000A1031091A2030F5F1F4F1093A203009383
:100CD000A103412F64E070E08F2D0E940508402F92
:100CE00065E070E08F2D0E94050861E070E08F2DB7
:100CF0000E94A9100E94290881E00F900F90DF91B7
:100D0000CF911F910F91FF900895EF92FF921F9343
:100D1000CF93DF93182F7B0180E590E00E942A0893
:100D200068E270E0812F0E941A09C82FD0E069E2C2
:100D300070E0812F0E941A09DC2FCC27BE01682B9E
:100D400021E030E0A701812F0E943A110E9429087A
:100D500081E090E0DF91CF911F91FF90EF90089597
:100D6000FF920F931F93CF93DF93F82E80E590E0CF
:100D70000E942A08C0E0D0E08F2D0E94F5038C016C
:100D8000892B21F08F2D0E94F503EC01C017D107AC
:100D900099F70E942908CE01DF91CF911F910F9101
:100DA000FF900895AF92BF92DF92EF92FF920F9360
:100DB0001F93CF93DF93D82E7B018A0180E590E0CB
:100DC0000E942A08C0E0D0E08D2D0E94F5035C014E
:100DD000892B21F08D2D0E94F503EC01CA15DB054E
:100DE00099F7209799F463E070E08D2D0E941A091D
:100DF0008431D9F18823C9F1C1E0D0E08C3111F4FC
:100E0000C0E0D0E0D195C195D1092FC00C171D07C6
:100E10000CF4E8011C161D0644F568E270E08D2D07
:100E20000E941A09082F10E069E270E08D2D0E94DF
:100E30001A09102F0027082B9E01A701B8018D2D3C
:100E40000E943A110C0F1D1F412F68E270E08D2D9A
:100E50000E940508402F69E270E08D2D0E94050870
:100E600060E470E08D2D0E94A9100E942908CE0137
:100E7000DF91CF911F910F91FF90EF90DF90BF9086
:100E8000AF90089580E00895089581E090E030915A
:100E9000620320916103321710F480E090E0919595
:100EA000819591090895809162039091610389175A
:100EB00030F48F5F8093620380E090E008958FEFBD
:100EC0009FEF08958091610390E020916203821B5F
:100ED0009109089585ED8093BC008091BC0084FD4C
:100EE000FCCF10925E0308954091C503262F30E099
:100EF000240F311D21323105DCF420915E032430B2
:100F0000C9F4FC0180E090E0861758F43091C503E5
:100F10002191DC01AD55BC4FA30FB11D2C9301965F
:100F2000F3CF8091C503680F6093C50380E00895F7
:100F300081E0089582E00895CF92DF92EF92FF92D0
:100F40000F931F93CF93DF937C01262F972F8A0156
:100F500080910E04882391F0C62FD72F6E01C40E06
:100F6000D51ECC15DD0571F06991D701ED91FC918D
:100F70000190F081E02DC7010995F3CF642F822FF6
:100F80000E947407C801DF91CF911F910F91FF90CC
:100F9000EF90DF90CF900895CF93DF931F92CDB75E
:100FA000DEB7698320910E042223D1F020915F03E4
:100FB000203240F021E030E0FC013383228380E0E6
:100FC00090E015C080916003E82FF0E0E15FFB4FF7
:100FD000998190838F5F8093600380935F0305C046
:100FE00061E0CE0101960E94740781E090E00F90CD
:100FF000DF91CF9108950C942D2F0C942D2F0C94EC
:101000002D2F0C942D2F0C942D2F9B0190E00496E6
:10101000982F8827642F820F931F0C940706CF9375
:10102000DF93C82FD62F472F60E170E00E9405089C
:101030004D2F61E170E08C2FDF91CF910C9405086A
:1010400090E0982F882744E050E0845F9B4F0C94F9
:10105000D80508958CBD9DBD0895CF93C82F80E518
:1010600090E00E942A0860E170E08C2F0E94A91095
:101070004FEF62E070E08C2FCF910C940508CF9376
:10108000FC01C48121E020930E04C0932F04109230
:10109000600310925F038385682B8BEE94E00E94BF
:1010A000CC0780915F03813208F046C090915E03C7
:1010B0009111FCCF92E090935E0391E090935D03D9
:1010C0009FEF90930D0410920C0480930B04AFE0FB
:1010D000B4E02BEE33E0F9019E2F921B981718F421
:1010E0009D919193F9CF1092EA038091EA03CC0F7E
:1010F000C82BC093EA0380915C03813061F41092A5
:101100005C038091EA038093BB008091BC0083FD67
:10111000F8CF85EC01C085EE8093BC0080915E0322
:101120008230E1F380910D048F3F31F080910D0406
:10113000803211F080910D041092600310925F03D1
:1011400010920E04CF9108950F931F93CF938C01AB
:10115000C62F0E943F086C2F6460C8010E943F08A0
:101160006C2F6B7FC8010E943F0883EC90E00197D1
:10117000F1F7CF911F910F910895FF920F931F9355
:10118000CF93DF931F92CDB7DEB78C01F62E962F4B
:10119000907F692F642BC80149830E94A40880E1D5
:1011A000F89EB00111244981642BC8010F90DF9192
:1011B000CF911F910F91FF900C94A40841E00E94E1
:1011C000BD0881E090E00895CF93DF93CDB7DEB7FF
:1011D00028970FB6F894DEBF0FBECDBF9C0188E004
:1011E000EBE5F1E0DE01119601900D928A95E1F7B1
:1011F000F9018085841710F44FEF480FFE013196F6
:10120000E40FF11DE40FF11D9081690F606840E06B
:10121000C90128960FB6F894DEBF0FBECDBFDF918F
:10122000CF910C94BD088EBD00000DB407FEFDCF1C
:101230008EB508950F931F93CF93DF931F92CDB771
:10124000DEB790E00496982F88278C01060F171FB1
:101250000E94A6058FE00E941309812F0E941309A6
:10126000802F0E94130980E00E94130989830E9445
:10127000A40589810F90DF91CF911F910F9108955F
:10128000CF93C82F80E590E00E942A0863E070E0C9
:101290008C2FCF910C941A091F920F920FB60F92B8
:1012A00011242F933F934F935F936F937F938F936B
:1012B0009F93AF93BF93EF93FF938091B900887F83
:1012C000803609F49CC068F5883209F45BC090F45C
:1012D000803109F454C038F4882309F4F6C088300A
:1012E00009F44DC0F6C0883109F44CC0803209F4CD
:1012F0005DC0EFC0803409F468C048F4803309F45D
:1013000055C0883309F0E5C080930D04D8C08035FE
:1013100009F44FC0883509F45DC0883409F0D9C09C
:10132000D6C0883909F4C7C0A8F4883709F467C063
:1013300038F4883609F463C0803709F460C0C9C046
:10134000883809F4B8C0803909F45FC0803809F0E2
:10135000C0C05BC0803B09F486C038F4803A09F411
:1013600066C0883A09F47FC0B4C0803C09F4A7C0C5
:10137000883C09F4A4C0883B09F48AC0AAC08091C3
:10138000EA0310C090910C0480910B04981770F53B
:10139000E0910C0481E08E0F80930C04F0E0E551A5
:1013A000FC4F80818093BB0085EC86C080930D0448
:1013B0008EC0E0910C0481E08E0F80930C0480912C
:1013C000BB00F0E0E551FC4F808390910C048091CC
:1013D0000B046EC0E0910C0481E08E0F80930C042E
:1013E0008091BB00F0E0E551FC4F808380915D036C
:1013F00081116DC081E080935C0384EA61C083E069
:1014000080935E031092E903CFCF8091E90380328D
:1014100008F051C0E091E90381E08E0F8093E90369
:101420008091BB00F0E0E753FC4F8083BDCF85EC9B
:101430008093BC0010925E038091E903803230F407
:10144000E091E903F0E0E753FC4F10826091E9037B
:1014500070E0E091C703F091C80389EC93E009952F
:101460001092E90336C084E080935E031092C603B5
:101470001092C503E091C303F091C40309958091D4
:10148000C503811105C081E08093C5031092A303B9
:10149000E091C60381E08E0F8093C603F0E0ED5526
:1014A000FC4F80818093BB009091C6038091C5035F
:1014B000981708F479CF85E88093BC000AC085ECC2
:1014C0008093BC0010925E0304C010920D040E9431
:1014D0006A07FF91EF91BF91AF919F918F917F919B
:1014E0006F915F914F913F912F910F900FBE0F9091
:1014F0001F90189508952F923F924F925F926F928E
:101500007F928F929F92AF92BF92CF92DF92EF9293
:10151000FF920F931F93CF93DF93CDB7DEB7CF5AD0
:10152000D1090FB6F894DEBF0FBECDBF1C01FC0180
:10153000828193810E942312F101248135818217D7
:10154000930761F0268137818217930739F096E07F
:10155000A92E93E0B92E0FE013E006C088E1A82E73
:1015600083E0B82E01E213E0CE0149960E94A6194D
:10157000F101828193810E94B4195C8FF101828113
:1015800093810E94B419C256DF4F7883CE59D04060
:10159000C156DF4F8883CF59D040C256DF4F888174
:1015A0009981CE59D0409F8F8E8FF1018281938196
:1015B0000E94B4196D8FF101828193810E94B41948
:1015C000792F98A3C801C155DF4F7883CF5AD040F7
:1015D0000E94042CE82E898FC80103960E94042CD7
:1015E000F82E8A8FC80106960E94042C282F8B8F14
:1015F00087013C8D4D8D5E8D6F8DC155DF4F78819C
:10160000CF5AD040F101828193810E942B19C55598
:10161000DF4F688379838A839B83CB5AD040CE0186
:1016200041960E94A619F101828193810E94B4190A
:101630005C8BF101828193810E94B419EF967FAF98
:10164000EF97C158DF4F8883CF57D040C258DF4F44
:1016500088819981CE57D0409F8B8E8BF1018281FA
:1016600093810E94B4196D8BF101828193810E9454
:10167000B419792F988F8AE293E0C155DF4F7883B0
:10168000CF5AD0400E94042C082F898B8DE293E022
:101690000E94042C182F8A8B80E393E00E94042C74
:1016A000282F8B8B3C894D895E896F89C155DF4F0F
:1016B0007881CF5AD040F101828193810E942B1909
:1016C0006B017C01CE0109960E94A619F10182816D
:1016D00093810E94B4195C87F101828193810E94F9
:1016E000B4196F967FAF6F97A0968FAFA097A09613
:1016F0008EAD9FADA0979F878E87F10182819381E8
:101700000E94B4196D87F101828193810E94B419FE
:10171000792F988BC501C155DF4F7883CF5AD040C0
:101720000E94042C082F8987C50103960E94042C6F
:10173000182F8A87C50106960E94042C282F8B87B4
:101740003C854D855E856F85C155DF4F7881CF5AC9
:10175000D040F101828193810E942B194B015C01E1
:10176000CE0101960E94A619F101828193810E9407
:10177000B4195C83F101828193810E94B4197EAF18
:101780008FAF8EAD9FAD9F838E83F1018281938158
:101790000E94B4196D83F101828193810E94B41972
:1017A000792F988783E393E0C155DF4F7883CF5A31
:1017B000D0400E94042C082F898386E393E00E9486
:1017C000042C182F8A8389E393E00E94042C282F8D
:1017D0008B83F1010280F381E02DC755DF4FF98340
:1017E000E883C95AD0403C814D815E816F81C155EB
:1017F000DF4F7881CF5AD040CF010E942B192B01A7
:101800003C01C755DF4F88819981C95AD0400E9459
:10181000B41989019A01AB01BC01F1018281938164
:101820000E942B194616570668067906FCF08616A4
:101830009706A806B906C4F0C616D706E806F90644
:10184000ACF031E020E0C555DF4FE880F9800A8137
:101850001B81CB5AD040E616F706080719070CF48F
:1018600030E0832F922F04C080E001C081E090E03F
:10187000C155DF4F0FB6F894DEBF0FBECDBFDF916D
:10188000CF911F910F91FF90EF90DF90CF90BF907D
:10189000AF909F908F907F906F905F904F903F9010
:1018A0002F9008950895CF93DF93EC016CE373E0DC
:1018B00080E494E00E94361881E090E09B838A8364
:1018C00060E08BE0DF91CF910C94F61C08950895B1
:1018D0000895CF93DF931F92CDB7DEB76983DC0104
:1018E000ED91FC910280F381E02D41E050E0BE01DA
:1018F0006F5F7F4F09950F90DF91CF910895DC01C5
:10190000ED91FC91048CF58DE02D099591E08927EE
:101910000895862F089581E086270895CF93DF9359
:101920001F92CDB7DEB741E050E0BE016F5F7F4F41
:10193000FC0184850E94D206181619061CF48981C0
:1019400090E002C08FEF9FEF0F90DF91CF9108954D
:10195000FC018485843011F00C94B00680E090E0A6
:1019600008958F929F92AF92BF92CF92DF92EF92A3
:10197000FF920F931F93CF93DF936C015B017A016A
:10198000FC01C485C43041F481E090E0F60193830A
:10199000828380E090E057C08A014130584010F0C7
:1019A00000E018E080E590E00E942A088C2F0E9459
:1019B0001E114C0163E070E08C2F0E941A09D82F91
:1019C0000E942908D73111F0DC3121F480169106EC
:1019D00048F302C000E010E080E590E00E942A0891
:1019E0009801A50160E070E08C2F0E94B91060E2C0
:1019F00070E08C2F0E94A91062E070E08C2F0E9492
:101A00001A0984FD14C063E070E08C2F0E941A094B
:101A1000811106C00E9429088C2F0E942D08B4CF86
:101A20000E94290880E590E00E942A08E5CF40E165
:101A300062E070E08C2F0E9405080E942908012BAB
:101A400009F4A2CFC701DF91CF911F910F91FF90B1
:101A5000EF90DF90CF90BF90AF909F908F900895C0
:101A6000CF92DF92FF920F931F93CF93DF93FC01EE
:101A70002485243009F072C06A01EB018C01F12C3D
:101A80008F2D0E944009811103C0F801F48607C020
:101A90008B7F8831D1F3F394F4E0FF12F1CFF8019A
:101AA0008485843009F45AC020910E0130910F01D1
:101AB0002F5F3F4F11F420E030EC30930F01209363
:101AC0000E0140910E0150910F0120E061E00E9453
:101AD0004106F801F4848A818F3F51F48B818F3F56
:101AE00091F48C818F3F79F48D818F3F61F433C005
:101AF000811109C08B81811106C08C81811103C0C5
:101B00008D81882341F1C114D10429F180E590E051
:101B10000E942A08BE016E5F7F4F8F2D0E94200811
:101B2000B6018F2D0E940F0864E070E08F2D0E9497
:101B3000A9100E942908C8010E94EC14873189F07D
:101B400061E070E080E090E00E94621DC8010E94A8
:101B5000EC148111F0CF84E0F801848780E090E0FC
:101B600002C081E090E0DF91CF911F910F91FF9033
:101B7000DF90CF9008952F923F924F925F926F9295
:101B80007F928F929F92AF92BF92CF92DF92EF920D
:101B9000FF920F931F93CF93DF93CDB7DEB7659777
:101BA0000FB6F894DEBF0FBECDBF7C016B013A01CA
:101BB000FB0120E080E090E06AE03191332309F1FD
:101BC00040ED430F4A3080F4689FA001699F500D9B
:101BD0001124CA01C097830F911D37FD9A958F3F3D
:101BE000910559F350F313C03E3289F4233079F054
:101BF000D301A20FB11D12968C932F5F80E090E06D
:101C0000DCCF233021F4F301858381E021C0F7018B
:101C100042815381648175818091E7049091E80449
:101C2000A091E904B091EA04481759076A077B07B5
:101C300009F49EC10E9418228701085F1F4F6F7030
:101C400077277C5FC8010E949814813019F080E0EA
:101C500090E0F3C181E092E09A838983F701828169
:101C60009381A481B5818B839C83AD83BE8345E33F
:101C700050E0BE016F5F7F4FC8010E94D713892BD0
:101C800019F4C12CD12C6FC10E941822F70177835F
:101C900066837627672776277A83698342E050E058
:101CA000BE016F5F7F4FC8010E947A2081E090E003
:101CB0009E878D8742E050E0BE01635F7F4FC80181
:101CC0000E947A2080E091E09E878D8742E050E07C
:101CD000BE01635F7F4FC8010E947A201E861D8669
:101CE00042E050E0BE01635F7F4FC8010E947A204E
:101CF00042E050E0BE01635F7F4FC8010E947A203E
:101D000042E050E0BE01635F7F4FC8010E947A202D
:101D10005601F5018081882311F1F6015F0181915F
:101D2000811115C045018C189D081814190494F4EC
:101D30008F8641E050E0BE01615F7F4FC8010E9485
:101D40007A20A401B601C8010E947A2003C08E3215
:101D500029F7E8CF6501FFEFCF1ADF0ADACF1F8638
:101D600041E050E0BE01615F7F4FC8010E947A20D0
:101D7000C12CDD24D394DE86CD8642E050E0BE0146
:101D8000635F7F4FC8010E947A20DE86CD8642E0E5
:101D900050E0BE01635F7F4FC8010E947A20C801F6
:101DA0000E949F13892B09F46CCF63E0A62EB12CFF
:101DB000F2E06F0E711C0E9418221B012C01C80159
:101DC0000E94212018161906A4F00E941822DC0196
:101DD000CB0182199309A409B50989389341A1055A
:101DE000B105D0F462E370E080E090E00E94621DF3
:101DF000E6CFF7014281538164817581808D918D99
:101E0000A28DB38D481759076A077B0741F4848D6B
:101E1000958DC59721F406C02FEF3FEF9AC02EEFA6
:101E20003FEF97C0F70181A192A10C970CF4A6C0D7
:101E30004CE050E0BE016F5F7F4FC8010E94D91F88
:101E40008B8190E0982F88272C81822B9A8B898B0D
:101E5000298130E0322F22274A81242BF701468145
:101E600057814217530709F086C097FF84C08F70CF
:101E70009270892B09F0DEC0CF80D12CDC2CCC24D1
:101E80008885C82AC114D10409F4D1C0812C912CB1
:101E90008D8190E0982F88272E81822B88169906B5
:101EA00008F46FC0812C912C41E050E0BE016D5EC2
:101EB0007F4FC8010E94D91F8B89982F907C09F011
:101EC00093C0811186C08B898111EECF42E050E032
:101ED000BE01615F7F4FC8010E94D91F42E050E000
:101EE000BE01635F7F4FC8010E94D91FC8010E94D5
:101EF000F81FC8010E94F81FC8010E94F81FC801FE
:101F00000E94F81F42E050E0BE016F5E7F4FC801A3
:101F10000E94D91F8F8598898115914009F069C069
:101F20002D853E853227232732272130310509F0C0
:101F300060C089899A898115944009F075C044E090
:101F400050E0B301C8012C8B3D8B0E94D91F2C8916
:101F50003D896901F1E0AF1AB10829F02FEFC216EF
:101F6000D20609F428CFC8010E948314C60165C0B7
:101F70008EEF9FEF62C02CEF3FEFEBCF2DEF3FEFE7
:101F8000E8CF41E050E0BE01635F7F4FC8010E948F
:101F9000D91F8D85811113C08D858111F2CFC801A4
:101FA0000E94F81FC8010E94F81FC8010E94F81F74
:101FB000C8010E94F81FFFEF8F1A9F0A69CF8D8515
:101FC0009FEF980F9D87882339F3C8010E94F81F5F
:101FD000F6CF8B899FEF980F9B8B882309F473CFE3
:101FE000C8010E94F81FF5CFC8010E94F81F1B8A84
:101FF0006ACF412C512C89899A899827892798275B
:102000004816590638F4C8010E94F81F8FEF481A85
:10201000580AF1CFEFEF8E1A9E0A8C149D0409F036
:1020200043CF26EF3FEF95CF27EF3FEF92CF2AEF39
:102030003FEF8FCF2BEF3FEF8CCF65960FB6F89425
:10204000DEBF0FBECDBFDF91CF911F910F91FF90EB
:10205000EF90DF90CF90BF90AF909F908F907F9048
:102060006F905F904F903F902F900895CF92DF92A6
:10207000EF92FF920F931F93CF93DF93CDB7DEB70D
:10208000AF970FB6F894DEBF0FBECDBF7C016A01DB
:1020900001E012E01A8309831C861B8688EE93E018
:1020A000A0E0B0E08D879E87AF87B88B8BED91E085
:1020B0009A878987188F0F8B198E1A8E1B8E1C8E0C
:1020C00084E089A31DA30CA31EA21FA218A619A613
:1020D0008091DF049091E004A091E104B091E204CA
:1020E0008CA79DA7AEA7BFA78B839C83AD83BE8320
:1020F00018861F82AE014C5D5F4FCE0101960E9493
:10210000BB0D81309105B1F4D701ED91FC910484B0
:10211000F585E02D1BA70AA78EA19FA1A8A5B9A5AB
:102120008CA79DA7AEA7BFA7A601BE01665D7F4F86
:10213000C7010995AF960FB6F894DEBF0FBECDBFAD
:10214000DF91CF911F910F91FF90EF90DF90CF9093
:102150000895CF93C82F462F61E070E00E940508D4
:1021600061E070E08C2F0E941A098111F9CFCF91A4
:1021700008959F92AF92BF92CF92DF92EF92FF921B
:102180000F931F93CF93DF93982E8B015A01690110
:1021900064E270E00E941A09E82EF12C65E270E01A
:1021A000892D0E941A09FE2CEE24E82AE701C00FAF
:1021B000D11F9E013770E92CF12CC701880F991FA0
:1021C000AC01405D5B4F7A01FA0180819181820F01
:1021D000931FA9014C0D5D1D4130584090F000E067
:1021E00018E0021B130BA801B5010E94D805A60137
:1021F000401B510BB501600F711FF7018081918168
:1022000002C0A601B5010E94D805CC0DDD1D4D2FE1
:1022100064E270E0892D0E9405084C2F65E270E0B1
:10222000892DDF91CF911F910F91FF90EF90DF905B
:10223000CF90BF90AF909F900C940508FF920F93A2
:102240001F93CF93DF93F82EC0E0D0E08F2D0E9434
:1022500029068C01892B21F08F2D0E942906EC0183
:10226000C017D10799F7CE01DF91CF911F910F9140
:10227000FF900895AF92BF92CF92DF92EF92FF92BC
:102280000F931F93CF93DF9300D0CDB7DEB77A8340
:102290006983BA01A901E981FA81F770082F10E07A
:1022A000000F111F085C1B4FD8018D919C918E0F60
:1022B0009F1F2E0F3F1F2130384098F07A015B019D
:1022C00020E038E06901CE1ADF0AA6010E94A805C5
:1022D000A7014C195D09B5016C0D7D1DF8018081C8
:1022E00091810F900F90DF91CF911F910F91FF90EF
:1022F000EF90DF90CF90BF90AF900C94A805CF9354
:10230000DF93AB01BC012AE080E494E00E94A717B0
:10231000EC016CEF72E080E494E00E9492178C0F65
:102320009D1FDF91CF910895EF92FF920F931F931E
:10233000CF93DF93E82EF62EC7E0D0E0042F10E015
:1023400098010C2E02C0359527950A94E2F7B90141
:10235000617077278E2D0E94F61C61E08F2D0E9400
:10236000F61C60E08F2D0E94F61C219748F7DF9144
:10237000CF911F910F91FF90EF9008950F931F93AE
:10238000CF93DF93CDB7DEB728970FB6F894DEBFB3
:102390000FBECDBF8C01CE0101960E94A619C801C7
:1023A0000E94B4193A834B832A3010F480E305C0AD
:1023B000822F6AE00E94572E805D809310013AE0E0
:1023C000822F632F0E94572E905D909311018AE314
:1023D000809312012A812A3010F480E305C0822FF5
:1023E000632F0E94572E805D809313013AE0822F65
:1023F000632F0E94572E905D909314018AE380937F
:1024000015012B812A3010F480E305C0822F632F41
:102410000E94572E805D80931601822F6AE00E94F1
:10242000572E905D909317011092180180E191E072
:1024300028960FB6F894DEBF0FBECDBFDF91CF91C7
:102440001F910F9108950F931F93CF93DF93CDB7F3
:10245000DEB766970FB6F894DEBF0FBECDBF8C0116
:102460009EE0E3E6F1E0DE01119601900D929A956F
:10247000E1F7CE010F960E94A619C8010E94B41977
:102480009E012F5F3F4F290F311D290F311DF9018B
:1024900032978081918166960FB6F894DEBF0FBEA9
:1024A000CDBFDF91CF911F910F910895AF92BF9251
:1024B000CF92DF92EF92FF920F931F93CF93DF9310
:1024C0001F92CDB7DEB75C01D62EE72EFC018585C5
:1024D000811105C0C5010E94BD21811106C0F50111
:1024E00013861586148680E065C040E060EFC50164
:1024F0000E944E2101E0F12CC12C11E0C5010E9487
:10250000FB20682FC50169830E94FB20698161302F
:1025100019F48130B9F433C04F2D50E068131BC05B
:10252000F5018385181730F4E40FF51F83818023AC
:1025300049F402C0181731F060E0193058F4F50181
:10254000148708C0F501EF0DF11D8381802B838373
:1025500061E009C0C12EF501E40FF51F9381802FC2
:10256000809589238383C5010E941F211F5F000F6F
:1025700011F4F39401E0F7E0FF1508F0BFCF113438
:1025800008F4ADCFF501C386C11002C081E0858794
:10259000F5018381882309F4A2CFD5011396ED2D8F
:1025A000FE2D9501255F3F4F8D918193A217B307B3
:1025B000D9F781E00F90DF91CF911F910F91FF909C
:1025C000EF90DF90CF90BF90AF9008950F931F933F
:1025D000CF93DF93CDB7DEB761970FB6F894DEBF28
:1025E0000FBECDBF8C0140E0BE01665F7F4F0E94F1
:1025F000BF20811105C060E070E08EEF92EC4BC00F
:10260000AE014F5F5F4FBE01665F7F4FC8010E9402
:102610007F1B882359F1698148E0649FB001112430
:102620008A81282F30E0322F2227330F330F330FC8
:10263000262B372B8A858031E1F4688570E08F8105
:10264000AB01481B5109CA019695982F8827979589
:1026500087950E94632E60517109207F53E0220FFD
:10266000331F5A95E1F7620F731F04C060E874EEE0
:1026700001C0B901613854EE75070CF4BCCF072EC8
:10268000000C880B990B0E94312C20E030E040E0D8
:102690005CE30E94902C61960FB6F894DEBF0FBEEB
:1026A000CDBFDF91CF911F910F910895FC01818DD6
:1026B000928D0895FC0184899589089521E032E086
:1026C000FC0131832083FB01408951896289738930
:1026D000FC0142835383648375830895DC01ED918B
:1026E000FC91028CF38DE02D0994CF93DF931F9220
:1026F000CDB7DEB76983DC01ED91FC910280F381F7
:10270000E02D41E050E0BE016F5F7F4F09950F90D3
:10271000DF91CF910895FC019485FB018485981386
:1027200003C081E0943009F480E0089521E0FC01C9
:102730008485843009F420E0822F08950895CF9392
:10274000FC01C08D80E590E00E942A0860E270E004
:102750008C2F0E94A91062E070E08C2F0E941A0951
:1027600084FD19C062E070E08C2F0E941A0983FF7B
:102770000BC048E162E070E08C2F0E9405080E94C7
:10278000290880E090E011C00E94290880E590E0CF
:102790000E942A08E0CF40E162E070E08C2F0E94A6
:1027A00005080E94290881E090E0CF910895FF92EA
:1027B0000F931F93CF93DF93FB01DC0157961C927D
:1027C0001E9256975896FC908281811109C0838190
:1027D000811106C08481811103C085818823C1F0E5
:1027E00041155105A9F08A01EF0180E590E00E94B2
:1027F0002A08BE016E5F7F4F8F2D0E942008B8010E
:102800008F2D0E940F080E94290881E090E002C0ED
:1028100080E090E0DF91CF911F910F91FF9008959C
:10282000CF92DF92EF92FF920F931F93CF93DF939C
:10283000CDB7DEB7AF970FB6F894DEBF0FBECDBFF2
:102840007C016A0101E012E01A8309831C861B8661
:1028500088EE93E0A0E0B0E08D879E87AF87B88BCD
:102860008BED91E09A878987188F0F8B198E1A8EBE
:102870001B8E1C8E84E089A31DA30CA31EA21FA285
:1028800018A619A68091DF049091E004A091E104BC
:10289000B091E2048CA79DA7AEA7BFA78B839C83B2
:1028A000AD83BE8318861F82AE014C5D5F4FCE01A3
:1028B00001960E94BB0D81309105B1F4D701ED91D5
:1028C000FC910288F389E02D1BA70AA78EA19FA186
:1028D000A8A5B9A58CA79DA7AEA7BFA7A601BE01B5
:1028E000665D7F4FC7010995AF960FB6F894DEBFBE
:1028F0000FBECDBFDF91CF911F910F91FF90EF9051
:10290000DF90CF900895CF93DF93EC01888D8430D2
:1029100061F00E942D08E88DF0E0EE0FFF1FED55ED
:10292000FA4F1182108284E0888FDF91CF91089551
:10293000EF92FF921F93CF93DF93FC01208D243001
:1029400011F080E01CC07B01EC0110E0812F0E949F
:102950004009811102C0188F05C08831E1F31F5F63
:102960001430A1F7888D843061F3FD86EC861A8ED1
:10297000198E20E0A70162E00E94410681E0DF910C
:10298000CF911F91FF90EF9008950F931F93CF93D6
:10299000DF931F92CDB7DEB78C01DC01ED91FC9186
:1029A0000480F581E02D0995892B51F0BE016F5F00
:1029B0007F4FF80184850E948506898190E002C0DE
:1029C0008FEF9FEF0F90DF91CF911F910F9108959F
:1029D000FC0184850C94D206FC018485843011F0BE
:1029E0000C94400980E008958F929F92AF92BF921D
:1029F000CF92DF92EF92FF920F931F93CF93DF93CB
:102A0000CDB7DEB72D970FB6F894DEBF0FBECDBFA2
:102A10007C0100E010E098EE892E93E0992EA12C25
:102A2000B12C2DE0C22E22E0D22E1C821B828D8280
:102A30009E82AF82B886DA82C9820D87CE01019666
:102A40000E94EC14811129C0D70114964D915C911C
:102A5000159720E061E0802F0E94410680E590E01C
:102A60000E942A0863E070E0802F0E941A098331D7
:102A700029F462E070E0802F0E94A9100E942908CA
:102A8000000F111FF801ED55FA4FD70114968D91E3
:102A90009C9115979183808305C00F5F1F4F043071
:102AA000110519F62D960FB6F894DEBF0FBECDBFF7
:102AB000DF91CF911F910F91FF90EF90DF90CF901A
:102AC000BF90AF909F908F900895CF93DF93FC01BC
:102AD00024852430D1F0EC010E94EC14843181F083
:102AE000882371F0883161F08C3161F4E881F981DB
:102AF0000480F581E02DCE01099521E0892B19F4A0
:102B000020E001C021E0822F01C080E0DF91CF9161
:102B10000895CF92DF92EF92FF921F93CF93DF93AE
:102B2000FC0114851430A9F1EC0180E590E00E94CD
:102B30002A0868E070E0812F0E94A9100E942908ED
:102B40000E9418226B017C01CE010E94EC148823A4
:102B5000B1F061E070E080E090E00E94621D0E94B0
:102B60001822DC01CB018C199D09AE09BF09883EF2
:102B70009340A105B10540F38C850E942D08EC859A
:102B8000F0E0EE0FFF1FED55FA4F1182108284E046
:102B90008C87DF91CF911F91FF90EF90DF90CF90C6
:102BA00008952F923F924F925F926F927F928F92F1
:102BB0009F92AF92BF92CF92DF92FF920F931F939B
:102BC000CF93DF93CDB7DEB761970FB6F894DEBF32
:102BD0000FBECDBF8C015B014A0183EA95E09F8760
:102BE0008E87998B888BF12CC12CD12C38EE432EFB
:102BF00033E0532E612C712C4DE0242E42E0342E14
:102C00001C821B824D825E826F8278863A82298284
:102C1000FD86E889F98921913191F98BE88BD801FA
:102C200014968D919C91159728173907B9F4CE0108
:102C300001960E94EC14843171F0CE0101960E943D
:102C4000EC148C3159F4CE0101960E94A80C892B0A
:102C500009F459C003C0CC24C394D12CF394B4E03C
:102C6000FB12CECFCD2841F4D801ED91FC91048028
:102C7000F581E02DC8010995F12C612C712C88EEAD
:102C8000282E83E0382E412C512C9DE0C92E92E055
:102C9000D92E1C821B822D823E824F825886DA8278
:102CA000C982FD86EE85FF8521913191FF87EE87F0
:102CB000D80114968D919C9115972817390731F4F6
:102CC000CE0101960E94EC14873111F1F394B4E027
:102CD000FB12DFCFC30161960FB6F894DEBF0FBEC3
:102CE000CDBFDF91CF911F910F91FF90DF90CF90DB
:102CF000BF90AF909F908F907F906F905F904F901C
:102D00003F902F900895CE0101960E948915A6CF7D
:102D1000A401B501CE0101960E94B10C680E791E86
:102D2000D5CFCF92DF92EF92FF920F931F93CF9365
:102D3000DF936C017A018B01C0E0D0E0CE15DF0596
:102D400089F0D8016D918D01D601ED91FC91019032
:102D5000F081E02DC6010995892B11F47E0102C096
:102D60002196ECCFC701DF91CF911F910F91FF907A
:102D7000EF90DF90CF900895FC01918D828D981790
:102D800061F0828DDF01A80FB11D5D968C91928D4F
:102D90009F5F9F73928F90E008958FEF9FEF08954C
:102DA000FC01918D828D981731F0828DE80FF11D15
:102DB000858D90E008958FEF9FEF0895FC01918D30
:102DC000228D892F90E0805C9F4F821B91098F7329
:102DD0009927089580E494E00E94DE1621E0892B73
:102DE00009F420E0822F0895FC01848DDF01A80FF3
:102DF000B11DA35ABF4F2C91848D90E001968F7323
:102E00009927848FA689B7892C93A089B1898C9141
:102E100080648C93938D848D981306C00288F38907
:102E2000E02D80818F7D80830895EF92FF920F9334
:102E30001F93CF93DF93EC0181E0888F9B8D8C8D66
:102E4000981305C0E889F989808185FD24C0F62E94
:102E50000B8D10E00F5F1F4F0F731127E02E8C8D2D
:102E6000E8120CC00FB607FCFACFE889F989808117
:102E700085FFF5CFCE010E94F416F1CF8B8DFE01B8
:102E8000E80FF11DE35AFF4FF0820B8FEA89FB89AF
:102E90008081806207C0EE89FF896083E889F989B3
:102EA00080818064808381E090E0DF91CF911F91E9
:102EB0000F91FF90EF900895CF93DF93EC01888DF1
:102EC0008823C9F0EA89FB89808185FD05C0A8892E
:102ED000B9898C9186FD0FC00FB607FCF5CF8081B4
:102EE00085FFF2CFA889B9898C9185FFEDCFCE01FE
:102EF0000E94F416E7CFDF91CF91089580E090E033
:102F0000892B29F00E94EA1681110C940000089583
:102F100008950E94C52FDC01ED91FC910190F08194
:102F2000E02D09946115710579F0FB0101900020F5
:102F3000E9F73197AF01461B570BDC01ED91FC918E
:102F40000280F381E02D099480E090E008954F9293
:102F50005F926F927F92EF92FF920F931F93CF93A6
:102F6000DF93CDB7DEB7A1970FB6F894DEBF0FBEE3
:102F7000CDBF7C01FA01CB0119A2223008F42AE06E
:102F80008E010F5D1F4F422E512C612C712CBF0101
:102F9000A30192010E94802DF901CA01015011097B
:102FA0006A3014F4605D01C0695CD8016C93232B16
:102FB000242B252B61F7B801C7010E949217A19617
:102FC0000FB6F894DEBF0FBECDBFDF91CF911F913A
:102FD0000F91FF90EF907F906F905F904F900895CA
:102FE0008F929F92AF92BF92CF92DF92EF92FF9219
:102FF0000F931F93CF93DF937C018B016C0182E0D1
:10300000C80ED11C4701E5E08E0E911CC0E0D0E057
:10301000F60141916F0150E060E070E02AE0C801E4
:103020000E94A7175C016EE2C8010E948B178A0DEF
:103030009B1DC80FD91FC814D90451F7F70145814A
:1030400050E060E070E02AE0C8010E94A7178C0FF2
:103050009D1FDF91CF911F910F91FF90EF90DF9017
:10306000CF90BF90AF909F908F9008950F931F9334
:10307000CF93DF93EC010E9492178C016CEF72E00A
:10308000CE010E949217800F911FDF91CF911F9167
:103090000F9108950C94921721E032E0FC013183E6
:1030A0002083FB014081518162817381FC01428355
:1030B00053836483758308951F920F920FB60F9206
:1030C00011242F933F934F935F936F937F938F932D
:1030D0009F93AF93BF93EF93FF9380E494E00E949C
:1030E000F416FF91EF91BF91AF919F918F917F91D6
:1030F0006F915F914F913F912F910F900FBE0F9065
:103100001F9018951F920F920FB60F9211242F93B4
:103110008F939F93EF93FF93E0915004F0915104AC
:103120008081E0915604F091570482FD12C0908195
:10313000809159048F5F8F7320915A04821751F048
:10314000E0915904F0E0E05CFB4F958F80935904C7
:1031500001C08081FF91EF919F918F912F910F90EE
:103160000FBE0F901F9018950F931F93CF93DF936F
:103170001F92CDB7DEB78C01462F61E0FC01818143
:1031800049830E94261D4981F801608181810F9049
:10319000DF91CF911F910F910C949411CF93DF93F6
:1031A000EC0160E089810E94261D61E088810E9417
:1031B000F61C89810E94CD1C0197D9F360E08881BB
:1031C000DF91CF910C94F61CCF93DF93EC0161E07B
:1031D00089810E94261D60E089810E94F61C61E0C1
:1031E00088810E94F61C61E089810E94F61C60E0E3
:1031F0008981DF91CF910C94261D0F931F93CF935C
:10320000DF931F92CDB7DEB78C01462F61E0FC0142
:10321000818149830E94261D61E0F80181810E941D
:10322000F61C61E0F80180810E94F61C60E0F80164
:1032300081810E94F61C60E0F80180810E94F61CEA
:103240004981F801608181810F90DF91CF911F91B9
:103250000F910C949411EF92FF920F931F93CF93C1
:10326000DF93CDB7DEB728970FB6F894DEBF0FBE59
:10327000CDBF09831A832B835E836F836E817F8129
:10328000832F90E050E0E42FF0E03197252F30E0DD
:103290002E173F0744F4D901AD5CBD4F2C91820F2E
:1032A000911D5F5FF3CF433030F09B0123703327D4
:1032B000232B09F401964DE651E0649F9001659F30
:1032C000300D749F300D1124215933426D5C7740CD
:1032D0007695679576956795260F371F280F391FC6
:1032E000A8E1B0E00E94A22D29817B018C01E20EB1
:1032F000F11C011D111DA8019701ACE3B0E00E9473
:103300006D2D2A817B018C01E20EF11C011D111D26
:10331000A80197010E946D2D2B81DC01CB01820F4A
:10332000911DA11DB11DBC01CD0160587C4B82498E
:10333000974C28960FB6F894DEBF0FBECDBFDF9135
:10334000CF911F910F91FF90EF900895FC018EEDAA
:1033500097E09683858381E0848383831082118242
:10336000128283E0878308959F92AF92BF92CF929B
:10337000DF92EF92FF920F931F93CF93DF93CDB71E
:10338000DEB760970FB6F894DEBF0FBECDBF8C01DD
:10339000CE0101960E94A619F8018185882309F4BF
:1033A00047C084EE8093BC008091BC0087FFFCCFB7
:1033B00080ED8093BB0084EC8093BC008091BC00C6
:1033C00087FFFCCF1092BB0084EC8093BC008091FF
:1033D000BC0087FFFCCF84EE8093BC008091BC00D2
:1033E00087FFFCCF81ED8093BB0084EC8093BC0011
:1033F0008091BC0087FFFCCFF8013296C801099686
:1034000034EC3093BC002091BC0027FFFCCF20910E
:10341000BB002193E817F907A1F784E88093BC006B
:103420008091BC0087FFFCCF84E98093BC0076C00C
:1034300060EDC8010E94FD18C8010E94CE1860E02E
:10344000C8010E94B418C8010E94CE1861EDC801DD
:103450000E94FD18C8010E94CE185801F2E0AF0E7C
:10346000B11CE12CF12C60E0F80181810E94261D45
:1034700087E0C82ED12C912C61E0F80180810E9458
:10348000F61CF80181810E94CD1C99270C2C01C0EB
:10349000880F0A94EAF7982A60E0F80180810E9478
:1034A000F61CF1E0CF1AD10838F7F50191925F01CF
:1034B00061E0F8018181F6E0EF16F10449F00E9425
:1034C000261D60E0F80180810E94F61C60E008C0C3
:1034D0000E94261D60E0F80180810E94F61C61E0D8
:1034E000F80181810E94F61C61E0F80180810E9450
:1034F000F61C60E0F80180810E94F61C60E0F80193
:1035000081810E94261DFFEFEF1AFF0A27E0E216D5
:10351000F10409F0A8CFC8010E94E418F8018281E3
:10352000982F9695969596959E70292F220F220F8B
:10353000920F8F70890F8B838381982F9695969524
:1035400096959E70292F220F220F920F8F70890F50
:103550008A838481282F2F7087FF09C085FB9927D4
:1035600090F9822FFCE09F9F800D112409C0807389
:10357000869586958695982F990F990F890F820FBA
:103580008983F801858188878681982F96959695FD
:1035900096959E70292F220F220F920F8F70890F00
:1035A0008C838781982F9695969596959E70292F56
:1035B000220F220F920F8F70890F8D838085982F95
:1035C00092959F708F70FAE09F9F800D112490E07C
:1035D0008053984F9F838E8388E0FE013196DE01F1
:1035E000199601900D928A95E1F729853A854B85C8
:1035F0005C856D857E858F85988960960FB6F89479
:10360000DEBF0FBECDBFDF91CF911F910F91FF9015
:10361000EF90DF90CF90BF90AF909F9008958F92E2
:103620009F92AF92BF92CF92DF92EF92FF920F9351
:103630001F93CF93DF93EC018D819E810E94BD216A
:1036400040E06CEC8D819E810E944E21488164E4B3
:103650008D819E810E944E218A81882309F442C077
:10366000E981E950E33040F4F0E0EE0FFF1FE35D45
:10367000FD4F0081118102C00EEE12E08B81882384
:10368000F9F0888181111CC00E9418224B015C0155
:103690006801110FEE08FF088D819E810E94FB20BA
:1036A000813001F10E941822DC01CB018C199D09A7
:1036B000AE09BF0988159905AA05BB0568F312C0B4
:1036C000B801110F880B990BDF91CF911F910F91CA
:1036D000FF90EF90DF90CF90BF90AF909F908F9032
:1036E0000C94621DDF91CF911F910F91FF90EF908D
:1036F000DF90CF90BF90AF909F908F9008954F92A2
:103700005F926F927F928F929F92AF92BF92CF9271
:10371000DF92EF92FF920F931F93CF93DF9300D02E
:10372000CDB7DEB72C018A01FC01858196816983C2
:103730007A830E94BD2169817A818823C9F1F201CF
:10374000858196810E94902140E06EEBF201858197
:1037500096810E944E2178014801F9E08F0E911C5C
:10376000F2016580768088E0A82EB12CCC24C39429
:10377000D12CC3010E94FB208111DC28CC0CF1E08C
:10378000AF1AB108B1F7F701D1927F01E815F90539
:1037900039F7F201858196810E94BD21813041F483
:1037A00068E0C8010E94B22091E0F80120858213F0
:1037B00090E0892F0F900F90DF91CF911F910F9183
:1037C000FF90EF90DF90CF90BF90AF909F908F9041
:1037D0007F906F905F904F900895833081F028F430
:1037E000813099F08230A1F008958730A9F08830B7
:1037F000B9F08430D1F4809180008F7D03C0809136
:1038000080008F7780938000089584B58F7702C001
:1038100084B58F7D84BD08958091B0008F7703C0FB
:103820008091B0008F7D8093B0000895CF93DF9397
:1038300090912505992349F194EE9093BC009091C5
:10384000BC0097FFFCCF90ED9093BB0094EC90935D
:10385000BC009091BC0097FFFCCF8093BB0084EC30
:103860008093BC008091BC0087FFFCCF6093BB00BD
:1038700084EC8093BC008091BC0087FFFCCF84E97E
:103880008093BC00DF91CF910895C62FD82F60EDB3
:103890008CE195E00E94FD188CE195E00E94CE1825
:1038A0006D2F8CE195E00E94B4188CE195E00E94A8
:1038B000CE186C2F8CE195E00E94B4188CE195E055
:1038C0000E94CE188CE195E0DF91CF910C94E41822
:1038D000CF92DF92EF92FF92CF93DF936C01990F1B
:1038E000EE08FF08F7FE1BC06DE280E494E00E9442
:1038F0008B17EC0144275527BA014C195D096E0955
:103900007F092AE080E494E00E94A7178C0F9D1F96
:10391000DF91CF91FF90EF90DF90CF9008952AE054
:10392000B701A60180E494E0DF91CF91FF90EF9082
:10393000DF90CF900C94A717CF93DF93CDB7DEB76E
:1039400029970FB6F894DEBF0FBECDBFAE014F5F13
:103950005F4FBC0189E095E00E947F1B882389F0BE
:103960008D818F3361F020F48F3159F489E00CC0E0
:103970008F3519F08F3739F004C08BE005C08AE02D
:1039800003C080E001C08CE029960FB6F894DEBF3A
:103990000FBECDBFDF91CF910895CF93DF93282F36
:1039A00030E0F901EC55FF4F8491F901EA57FF4FE0
:1039B000D491F901EE58FF4FC491CC2391F08111BD
:1039C0000E94ED1BEC2FF0E0EE0FFF1FE859FF4FB8
:1039D000A591B491EC91ED2381E090E021F480E099
:1039E00002C080E090E0DF91CF9108951F93CF93C4
:1039F000DF93282F30E0F901EC55FF4F8491F90156
:103A0000EA57FF4FD491F901EE58FF4FC491CC23F0
:103A1000C9F0162F81110E94ED1BEC2FF0E0EE0F84
:103A2000FF1FE656FF4FA591B4918FB7F89411117F
:103A300005C09C91ED2FE095E92302C0EC91ED2BA0
:103A4000EC938FBFDF91CF911F910895CF93DF93B8
:103A500090E0FC01EA57FF4F2491FC01EE58FF4F24
:103A60008491882361F190E0880F991FFC01E8544C
:103A7000FF4FC591D491FC01E656FF4FA591B4913B
:103A8000611109C09FB7F8948881209582238883AB
:103A9000EC912E230BC0623061F49FB7F89438810B
:103AA000822F809583238883EC912E2B2C939FBFAC
:103AB00006C08FB7F894E8812E2B28838FBFDF9143
:103AC000CF9108958F929F92AF92BF92CF92DF9243
:103AD000EF92FF926B017C010E94F3214B015C018C
:103AE000C114D104E104F104F1F00E94F321DC01DE
:103AF000CB0188199909AA09BB09883E9340A10501
:103B0000B10570F321E0C21AD108E108F10888EE8E
:103B1000880E83E0981EA11CB11CC114D104E104DD
:103B2000F10419F7DDCFFF90EF90DF90CF90BF90B9
:103B3000AF909F908F900895CF93DF93823028F0BD
:103B4000909102059860909302058093050562E3C9
:103B500070E080E090E00E94621D609108058DEFAA
:103B600094E00E943F0868EE73E080E090E00E94DD
:103B7000621D60E38DEF94E00E94A408CBE4D6E4DC
:103B8000CE010197F1F760E38DEF94E00E94A40865
:103B90002197F1F760E38DEF94E00E94A40883E59C
:103BA00092E00197F1F760E28DEF94E00E94A408A3
:103BB00060910205606240E08DEF94E00E94BD08D4
:103BC00084E08093030540E06CE08DEF94E00E9478
:103BD000BD0840E061E08DEF94E00E94BD08CBE3BA
:103BE000DFE1CE010197F1F782E08093040540E028
:103BF00066E08DEF94E00E94BD0840E062E08DEF4A
:103C000094E00E94BD082197F1F7DF91CF910895CC
:103C1000CF92DF92EF92FF920F931F93CF93DF9398
:103C2000CDB7DEB7C254D1090FB6F894DEBF0FBED0
:103C3000CDBFFC0182819381A481B58123968CAF95
:103C40009DAFAEAFBFAF239721E023962FAF239751
:103C500023964CAD5DAD6EAD7FAD23974BAB5CABAA
:103C60006DAB7EAB89AF9AAFABAFBCAF8DA79EA754
:103C7000AFA7B8AB28AB4DA55EA56FA578A94FA39C
:103C800058A769A77AA72EAB4BA95CA96DA97EA9F5
:103C900049A35AA36BA37CA38B8F9C8FAD8FBE8F40
:103CA00041E052E05C8B4B8B3FEF3D8B3E8B3F8B7B
:103CB000188E5E874D872AA7CFA0D8A4E9A4FAA4BE
:103CC000CF86D88AE98AFA8A2CA309A11AA12BA146
:103CD0003CA109871A872B873C875A8349838B83AA
:103CE0009C83AD83BE836CE271E080E090E00E9433
:103CF000621D1FB7F8948091AB05811127C0ECE7D6
:103D0000F0E08491E0E9F0E09491E82FF0E0EE0F2C
:103D1000FF1FE854FF4FA591B491EC91E92321F4E2
:103D200061E08AE00E94F61C61E08AE00E94261DA4
:103D30008CB580618CBD8CB580648CBD61E08DE0FC
:103D40000E94261D61E08BE00E94261D8091AB053C
:103D50008F5F8093AB051FBF229A80E590E00E94A1
:103D60002A0860E880E090E00E94070665E58BE1A4
:103D700090E00E94070665E58AE190E00E94070650
:103D80000E94290880E090E49093310480933004ED
:103D900080E090E6909339048093380480E098E4C2
:103DA000909333048093320480E098E690933B0430
:103DB00080933A0480E090E5909335048093340436
:103DC00080E090E790933D0480933C0480E098E588
:103DD000909337048093360480E098E790933F04F3
:103DE00080933E0480E590E00E942A0846E050E07F
:103DF00069E171E089E090E00E94D80544E050E07C
:103E0000BE016D5F7F4F8FE090E00E94D80544E0D7
:103E100050E0BE01615F7F4F81E090E00E94D805D5
:103E200044E050E0BE016B5E7F4F85E090E00E9471
:103E3000D8050E94290881E08C8789859A85AB8501
:103E4000BC858093DF049093E004A093E104B093D9
:103E5000E204CE5BDF4F0FB6F894DEBF0FBECDBFDE
:103E6000DF91CF911F910F91FF90EF90DF90CF9056
:103E700008950895CF93DF931F92CDB7DEB769837E
:103E8000DC01ED91FC910280F381E02D41E050E0F6
:103E9000BE016F5F7F4F09950F90DF91CF9108951D
:103EA000BF92CF92DF92EF92FF920F931F93CF9327
:103EB000DF9300D000D000D0CDB7DEB7FC01208D5D
:103EC000243009F04CC06A017B018C01B12C63E005
:103ED00070E08B2D0E941A09811103C0F801B08E89
:103EE00006C08831D9F3B394F4E0BF12F0CFF801E3
:103EF000808D8430A1F196E0EFE3F2E0DE011196CF
:103F000001900D929A95E1F7F70193819F779C8339
:103F100094819D8395819E83B7016E5F7F4F0E9440
:103F20002008B601F801808D0E940F08F801808DED
:103F300090E0982F882746E050E0BE016F5F7F4FEA
:103F40008A5F9B4F0E94D805F801128E118E20E8DF
:103F5000A60162E0808D0E94410681E001C080E000
:103F600026960FB6F894DEBF0FBECDBFDF91CF917E
:103F70001F910F91FF90EF90DF90CF90BF90089529
:103F8000CF93DF931F92CDB7DEB7FC01218D328D29
:103F9000232B49F0BE016F5F7F4F808D0E94850605
:103FA000898190E002C08FEF9FEF0F90DF91CF915A
:103FB0000895CF93DF93FC01218D328D21153105BA
:103FC00019F48FEF9FEF11C0EC014217530708F06F
:103FD000A901888D0E94D2061816190694F7298D1A
:103FE0003A8D281B390B3A8F298FDF91CF91089595
:103FF0000F931F93CF93DF931F92CDB7DEB7FC01D2
:10400000218D328D232B61F08C0141E050E0BE0107
:104010006F5F7F4F808D0E94D206181619061CF024
:104020008FEF9FEF08C0F801818D928D0197928FDD
:10403000818F898190E00F90DF91CF911F910F9137
:1040400008950F931F93CF93DF93CDB7DEB72897D3
:104050000FB6F894DEBF0FBECDBF8C01F801818D85
:10406000928D892B49F0D801ED91FC910680F78162
:10407000E02DC8010995F2CF808D0E94B006181678
:1040800019065CF548E050E0BE016F5F7F4FD80134
:1040900058968C910E94D2069C0118161906DCF4E1
:1040A00089819A81AB81BC81F801808B918BA28B35
:1040B000B38B8D8190E0982F88272E81820F911DE0
:1040C000958B848B2F8130E0322F22278885280F13
:1040D000311D328F218FC90102C080E090E0289607
:1040E0000FB6F894DEBF0FBECDBFDF91CF911F9109
:1040F0000F910895AF92BF92CF92DF92FF920F93EC
:104100001F93CF93DF938C015B01EA01FC01C6880A
:10411000D788F08C80E590E00E942A088F2D0E94BD
:104120001E118C179D0720F48F2D0E941E11EC018B
:104130009E01A501B6018F2D0E94B9100E94290889
:10414000F801868997898C0F9D1F978B868BCE01EE
:10415000DF91CF911F910F91FF90DF90CF90BF9093
:10416000AF900895DC01E0E0615038F08D91E827D0
:10417000F0E0EE53FF4FE491F7CF8E2F0895EF92CA
:10418000FF920F931F93CF93DF937C018B01D42F6A
:10419000DC011596ED91FC91169713861586148611
:1041A000DF011B9633961E92AE17BF07E1F7C0E002
:1041B000B801D70115968D919C9116970E945612C1
:1041C000811102C080E010C0CD130AC067E0C801B1
:1041D0000E94B220F8019781891302C081E004C0D7
:1041E000CF5FDC1778F3E4CFDF91CF911F910F9170
:1041F000FF90EF900895FC0190810180F281E02D05
:10420000F8948181892B81832281892F80952823AD
:104210002283A7E0B0E01197F1F721818223818307
:10422000A3E2B0E01197F1F780817894EFECF0E031
:104230003197F1F7982381E009F480E00895FC01BB
:1042400090810180F281E02D892F809560FF12C05E
:10425000F8942281822382838181892B8183A3E246
:10426000B0E01197F1F78281982B9283789487EDD3
:1042700090E011C0F8942281822382838181892B6E
:104280008183AFEFB0E01197F1F78281982B928391
:1042900078948FE090E00197F1F70895CF92DF9244
:1042A000EF92FF920F931F93CF93DF931F92CDB79F
:1042B000DEB76C01E62E08E010E0FF24F39461E025
:1042C0008F2D8E2109F460E0C60149830E941F21D1
:1042D000FF0C0150110949810115110581F74111A8
:1042E00015C0F894D6011196ED91FC911297918129
:1042F0008C918095892381831196ED91FC91129781
:1043000092818C9180958923828378940F90DF919C
:10431000CF911F910F91FF90EF90DF90CF90089574
:10432000CF92DF92EF92FF920F931F93CF93DF9381
:104330001F92CDB7DEB78C01F62E40E065E579839C
:104340000E944E21CF2C7981D72E760188E0E80E8D
:10435000F11CF60161916F0140E0C8010E944E21FD
:10436000CE14DF04B1F70F90DF91CF911F910F9121
:10437000FF90EF90DF90CF900895FC019081018035
:10438000F281E02DF8948181292F20958223818369
:1043900078948DE743E050E0815021F1DA011197E4
:1043A000F1F730813923C1F3F8948281822382832B
:1043B0008181892B81837894ABE7B7E01197F1F77E
:1043C000F894818128232183A3E1B1E01197F1F7CB
:1043D0008081982381E009F080E07894E3E6F6E0BC
:1043E0003197F1F708953FB7F8948091B105909116
:1043F000B205A091B305B091B40526B5A89B05C040
:104400002F3F19F00196A11DB11D3FBFBA2FA92F53
:10441000982F8827820F911DA11DB11DBC01CD01D0
:1044200042E0660F771F881F991F4A95D1F70895BC
:104430002FB7F8946091AD057091AE058091AF05EE
:104440009091B0052FBF08951F920F920FB60F9253
:1044500011242F933F938F939F93AF93BF9380919A
:10446000AD059091AE05A091AF05B091B00530912A
:10447000AC0523E0230F2D3720F40196A11DB11DBB
:1044800005C026E8230F0296A11DB11D2093AC059F
:104490008093AD059093AE05A093AF05B093B005A2
:1044A0008091B1059091B205A091B305B091B4058A
:1044B0000196A11DB11D8093B1059093B205A09303
:1044C000B305B093B405BF91AF919F918F913F9188
:1044D0002F910F900FBE0F901F901895CF93DF93E1
:1044E000CDB7DEB767970FB6F894DEBF0FBECDBF6E
:1044F000789484B5826084BD84B5816084BD85B5BF
:10450000826085BD85B5816085BD80916E008160CA
:1045100080936E0010928100809181008260809370
:104520008100809181008160809381008091800072
:104530008160809380008091B10084608093B1009D
:104540008091B00081608093B00080917A00846097
:1045500080937A0080917A00826080937A008091C3
:104560007A00816080937A0080917A0080688093DD
:104570007A001092C10065E472E080E494E00E9449
:10458000361861E089E00E94261D61E08AE00E9401
:10459000261D61E08BE00E94261D60E087E00E94FE
:1045A000261D60E086E00E94261D60E088E00E94F3
:1045B000261D1D8A1C8A8DE291E09B8B8A8B80E5EB
:1045C00090E09F8B8E8B81E092E09A83898380912B
:1045D000F9049091FA04A091FB04B091FC048B8340
:1045E0009C83AD83BE83CE0101960E94081ECE013E
:1045F00042960E94F4148EE090E00E94982EFC01F6
:1046000087E391E0918380838CE492E093878287B3
:1046100086E592E09587848789E095E09583848399
:104620008DEF94E0978386830CE115E01187008776
:1046300081E090E093838283F093A003E0939F0353
:1046400088E090E00E94982EFC018FE391E0918336
:1046500080838BE592E0958384838FE592E0978356
:10466000868313830283F0939C03E0939B0384E08F
:1046700090E00E94982E8C0187E491E0D8018D9300
:104680009C9363E672E080E494E00E943618F8019F
:104690001382128261E08BE00E94F61C10939E034D
:1046A00000939D0382E090E00E94982E2FE431E079
:1046B000DC012D933C9390939A03809399038CE2B1
:1046C00090E00E94982E8C0187E591E0F80191839B
:1046D000808382EE97E0978786878AE090E0918BCF
:1046E000808B23EE37E0358B248B43E050E0578BF3
:1046F000468B6FE170E0718F608F338F228F958FC3
:10470000848F2BE130E0378F268F24EE37E031A302
:1047100020A353A342A34DE150E055A344A337A3E4
:1047200026A391A780A789E190E0938B828B1382C7
:1047300012821582148217821682118610861386C1
:1047400012861586148668EB72E286E295E00E9476
:1047500098141093940300939303109262031092A1
:1047600061031092600310925F0310925E0311E0E8
:1047700010935D0310925C0361E082E10E94F61CDD
:1047800061E083E10E94F61C8091B9008E7F8093E6
:10479000B9008091B9008D7F8093B90088E480933F
:1047A000B80085E48093BC00109202058091070553
:1047B0000E949C1D88E08093080560E08DEF94E0E6
:1047C0000E943F0882E00E949C1D80911D0582315D
:1047D000F9F480911C058331D9F41093250561E02B
:1047E00082E10E94F61C61E083E10E94F61C809148
:1047F000B9008E7F8093B9008091B9008D7F80933E
:10480000B9008CE08093B80085E08093BC0007C0BD
:104810001092250561E080911C050E94261DE09103
:104820000E05F0910F05138615861486DF011B9681
:1048300033961E92AE17BF07E1F710920D0501E007
:10484000BE016F5F7F4F80910E0590910F050E9412
:104850005612882309F453C067E0CE0101960E94E6
:10486000B22098858913ECCF80910905811127C06A
:1048700080910E0590910F050E94BD21BE016F5FD2
:104880007F4F80910E0590910F050E94902140E08E
:1048900064EB80910E0590910F050E944E2180914E
:1048A0000E0590910F050E94FB20182F80910E0598
:1048B00090910F050E94BD21112309F487C5109125
:1048C0000A058981803109F49BC5CE0101960E94B9
:1048D0009C1C811718F480910A0509C089818031D8
:1048E00011F48CE004C0CE0101960E949C1C8093C0
:1048F0000A0580910D058F5F80930D05A1CF8CE097
:1049000080930A05E12CF12C0FE58FE7D82E9FE16B
:10491000C92E2FE3B22E80910D0590E0E816F9061E
:104920000CF0A6C04E2DBE01665F7F4F89E095E07A
:104930000E94BF2010910A05193020F01D3018F098
:104940001CE001C019E08A85803129F0CE010A9669
:104950000E949C1C01C08CE0811709F485C0AE0147
:104960004F5F5F4FBE01665F7F4F89E095E00E9419
:104970007F1B882309F478C08A85803109F474C0CC
:104980001B3041F01C3021F01A3031F4BD8205C0DB
:10499000DD8203C00D8301C0CD8280910E05909110
:1049A0000F050E94BD21BE01665F7F4F80910E05FD
:1049B00090910F050E94902140E06EE480910E05D9
:1049C00090910F050E944E2140E06B8180910E0571
:1049D00090910F050E944E2140E06C8180910E0560
:1049E00090910F050E944E218A85803141F040E070
:1049F0006D8180910E0590910F050E944E2180914E
:104A00000E0590910F050E94BD21BE01665F7F4F8C
:104A100080910E0590910F050E949021409109050B
:104A200068E480910E0590910F050E944E2164E18B
:104A300070E080E090E00E94621D8091090588236B
:104A400031F06AE070E080E090E00E94621D8091A9
:104A50000E0590910F050E94BD2180910A0518173F
:104A600008F4182F10930A05FFEFEF1AFF0A53CF2F
:104A7000E0915004F091510482E08083E0914C0475
:104A8000F0914D041082E0914E04F0914F048FECB0
:104A9000808310925804E0915404F091550486E00C
:104AA0008083E0915204F09153048081806180837F
:104AB000E0915204F0915304808188608083E091FA
:104AC0005204F0915304808180688083E091520405
:104AD000F091530480818F7D808310929503109212
:104AE0009603109297031092980368E186E00E9463
:104AF000161C63E085E00E94161C66E084E00E94BC
:104B0000161C68E182E00E94161C65E081E00E94AC
:104B1000161C60E080E00E94161C6DE672E080E4E6
:104B200094E00E943618A0E32A2EB3EE3B2E1CEE32
:104B3000812E01E3902E00919F031091A00341E08C
:104B400060E0D80116968D919C9117970E94E40819
:104B5000F801808591850E942312BC01D801169628
:104B60008D919C9117970E944A1841E068E0F801E6
:104B7000868197810E94E408D80118968D919C91B6
:104B800019970E94BE11BC01F801868197810E948D
:104B90004A1868EC70E080E090E00E94621D00918D
:104BA0009F031091A003D80114968D919C911597A5
:104BB0000E940F1BF801848195810E94E6126B010F
:104BC0007C0120E030E040E251E40E944D2E1816B6
:104BD0000CF0D7C020E030E040E252E4C701B6015B
:104BE0000E942A2C87FFCDC040E060E0D8011696D5
:104BF0008D919C9117970E94E408F8016285738556
:104C0000868197810E944A1840E068E0D801169694
:104C10008D919C9117970E94E408F801A680B780B7
:104C2000A7019601C701B6010E94522E882319F0F0
:104C300069E772E01AC026013701E89477F82FEF90
:104C40003FEF4FE75FE7C301B2010E94522E81118F
:104C500010C02FEF3FEF4FE75FE7C301B2010E94A3
:104C60002A2C181634F46DE772E0C5010E949217E1
:104C700078C02FEF3FEF4FE75FE4C701B6010E9416
:104C80004D2E181654F02FEF3FEF4FE75FECC701A2
:104C9000B6010E942A2C87FF03C061E872E0E5CFCD
:104CA00020E030E0A901C701B6010E942A2C87FF4D
:104CB00008C06DE2C5010E948B17F7FAF094F7F86F
:104CC000F0942AE037ED43EA5BE3C701B6010E94A6
:104CD000B22D2B013C010E941E2E6B017C010E9413
:104CE0002F2C9B01AC01C301B2010E94B12D2B01FD
:104CF0003C012AE0B701A601C5010E94A7176EE298
:104D0000C5010E948B1720E030E040E251E4C3016E
:104D1000B2010E94902C6B017C010E941E2E2B017F
:104D2000612C712C2AE0B301A201C5010E94A717D2
:104D3000C301B2010E942F2C9B01AC01C701B60137
:104D40000E94B12D20E030E040E251E40E94902C1E
:104D50000E941E2EAB0160E070E02AE0C5010E94B7
:104D6000A71740E06EE0D80116968D919C91179799
:104D70000E94E40865E872E0F801868197810E944C
:104D80004A1886E00E94CD1C019711F460E00CC027
:104D900087E00E94CD1C0197A9F467E872E080E4E7
:104DA00094E00E94361861E089E00E94F61C60E001
:104DB0008AE00E94F61C80919D0390919E030E94C0
:104DC000530C46C000919F031091A003D801149684
:104DD0008D919C9115970E940F1BF80184819581FC
:104DE0000E94E61200919D0310919E03D801129635
:104DF0002D913C9113972130310509F0EAC220E052
:104E000030E048EC51E40E942A2C87FF0FC063E693
:104E100072E080E494E00E943618D80113961C9248
:104E20001E92129761E08BE00E94F61C00919B039A
:104E300010919C03C8010E947B0A892B09F0D8C2FB
:104E400061E089E00E94F61C61E08AE00E94F61CA5
:104E50008091950390919603A0919703B091980348
:104E60000196A11DB11D8138E8E39E07E1E0AE0780
:104E7000B1054CF48093950390939603A093970308
:104E8000B093980308C01092950310929603109265
:104E90009703109298038CE195E00E94B41929833E
:104EA0003A834B835C836D837E838F8398872091C5
:104EB0009503309196034091970350919803A8EC85
:104EC000B0E00E946D2D20E838E341E050E00E9400
:104ED0004E2D672B682B692B09F075C267E972E0CC
:104EE00080E494E00E944A188CE195E00E94BE1193
:104EF000BC0180E494E00E94361800919303109165
:104F00009403A3E6B3E0E22D1D92EA95E9F730920F
:104F1000630386E0809365038092660390926F033B
:104F20008EE4809370039092710384E38093720304
:104F30004BE750E060E071E086E295E00E941014DB
:104F400040E350E063E673E086E295E00E947A2059
:104F500086E295E00E949F1364E670E080E090E0B6
:104F60000E94621D40E350E063E673E086E295E054
:104F70000E94D91FC0908B03D12CDC2CCC248091B3
:104F80008C03C82AE12CF12CD60199278827C090E0
:104F90008D03D12CDC2CCC2420918E03C22AE12C51
:104FA000F12CC82AD92AEA2AFB2AC114D104E10427
:104FB000F10409F48CC062EA72E080E494E00E949B
:104FC0004A18C701B6010E947F116EEB72E080E4BF
:104FD00094E00E944A18F0E8CF1AFEE7DF0AFAEAE6
:104FE000EF0AF3E8FF0AC701B6010E947F116BECDC
:104FF00072E080E494E00E944A18C701B60120E8FC
:1050000031E541E050E00E94802D20E13EE040E0AB
:1050100050E00E94802DBA01A901D80113965C933B
:105020004E9312972AE080E494E00E94A7176AE367
:1050300080E494E00E948B17C701B60120E13EE0B6
:1050400040E050E00E94802D2B013C016835724009
:105050008105910528F460E380E494E00E948B17B9
:10506000C301B2012CE330E040E050E00E94802D0B
:10507000BA01A901F801558344832AE080E494E051
:105080000E94A7176AE380E494E00E948B17C7018F
:10509000B6012CE330E040E050E00E94802D6B012F
:1050A0007C016A3071058105910528F460E380E494
:1050B00094E00E948B17D8011796DC92CE92169737
:1050C000C701B6010E947F11DD24D39401C0D12C09
:1050D00068EB7BE080E090E00E94621D86E295E054
:1050E0000E9421200091E3041091E40401151105B0
:1050F00009F4F3C00E9418222B013C017801BEE3A1
:10510000EB0EF11CF70180819181A281B381A30193
:105110009201281B390B4A0B5B0BCA01B901683E8F
:1051200033E073078105910508F446C028EE33E0AB
:1051300040E050E00E94802D461A570A680A790A1A
:10514000D7014D925D926D927C921397F80186A5DE
:1051500097A5A0A9B1A929013A01440C551C661CC8
:10516000771C84159505A605B70528F416A617A67D
:1051700010AA11AA09C0821B930BA40BB50BF8014E
:1051800086A797A7A0ABB1ABF80182A993A9A4A960
:10519000B5A984159505A605B70528F412AA13AA82
:1051A00014AA15AA09C0821B930BA40BB50BF80116
:1051B00082AB93ABA4ABB5ABF80186A597A5A0A92C
:1051C000B1A9892B8A2B8B2B61F4EE5BFF4F808179
:1051D000833039F484E08083C8010E940D04019675
:1051E00002C080E090E0D801D2964D915D916D9122
:1051F0007C91D597452B462B472BA1F4F801EE5B0C
:10520000FF4F2081233011F021110CC01082F801D2
:105210003E9684E1DF011D928A95E9F7C8010E945C
:105220000D0403968230910519F0049709F055C0DA
:1052300080E590E00E942A086091E3047091E40404
:10524000625F7F4FCE010A960E944C1844E050E006
:10525000BE01645F7F4F8FE090E00E94D8056091AF
:10526000E3047091E4046A5E7F4FCE010A960E94C7
:105270004C1844E050E0BE01645F7F4F81E090E055
:105280000E94D8056091E3047091E4046E5E7F4F44
:10529000CE010A960E944C1844E050E0BE01645FC3
:1052A0007F4F85E090E00E94D8050E942908609118
:1052B000E3047091E404625E7F4FCE010A960E947F
:1052C0004C188C859D85AE85BF858093DF049093B7
:1052D000E004A093E104B093E204DD2009F473C07C
:1052E000E0919303F0919403F280D3800481E580F0
:1052F0001681412E57806CED72E080E494E00E94AC
:105300004A188F2D9D2D0E94681C6AEF72E080E480
:1053100094E00E944A18802F9E2D0E94681C6AEF1C
:1053200072E080E494E00E944A18052C000C6608A4
:10533000770877FE0EC06DE280E494E00E948B1740
:1053400044275527BA0144195509660977092AE007
:1053500003C02AE0B301A20180E494E00E94A717F1
:105360006CEF72E080E494E00E949217B7E1BF1501
:1053700050F10C3340F51C3330F58AE0E82E8F2DC8
:105380006E2D0E94572E692FE0E18E9F600D112433
:1053900082E00E94161C802F6E2D0E94572E692FCE
:1053A000F0E18F9F600D112481E00E94161C812F77
:1053B0006E2D0E94572E692F20E1829F600D1124CF
:1053C00080E00E94161C0E947E17B5CB0093090551
:1053D00076CA232B09F02ACD20E030E040ED51E4DD
:1053E0000E944D2E87FD22CDC8010E94530C1ECD78
:1053F000C8010E947B0A019709F026CD60E021CD0B
:105400001D3008F068CA6DCA81E092E090934205B1
:105410008093410510924305109244051092450572
:1054200010924605109243041092420448EE53E055
:1054300060E070E040934404509345046093460458
:105440007093470425E731E03093410420934004F2
:1054500025EC30E030934D0420934C0424EC30E0F4
:1054600030934F0420934E0420EC30E030935104ED
:105470002093500421EC30E03093530420935204E5
:1054800022EC30E0309355042093540426EC30E0B5
:1054900030935704209356041092590410925A04E2
:1054A00010925B0410925C0490934805809347052A
:1054B0001092490510924A0510924B0510924C0526
:1054C00090934E0580934D0510924F051092500514
:1054D00010925105109252059093540580935305F4
:1054E00010925505109256051092570510925805C6
:1054F00090935A058093590510925B0510925C05B4
:1055000010925D0510925E059093600580935F0593
:105510001092610510926205109263051092640565
:105520009093DE048093DD041092DF041092E00477
:105530001092E1041092E2049093E6048093E50453
:105540001092E7041092E8041092E9041092EA0421
:105550009093660580936505109267051092680523
:105560001092690510926A0590936C0580936B0503
:1055700010926D0510926E0510926F0510927005D5
:1055800090937205809371051092730510927405C3
:1055900010927505109276059093780580937705A3
:1055A0001092790510927A0510927B0510927C0575
:1055B00090937E0580937D0510927F051092800563
:1055C0001092810510928205909384058093830543
:1055D0001092850510928605109287051092880515
:1055E0001092EE041092ED044093EF045093F004F7
:1055F0006093F1047093F20425E831E03093EC04F9
:105600002093EB0490939805809397051092990549
:1056100010929A0510929B0510929C0582E180934E
:105620001D0583E180931C0560E088E00E94261D33
:10563000EEE8F0E0E491E0938905EAE7F0E0E49138
:10564000F0E0EE0FFF1FE859FF4F85919491909382
:105650008B0580938A0510929405109296051092FE
:105660009505E4E9F5E0129285E0EC38F807D9F702
:1056700088E897E190931B0580931A0589E895E0E7
:1056800090930F0580930E0510920D051092090559
:1056900089E080930A0581E080930B0580930C05D7
:1056A000109200051092FF0485E991E09093FE04AA
:1056B0008093FD0487E28093010580E180930605D5
:1056C00082E0809307051092080581E092E09093B4
:1056D000F8048093F70420EC2093F90428EA20933F
:1056E000FA041092FB0426E12093FC0490939E059B
:1056F00080939D0510929F051092A0051092A10520
:105700001092A205109229051092280548EE53E048
:1057100060E070E040932A0550932B0560932C05C0
:1057200070932D052BED31E030932705209326054E
:105730009093350580933405109236051092370505
:10574000109238051092390584E080933E05089543
:105750008F929F92AF92BF92CF92DF92EF92FF9281
:10576000CF93DF93EC01688179818A819B816115F8
:1057700071058105910521F464E279ED8BE597E0EF
:105780002DE133EF41E050E00E944E2D49015A01D6
:105790009B01AC01A7EAB1E40E946D2D6B017C0175
:1057A000ACEEB4EFA50194010E947B2DDC01CB018E
:1057B0008C0D9D1DAE1DBF1DB7FF03C00197A10934
:1057C000B04888839983AA83BB83BC01CD019F77AE
:1057D000DF91CF91FF90EF90DF90CF90BF90AF908F
:1057E0009F908F9008950E94A82B08958FE191E0DB
:1057F0000E94A82B089560931F017093200180934D
:105800002101909322010895FC0188279927E894AB
:1058100021912032E9F3293010F02E30C8F32B32D9
:1058200041F02D3239F4689404C00E94222C820F7A
:10583000911D219120532A30C0F31EF4909581953B
:105840009F4F08957AE0979F902D879F802D910D0F
:10585000112408950E946C2C08F481E00895E894C6
:1058600009C097FB3EF490958095709561957F4FA8
:105870008F4F9F4F9923A9F0F92F96E9BB27939556
:10588000F695879577956795B795F111F8CFFAF466
:10589000BB0F11F460FF1BC06F5F7F4F8F4F9F4F97
:1058A00016C0882311F096E911C0772321F09EE8F5
:1058B000872F762F05C0662371F096E8862F70E05B
:1058C00060E02AF09A95660F771F881FDAF7880F35
:1058D0009695879597F90895990F0008550FAA0B8B
:1058E000E0E8FEEF16161706E807F907C0F01216F3
:1058F0001306E407F50798F0621B730B840B950BF6
:1059000039F40A2661F0232B242B252B21F408954A
:105910000A2609F4A140A6958FEF811D811D0895E7
:105920000E94A32C0C94142D0E94062D38F00E9486
:105930000D2D20F0952311F00C94FD2C0C94032DCB
:1059400011240C94482D0E94252D70F3959FC1F3CE
:10595000950F50E0551F629FF001729FBB27F00D1D
:10596000B11D639FAA27F00DB11DAA1F649F662772
:10597000B00DA11D661F829F2227B00DA11D621FC1
:10598000739FB00DA11D621F839FA00D611D221F7B
:10599000749F3327A00D611D231F849F600D211D5F
:1059A000822F762F6A2F11249F5750409AF0F1F0E2
:1059B00088234AF0EE0FFF1FBB1F661F771F881F4B
:1059C00091505040A9F79E3F510580F00C94FD2C5A
:1059D0000C94482D5F3FE4F3983ED4F38695779579
:1059E0006795B795F795E7959F5FC1F7FE2B880FF1
:1059F000911D9695879597F9089597F99F6780E887
:105A000070E060E008959FEF80EC089500240A9410
:105A10001616170618060906089500240A94121689
:105A20001306140605060895092E0394000C11F4BC
:105A3000882352F0BB0F40F4BF2B11F460FF04C069
:105A40006F5F7F4F8F4F9F4F089557FD9058440FC2
:105A5000551F59F05F3F71F04795880F97FB991FCD
:105A600061F09F3F79F0879508951216130614068A
:105A7000551FF2CF4695F1DF08C016161706180617
:105A8000991FF1CF86957105610508940895E894F2
:105A9000BB2766277727CB0197F90895052E97FB3B
:105AA0001EF400940E94652D57FD07D00E94802DA2
:105AB00007FC03D04EF40C94652D5095409530951D
:105AC00021953F4F4F4F5F4F08959095809570956A
:105AD00061957F4F8F4F9F4F08950E94A22DA59FE4
