:100000000C94E2000C940A010C940A010C940A016D
:100010000C940A010C940A010C940A010C940A0134
:100020000C940A010C940A010C940A010C940A0124
:100030000C940A010C940A010C940A010C940A0114
:100040000C943C0A0C940A010C9489030C946303ED
:100050000C940A010C940A010C940A010C940A01F4
:100060000C940A010C940A01005EBCE2613FDD833E
:10007000C29C7E20A3FD1F419DC3217FFCA2401E88
:100080005F01E3BD3E6082DC237D9FC1421CFEA078
:10009000E1BF5D0380DE3C62BEE0025CDF81633D68
:1000A0007C22C09E1D43A1FF4618FAA427799BC558
:1000B00084DA3866E5BB5907DB856739BAE4065848
:1000C0001947A5FB7826C49A653BD987045AB8E638
:1000D000A7F91B45C6987A24F8A6441A99C7257B28
:1000E0003A6486D85B05E7B98CD2306EEDB3510F18
:1000F0004E10F2AC2F7193CD114FADF3702ECC9208
:10010000D38D6F31B2EC0E50AFF1134DCE90722CF7
:100110006D33D18F0C52B0EE326C8ED0530DEFB1E7
:10012000F0AE4C1291CF2D73CA947628ABF51749D7
:100130000856B4EA6937D58B5709EBB536688AD4C7
:1001400095CB2977F4AA4816E9B7550B88D6346AB7
:100150002B7597C94A14F6A8742AC896154BA9F7A7
:10016000B6E80A54D7896B35000000002400270048
:100170002A0000000000250028002B0000000008D5
:10018000000201000003040700000000000000005E
:1001900000000000230026002900040404040404D5
:1001A0000404020202020202030303030303010226
:1001B00004081020408001020408102001020408F5
:1001C0001020B21211241FBECFEFD8E0DEBFCDBF8A
:1001D00012E0A0E0B1E0EEE8FCE202C005900D9272
:1001E000A631B107D9F723E0A6E1B2E001C01D9224
:1001F000A431B207E1F710E0C2EED0E004C02197CD
:10020000FE010E943A16C13ED107C9F70E944B0F6A
:100210000C9445160C940000CF92DF92EF92FF925F
:100220000F931F93CF93DF936C017A018B01C0E092
:10023000D0E0CE15DF0589F0D8016D918D01D60192
:10024000ED91FC910190F081E02DC6010995892B7B
:1002500011F47E0102C02196ECCFC701DF91CF914E
:100260001F910F91FF90EF90DF90CF900895FC01C8
:10027000918D828D981761F0828DDF01A80FB11DDD
:100280005D968C91928D9F5F9F73928F90E0089501
:100290008FEF9FEF0895FC01918D828D981731F0BB
:1002A000828DE80FF11D858D90E008958FEF9FEF0F
:1002B0000895FC01918D228D892F90E0805C9F4FE5
:1002C000821B91098F73992708958CE292E00E9416
:1002D000590121E0892B09F420E0822F0895FC01C7
:1002E000848DDF01A80FB11DA35ABF4F2C91848DBF
:1002F00090E001968F739927848FA689B7892C93F4
:10030000A089B1898C9180648C93938D848D98138E
:1003100006C00288F389E02D80818F7D8083089557
:10032000EF92FF920F931F93CF93DF93EC0181E045
:10033000888F9B8D8C8D981305C0E889F989808101
:1003400085FD24C0F62E0B8D10E00F5F1F4F0F733D
:100350001127E02E8C8DE8120CC00FB607FCFACFE7
:10036000E889F989808185FFF5CFCE010E946F0170
:10037000F1CF8B8DFE01E80FF11DE35AFF4FF082A4
:100380000B8FEA89FB898081806207C0EE89FF8933
:100390006083E889F98980818064808381E090E0CE
:1003A000DF91CF911F910F91FF90EF900895CF9320
:1003B000DF93EC01888D8823C9F0EA89FB8980816D
:1003C00085FD05C0A889B9898C9186FD0FC00FB63F
:1003D00007FCF5CF808185FFF2CFA889B9898C9180
:1003E00085FFEDCFCE010E946F01E7CFDF91CF9166
:1003F000089580E090E0892B29F00E946501811129
:100400000C94000008950895CF93DF93EC0160E011
:100410008E810E94960961E08E810E94960960E0BB
:100420008E810E9496098BE891E00197F1F7DF91A8
:10043000CF910895DC01ED91FC910190F081E02DC8
:1004400009946115710579F0FB0101900020E9F72D
:100450003197AF01461B570BDC01ED91FC910280F7
:10046000F381E02D099480E090E008954F925F922F
:100470006F927F92EF92FF920F931F93CF93DF9330
:10048000CDB7DEB7A1970FB6F894DEBF0FBECDBFD4
:100490007C01FA01CB0119A2223008F42AE08E0176
:1004A0000F5D1F4F422E512C612C712CBF01A301F7
:1004B00092010E94EA15F901CA01015011096A303E
:1004C00014F4605D01C0695CD8016C93232B242B6C
:1004D000252B61F7B801C7010E942102A1960FB632
:1004E000F894DEBF0FBECDBFDF91CF911F910F916A
:1004F000FF90EF907F906F905F904F9008954F9294
:100500005F926F927F928F929F92AF92BF92CF92A3
:10051000DF92EF92FF92CF93DF93EC016A017B01B0
:10052000B22E9A01AB01C701B6010E94C5158823FE
:1005300019F061E471E027C026013701E89477F8EB
:100540002FEF3FEF4FE75FE7C301B2010E94C515F0
:1005500081110DC02FEF3FEF4FE75FE7C301B201FD
:100560000E94FB1318161CF465E471E00CC02FEF19
:100570003FEF4FE75FE4C701B6010E94531518161D
:100580009CF469E471E0CE01DF91CF91FF90EF9090
:10059000DF90CF90BF90AF909F908F907F906F90A3
:1005A0005F904F900C9421022FEF3FEF4FE75FECED
:1005B000C701B6010E94FB1387FDE3CF20E030E0C6
:1005C000A901C701B6010E94FB1387FF0AC06DE2B3
:1005D000CE010E941A024C01F7FAF094F7F8F09459
:1005E00002C0812C912CA12C60E070E080E09FE3A0
:1005F000AB1441F020E030E040E251E40E940014EE
:10060000A394F6CF9B01AC01C701B6010E948F13E2
:100610002B013C010E9472146B017C010E94A11409
:100620009B01AC01C301B2010E948E132B013C015E
:100630002AE0B701A601CE010E9436027C01E80C37
:10064000F91CBB2031F06EE2CE010E941A02E80EC6
:10065000F91EDB2CDD2029F120E030E040E251E4FE
:10066000C301B2010E9458152B013C010E94721473
:100670004B01A12CB12C2AE0B501A401CE010E94AE
:100680003602E80EF91EC501B4010E94A1149B01B7
:10069000AC01C301B2010E948E132B013C01DA941C
:1006A000D9CFC701DF91CF91FF90EF90DF90CF902E
:1006B000BF90AF909F908F907F906F905F904F9082
:1006C00008950C9421021F920F920FB60F921124DD
:1006D0002F933F934F935F936F937F938F939F934A
:1006E000AF93BF93EF93FF938CE292E00E946F0170
:1006F000FF91EF91BF91AF919F918F917F916F91FA
:100700005F914F913F912F910F900FBE0F901F90CF
:1007100018951F920F920FB60F9211242F938F935B
:100720009F93EF93FF93E0913C02F0913D02808113
:10073000E0914202F091430282FD12C090818091CB
:1007400045028F5F8F7320914602821751F0E0912E
:100750004502F0E0E45DFD4F958F8093450201C0B6
:100760008081FF91EF919F918F912F910F900FBEFC
:100770000F901F901895FC018EED97E0968385836E
:1007800081E08483838310821182128283E08783D5
:100790000895DC01E0E0615038F08D91E827F0E049
:1007A000E859FF4FE491F7CF8E2F0895FC01908117
:1007B0000180F281E02DF8948181892B818322814F
:1007C000892F809528232283A7E0B0E01197F1F7C5
:1007D000218182238183A3E2B0E01197F1F7808128
:1007E0007894EFECF0E03197F1F7982381E009F489
:1007F00080E00895FC0190810180F281E02D892F35
:10080000809560FF12C0F8942281822382838181C7
:10081000892B8183A3E2B0E01197F1F78281982BB5
:100820009283789487ED90E011C0F894228182231E
:1008300082838181892B8183AFEFB0E01197F1F73B
:100840008281982B928378948FE090E00197F1F762
:100850000895CF92DF92EF92FF920F931F93CF9361
:10086000DF931F92CDB7DEB76C01E62E08E010E0F3
:10087000FF24F39461E08F2D8E2109F460E0C6011E
:1008800049830E94FA03FF0C0150110949810115A7
:10089000110581F7411115C0F894D6011196ED911B
:1008A000FC91129791818C91809589238183119677
:1008B000ED91FC91129792818C918095892382838E
:1008C00078940F90DF91CF911F910F91FF90EF904F
:1008D000DF90CF900895CF92DF92EF92FF920F9327
:1008E0001F93CF93DF931F92CDB7DEB78C01F62E07
:1008F00040E065E579830E942904CF2C7981D72EC9
:10090000760188E0E80EF11CF60161916F0140E08C
:10091000C8010E942904CE14DF04B1F70F90DF91C3
:10092000CF911F910F91FF90EF90DF90CF9008959E
:10093000FC0190810180F281E02DF8948181292FC2
:1009400020958223818378948DE743E050E08150A5
:1009500021F1DA011197F1F730813923C1F3F894CD
:100960008281822382838181892B81837894ABE782
:10097000B7E01197F1F7F894818128232183A3E14F
:10098000B1E01197F1F78081982381E009F080E0D0
:100990007894E3E6F6E03197F1F70895CF92DF928D
:1009A000EF92FF920F931F93CF93DF937C016C0123
:1009B00087E0C80ED11CC0E0D0E0062F10E0B801DF
:1009C0000C2E02C0759567950A94E2F76170F601E6
:1009D00081916F010E9496092196C430D10579F763
:1009E000C701DF91CF911F910F91FF90EF90DF90A2
:1009F000CF900C940402CF92DF92EF92FF920F936C
:100A00001F93CF93DF93EC01F62E642F8C810E940D
:100A100096098D818F3F19F060E00E9496098F85BD
:100A20000F2D10E084FF25C06E0187E0C80ED11C99
:100A3000E12CF12CB8010E2C02C0759567950A9433
:100A4000E2F76170F60181916F010E949609FFEF54
:100A5000EF1AFF0A88E0E816F10461F7CE01DF9192
:100A6000CF911F910F91FF90EF90DF90CF900C945A
:100A70000402B80184E0759567958A95E1F7CE0187
:100A80000E94CE046F2DCE01DF91CF911F910F9167
:100A9000FF90EF90DF90CF900C94CE0441E00E9445
:100AA000FB0481E090E0089540E00C94FB04CF92B9
:100AB000DF92EF92FF92CF93DF9360E080E00E949D
:100AC000360F61E081ED92E00E9454058BE39FE1D7
:100AD0000197F1F76DE471E081ED92E00E9461030E
:100AE00060E088E00E94360F81E10E940609D82F5D
:100AF00082E10E940609C82F6D2F70E080E090E02F
:100B00000E94A1146B017C018C2F90E026E095954A
:100B100087952A95E1F7BC01990F880B990B0E94E4
:100B2000A31420E030E040E85EE30E9458159B01EA
:100B3000AC01C701B6010E948F13AB01BC0122E0DA
:100B400081ED92E00E947F0260E08EE00E94360F0D
:100B500062E571E081ED92E0DF91CF91FF90EF903F
:100B6000DF90CF900C9461037F928F929F92AF920F
:100B7000BF92CF92DF92EF92FF920F931F93CF938A
:100B8000DF93CDB7DEB7C856D1090FB6F894DEBFF4
:100B90000FBECDBF0E94E10D21E08837920751F0D2
:100BA0008C57914039F004E511E09DE5E92E91E084
:100BB000F92E06C006E611E08FE6E82E81E0F82E59
:100BC000C7010E946813982EC8010E946813782EEE
:100BD000C70103960E946813A82EC80103960E94BD
:100BE0006813882EC70106960E946813B82EC801A4
:100BF00006960E946813182FCE0109960E94BB0327
:100C00000E94C50C5C870E94C50C6F967FAF6F97E2
:100C1000A0968FAFA097A0968EAD9FADA0979F870F
:100C20008E870E94C50C6D870E94C50C988B998693
:100C3000AA86BB86292D3A2D4B2D5C856D857E8538
:100C40008F850E948A0B60931A0270931B02809317
:100C50001C0290931D0260E871E08CE292E00E9419
:100C6000610360911A0270911B0280911C029091A5
:100C70001D020E94530BCE0101960E94BB030E94ED
:100C8000C50C5C830E94C50C7EAF8FAF8EAD9FAD4F
:100C90009F838E830E94C50C6D830E94C50C98872C
:100CA00079828A821B83272D382D412F5C816D81AB
:100CB0007E818F810E948A0B6093160270931702C7
:100CC00080931802909319026EE871E08CE292E032
:100CD0000E946103609116027091170280911802C0
:100CE000909119020E94530B0E94C50C0E948A0B1E
:100CF0006B017C0180911A0290911B02A0911C0251
:100D0000B0911D0240911602509117026091180295
:100D100070911902481759076A077B076CF58C1503
:100D20009D05AE05BF0544F50E94C50C5F5F5C8361
:100D300079828A821B83272D382D412F6D817E81F8
:100D40008F8198850E948A0B609316027093170218
:100D500080931802909319026DE971E08CE292E0A1
:100D60000E9461036091160270911702809118022F
:100D7000909119020E94530B8091160290911702D4
:100D8000A0911802B091190240911A0250911B02D1
:100D900060911C0270911D0284179507A607B70782
:100DA0006CF5C816D906EA06FB0644F50E94C50C88
:100DB00051505C879986AA86BB86292D3A2D4B2DEA
:100DC0006D857E858F8598890E948A0B60931A02B3
:100DD00070931B0280931C0290931D0264EB71E0E0
:100DE0008CE292E00E94610360911A0270911B02F2
:100DF00080911C0290911D020E94530B809116025B
:100E000090911702A0911802B09119028C159D05BE
:100E1000AE05BF058CF081E090E040911A02509140
:100E20001B0260911C0270911D024C155D056E0540
:100E30007F0524F480E002C081E090E0C859DF4FD4
:100E40000FB6F894DEBF0FBECDBFDF91CF911F91DB
:100E50000F91FF90EF90DF90CF90BF90AF909F9059
:100E60008F907F9008958F929F92AF92BF92CF9272
:100E7000DF92EF92FF92CF93DF93CDB7DEB761970A
:100E80000FB6F894DEBF0FBECDBF8091EE029091F9
:100E9000EF020E94980440E06CEC8091EE02909189
:100EA000EF020E9429044091E90264E48091EE027D
:100EB0009091EF020E9429048091EB02882309F4AB
:100EC00049C0E091EA02E950E33040F4F0E0EE0F6F
:100ED000FF1FE75FFE4F6081718102C06EEE72E01E
:100EE0008091EC02882381F18091E90281112CC06C
:100EF0008FB7F89480901E0290901F02A09020025D
:100F0000B09021028FBF6B01770FEE08FF08809130
:100F1000EE029091EF020E94D6038130D9F02FB7F4
:100F2000F89480911E0290911F02A0912002B0912E
:100F300021022FBF8C199D09AE09BF09881599059B
:100F4000AA05BB0520F306C0072E000C880B990BE1
:100F50000E94020A6AEC71E08CE292E00E94610356
:100F600060E0CE010A960E94010F811107C0C12CDA
:100F7000D12CFEEFEF2EF2ECFF2E4BC0BE016F5FC7
:100F80007F4FCE010A960E940E0E882359F1698187
:100F900048E0649FB00111248A81282F30E0322F6D
:100FA0002227330F330F330F262B372B8A858031BF
:100FB000E1F4688570E08F81AB01481B5109CA01DB
:100FC0009695982F8827979587950E94D6156051FA
:100FD0007109207F53E0220F331F5A95E1F7620F0A
:100FE000731F04C060E874EE01C0B901613854EEAB
:100FF00075070CF4BCCF072E000C880B990B0E94D0
:10100000A31420E030E040E05CE30E9458156B013F
:101010007C0122E0B701A6018CE292E00E947F02EF
:1010200060EE71E08CE292E00E942102C701B601FD
:1010300061960FB6F894DEBF0FBECDBFDF91CF91A2
:10104000FF90EF90DF90CF90BF90AF909F908F90E8
:101050000895CF93DF93CDB7DEB728970FB6F894F6
:10106000DEBF0FBECDBF0E94C50C81E09091CB02C8
:10107000491708F480E028960FB6F894DEBF0FBE3B
:10108000CDBFDF91CF910895833081F028F4813076
:1010900099F08230A1F008958730A9F08830B9F036
:1010A0008430D1F4809180008F7D03C080918000D6
:1010B0008F7780938000089584B58F7702C084B5C0
:1010C0008F7D84BD08958091B0008F7703C080919B
:1010D000B0008F7D8093B00008953FB7F894809161
:1010E000280290912902A0912A02B0912B0226B5E4
:1010F000A89B05C02F3F19F00196A11DB11D3FBF50
:10110000BA2FA92F982F8827820F911DA11DB11DDD
:10111000BC01CD0142E0660F771F881F991F4A95D9
:10112000D1F70895CF93DF9390910503992349F167
:1011300094EE9093BC009091BC0097FFFCCF90ED93
:101140009093BB0094EC9093BC009091BC0097FFEF
:10115000FCCF8093BB0084EC8093BC008091BC00EA
:1011600087FFFCCF6093BB0084EC8093BC00809130
:10117000BC0087FFFCCF84E98093BC00DF91CF9156
:101180000895C62FD82F80ED0E947B0C0E94660C1C
:101190008D2F0E94AA0C0E94660C8C2F0E94AA0C14
:1011A0000E94660CDF91CF910C94060CCF93DF93D5
:1011B000CDB7DEB729970FB6F894DEBF0FBECDBF0F
:1011C000BE016F5F7F4F0E940E0E882389F08D81D4
:1011D0008F3361F020F48F3159F489E00CC08F35E2
:1011E00019F08F3739F004C08BE005C08AE003C0E6
:1011F00080E001C08CE029960FB6F894DEBF0FBEE8
:10120000CDBFDF91CF9108950E9440161F93CF93D9
:10121000DF931F92CDB7DEB790910503992309F4B0
:101220003FC094EE9093BC009091BC0097FFFCCF20
:1012300090ED9093BB0094EC9093BC009091BC0017
:1012400097FFFCCF8093BB0084EC8093BC0080911F
:10125000BC0087FFFCCF84EE8093BC008091BC0073
:1012600087FFFCCF81ED8093BB0084EC8093BC00B2
:101270008091BC0087FFFCCF84EC8093BC00809100
:10128000BC0087FFFCCF8091BB0094E89093BC002A
:101290009091BC0097FFFCCF94E99093BC0018C0DC
:1012A000182F80ED0E947B0C0E94660C812F0E94FB
:1012B000AA0C0E94660C81ED0E947B0C0E94660CB9
:1012C0000E943E0C89830E94200C0E94060C89819A
:1012D0000F90DF91CF911F910895CF93DF93282F27
:1012E00030E0F901E458FE4F8491F901E255FE4FD8
:1012F000D491F901E656FE4FC491CC2391F08111AF
:101300000E944408EC2FF0E0EE0FFF1FE057FE4F65
:10131000A591B491EC91ED2381E090E021F480E07F
:1013200002C080E090E0DF91CF9108951F93CF93AA
:10133000DF93282F30E0F901E458FE4F8491F90142
:10134000E255FE4FD491F901E656FE4FC491CC23ED
:10135000C9F0162F81110E944408EC2FF0E0EE0F27
:10136000FF1FEE58FE4FA591B4918FB7F89411115D
:1013700005C09C91ED2FE095E92302C0EC91ED2B87
:10138000EC938FBFDF91CF911F910895CF93DF939F
:1013900090E0FC01E255FE4F2491FC01E656FE4F21
:1013A0008491882361F190E0880F991FFC01E8592E
:1013B000FE4FC591D491FC01EE58FE4FA591B4911A
:1013C000611109C09FB7F894888120958223888392
:1013D000EC912E230BC0623061F49FB7F8943881F2
:1013E000822F809583238883EC912E2B2C939FBF93
:1013F00006C08FB7F894E8812E2B28838FBFDF912A
:10140000CF9108958F929F92AF92BF92CF92DF9229
:10141000EF92FF926B017C010E946D084B015C0111
:10142000C114D104E104F104F1F00E946D08DC0163
:10143000CB0188199909AA09BB09883E9340A105E7
:10144000B10570F321E0C21AD108E108F10888EE75
:10145000880E83E0981EA11CB11CC114D104E104C4
:10146000F10419F7DDCFFF90EF90DF90CF90BF90A0
:10147000AF909F908F9008951F920F920FB60F928A
:1014800011242F933F938F939F93AF93BF9380919A
:101490001E0290911F02A0912002B0912102309172
:1014A000270223E0230F2D3720F40196A11DB11D43
:1014B00005C026E8230F0296A11DB11D2093270227
:1014C00080931E0290931F02A0932002B0932102EA
:1014D0008091280290912902A0912A02B0912B02BA
:1014E0000196A11DB11D8093280290932902A0931B
:1014F0002A02B0932B02BF91AF919F918F913F91A0
:101500002F910F900FBE0F901F901895EF92FF92A2
:101510000F931F93CF93DF93E82EF62EC7E0D0E012
:10152000042F10E098010C2E02C0359527950A94DF
:10153000E2F7B901617077278E2D0E94960961E06C
:101540008F2D0E94960960E08F2D0E9496092197A9
:1015500048F7DF91CF911F910F91FF90EF90089581
:10156000EF92FF920F931F93CF93DF93EC016230C2
:1015700018F08F8588608F876B8B1C8A80E48D8B39
:1015800080E18E8B80E58F8B61E08C810E94C609A3
:101590008D818F3F19F061E00E94C60961E08E8164
:1015A0000E94C6097E0187E0E80EF11C00E010E011
:1015B0008F8584FD03C084E090E002C088E090E065
:1015C000081719074CF461E0F70181917F010E942F
:1015D000C6090F5F1F4FECCF8BE39DE00197F1F73A
:1015E00060E08C810E94960960E08E810E949609DD
:1015F0008D818F3F19F060E00E9496096F8564FD30
:101600001DC063E0CE010E94CE040BE416E4C801C5
:101610000197F1F763E0CE010E94CE04C801019763
:10162000F1F763E0CE010E94CE0483E592E00197DA
:10163000F1F762E0CE010E94CE0416C06062CE01D6
:101640000E9454058BE496E40197F1F76F85606280
:10165000CE010E94540583E592E00197F1F76F8572
:101660006062CE010E9454056F856062CE010E94C7
:10167000540584E0888B6CE0CE010E94540561E043
:10168000CE010E9454058BE39FE10197F1F782E0C0
:10169000898B66E0CE01DF91CF911F910F91FF9072
:1016A000EF900C945405CF92DF92EF92FF92CF937C
:1016B000DF936B017C0197FF16C06DE28CE292E034
:1016C0000E941A02EC0144275527BA014C195D0902
:1016D0006E097F092AE08CE292E00E9436027C01CA
:1016E000EC0EFD1E08C02AE0AB01BC018CE292E0CA
:1016F0000E9436027C0160EE71E08CE292E00E9472
:1017000021028E0D9F1DDF91CF91FF90EF90DF9012
:10171000CF900895EF92FF920F931F93CF93DF9393
:10172000CDB7DEB728970FB6F894DEBF0FBECDBF9A
:1017300029833A834B83252F7E838F834E815F815C
:10174000822F90E070E0E62FF0E03197272F30E015
:101750002E173F0744F4D901A35EBE4F2C91820F90
:10176000911D7F5FF3CF633030F09A0123703327F0
:10177000232B09F401966DE671E0469F9001479F87
:10178000300D569F300D1124215933424D5C574086
:101790005695479556954795240F351F280F391FA5
:1017A000A8E1B0E00E940C1629817B018C01E20EB9
:1017B000F11C011D111DA8019701ACE3B0E00E94CE
:1017C0001B162A817B018C01E20EF11C011D111DEB
:1017D000A80197010E941B162B81DC01CB01820F0F
:1017E000911DA11DB11DBC01CD0160587C4B8249EA
:1017F000974C28960FB6F894DEBF0FBECDBFDF9191
:10180000CF911F910F91FF90EF900895CF93DF93A9
:10181000CCEFD2E061E089810E94C60960E0898155
:101820000E94960961E088810E94960961E08981A1
:101830000E94960960E08981DF91CF910C94C609DE
:10184000CF93DF93CCEFD2E061E089810E94C6099B
:1018500060E088810E94960961E089810E94960972
:1018600061E088810E94960960E088810E94960963
:1018700060E08981DF91CF910C94C6091F93CF93CB
:10188000DF9360E08091FD020E94C609C7E0D0E0CE
:1018900010E061E08091FC020E9496098091FD02B7
:1018A0000E946D099C0133270C2E01C0220F0A945F
:1018B000EAF7122B60E08091FC020E9496092197C2
:1018C00040F7812FDF91CF911F91089560E08091C3
:1018D000FD020E94C60961E08091FC020E94960907
:1018E0008091FD020E946D090197D1F360E0809123
:1018F000FC020C9496090F931F93CF93DF931F92D2
:10190000CDB7DEB7482F0CEF12E061E0F80181811E
:1019100049830E94C60961E0F80181810E9496090D
:1019200061E0F80180810E94960960E0F801818100
:101930000E94960960E0F80180810E949609498121
:10194000F801608181810F90DF91CF911F910F91FC
:101950000C94860A0F931F93CF93DF931F92CDB7FA
:10196000DEB7482F0CEF12E061E0F8018181498376
:101970000E94C6094981F801608181810F90DF9141
:10198000CF911F910F910C94860A0F931F93CF93C1
:10199000DF93CDB7DEB760970FB6F894DEBF0FBE0A
:1019A000CDBFCE0109960E94BB0380910503882319
:1019B00009F446C084EE8093BC008091BC0087FF90
:1019C000FCCF80ED8093BB0084EC8093BC008091C1
:1019D000BC0087FFFCCF1092BB0084EC8093BC005E
:1019E0008091BC0087FFFCCF84EE8093BC00809187
:1019F000BC0087FFFCCF81ED8093BB0084EC80931B
:101A0000BC008091BC0087FFFCCFEEEFF2E094ECCD
:101A10009093BC008091BC0087FFFCCF8091BB00FD
:101A2000819323E0E530F20799F784E88093BC00C6
:101A30008091BC0087FFFCCF84E98093BC0042C04A
:101A400080ED0E947B0C0E94660C80E00E94AA0C34
:101A50000E94660C81ED0E947B0C0E94660C00E0E7
:101A600010E00E943E0CF801E450FD4F82830630E6
:101A70001105F9F061E08091FD020E94C60960E065
:101A80008091FC020E94960960E08091FD020E9414
:101A9000960961E08091FC020E94960960E08091C5
:101AA000FC020E94960960E08091FD020E94C60936
:101AB00002C00E94200C0F5F1F4F0730110589F6EE
:101AC0000E94060C8091FE02982F96959695969509
:101AD0009E70292F220F220F920F8F70890F8B87F4
:101AE0008091FF02982F9695969596959E70292F36
:101AF000220F220F920F8F70890F8A878091000327
:101B0000282F2F7087FF09C085FB992790F9822F16
:101B10003CE0939F800D112409C0807386958695C3
:101B20008695982F990F990F890F820F8987809139
:101B30000103888B80910203982F96959695969530
:101B40009E70292F220F220F920F8F70890F8C8782
:101B500080910303982F9695969596959E70292FC0
:101B6000220F220F920F8F70890F8D8780910403AF
:101B7000982F92959F708F702AE0929F800D11246C
:101B800090E08053984F9F878E8788E0FE013996BA
:101B9000DE01119601900D928A95E1F729813A8133
:101BA0004B815C816D817E818F81988560960FB6B7
:101BB000F894DEBF0FBECDBFDF91CF911F910F9183
:101BC0000895CF93DF93CDB7DEB766970FB6F8943D
:101BD000DEBF0FBECDBF8EE0EFE0F1E0DE0111967B
:101BE00001900D928A95E1F7CE010F960E94BB03FA
:101BF0000E94C50C9E012F5F3F4F290F311D290FF9
:101C0000311DF90132978081918166960FB6F89463
:101C1000DEBF0FBECDBFDF91CF9108958F929F920F
:101C2000AF92BF92CF92DF92EF92FF920F931F93EA
:101C3000CF93DF938C01EB018091EE029091EF0244
:101C40000E949804882309F43DC0B8018091EE02F7
:101C50009091EF020E946B0440E06EEB8091EE02E7
:101C60009091EF020E9429048E015E0189E0A80E86
:101C7000B11C8090EE029090EF0288E0C82ED12C2B
:101C8000EE24E394F12CC4010E94D6038111FE28B6
:101C9000EE0CE1E0CE1AD108B1F7F801F1928F0114
:101CA000EA15FB0531F78091EE029091EF020E9458
:101CB0009804813039F468E0CE010E94C90391E0B4
:101CC0002885821390E0892FDF91CF911F910F918A
:101CD000FF90EF90DF90CF90BF90AF909F908F904C
:101CE0000895AF92BF92CF92DF92EF92FF920F933F
:101CF0001F93CF93DF931F92CDB7DEB75C01D62E33
:101D0000E72EFC018585811105C0C5010E9498045C
:101D1000811106C0F50113861586148680E065C022
:101D200040E060EFC5010E94290401E0F12CC12CC4
:101D300011E0C5010E94D603682FC50169830E9486
:101D4000D6036981613019F48130B9F433C04F2D65
:101D500050E068131BC0F5018385181730F4E40FB9
:101D6000F51F8381802349F402C0181731F060E029
:101D7000193058F4F501148708C0F501EF0DF11D75
:101D80008381802B838361E009C0C12EF501E40FBC
:101D9000F51F9381802F809589238383C5010E943D
:101DA000FA031F5F000F11F4F39401E0F7E0FF1551
:101DB00008F0BFCF113408F4ADCFF501C386C110D0
:101DC00002C081E08587F5018381882309F4A2CFD1
:101DD000D5011396ED2DFE2D9501255F3F4F8D9179
:101DE0008193A217B307D9F781E00F90DF91CF91CC
:101DF0001F910F91FF90EF90DF90CF90BF90AF9029
:101E000008950F931F93CF93DF938C01D62FE0910A
:101E1000EE02F091EF02138615861486DF011B9601
:101E200033961E92AE17BF07E1F7C0E0B80180916C
:101E3000EE029091EF020E94710E811102C080E0CB
:101E400010C0CD130AC067E0C8010E94C903F801A1
:101E50009781891302C081E004C0CF5FDC1778F35B
:101E6000E5CFDF91CF911F910F910895643008F075
:101E700063E09091E402691710F06FEF690FE62FAD
:101E8000F0E0EF52FD4F9489682F690F606881ED93
:101E900092E00C945405CF93DF93CDB7DEB76197F2
:101EA0000FB6F894DEBF0FBECDBF789484B58260C4
:101EB00084BD84B5816084BD85B5826085BD85B5EE
:101EC000816085BD80916E00816080936E0010926C
:101ED00081008091810082608093810080918100E7
:101EE0008160809381008091800081608093800078
:101EF0008091B10084608093B1008091B0008160D6
:101F00008093B00080917A00846080937A00809101
:101F10007A00826080937A0080917A008160809359
:101F20007A0080917A00806880937A001092C100D4
:101F300061E089E00E94C60961E08AE00E94C6096A
:101F400061E08BE00E94C60960E087E00E94C6095C
:101F500060E086E00E94C60962E081ED92E00E94A6
:101F6000B00A8091FD02823101F58091FC0283313B
:101F7000E1F481E08093050361E082E10E9496092B
:101F800061E083E10E9496098091B9008E7F809381
:101F9000B9008091B9008D7F8093B9008CE0809367
:101FA000B80085E08093BC0007C01092050361E093
:101FB0008091FC020E94C609E091EE02F091EF02CE
:101FC000138615861486DF011B9633961E92AE1774
:101FD000BF07E1F71092ED0201E0BE016F5F7F4F96
:101FE0008091EE029091EF020E94710E882309F415
:101FF00053C067E0CE0101960E94C90398858913FA
:10200000ECCF8091E902811127C08091EE0290917E
:10201000EF020E949804BE016F5F7F4F8091EE0235
:102020009091EF020E946B0440E064EB8091EE021D
:102030009091EF020E9429048091EE029091EF02AC
:102040000E94D603182F8091EE029091EF020E9419
:102050009804112309F440C21091EA028981803169
:1020600009F472C2CE0101960E94D608811718F4B5
:102070008091EA0209C08981803111F48CE004C0AA
:10208000CE0101960E94D6088093EA028091ED026B
:102090008F5F8093ED02A1CF8CE08093EA02E12C68
:1020A000F12C0FE59FE7D92E2FE1C22E3FE3B32E8F
:1020B0008091ED0290E0E816F9060CF0A0C06E2DBC
:1020C000CE010A960E94010F1091EA02193020F009
:1020D0001D3018F01CE001C019E08A85803129F01C
:1020E000CE010A960E94D60801C08CE0811709F43F
:1020F00082C0BE016F5F7F4FCE010A960E940E0E16
:10210000882309F478C08A85803109F474C01B30B3
:1021100041F01C3021F01A3031F4BD8205C0DD825F
:1021200003C00D8301C0CD828091EE029091EF0239
:102130000E949804BE01665F7F4F8091EE029091ED
:10214000EF020E946B0440E06EE48091EE029091F9
:10215000EF020E94290440E06B818091EE02909191
:10216000EF020E94290440E06C818091EE02909180
:10217000EF020E9429048A85803141F040E06D81A0
:102180008091EE029091EF020E9429048091EE026C
:102190009091EF020E949804BE01665F7F4F80918C
:1021A000EE029091EF020E946B044091E90268E414
:1021B0008091EE029091EF020E94290464E170E0A8
:1021C00080E090E00E94020A8091E902882331F0C9
:1021D0006AE070E080E090E00E94020A8091EE02E6
:1021E0009091EF020E9498048091EA02181708F477
:1021F000182F1093EA022FEFE21AF20A59CFE0915A
:102200003C02F0913D0282E08083E0913802F0913F
:1022100039021082E0913A02F0913B028FEC808308
:1022200010924402E0914002F091410286E08083E6
:10223000E0913E02F0913F02808180618083E091D5
:102240003E02F0913F02808188608083E0913E02EF
:10225000F0913F02808180688083E0913E02F0919E
:102260003F0280818F7D80830E94570560E087E078
:102270000E94960960E086E00E94960967E186E088
:102280000E94920864E085E00E94920865E284E082
:102290000E94920862E083E00E94920863E282E07A
:1022A0000E94920867E581E00E94920860E580E064
:1022B0000E9492081092230210922402109225028A
:1022C000109226021AE000E38AE3B82E61E080E073
:1022D0000E94360F0E94E10DBC0181ED92E00E9448
:1022E000610361E088E00E94360FCE0101960E94F2
:1022F000BB030E94C50C29833A834B835C836D83A7
:102300007E838F8398872A3018F40093000107C0DA
:10231000822F612F0E94CA15805D80930001822F59
:10232000612F0E94CA15905D90930101B092020145
:102330002A812A3018F40093030107C0822F612FED
:102340000E94CA15805D80930301822F612F0E9435
:10235000CA15905D90930401B09205012B812A303B
:1023600018F40093060107C0822F612F0E94CA153E
:10237000805D80930601822F612F0E94CA15905DB7
:10238000909307011092080160E071E081ED92E006
:102390000E94610368EC70E080E090E00E94020A15
:1023A0000E9433076B017C01809122028111D0C011
:1023B0000E9429088823B1F181E08093220220E065
:1023C00030E040E251E4C701B6010E9453151816EF
:1023D0004CF520E030E040E252E4C701B6010E9433
:1023E000FB1387FF1FC060E080E00E94360F63EEA2
:1023F00071E081ED92E00E94610360E088E00E945C
:10240000360F22E0B701A60181ED92E00E947F0223
:1024100060E08EE00E94360F62E571E081ED92E0AF
:102420000E94610386E00E946D09019759F460E003
:1024300089E00E94960960E08AE00E94960960E0C7
:102440008BE022C087E00E946D09019709F053C01C
:102450000E94B405892B21F061E089E00E94960971
:1024600060E08AE00E94960960E08BE00E94960995
:102470000E94B405892B99F56DEE71E08CE292E033
:102480000E94610361E089E00E9496098091230225
:1024900090912402A0912502B09126020196A11DDF
:1024A000B11D813828E3920721E0A207B1054CF461
:1024B0008093230290932402A0932502B0932602D6
:1024C00008C010922302109224021092250210924A
:1024D00026020E94F901FACE0093E902BDCD0E94C6
:1024E000B405019799F667EF71E08CE292E00E94E3
:1024F000610360E0C8CF0E9433076B017C0120E0DC
:1025000030E040E252E40E9453151816D4F020E067
:1025100030E040E251E4C701B6010E94FB1387FDA1
:1025200010C020E030E048EC51E4C701B6010E9441
:102530005315181614F460E001C061E08BE00E94AE
:10254000960961E08AE092CF1D3008F091CD96CDDA
:102550000E942908882309F465CF109222020E9464
:10256000570560CF10922F0210922E0288EE93E052
:10257000A0E0B0E08093300290933102A093320249
:10258000B09333028DE291E090932D0280932C0260
:1025900085EC90E0909339028093380284EC90E0CF
:1025A00090933B0280933A0280EC90E090933D023E
:1025B00080933C0281EC90E090933F0280933E0236
:1025C00082EC90E0909341028093400286EC90E090
:1025D0009093430280934202109245021092460269
:1025E000109247021092480282E18093FD0283E13B
:1025F0008093FC0260E088E00E94C609E6EBF1E00F
:10260000E491E0930603E2EAF1E0E491F0E0EE0FFA
:10261000FF1FE057FE4F859194919093080380939C
:102620000703109211031092130310921203E1E1B9
:10263000F3E0129283E0E930F807D9F783E092E003
:102640009093FB028093FA0286E093E09093EF026E
:102650008093EE021092ED021092E90289E08093DD
:10266000EA0281E08093EB028093EC021092D402A4
:102670001092D3028DE391E09093D2028093D10225
:102680008CE08093D5028FEF8093D6028DE080930B
:10269000D70285E08093D80284E08093D90283E05A
:1026A0008093DA0282E08093DB021092DC021092C7
:1026B000DD021092DE021092DF021092E00261E071
:1026C00081ED92E00E94B00A89EC92E00C94BB0389
:1026D000FC0188279927E89421912032E9F32930D9
:1026E00010F02E30C8F32B3241F02D3239F46894BB
:1026F00004C00E948613820F911D219120532A301D
:10270000C0F31EF4909581959F4F08957AE0979FAE
:10271000902D879F802D910D112408955058BB272F
:10272000AA270E94A6130C9419150E940B1538F0C5
:102730000E94121520F039F49F3F19F426F40C94EE
:1027400008150EF4E095E7FB0C940215E92F0E94A2
:102750002A1558F3BA17620773078407950720F004
:1027600079F4A6F50C944C150EF4E0950B2EBA2FC7
:10277000A02D0B01B90190010C01CA01A001112487
:10278000FF27591B99F0593F50F4503E68F11A1633
:10279000F040A22F232F342F4427585FF3CF4695C4
:1027A00037952795A795F0405395C9F77EF41F16E6
:1027B000BA0B620B730B840BBAF09150A1F0FF0FB0
:1027C000BB1F661F771F881FC2F70EC0BA0F621F9C
:1027D000731F841F48F4879577956795B795F7958C
:1027E0009E3F08F0B0CF9395880F08F09927EE0F21
:1027F0009795879508950E94DE1408F481E0089566
:102800000E9414140C9419150E94121558F00E947D
:102810000B1540F029F45F3F29F00C94021551117B
:102820000C944D150C9408150E942A1568F39923F1
:10283000B1F3552391F3951B550BBB27AA276217BC
:102840007307840738F09F5F5F4F220F331F441FC9
:10285000AA1FA9F335D00E2E3AF0E0E832D09150FD
:102860005040E695001CCAF72BD0FE2F29D0660FEA
:10287000771F881FBB1F261737074807AB07B0E82D
:1028800009F0BB0B802DBF01FF2793585F4F3AF033
:102890009E3F510578F00C9402150C944D155F3F46
:1028A000E4F3983ED4F3869577956795B795F795B9
:1028B0009F5FC9F7880F911D9695879597F90895A1
:1028C000E1E0660F771F881FBB1F6217730784073D
:1028D000BA0720F0621B730B840BBA0BEE1F88F74C
:1028E000E09508950E94321588F09F5798F0B92F0F
:1028F0009927B751B0F0E1F0660F771F881F991F35
:102900001AF0BA95C9F714C0B13091F00E944C1575
:10291000B1E008950C944C15672F782F8827B85F85
:1029200039F0B93FCCF3869577956795B395D9F78C
:102930003EF490958095709561957F4F8F4F9F4F96
:102940000895E89409C097FB3EF4909580957095A2
:1029500061957F4F8F4F9F4F9923A9F0F92F96E9EB
:10296000BB279395F695879577956795B795F11160
:10297000F8CFFAF4BB0F11F460FF1BC06F5F7F4FFD
:102980008F4F9F4F16C0882311F096E911C077230F
:1029900021F09EE8872F762F05C0662371F096E818
:1029A000862F70E060E02AF09A95660F771F881FE7
:1029B000DAF7880F9695879597F90895990F00088B
:1029C000550FAA0BE0E8FEEF16161706E807F90701
:1029D000C0F012161306E407F50798F0621B730B9C
:1029E000840B950B39F40A2661F0232B242B252B1D
:1029F00021F408950A2609F4A140A6958FEF811DC0
:102A0000811D089597F99F6780E870E060E0089560
:102A10009FEF80EC089500240A94161617061806F6
:102A20000906089500240A941216130614060506D2
:102A30000895092E0394000C11F4882352F0BB0F63
:102A400040F4BF2B11F460FF04C06F5F7F4F8F4FC6
:102A50009F4F089557FD9058440F551F59F05F3F01
:102A600071F04795880F97FB991F61F09F3F79F0B0
:102A700087950895121613061406551FF2CF469532
:102A8000F1DF08C0161617061806991FF1CF8695B4
:102A90007105610508940895E894BB276627772798
:102AA000CB0197F908950E94DE1408F48FEF089582
:102AB0000E946B150C9419150E940B1538F00E949A
:102AC000121520F0952311F00C9402150C940815A2
:102AD00011240C944D150E942A1570F3959FC1F393
:102AE000950F50E0551F629FF001729FBB27F00DBC
:102AF000B11D639FAA27F00DB11DAA1F649F662711
:102B0000B00DA11D661F829F2227B00DA11D621F5F
:102B1000739FB00DA11D621F839FA00D611D221F19
:102B2000749F3327A00D611D231F849F600D211DFD
:102B3000822F762F6A2F11249F5750409AF0F1F080
:102B400088234AF0EE0FFF1FBB1F661F771F881FE9
:102B500091505040A9F79E3F510580F00C9402150A
:102B60000C944D155F3FE4F3983ED4F3869577952A
:102B70006795B795F795E7959F5FC1F7FE2B880F8F
:102B8000911D9695879597F908950E94DE14880BFC
:102B9000990B0895991B79E004C0991F961708F0C6
:102BA000961B881F7A95C9F78095089597FB072E85
:102BB00016F4009407D077FD09D00E94261607FC72
:102BC00005D03EF4909581959F4F0895709561953D
:102BD0007F4F0895A1E21A2EAA1BBB1BFD010DC059
:102BE000AA1FBB1FEE1FFF1FA217B307E407F507BD
:102BF00020F0A21BB30BE40BF50B661F771F881F99
:102C0000991F1A9469F760957095809590959B012E
:102C1000AC01BD01CF010895A29FB001B39FC001D7
:102C2000A39F700D811D1124911DB29F700D811DF8
:102C30001124911D08950E940C16A59F900DB49F1C
:102C4000900DA49F800D911D11240895AA1BBB1BFC
:102C500051E107C0AA1FBB1FA617B70710F0A61B9C
:102C6000B70B881F991F5A95A9F780959095BC01BD
:102C7000CD010895EE0FFF1F0590F491E02D09940A
:0E2C800081E090E0F8940C944516F894FFCF94
:102C8E007878787878787878005E00BC00770102E2
:102C9E000206020A020E02120278017C011F1C1F9C
:102CAE001E1F1E1F1F1E1F1E1F0000000090010C66
:102CBE0001590137014B01D701000000004E050CF0
:102CCE00016E616E00696E66006F7666004C756609
:102CDE007400430032333A35393A30330032333AE6
:102CEE0035383A31300031393A33353A35300030F3
:102CFE00393A33353A3430005361740053756E00EF
:102D0E00756E69784F6E54696D653A202000756E48
:102D1E0069784F666654696D653A202000756E6954
:102D2E00786F666654696D65202B20312044617979
:102D3E0020202000756E69786F6E54696D65202DA8
:102D4E002031204461792020200020202020205492
:102D5E00656D70657261747572652069733A2000D5
:102D6E000D0A005761737365723A2020004C696733
:102D7E006874204F6E0A004C69676874206F66662F
:102D8E000A004D6F6E0054756500576564005468F7
:062D9E0075004672690099
:00000001FF
