:100000000C94E2000C940A010C940A010C940A016D
:100010000C940A010C940A010C940A010C940A0134
:100020000C940A010C940A010C940A010C940A0124
:100030000C940A010C940A010C940A010C940A0114
:100040000C94210A0C940A010C9489030C94630308
:100050000C940A010C940A010C940A010C940A01F4
:100060000C940A010C940A01005EBCE2613FDD833E
:10007000C29C7E20A3FD1F419DC3217FFCA2401E88
:100080005F01E3BD3E6082DC237D9FC1421CFEA078
:10009000E1BF5D0380DE3C62BEE0025CDF81633D68
:1000A0007C22C09E1D43A1FF4618FAA427799BC558
:1000B00084DA3866E5BB5907DB856739BAE4065848
:1000C0001947A5FB7826C49A653BD987045AB8E638
:1000D000A7F91B45C6987A24F8A6441A99C7257B28
:1000E0003A6486D85B05E7B98CD2306EEDB3510F18
:1000F0004E10F2AC2F7193CD114FADF3702ECC9208
:10010000D38D6F31B2EC0E50AFF1134DCE90722CF7
:100110006D33D18F0C52B0EE326C8ED0530DEFB1E7
:10012000F0AE4C1291CF2D73CA947628ABF51749D7
:100130000856B4EA6937D58B5709EBB536688AD4C7
:1001400095CB2977F4AA4816E9B7550B88D6346AB7
:100150002B7597C94A14F6A8742AC896154BA9F7A7
:10016000B6E80A54D7896B35000000002400270048
:100170002A0000000000250028002B0000000008D5
:10018000000201000003040700000000000000005E
:1001900000000000230026002900040404040404D5
:1001A0000404020202020202030303030303010226
:1001B00004081020408001020408102001020408F5
:1001C0001020C81211241FBECFEFD8E0DEBFCDBF74
:1001D00012E0A0E0B1E0E8EFFCE202C005900D9271
:1001E000A434B107D9F723E0A4E4B2E001C01D9222
:1001F000A134B207E1F710E0C2EED0E004C02197CD
:10020000FE010E946F16C13ED107C9F70E94300F50
:100210000C947A160C940000CF92DF92EF92FF922A
:100220000F931F93CF93DF936C017A018B01C0E092
:10023000D0E0CE15DF0589F0D8016D918D01D60192
:10024000ED91FC910190F081E02DC6010995892B7B
:1002500011F47E0102C02196ECCFC701DF91CF914E
:100260001F910F91FF90EF90DF90CF900895FC01C8
:10027000918D828D981761F0828DDF01A80FB11DDD
:100280005D968C91928D9F5F9F73928F90E0089501
:100290008FEF9FEF0895FC01918D828D981731F0BB
:1002A000828DE80FF11D858D90E008958FEF9FEF0F
:1002B0000895FC01918D228D892F90E0805C9F4FE5
:1002C000821B91098F739927089589E592E00E9416
:1002D000590121E0892B09F420E0822F0895FC01C7
:1002E000848DDF01A80FB11DA35ABF4F2C91848DBF
:1002F00090E001968F739927848FA689B7892C93F4
:10030000A089B1898C9180648C93938D848D98138E
:1003100006C00288F389E02D80818F7D8083089557
:10032000EF92FF920F931F93CF93DF93EC0181E045
:10033000888F9B8D8C8D981305C0E889F989808101
:1003400085FD24C0F62E0B8D10E00F5F1F4F0F733D
:100350001127E02E8C8DE8120CC00FB607FCFACFE7
:10036000E889F989808185FFF5CFCE010E946F0170
:10037000F1CF8B8DFE01E80FF11DE35AFF4FF082A4
:100380000B8FEA89FB898081806207C0EE89FF8933
:100390006083E889F98980818064808381E090E0CE
:1003A000DF91CF911F910F91FF90EF900895CF9320
:1003B000DF93EC01888D8823C9F0EA89FB8980816D
:1003C00085FD05C0A889B9898C9186FD0FC00FB63F
:1003D00007FCF5CF808185FFF2CFA889B9898C9180
:1003E00085FFEDCFCE010E946F01E7CFDF91CF9166
:1003F000089580E090E0892B29F00E946501811129
:100400000C94000008950895CF93DF93EC0160E011
:100410008E810E947B0961E08E810E947B0960E0F1
:100420008E810E947B098BE891E00197F1F7DF91C3
:10043000CF910895DC01ED91FC910190F081E02DC8
:1004400009946115710579F0FB0101900020E9F72D
:100450003197AF01461B570BDC01ED91FC910280F7
:10046000F381E02D099480E090E008954F925F922F
:100470006F927F92EF92FF920F931F93CF93DF9330
:10048000CDB7DEB7A1970FB6F894DEBF0FBECDBFD4
:100490007C01FA01CB0119A2223008F42AE08E0176
:1004A0000F5D1F4F422E512C612C712CBF01A301F7
:1004B00092010E940016F901CA01015011096A3027
:1004C00014F4605D01C0695CD8016C93232B242B6C
:1004D000252B61F7B801C7010E942102A1960FB632
:1004E000F894DEBF0FBECDBFDF91CF911F910F916A
:1004F000FF90EF907F906F905F904F9008954F9294
:100500005F926F927F928F929F92AF92BF92CF92A3
:10051000DF92EF92FF92CF93DF93EC016A017B01B0
:10052000B22E9A01AB01C701B6010E94DB158823E8
:1005300019F063E471E027C026013701E89477F8E9
:100540002FEF3FEF4FE75FE7C301B2010E94DB15DA
:1005500081110DC02FEF3FEF4FE75FE7C301B201FD
:100560000E94111418161CF467E471E00CC02FEF00
:100570003FEF4FE75FE4C701B6010E946915181607
:100580009CF46BE471E0CE01DF91CF91FF90EF908E
:10059000DF90CF90BF90AF909F908F907F906F90A3
:1005A0005F904F900C9421022FEF3FEF4FE75FECED
:1005B000C701B6010E94111487FDE3CF20E030E0AF
:1005C000A901C701B6010E94111487FF0AC06DE29C
:1005D000CE010E941A024C01F7FAF094F7F8F09459
:1005E00002C0812C912CA12C60E070E080E09FE3A0
:1005F000AB1441F020E030E040E251E40E941614D8
:10060000A394F6CF9B01AC01C701B6010E94A513CC
:100610002B013C010E9488146B017C010E94B714DD
:100620009B01AC01C301B2010E94A4132B013C0148
:100630002AE0B701A601CE010E9436027C01E80C37
:10064000F91CBB2031F06EE2CE010E941A02E80EC6
:10065000F91EDB2CDD2029F120E030E040E251E4FE
:10066000C301B2010E946E152B013C010E94881447
:100670004B01A12CB12C2AE0B501A401CE010E94AE
:100680003602E80EF91EC501B4010E94B7149B01A1
:10069000AC01C301B2010E94A4132B013C01DA9406
:1006A000D9CFC701DF91CF91FF90EF90DF90CF902E
:1006B000BF90AF909F908F907F906F905F904F9082
:1006C00008950C9421021F920F920FB60F921124DD
:1006D0002F933F934F935F936F937F938F939F934A
:1006E000AF93BF93EF93FF9389E592E00E946F0170
:1006F000FF91EF91BF91AF919F918F917F916F91FA
:100700005F914F913F912F910F900FBE0F901F90CF
:1007100018951F920F920FB60F9211242F938F935B
:100720009F93EF93FF93E0916902F0916A028081B9
:10073000E0916F02F091700282FD12C09081809171
:1007400072028F5F8F7320917302821751F0E091D4
:100750007202F0E0E75AFD4F958F8093720201C05C
:100760008081FF91EF919F918F912F910F900FBEFC
:100770000F901F901895FC018EED97E0968385836E
:1007800081E08483838310821182128283E08783D5
:100790000895DC01E0E0615038F08D91E827F0E049
:1007A000E859FF4FE491F7CF8E2F0895FC01908117
:1007B0000180F281E02DF8948181892B818322814F
:1007C000892F809528232283A7E0B0E01197F1F7C5
:1007D000218182238183A3E2B0E01197F1F7808128
:1007E0007894EFECF0E03197F1F7982381E009F489
:1007F00080E00895FC0190810180F281E02D892F35
:10080000809560FF12C0F8942281822382838181C7
:10081000892B8183A3E2B0E01197F1F78281982BB5
:100820009283789487ED90E011C0F894228182231E
:1008300082838181892B8183AFEFB0E01197F1F73B
:100840008281982B928378948FE090E00197F1F762
:100850000895CF92DF92EF92FF920F931F93CF9361
:10086000DF931F92CDB7DEB76C01E62E08E010E0F3
:10087000FF24F39461E08F2D8E2109F460E0C6011E
:1008800049830E94FA03FF0C0150110949810115A7
:10089000110581F7411115C0F894D6011196ED911B
:1008A000FC91129791818C91809589238183119677
:1008B000ED91FC91129792818C918095892382838E
:1008C00078940F90DF91CF911F910F91FF90EF904F
:1008D000DF90CF900895CF92DF92EF92FF920F9327
:1008E0001F93CF93DF931F92CDB7DEB78C01F62E07
:1008F00040E065E579830E942904CF2C7981D72EC9
:10090000760188E0E80EF11CF60161916F0140E08C
:10091000C8010E942904CE14DF04B1F70F90DF91C3
:10092000CF911F910F91FF90EF90DF90CF9008959E
:10093000FC0190810180F281E02DF8948181292FC2
:1009400020958223818378948DE743E050E08150A5
:1009500021F1DA011197F1F730813923C1F3F894CD
:100960008281822382838181892B81837894ABE782
:10097000B7E01197F1F7F894818128232183A3E14F
:10098000B1E01197F1F78081982381E009F080E0D0
:100990007894E3E6F6E03197F1F70895CF92DF928D
:1009A000EF92FF920F931F93CF93DF937C016C0123
:1009B00087E0C80ED11CC0E0D0E0062F10E0B801DF
:1009C0000C2E02C0759567950A94E2F76170F601E6
:1009D00081916F010E947B092196C430D10579F77E
:1009E000C701DF91CF911F910F91FF90EF90DF90A2
:1009F000CF900C940402CF92DF92EF92FF920F936C
:100A00001F93CF93DF93EC01F62E642F8C810E940D
:100A10007B098D818F3F19F060E00E947B098F85F3
:100A20000F2D10E084FF25C06E0187E0C80ED11C99
:100A3000E12CF12CB8010E2C02C0759567950A9433
:100A4000E2F76170F60181916F010E947B09FFEF6F
:100A5000EF1AFF0A88E0E816F10461F7CE01DF9192
:100A6000CF911F910F91FF90EF90DF90CF900C945A
:100A70000402B80184E0759567958A95E1F7CE0187
:100A80000E94CE046F2DCE01DF91CF911F910F9167
:100A9000FF90EF90DF90CF900C94CE0441E00E9445
:100AA000FB0481E090E0089540E00C94FB04CF92B9
:100AB000DF92EF92FF92CF93DF9360E080E00E949D
:100AC0001B0F61E086EF92E00E9454058BE39FE1EB
:100AD0000197F1F76FE471E086EF92E00E94610305
:100AE00060E088E00E941B0F81E10E94EB08D82F94
:100AF00082E10E94EB08C82F6D2F70E080E090E04B
:100B00000E94B7146B017C018C2F90E026E0959534
:100B100087952A95E1F7BC01990F880B990B0E94E4
:100B2000B91420E030E040E85EE30E946E159B01BE
:100B3000AC01C701B6010E94A513AB01BC0122E0C4
:100B400086EF92E00E947F0260E08EE00E941B0F21
:100B500064E571E086EF92E0DF91CF91FF90EF9036
:100B6000DF90CF900C9461037F928F929F92AF920F
:100B7000BF92CF92DF92EF92FF920F931F93CF938A
:100B8000DF93CDB7DEB7C856D1090FB6F894DEBFF4
:100B90000FBECDBF0E94C60D21E08A37920751F0EB
:100BA0008E57914039F006E511E09FE5E92E91E07E
:100BB000F92E06C008E611E081E7E82E81E0F82E64
:100BC000C7010E947E13982EC8010E947E13782EC2
:100BD000C70103960E947E13A82EC80103960E94A7
:100BE0007E13882EC70106960E947E13B82EC80178
:100BF00006960E947E13182FCE0109960E94BB0311
:100C00000E94AA0C5C870E94AA0C6F967FAF6F9718
:100C1000A0968FAFA097A0968EAD9FADA0979F870F
:100C20008E870E94AA0C6D870E94AA0C988B9986C9
:100C3000AA86BB86292D3A2D4B2D5C856D857E8538
:100C40008F850E946F0B60934802709349028093D6
:100C50004A0290934B0262E871E089E592E00E94BB
:100C60006103609148027091490280914A0290911B
:100C70004B020E94380BCE0101960E94BB030E94DA
:100C8000AA0C5C830E94AA0C7EAF8FAF8EAD9FAD85
:100C90009F838E830E94AA0C6D830E94AA0C988762
:100CA00079828A821B83272D382D412F5C816D81AB
:100CB0007E818F810E946F0B609344027093450286
:100CC000809346029093470260E971E089E592E0E3
:100CD0000E94610360914402709145028091460236
:100CE000909147020E94380B0E94AA0C0E946F0B41
:100CF0006B017C018091480290914902A0914A02C7
:100D0000B0914B02409144025091450260914602DD
:100D100070914702481759076A077B076CF58C15D5
:100D20009D05AE05BF0544F50E94AA0C5F5F5C837C
:100D300079828A821B83272D382D412F6D817E81F8
:100D40008F8198850E946F0B6093440270934502D7
:100D500080934602909347026FE971E089E592E043
:100D60000E946103609144027091450280914602A5
:100D7000909147020E94380B809144029091450265
:100D8000A0914602B0914702409148025091490219
:100D900060914A0270914B0284179507A607B70726
:100DA0006CF5C816D906EA06FB0644F50E94AA0CA3
:100DB00051505C879986AA86BB86292D3A2D4B2DEA
:100DC0006D857E858F8598890E946F0B60934802A0
:100DD0007093490280934A0290934B0266EB71E054
:100DE00089E592E00E946103609148027091490296
:100DF00080914A0290914B020E94380B80914402EC
:100E000090914502A0914602B09147028C159D0534
:100E1000AE05BF058CF081E090E040914802509112
:100E2000490260914A0270914B024C155D056E05B6
:100E30007F0524F480E002C081E090E0C859DF4FD4
:100E40000FB6F894DEBF0FBECDBFDF91CF911F91DB
:100E50000F91FF90EF90DF90CF90BF90AF909F9059
:100E60008F907F9008958F929F92AF92BF92CF9272
:100E7000DF92EF92FF92CF93DF93CDB7DEB761970A
:100E80000FB6F894DEBF0FBECDBF809113039091D3
:100E900014030E94980440E06CEC8091130390913D
:100EA00014030E94290440910E0364E4809113030B
:100EB000909114030E94290480911003882309F45F
:100EC00049C0E0910F03E950E33040F4F0E0EE0F49
:100ED000FF1FE55FFE4F6081718102C06EEE72E020
:100EE00080911103882381F180910E0381112CC020
:100EF0008FB7F89480904C0290904D02A0904E02D3
:100F0000B0904F028FBF6B01770FEE08FF08809102
:100F10001303909114030E94D6038130D9F02FB7A8
:100F2000F89480914C0290914D02A0914E02B091A4
:100F30004F022FBF8C199D09AE09BF09881599056D
:100F4000AA05BB0520F306C0072E000C880B990BE1
:100F50000E94E7096CEC71E089E592E00E94610370
:100F600060E0CE010A960E94E60E811107C0C12CF6
:100F7000D12CFEEFEF2EF2ECFF2E4BC0BE016F5FC7
:100F80007F4FCE010A960E94F30D882359F16981A3
:100F900048E0649FB00111248A81282F30E0322F6D
:100FA0002227330F330F330F262B372B8A858031BF
:100FB000E1F4688570E08F81AB01481B5109CA01DB
:100FC0009695982F8827979587950E94EC156051E4
:100FD0007109207F53E0220F331F5A95E1F7620F0A
:100FE000731F04C060E874EE01C0B901613854EEAB
:100FF00075070CF4BCCF072E000C880B990B0E94D0
:10100000B91420E030E040E05CE30E946E156B0113
:101010007C0122E0B701A60189E592E00E947F02EF
:1010200062EE71E089E592E00E942102C701B601FB
:1010300061960FB6F894DEBF0FBECDBFDF91CF91A2
:10104000FF90EF90DF90CF90BF90AF909F908F90E8
:101050000895833081F028F4813099F08230A1F036
:1010600008958730A9F08830B9F08430D1F48091A8
:1010700080008F7D03C0809180008F7780938000F7
:10108000089584B58F7702C084B58F7D84BD08959F
:101090008091B0008F7703C08091B0008F7D8093E6
:1010A000B00008953FB7F894809155029091560290
:1010B000A0915702B091580226B5A89B05C02F3FBA
:1010C00019F00196A11DB11D3FBFBA2FA92F982F6E
:1010D0008827820F911DA11DB11DBC01CD0142E0E9
:1010E000660F771F881F991F4A95D1F70895CF93F0
:1010F000DF9390912A03992349F194EE9093BC00D9
:101100009091BC0097FFFCCF90ED9093BB0094ECC6
:101110009093BC009091BC0097FFFCCF8093BB00E4
:1011200084EC8093BC008091BC0087FFFCCF60936F
:10113000BB0084EC8093BC008091BC0087FFFCCF97
:1011400084E98093BC00DF91CF910895C62FD82FFA
:1011500080ED0E94600C0E944B0C8D2F0E948F0C22
:101160000E944B0C8C2F0E948F0C0E944B0CDF9125
:10117000CF910C94EB0BCF93DF93CDB7DEB72997CC
:101180000FB6F894DEBF0FBECDBFBE016F5F7F4FBD
:101190000E94F30D882389F08D818F3361F020F454
:1011A0008F3159F489E00CC08F3519F08F3739F041
:1011B00004C08BE005C08AE003C080E001C08CE081
:1011C00029960FB6F894DEBF0FBECDBFDF91CF9149
:1011D00008950E9475161F93CF93DF931F92CDB78A
:1011E000DEB790912A03992309F43FC094EE9093BF
:1011F000BC009091BC0097FFFCCF90ED9093BB009A
:1012000094EC9093BC009091BC0097FFFCCF80932E
:10121000BB0084EC8093BC008091BC0087FFFCCFB6
:1012200084EE8093BC008091BC0087FFFCCF81EDF1
:101230008093BB0084EC8093BC008091BC0087FF4E
:10124000FCCF84EC8093BC008091BC0087FFFCCF76
:101250008091BB0094E89093BC009091BC0097FFF4
:10126000FCCF94E99093BC0018C0182F80ED0E9429
:10127000600C0E944B0C812F0E948F0C0E944B0C23
:1012800081ED0E94600C0E944B0C0E94230C89830C
:101290000E94050C0E94EB0B89810F90DF91CF918A
:1012A0001F910895CF93DF93282F30E0F901E45880
:1012B000FE4F8491F901E255FE4FD491F901E656B3
:1012C000FE4FC491CC2391F081110E942908EC2F8C
:1012D000F0E0EE0FFF1FE057FE4FA591B491EC91A7
:1012E000ED2381E090E021F480E002C080E090E016
:1012F000DF91CF9108951F93CF93DF93282F30E094
:10130000F901E458FE4F8491F901E255FE4FD49162
:10131000F901E656FE4FC491CC23C9F0162F811176
:101320000E942908EC2FF0E0EE0FFF1FEE58FE4F51
:10133000A591B4918FB7F894111105C09C91ED2F30
:10134000E095E92302C0EC91ED2BEC938FBFDF9188
:10135000CF911F910895CF93DF9390E0FC01E25568
:10136000FE4F2491FC01E656FE4F8491882361F1E3
:1013700090E0880F991FFC01E859FE4FC591D49168
:10138000FC01EE58FE4FA591B491611109C09FB7C1
:10139000F8948881209582238883EC912E230BC0BA
:1013A000623061F49FB7F8943881822F809583234F
:1013B0008883EC912E2B2C939FBF06C08FB7F89497
:1013C000E8812E2B28838FBFDF91CF9108958F92D4
:1013D0009F92AF92BF92CF92DF92EF92FF926B01FA
:1013E0007C010E9452084B015C01C114D104E1044C
:1013F000F104F1F00E945208DC01CB01881999092F
:10140000AA09BB09883E9340A105B10570F321E00C
:10141000C21AD108E108F10888EE880E83E0981E10
:10142000A11CB11CC114D104E104F10419F7DDCFF2
:10143000FF90EF90DF90CF90BF90AF909F908F90F4
:1014400008951F920F920FB60F9211242F933F937E
:101450008F939F93AF93BF9380914C0290914D02D5
:10146000A0914E02B0914F023091540223E0230F1D
:101470002D3720F40196A11DB11D05C026E8230FCC
:101480000296A11DB11D2093540280934C029093AB
:101490004D02A0934E02B0934F028091550290915D
:1014A0005602A0915702B09158020196A11DB11D9C
:1014B0008093550290935602A0935702B09358021E
:1014C000BF91AF919F918F913F912F910F900FBE40
:1014D0000F901F901895EF92FF920F931F93CF9349
:1014E000DF93E82EF62EC7E0D0E0042F10E098013D
:1014F0000C2E02C0359527950A94E2F7B901617068
:1015000077278E2D0E947B0961E08F2D0E947B0939
:1015100060E08F2D0E947B09219748F7DF91CF91E2
:101520001F910F91FF90EF900895EF92FF920F930C
:101530001F93CF93DF93EC01623018F08F858860A2
:101540008F876B8B1C8A80E48D8B80E18E8B80E58E
:101550008F8B61E08C810E94AB098D818F3F19F0E8
:1015600061E00E94AB0961E08E810E94AB097E01BF
:1015700087E0E80EF11C00E010E08F8584FD03C0D9
:1015800084E090E002C088E090E0081719074CF46E
:1015900061E0F70181917F010E94AB090F5F1F4F4E
:1015A000ECCF8BE39DE00197F1F760E08C810E9426
:1015B0007B0960E08E810E947B098D818F3F19F04D
:1015C00060E00E947B096F8564FD1DC063E0CE0171
:1015D0000E94CE040BE416E4C8010197F1F763E022
:1015E000CE010E94CE04C8010197F1F763E0CE015D
:1015F0000E94CE0483E592E00197F1F762E0CE010C
:101600000E94CE0416C06062CE010E9454058BE495
:1016100096E40197F1F76F856062CE010E94540550
:1016200083E592E00197F1F76F856062CE010E9439
:1016300054056F856062CE010E94540584E0888B5A
:101640006CE0CE010E94540561E0CE010E94540579
:101650008BE39FE10197F1F782E0898B66E0CE0191
:10166000DF91CF911F910F91FF90EF900C94540553
:10167000CF92DF92EF92FF92CF93DF936B017C01C9
:1016800097FF16C06DE289E592E00E941A02EC0114
:1016900044275527BA014C195D096E097F092AE0D4
:1016A00089E592E00E9436027C01EC0EFD1E08C026
:1016B0002AE0AB01BC0189E592E00E9436027C0180
:1016C00062EE71E089E592E00E9421028E0D9F1D7D
:1016D000DF91CF91FF90EF90DF90CF900895EF9240
:1016E000FF920F931F93CF93DF93CDB7DEB7289769
:1016F0000FB6F894DEBF0FBECDBF29833A834B836C
:10170000252F7E838F834E815F81822F90E070E052
:10171000E62FF0E03197272F30E02E173F0744F4F3
:10172000D901A15EBE4F2C91820F911D7F5FF3CF37
:10173000633030F09A0123703327232B09F401968C
:101740006DE671E0469F9001479F300D569F300D2A
:101750001124215933424D5C574056954795569573
:101760004795240F351F280F391FA8E1B0E00E94CC
:10177000411629817B018C01E20EF11C011D111D16
:10178000A8019701ACE3B0E00E9450162A817B01CA
:101790008C01E20EF11C011D111DA80197010E9490
:1017A00050162B81DC01CB01820F911DA11DB11DB3
:1017B000BC01CD0160587C4B8249974C28960FB6EE
:1017C000F894DEBF0FBECDBFDF91CF911F910F9177
:1017D000FF90EF900895CF93DF93C1E2D3E061E0F3
:1017E00089810E94AB0960E089810E947B0961E0E8
:1017F00088810E947B0961E089810E947B0960E009
:101800008981DF91CF910C94AB09CF93DF93C1E233
:10181000D3E061E089810E94AB0960E088810E9489
:101820007B0961E089810E947B0961E088810E94D7
:101830007B0960E088810E947B0960E08981DF91FB
:10184000CF910C94AB091F93CF93DF9360E080910D
:1018500022030E94AB09C7E0D0E010E061E0809174
:1018600021030E947B09809122030E9452099C015E
:1018700033270C2E01C0220F0A94EAF7122B60E0E6
:10188000809121030E947B09219740F7812FDF91EE
:10189000CF911F91089560E0809122030E94AB09CF
:1018A00061E0809121030E947B09809122030E94C4
:1018B00052090197D1F360E0809121030C947B09D8
:1018C0000F931F93CF93DF931F92CDB7DEB7482FAF
:1018D00001E213E061E0F801818149830E94AB09D4
:1018E00061E0F80181810E947B0961E0F80180815B
:1018F0000E947B0960E0F80181810E947B0960E021
:10190000F80180810E947B094981F8016081818111
:101910000F90DF91CF911F910F910C946B0A0F9351
:101920001F93CF93DF931F92CDB7DEB7482F01E20D
:1019300013E061E0F801818149830E94AB0949818C
:10194000F801608181810F90DF91CF911F910F91FC
:101950000C946B0A0F931F93CF93DF93CDB7DEB731
:1019600060970FB6F894DEBF0FBECDBFCE010996CB
:101970000E94BB0380912A03882309F446C084EEA9
:101980008093BC008091BC0087FFFCCF80ED8093EA
:10199000BB0084EC8093BC008091BC0087FFFCCF2F
:1019A0001092BB0084EC8093BC008091BC0087FF48
:1019B000FCCF84EE8093BC008091BC0087FFFCCFFD
:1019C00081ED8093BB0084EC8093BC008091BC00CF
:1019D00087FFFCCFE3E2F3E094EC9093BC008091AE
:1019E000BC0087FFFCCF8091BB00819323E0EA32EB
:1019F000F20799F784E88093BC008091BC0087FFD0
:101A0000FCCF84E98093BC0042C080ED0E94600C52
:101A10000E944B0C80E00E948F0C0E944B0C81EDC9
:101A20000E94600C0E944B0C00E010E00E94230C0E
:101A3000F801EF5DFC4F828306301105F9F061E09B
:101A4000809122030E94AB0960E0809121030E94F3
:101A50007B0960E0809122030E947B0961E0809114
:101A600021030E947B0960E0809121030E947B0991
:101A700060E0809122030E94AB0902C00E94050C25
:101A80000F5F1F4F0730110589F60E94EB0B809105
:101A90002303982F9695969596959E70292F220F41
:101AA000220F920F8F70890F8B8780912403982FBC
:101AB0009695969596959E70292F220F220F920F3C
:101AC0008F70890F8A8780912503282F2F7087FFB9
:101AD00009C085FB992790F9822F3CE0939F800DE8
:101AE000112409C08073869586958695982F990F45
:101AF000990F890F820F898780912603888B8091A7
:101B00002703982F9695969596959E70292F220FCC
:101B1000220F920F8F70890F8C8780912803982F46
:101B20009695969596959E70292F220F220F920FCB
:101B30008F70890F8D8780912903982F92959F70C0
:101B40008F702AE0929F800D112490E08053984F6F
:101B50009F878E8788E0FE013996DE0111960190FD
:101B60000D928A95E1F729813A814B815C816D81E3
:101B70007E818F81988560960FB6F894DEBF0FBE88
:101B8000CDBFDF91CF911F910F910895CF93DF9338
:101B9000CDB7DEB766970FB6F894DEBF0FBECDBFE8
:101BA0008EE0E1E1F1E0DE01119601900D928A955F
:101BB000E1F7CE010F960E94BB030E94AA0C9E0182
:101BC0002F5F3F4F290F311D290F311DF90132972A
:101BD0008081918166960FB6F894DEBF0FBECDBFAF
:101BE000DF91CF9108958F929F92AF92BF92CF9243
:101BF000DF92EF92FF920F931F93CF93DF938C01AD
:101C0000EB0180911303909114030E9498048823A0
:101C100009F43DC0B80180911303909114030E9410
:101C20006B0440E06EEB80911303909114030E94CB
:101C300029048E015E0189E0A80EB11C8090130377
:101C40009090140388E0C82ED12CEE24E394F12C5C
:101C5000C4010E94D6038111FE28EE0CE1E0CE1AE9
:101C6000D108B1F7F801F1928F01EA15FB0531F7C0
:101C700080911303909114030E949804813039F4E9
:101C800068E0CE010E94C90391E02885821390E0AC
:101C9000892FDF91CF911F910F91FF90EF90DF90EF
:101CA000CF90BF90AF909F908F900895AF92BF92CA
:101CB000CF92DF92EF92FF920F931F93CF93DF9318
:101CC0001F92CDB7DEB75C01D62EE72EFC018585CD
:101CD000811105C0C5010E949804811106C0F5015B
:101CE00013861586148680E065C040E060EFC5016C
:101CF0000E94290401E0F12CC12C11E0C5010E94D1
:101D0000D603682FC50169830E94D60369816130BB
:101D100019F48130B9F433C04F2D50E068131BC063
:101D2000F5018385181730F4E40FF51F83818023B4
:101D300049F402C0181731F060E0193058F4F50189
:101D4000148708C0F501EF0DF11D8381802B83837B
:101D500061E009C0C12EF501E40FF51F9381802FCA
:101D6000809589238383C5010E94FA031F5F000FBA
:101D700011F4F39401E0F7E0FF1508F0BFCF113440
:101D800008F4ADCFF501C386C11002C081E085879C
:101D9000F5018381882309F4A2CFD5011396ED2D97
:101DA000FE2D9501255F3F4F8D918193A217B307BB
:101DB000D9F781E00F90DF91CF911F910F91FF90A4
:101DC000EF90DF90CF90BF90AF9008950F931F9347
:101DD000CF93DF938C01D62FE0911303F09114037E
:101DE000138615861486DF011B9633961E92AE1756
:101DF000BF07E1F7C0E0B80180911303909114038D
:101E00000E94560E811102C080E010C0CD130AC09E
:101E100067E0C8010E94C903F8019781891302C0D5
:101E200081E004C0CF5FDC1778F3E5CFDF91CF917D
:101E30001F910F910895643008F063E090910903B9
:101E4000691710F06FEF690FE62FF0E0EA50FD4FD1
:101E50009489682F690F606886EF92E00C945405AE
:101E6000CF93DF93CDB7DEB761970FB6F894DEBF9F
:101E70000FBECDBF789484B5826084BD84B5816087
:101E800084BD85B5826085BD85B5816085BD809145
:101E90006E00816080936E001092810080918100BD
:101EA00082608093810080918100816080938100B5
:101EB000809180008160809380008091B100846077
:101EC0008093B1008091B00081608093B0008091D8
:101ED0007A00846080937A0080917A008260809397
:101EE0007A0080917A00816080937A0080917A00F4
:101EF000806880937A001092C10061E089E00E94BE
:101F0000AB0961E08AE00E94AB0961E08BE00E94CE
:101F1000AB0960E087E00E94AB0960E086E00E94C8
:101F2000AB0962E086EF92E00E94950A809122035D
:101F3000823101F5809121038331E1F481E08093C6
:101F40002A0361E082E10E947B0961E083E10E9453
:101F50007B098091B9008E7F8093B9008091B90090
:101F60008D7F8093B9008CE08093B80085E08093EA
:101F7000BC0007C010922A0361E0809121030E94F7
:101F8000AB09E0911303F0911403138615861486B0
:101F9000DF011B9633961E92AE17BF07E1F7109232
:101FA000120301E0BE016F5F7F4F80911303909198
:101FB00014030E94560E882309F453C067E0CE0133
:101FC00001960E94C90398858913ECCF80910E0376
:101FD000811127C080911303909114030E949804EB
:101FE000BE016F5F7F4F80911303909114030E9495
:101FF0006B0440E064EB80911303909114030E9402
:10200000290480911303909114030E94D603182F82
:1020100080911303909114030E949804112309F4F2
:102020007BC210910F038981803109F4ADC2CE01CA
:1020300001960E94BB08811718F480910F0309C014
:102040008981803111F48CE004C0CE0101960E9498
:10205000BB0880930F03809112038F5F809312035C
:10206000A1CF8CE080930F03C12CD12C0FE53FE76B
:10207000F32E4FE1B42E5FE3A52E8091120390E082
:10208000C816D9060CF0A0C06C2DCE010A960E948D
:10209000E60E10910F03193020F01D3018F01CE0EF
:1020A00001C019E08A85803129F0CE010A960E948C
:1020B000BB0801C08CE0811709F482C0BE016F5FCC
:1020C0007F4FCE010A960E94F30D882309F478C051
:1020D0008A85803109F474C01B3041F01C3021F036
:1020E0001A3031F4AD8205C0FD8203C00D8301C0FA
:1020F000BD8280911303909114030E949804BE0145
:10210000665F7F4F80911303909114030E946B04CC
:1021100040E06EE480911303909114030E9429041F
:1021200040E06B8180911303909114030E94290475
:1021300040E06C8180911303909114030E94290464
:102140008A85803141F040E06D8180911303909148
:1021500014030E94290480911303909114030E9498
:102160009804BE01665F7F4F809113039091140322
:102170000E946B0440910E0368E4809113039091D8
:1021800014030E94290464E170E080E090E00E9462
:10219000E70980910E03882331F06AE070E080E067
:1021A00090E00E94E70980911303909114030E942C
:1021B000980480910F03181708F4182F10930F0339
:1021C0002FEFC21AD20A59CFE0916902F0916A0248
:1021D00082E08083E0916502F09166021082E091D6
:1021E0006702F09168028FEC808310927102E09197
:1021F0006D02F0916E0286E08083E0916B02F091B7
:102200006C02808180618083E0916B02F0916C02AE
:10221000808188608083E0916B02F0916C02808104
:1022200080688083E0916B02F0916C0280818F7DE9
:1022300080830E94570560E087E00E947B0960E090
:1022400086E00E947B0967E186E00E94770864E0EF
:1022500085E00E94770865E284E00E94770862E0EA
:1022600083E00E94770863E282E00E94770867E5D6
:1022700081E00E94770860E580E00E947708109274
:1022800050021092510210925202109253021AE020
:1022900000E38AE3F82E90EA892E9FE0992EA12C84
:1022A000B12CCC24C394D12C61E080E00E941B0FA0
:1022B0000E94C60DBC0186EF92E00E94610361E0BE
:1022C00088E00E941B0FCE0101960E94BB030E9472
:1022D000AA0C29833A834B835C836D837E838F832F
:1022E00098872A3018F40093000107C0822F612FCD
:1022F0000E94E015805D80930001822F612F0E9473
:10230000E015905D90930101F09202012A812A303C
:1023100018F40093030107C0822F612F0E94E0157B
:10232000805D80930301822F612F0E94E015905DF4
:1023300090930401F09205012B812A3018F4009348
:10234000060107C0822F612F0E94E015805D8093F7
:102350000601822F612F0E94E015905D9093070186
:102360001092080160E071E086EF92E00E94610344
:1023700068EC70E080E090E00E94E7092091500254
:10238000309151024091520250915302A8ECB0E0BA
:102390000E945016A50194010E942216672B682BFB
:1023A000692B09F05FC08091090190910A010197A2
:1023B00089F410920A01109209010E9433072B013F
:1023C0003C0120E030E040E251E40E94691518161B
:1023D000A4F048C0D0920A01C092090165EE71E0F4
:1023E00089E592E00E94210262EE71E089E592E0C7
:1023F0000E9421020E94570535C020E030E040E2F3
:1024000052E4C301B2010E94111487FF2BC06BEF8D
:1024100071E089E592E00E94210262EE71E089E5B7
:1024200092E00E94210260E080E00E941B0F60E1C8
:1024300072E086EF92E00E94610360E088E00E9413
:102440001B0F22E0B301A20186EF92E00E947F02FF
:1024500060E08EE00E941B0F64E571E086EF92E081
:102460000E94610386E00E945209019759F460E0DE
:1024700089E00E947B0960E08AE00E947B0960E0BD
:102480008BE022C087E00E945209019709F053C0F7
:102490000E94B405892B21F061E089E00E947B094C
:1024A00060E08AE00E947B0960E08BE00E947B098B
:1024B0000E94B405892B99F56AE172E089E592E002
:1024C0000E94610361E089E00E947B0980915002D3
:1024D00090915102A0915202B09153020196A11D18
:1024E000B11D813828E3920721E0A207B1054CF421
:1024F0008093500290935102A0935202B0935302E2
:1025000008C0109250021092510210925202109282
:1025100053020E94F901C8CE00930E0382CD0E949F
:10252000B405019799F664E272E089E592E00E94B1
:10253000610360E0C8CF0E9433072B013C0120E01B
:1025400030E040E252E40E9469151816D4F020E011
:1025500030E040E251E4C301B2010E94111487FD52
:1025600010C020E030E048EC51E4C301B2010E9409
:102570006915181614F460E001C061E08BE00E9458
:102580007B0961E08AE092CF1D3008F056CD5BCD2B
:1025900010925C0210925B0288EE93E0A0E0B0E043
:1025A00080935D0290935E02A0935F02B0936002FD
:1025B0008FE291E090935A028093590285EC90E06B
:1025C000909366028093650284EC90E09093680299
:1025D0008093670280EC90E090936A028093690296
:1025E00081EC90E090936C0280936B0282EC90E01F
:1025F00090936E0280936D0286EC90E0909370024F
:1026000080936F0210927202109273021092740201
:102610001092750282E18093220383E1809321036B
:1026200060E088E00E94AB09E6EBF1E0E491E09322
:102630003303E2EAF1E0E491F0E0EE0FFF1FE05730
:10264000FE4F8591949190933503809334031092BB
:102650003E031092400310923F03EEE3F3E0129228
:1026600083E0E633F807D9F783E092E09093200304
:1026700080931F0383E393E09093140380931303E9
:102680001092120310920E0389E080930F0381E0F1
:1026900080931003809311031092F9021092F802B4
:1026A0008FE391E09093F7028093F6028CE08093A1
:1026B000FA028FEF8093FB028DE08093FC0285E0AD
:1026C0008093FD0284E08093FE0283E08093FF020A
:1026D00082E0809300031092010310920203109293
:1026E0000303109204031092050361E086EF92E069
:1026F0000E94950A8BE293E00C94BB03FC018827AF
:102700009927E89421912032E9F3293010F02E30F6
:10271000C8F32B3241F02D3239F4689404C00E9482
:102720009C13820F911D219120532A30C0F31EF477
:10273000909581959F4F08957AE0979F902D879F60
:10274000802D910D112408955058BB27AA270E946F
:10275000BC130C942F150E94211538F00E942815E7
:1027600020F039F49F3F19F426F40C941E150EF452
:10277000E095E7FB0C941815E92F0E94401558F3DB
:10278000BA17620773078407950720F079F4A6F556
:102790000C9462150EF4E0950B2EBA2FA02D0B01B0
:1027A000B90190010C01CA01A0011124FF27591B96
:1027B00099F0593F50F4503E68F11A16F040A22F9C
:1027C000232F342F4427585FF3CF4695379527950D
:1027D000A795F0405395C9F77EF41F16BA0B620B0C
:1027E000730B840BBAF09150A1F0FF0FBB1F661F53
:1027F000771F881FC2F70EC0BA0F621F731F841F96
:1028000048F4879577956795B795F7959E3F08F0BB
:10281000B0CF9395880F08F09927EE0F979587957D
:1028200008950E94F41408F481E008950E942A1487
:102830000C942F150E94281558F00E94211540F085
:1028400029F45F3F29F00C94181551110C9463156D
:102850000C941E150E94401568F39923B1F355237B
:1028600091F3951B550BBB27AA27621773078407A3
:1028700038F09F5F5F4F220F331F441FAA1FA9F339
:1028800035D00E2E3AF0E0E832D091505040E69527
:10289000001CCAF72BD0FE2F29D0660F771F881F88
:1028A000BB1F261737074807AB07B0E809F0BB0B7B
:1028B000802DBF01FF2793585F4F3AF09E3F51058F
:1028C00078F00C9418150C9463155F3FE4F3983E70
:1028D000D4F3869577956795B795F7959F5FC9F778
:1028E000880F911D9695879597F90895E1E0660FF9
:1028F000771F881FBB1F621773078407BA0720F072
:10290000621B730B840BBA0BEE1F88F7E0950895DA
:102910000E94481588F09F5798F0B92F9927B75112
:10292000B0F0E1F0660F771F881F991F1AF0BA9573
:10293000C9F714C0B13091F00E946215B1E008955A
:102940000C946215672F782F8827B85F39F0B93F4C
:10295000CCF3869577956795B395D9F73EF4909526
:102960008095709561957F4F8F4F9F4F0895E894A4
:1029700009C097FB3EF490958095709561957F4FC7
:102980008F4F9F4F9923A9F0F92F96E9BB27939575
:10299000F695879577956795B795F111F8CFFAF485
:1029A000BB0F11F460FF1BC06F5F7F4F8F4F9F4FB6
:1029B00016C0882311F096E911C0772321F09EE814
:1029C000872F762F05C0662371F096E8862F70E07A
:1029D00060E02AF09A95660F771F881FDAF7880F54
:1029E0009695879597F90895990F0008550FAA0BAA
:1029F000E0E8FEEF16161706E807F907C0F0121612
:102A00001306E407F50798F0621B730B840B950B14
:102A100039F40A2661F0232B242B252B21F4089569
:102A20000A2609F4A140A6958FEF811D811D089506
:102A300097F99F6780E870E060E008959FEF80EC71
:102A4000089500240A941616170618060906089514
:102A500000240A9412161306140605060895092E7A
:102A60000394000C11F4882352F0BB0F40F4BF2BE9
:102A700011F460FF04C06F5F7F4F8F4F9F4F089529
:102A800057FD9058440F551F59F05F3F71F047951F
:102A9000880F97FB991F61F09F3F79F08795089504
:102AA000121613061406551FF2CF4695F1DF08C023
:102AB000161617061806991FF1CF86957105610540
:102AC00008940895E894BB2766277727CB0197F9E8
:102AD00008950E94F41408F48FEF08950E94811560
:102AE0000C942F150E94211538F00E94281520F013
:102AF000952311F00C9418150C941E1511240C94A8
:102B000063150E94401570F3959FC1F3950F50E037
:102B1000551F629FF001729FBB27F00DB11D639F8F
:102B2000AA27F00DB11DAA1F649F6627B00DA11D35
:102B3000661F829F2227B00DA11D621F739FB00DDB
:102B4000A11D621F839FA00D611D221F749F33274B
:102B5000A00D611D231F849F600D211D822F762FE4
:102B60006A2F11249F5750409AF0F1F088234AF0C1
:102B7000EE0FFF1FBB1F661F771F881F915050402D
:102B8000A9F79E3F510580F00C9418150C9463151D
:102B90005F3FE4F3983ED4F3869577956795B795B4
:102BA000F795E7959F5FC1F7FE2B880F911D9695CE
:102BB000879597F908950E94F414880B990B08954E
:102BC000991B79E004C0991F961708F0961B881F7F
:102BD0007A95C9F78095089597FB072E16F400940F
:102BE00007D077FD09D00E945B1607FC05D03EF4A4
:102BF000909581959F4F0895709561957F4F0895A9
:102C0000A1E21A2EAA1BBB1BFD010DC0AA1FBB1FF0
:102C1000EE1FFF1FA217B307E407F50720F0A21B62
:102C2000B30BE40BF50B661F771F881F991F1A94CF
:102C300069F760957095809590959B01AC01BD01F9
:102C4000CF010895052E97FB1EF400940E943916BB
:102C500057FD07D00E94001607FC03D04EF40C94D9
:102C6000391650954095309521953F4F4F4F5F4F06
:102C7000089590958095709561957F4F8F4F9F4FE8
:102C80000895A29FB001B39FC001A39F700D811D45
:102C90001124911DB29F700D811D1124911D089565
:102CA0000E944116A59F900DB49F900DA49F800D8A
:102CB000911D11240895AA1BBB1B51E107C0AA1F37
:102CC000BB1FA617B70710F0A61BB70B881F991FCD
:102CD0005A95A9F780959095BC01CD010895EE0F06
:102CE000FF1F0590F491E02D099481E090E0F894A5
:082CF0000C947A16F894FFCF52
:102CF80078787878787878780001005E00BC00777A
:102D0800012F02330237023B023F027A017E011F84
:102D18001C1F1E1F1E1F1F1E1F1E1F0000000090CD
:102D2800010C01590137014B01D701000000004E89
:102D3800050C016E616E00696E66006F7666004C68
:102D480075667400430032333A35393A303300320D
:102D5800333A35383A31300031393A33353A35304B
:102D68000030393A33353A343000536174005375C2
:102D78006E00756E69784F6E54696D653A20200053
:102D8800756E69784F666654696D653A20200075DE
:102D98006E69786F666654696D65202B2031204412
:102DA800617920202000756E69786F6E54696D65B1
:102DB800202D20312044617920202000202020204F
:102DC8002054656D70657261747572652069733A17
:102DD80020000D0A0054656D70657261747572206B
:102DE800537461747573206F66660054656D706501
:102DF800726174757220537461747573206F6E00FC
:102E08005761737365723A2020004C6967687420B3
:102E18004F6E0A004C69676874206F66660A004D39
:102E28006F6E0054756500576564005468750046F8
:042E380072690000BB
:00000001FF
