:100000000C94E2000C940A010C940A010C940A016D
:100010000C940A010C940A010C940A010C940A0134
:100020000C940A010C940A010C940A010C940A0124
:100030000C940A010C940A010C940A010C940A0114
:100040000C94D6060C940A010C9473090C944D0977
:100050000C940A010C940A010C940A010C940A01F4
:100060000C940A010C940A0100000008000201002F
:100070000003040700000000000000000000000072
:1000800023002600290004040404040404040202DA
:100090000202020203030303030301020408102007
:1000A0004080010204081020010204081020000012
:1000B0000000240027002A0000000000250028007E
:1000C0002B00005EBCE2613FDD83C29C7E20A3FD6D
:1000D0001F419DC3217FFCA2401E5F01E3BD3E6026
:1000E00082DC237D9FC1421CFEA0E1BF5D0380DE58
:1000F0003C62BEE0025CDF81633D7C22C09E1D430A
:10010000A1FF4618FAA427799BC584DA3866E5BBB7
:100110005907DB856739BAE406581947A5FB7826E5
:10012000C49A653BD987045AB8E6A7F91B45C69817
:100130007A24F8A6441A99C7257B3A6486D85B05C9
:10014000E7B98CD2306EEDB3510F4E10F2AC2F7177
:1001500093CD114FADF3702ECC92D38D6F31B2ECA5
:100160000E50AFF1134DCE90722C6D33D18F0C52D7
:10017000B0EE326C8ED0530DEFB1F0AE4C1291CF89
:100180002D73CA947628ABF517490856B4EA693737
:10019000D58B5709EBB536688AD495CB2977F4AA65
:1001A0004816E9B7550B88D6346A2B7597C94A1497
:1001B000F6A8742AC896154BA9F7B6E80A54D78949
:1001C0006B356B0D11241FBECFEFD8E0DEBFCDBF66
:1001D00011E0A0E0B1E0E0E4F8E202C005900D9289
:1001E000AA3EB107D9F722E0AAEEB1E001C01D9204
:1001F000AD3DB207E1F710E0C2EED0E004C02197B8
:10020000FE010E941314C13ED107C9F70E94340EAB
:100210000C941E140C940000CF93DF93CAEBD2E031
:1002200061E089810E94600660E089810E94300659
:1002300061E088810E94300661E089810E94300679
:1002400060E08981DF91CF910C946006CF93DF93BA
:10025000CAEBD2E061E089810E94600660E088819B
:100260000E94300661E089810E94300661E0888149
:100270000E94300660E088810E94300660E089813B
:10028000DF91CF910C946006EF92FF920F931F9332
:10029000CF93DF93E82EF62EC7E0D0E0042F10E0D6
:1002A00098010C2E02C0359527950A94E2F7B90102
:1002B000617077278E2D0E94300661E08F2D0E949D
:1002C000300660E08F2D0E943006219748F7DF91BD
:1002D000CF911F910F91FF90EF9008950F931F936F
:1002E000CF93DF931F92CDB7DEB7482F0AEB12E012
:1002F00061E0F801818149830E94600661E0F801B4
:1003000081810E94300661E0F80180810E94300600
:1003100060E0F80181810E94300660E0F801808190
:100320000E9430064981F801608181810F90DF9140
:10033000CF911F910F910C944401EF92FF920F9374
:100340001F93CF93DF93EC01623018F08F858860A4
:100350008F876B8B1C8A80E48D8B80E18E8B80E590
:100360008F8B61E08C810E9460068D818F3F19F038
:1003700061E00E94600661E08E810E9460067E015D
:1003800087E0E80EF11C00E010E08F8584FD03C0DB
:1003900084E090E002C088E090E0081719074CF470
:1003A00061E0F70181917F010E9460060F5F1F4F9E
:1003B000ECCF8BE39DE00197F1F760E08C810E9428
:1003C000300660E08E810E9430068D818F3F19F0EB
:1003D00060E00E9430066F8564FD1DC063E0CE01C1
:1003E0000E94AA0A0BE416E4C8010197F1F763E042
:1003F000CE010E94AA0AC8010197F1F763E0CE017D
:100400000E94AA0A83E592E00197F1F762E0CE012B
:100410000E94AA0A16C06062CE010E94300B8BE4D3
:1004200096E40197F1F76F856062CE010E94300B70
:1004300083E592E00197F1F76F856062CE010E943B
:10044000300B6F856062CE010E94300B84E0888B98
:100450006CE0CE010E94300B61E0CE010E94300BB7
:100460008BE39FE10197F1F782E0898B66E0CE0193
:10047000DF91CF911F910F91FF90EF900C94300B73
:100480008F929F92AF92BF92CF92DF92EF92FF92A4
:100490000F931F93CF93DF938C01EB018091AC02FC
:1004A0009091AD020E94740A882309F43DC0B801FE
:1004B0008091AC029091AD020E94470A40E06EEB41
:1004C0008091AC029091AD020E94050A8E015E01FE
:1004D00089E0A80EB11C8090AC029090AD0288E03B
:1004E000C82ED12CEE24E394F12CC4010E94B20951
:1004F0008111FE28EE0CE1E0CE1AD108B1F7F80127
:10050000F1928F01EA15FB0531F78091AC029091D1
:10051000AD020E94740A813039F468E0CE010E9475
:10052000A50991E02885821390E0892FDF91CF9172
:100530001F910F91FF90EF90DF90CF90BF90AF9001
:100540009F908F900895AF92BF92CF92DF92EF92DB
:10055000FF920F931F93CF93DF931F92CDB7DEB718
:100560005C01D62EE72EFC018585811105C0C501F1
:100570000E94740A811106C0F5011386158614863F
:1005800080E065C040E060EFC5010E94050A01E01F
:10059000F12CC12C11E0C5010E94B209682FC501E0
:1005A00069830E94B2096981613019F48130B9F41C
:1005B00033C04F2D50E068131BC0F5018385181719
:1005C00030F4E40FF51F8381802349F402C018172B
:1005D00031F060E0193058F4F501148708C0F501D6
:1005E000EF0DF11D8381802B838361E009C0C12E53
:1005F000F501E40FF51F9381802F80958923838374
:10060000C5010E94D6091F5F000F11F4F39401E0A9
:10061000F7E0FF1508F0BFCF113408F4ADCFF501B6
:10062000C386C11002C081E08587F50183818823DC
:1006300009F4A2CFD5011396ED2DFE2D9501255F6E
:100640003F4F8D918193A217B307D9F781E00F90A7
:10065000DF91CF911F910F91FF90EF90DF90CF909E
:10066000BF90AF9008950F931F93CF93DF938C01AA
:10067000D62FE091AC02F091AD0213861586148658
:10068000DF011B9633961E92AE17BF07E1F7C0E05D
:10069000B8018091AC029091AD020E94A302811139
:1006A00002C080E010C0CD130AC067E0C8010E94FC
:1006B000A509F8019781891302C081E004C0CF5FCA
:1006C000DC1778F3E5CFDF91CF911F910F9108955B
:1006D000643008F063E09091A202691710F06FEFA8
:1006E000690FE62FF0E0E157FD4F9489682F690FFD
:1006F00060688FE892E00C94300BCF93DF93CDB716
:10070000DEB729970FB6F894DEBF0FBECDBFBE018E
:100710006F5F7F4F0E944002882389F08D818F3365
:1007200061F020F48F3159F489E00CC08F3519F055
:100730008F3739F004C08BE005C08AE003C080E049
:1007400001C08CE029960FB6F894DEBF0FBECDBF76
:10075000DF91CF910895CF93DF93282F30E0F901F7
:10076000E859FF4F8491F901E656FF4FD491F90102
:10077000EA57FF4FC491CC2391F081110E940706E4
:10078000EC2FF0E0EE0FFF1FE458FF4FA591B4915E
:10079000EC91ED2381E090E021F480E002C080E064
:1007A00090E0DF91CF9108951F93CF93DF9360E0A6
:1007B0008091BB020E946006C7E0D0E010E061E0DB
:1007C0008091BA020E9430068091BB020E94AB0366
:1007D0009C0133270C2E01C0220F0A94EAF7122B3A
:1007E00060E08091BA020E943006219740F7812F85
:1007F000DF91CF911F91089560E08091BB020E942C
:10080000600661E08091BA020E9430068091BB02CE
:100810000E94AB030197D1F360E08091BA020C947F
:1008200030060F931F93CF93DF93CDB7DEB7289792
:100830000FB6F894DEBF0FBECDBF8091C3028823F0
:1008400009F446C084EE8093BC008091BC0087FF11
:10085000FCCF80ED8093BB0084EC8093BC00809142
:10086000BC0087FFFCCF1092BB0084EC8093BC00DF
:100870008091BC0087FFFCCF84EE8093BC00809108
:10088000BC0087FFFCCF81ED8093BB0084EC80939C
:10089000BC008091BC0087FFFCCFECEBF2E094EC55
:1008A0009093BC008091BC0087FFFCCF8091BB007F
:1008B000819372E0E33CF70799F784E88093BC00EA
:1008C0008091BC0087FFFCCF84E98093BC004BC0C3
:1008D00080ED0E946E010E94FC0361E08091BB02EA
:1008E0000E94600640E06091BA028091BB020E94C3
:1008F00044010E94FC0381ED0E946E010E94FC03F2
:1009000000E010E00E94D403F801E654FD4F82831A
:1009100006301105F9F061E08091BB020E9460068B
:1009200060E08091BA020E94300660E08091BB02D4
:100930000E94300661E08091BA020E94300660E0B9
:100940008091BA020E94300660E08091BB020E9452
:10095000600602C00E9426010F5F1F4F073011057D
:1009600089F60E940C018091BC02482F469546955D
:1009700046954E70942F990F990F490F8F70480F1D
:100980008091BD02382F3695369536953E70932F5F
:10099000990F990F390F8F70380F8091BE02282F51
:1009A0002F7087FF08C085FB992790F98CE0989FEE
:1009B000200D112409C08073869586958695982F01
:1009C000990F990F890F280FE091BF026091C00223
:1009D0007091C1028091C202562F56955695569538
:1009E0005E70952F990F990F590F6F70560F672FE3
:1009F0006695669566956E70962F990F990F690F9B
:100A00007F70670F982F92959F708F707AE0979FF5
:100A1000800D112490E08053984F9F838E83782F10
:100A20008F819E2F28960FB6F894DEBF0FBECDBFE4
:100A3000DF91CF911F910F910895CF93DF93CDB7A1
:100A4000DEB766970FB6F894DEBF0FBECDBF8EE05F
:100A5000E9E0F1E0DE01119601900D928A95E1F74F
:100A60000E9411049E012F5F3F4F290F311D290F56
:100A7000311DF90132978081918166960FB6F89405
:100A8000DEBF0FBECDBFDF91CF910895CF93DF932F
:100A90001F92CDB7DEB79091C302992309F43FC0EE
:100AA00094EE9093BC009091BC0097FFFCCF90ED2A
:100AB0009093BB0094EC9093BC009091BC0097FF86
:100AC000FCCF8093BB0084EC8093BC008091BC0081
:100AD00087FFFCCF84EE8093BC008091BC0087FF31
:100AE000FCCF81ED8093BB0084EC8093BC008091AF
:100AF000BC0087FFFCCF84EC8093BC008091BC00DD
:100B000087FFFCCF8091BB0094E89093BC0090914C
:100B1000BC0097FFFCCF94E99093BC0022C0482F03
:100B200080ED49830E946E010E94FC0361E0809188
:100B3000BB020E94600649816091BA028091BB02AB
:100B40000E9444010E94FC0381ED0E946E010E94FC
:100B5000FC030E94D40389830E9426010E940C0199
:100B600089810F90DF91CF9108953FB7F8948091DC
:100B7000D8029091D902A091DA02B091DB0226B599
:100B8000A89B05C02F3F19F00196A11DB11D3FBFC5
:100B9000BA2FA92F982F8827820F911DA11DB11D53
:100BA000BC01CD0142E0660F771F881F991F4A954F
:100BB000D1F70895CF92DF92EF92FF920F931F9398
:100BC000CF93DF936C017A018B01C0E0D0E0CE15AA
:100BD000DF0589F0D8016D918D01D601ED91FC9171
:100BE0000190F081E02DC6010995892B11F47E0159
:100BF00002C02196ECCFC701DF91CF911F910F91D9
:100C0000FF90EF90DF90CF9008950E9419148330E9
:100C100081F028F4813099F08230A1F00895873076
:100C2000A9F08830B9F08430D1F4809180008F7DB4
:100C300003C0809180008F7780938000089584B5F1
:100C40008F7702C084B58F7D84BD08958091B000F8
:100C50008F7703C08091B0008F7D8093B00008959E
:100C60001F93CF93DF93282F30E0F901E859FF4F0E
:100C70008491F901E656FF4FD491F901EA57FF4FED
:100C8000C491CC23C9F0162F81110E940706EC2FC6
:100C9000F0E0EE0FFF1FE854FF4FA591B4918FB71E
:100CA000F894111105C09C91ED2FE095E92302C045
:100CB000EC91ED2BEC938FBFDF91CF911F910895B5
:100CC000CF93DF9390E0FC01E656FF4F2491FC01A7
:100CD000EA57FF4F8491882361F190E0880F991FB4
:100CE000FC01E255FF4FC591D491FC01E854FF4F40
:100CF000A591B491611109C09FB7F894888120959E
:100D000082238883EC912E230BC0623061F49FB75D
:100D1000F8943881822F809583238883EC912E2B41
:100D20002C939FBF06C08FB7F894E8812E2B2883A1
:100D30008FBFDF91CF9108958F929F92AF92BF9214
:100D4000CF92DF92EF92FF926B017C010E94B5057A
:100D50004B015C01C114D104E104F104F1F00E94E3
:100D6000B505DC01CB0188199909AA09BB09883EA0
:100D70009340A105B10570F321E0C21AD108E10842
:100D8000F10888EE880E83E0981EA11CB11CC114E6
:100D9000D104E104F10419F7DDCFFF90EF90DF906B
:100DA000CF90BF90AF909F908F9008951F920F9219
:100DB0000FB60F9211242F933F938F939F93AF936E
:100DC000BF938091D2029091D302A091D402B091AE
:100DD000D5023091D70223E0230F2D3720F401965E
:100DE000A11DB11D05C026E8230F0296A11DB11D4E
:100DF0002093D7028093D2029093D302A093D4027F
:100E0000B093D5028091D8029091D902A091DA02D4
:100E1000B091DB020196A11DB11D8093D802909381
:100E2000D902A093DA02B093DB02BF91AF919F91F8
:100E30008F913F912F910F900FBE0F901F9018959B
:100E40006115710579F0FB0101900020E9F73197F8
:100E5000AF01461B570BDC01ED91FC910280F38141
:100E6000E02D099480E090E008954F925F926F9298
:100E70007F92EF92FF920F931F93CF93DF93CDB7A3
:100E8000DEB7A1970FB6F894DEBF0FBECDBF7C01D1
:100E9000FA01CB0119A2223008F42AE08E010F5D7D
:100EA0001F4F422E512C612C712CBF01A3019201C6
:100EB0000E94DD13F901CA01015011096A3014F4CE
:100EC000605D01C0695CD8016C93232B242B252B1A
:100ED00061F7B801C7010E942007A1960FB6F894E8
:100EE000DEBF0FBECDBFDF91CF911F910F91FF905D
:100EF000EF907F906F905F904F9008954F925F9228
:100F00006F927F928F929F92AF92BF92CF92DF9219
:100F1000EF92FF92CF93DF93EC016A017B01B22E37
:100F20009A01AB01C701B6010E94B813882319F0DA
:100F300061E571E027C026013701E89477F82FEFCB
:100F40003FEF4FE75FE7C301B2010E94B813811181
:100F50000DC02FEF3FEF4FE75FE7C301B2010E94E3
:100F6000EE1118161CF465E571E00CC02FEF3FEF91
:100F70004FE75FE4C701B6010E94461318169CF4C0
:100F800069E571E0CE01DF91CF91FF90EF90DF90A6
:100F9000CF90BF90AF909F908F907F906F905F9019
:100FA0004F900C9420072FEF3FEF4FE75FECC70106
:100FB000B6010E94EE1187FDE3CF20E030E0A901E9
:100FC000C701B6010E94EE1187FF0EC0E881F981CA
:100FD0000190F081E02D6DE2CE0109954C01F7FA08
:100FE000F094F7F8F09402C0812C912CA12C60E0D1
:100FF00070E080E09FE3AB1441F020E030E040E29D
:1010000051E40E94F311A394F6CF9B01AC01C701F8
:10101000B6010E9482112B013C010E9465126B01F6
:101020007C010E9494129B01AC01C301B2010E9499
:1010300081112B013C012AE0B701A601CE010E94DB
:1010400035077C01E80CF91CBB2051F0E881F981DF
:101050000190F081E02D6EE2CE010995E80EF91EB7
:10106000DB2CDD2029F120E030E040E251E4C30137
:10107000B2010E944B132B013C010E9465124B01EF
:10108000A12CB12C2AE0B501A401CE010E943507A4
:10109000E80EF91EC501B4010E9494129B01AC0137
:1010A000C301B2010E9481112B013C01DA94D9CF16
:1010B000C701DF91CF91FF90EF90DF90CF90BF906D
:1010C000AF909F908F907F906F905F904F9008951A
:1010D0000C942007FC01918D828D981761F0828D10
:1010E000DF01A80FB11D5D968C91928D9F5F9F735C
:1010F000928F90E008958FEF9FEF0895FC01918DFE
:10110000828D981731F0828DE80FF11D858D90E06A
:1011100008958FEF9FEF0895FC01918D228D892F07
:1011200090E0805C9F4F821B91098F7399270895EF
:101130008AEE91E00E948C0821E0892B09F420E0DE
:10114000822F0895FC01848DDF01A80FB11DA35AE1
:10115000BF4F2C91848D90E001968F739927848FD7
:10116000A689B7892C93A089B1898C9180648C93CE
:10117000938D848D981306C00288F389E02D8081B9
:101180008F7D80830895EF92FF920F931F93CF93EB
:10119000DF93EC0181E0888F9B8D8C8D981305C0C7
:1011A000E889F989808185FD24C0F62E0B8D10E039
:1011B0000F5F1F4F0F731127E02E8C8DE8120CC0AC
:1011C0000FB607FCFACFE889F989808185FFF5CF52
:1011D000CE010E94A208F1CF8B8DFE01E80FF11D18
:1011E000E35AFF4FF0820B8FEA89FB89808180628E
:1011F00007C0EE89FF896083E889F989808180646E
:10120000808381E090E0DF91CF911F910F91FF905B
:10121000EF900895CF93DF93EC01888D8823C9F078
:10122000EA89FB89808185FD05C0A889B9898C91EF
:1012300086FD0FC00FB607FCF5CF808185FFF2CF8A
:10124000A889B9898C9185FFEDCFCE010E94A208B3
:10125000E7CFDF91CF91089580E090E0892B29F0CE
:101260000E94980881110C94000008950895CF936E
:10127000DF93EC0160E08E810E94300661E08E8198
:101280000E94300660E08E810E9430068BE891E07B
:101290000197F1F7DF91CF9108951F920F920FB64A
:1012A0000F9211242F933F934F935F936F937F93EC
:1012B0008F939F93AF93BF93EF93FF938AEE91E049
:1012C0000E94A208FF91EF91BF91AF919F918F91E2
:1012D0007F916F915F914F913F912F910F900FBE32
:1012E0000F901F9018951F920F920FB60F92112416
:1012F0002F938F939F93EF93FF93E091FA01F091D7
:10130000FB018081E0910002F091010282FD12C098
:101310009081809103028F5F8F7320910402821766
:1013200051F0E0910302F0E0E651FE4F958F80937B
:10133000030201C08081FF91EF919F918F912F91C6
:101340000F900FBE0F901F901895DC01E0E06150E8
:1013500038F08D91E827F0E0EE53FF4FE491F7CF9E
:101360008E2F0895FC0190810180F281E02DF89488
:101370008181892B81832281892F80952823228353
:10138000A7E0B0E01197F1F7218182238183A3E2E6
:10139000B0E01197F1F780817894EFECF0E03197AD
:1013A000F1F7982381E009F480E00895FC01908131
:1013B0000180F281E02D892F809560FF12C0F894A2
:1013C0002281822382838181892B8183A3E2B0E001
:1013D0001197F1F78281982B9283789487ED90E0B2
:1013E00011C0F8942281822382838181892B818399
:1013F000AFEFB0E01197F1F78281982B9283789448
:101400008FE090E00197F1F70895CF92DF92EF928D
:10141000FF920F931F93CF93DF931F92CDB7DEB749
:101420006C01E62E08E010E0FF24F39461E08F2DBC
:101430008E2109F460E0C60149830E94D609FF0CA1
:101440000150110949810115110581F7411115C09C
:10145000F894D6011196ED91FC91129791818C919F
:101460008095892381831196ED91FC911297928149
:101470008C9180958923828378940F90DF91CF910E
:101480001F910F91FF90EF90DF90CF900895CF9232
:10149000DF92EF92FF920F931F93CF93DF931F92F0
:1014A000CDB7DEB78C01F62E40E065E579830E946A
:1014B000050ACF2C7981D72E760188E0E80EF11C41
:1014C000F60161916F0140E0C8010E94050ACE1447
:1014D000DF04B1F70F90DF91CF911F910F91FF9033
:1014E000EF90DF90CF900895FC0190810180F28110
:1014F000E02DF8948181292F20958223818378948F
:101500008DE743E050E0815021F1DA011197F1F7C6
:1015100030813923C1F3F8948281822382838181CF
:10152000892B81837894ABE7B7E01197F1F7F894B2
:10153000818128232183A3E1B1E01197F1F7808114
:10154000982381E009F080E07894E3E6F6E03197B3
:10155000F1F70895CF92DF92EF92FF920F931F93CE
:10156000CF93DF937C016C0187E0C80ED11CC0E0F3
:10157000D0E0062F10E0B8010C2E02C075956795DB
:101580000A94E2F76170F60181916F010E943006C2
:101590002196C430D10579F7C701DF91CF911F9112
:1015A0000F91FF90EF90DF90CF900C943709CF927E
:1015B000DF92EF92FF920F931F93CF93DF93EC0193
:1015C000F62E642F8C810E9430068D818F3F19F09A
:1015D00060E00E9430068F850F2D10E084FF25C04B
:1015E0006E0187E0C80ED11CE12CF12CB8010E2C45
:1015F00002C0759567950A94E2F76170F6018191D2
:101600006F010E943006FFEFEF1AFF0A88E0E8162C
:10161000F10461F7CE01DF91CF911F910F91FF90FF
:10162000EF90DF90CF900C943709B80184E0759566
:1016300067958A95E1F7CE010E94AA0A6F2DCE0127
:10164000DF91CF911F910F91FF90EF90DF90CF909E
:101650000C94AA0A41E00E94D70A81E090E0089524
:1016600040E00C94D70ACF92DF92EF92FF92CF9393
:10167000DF9360E080E00E94680361E08FE892E021
:101680000E94300B8BE39FE10197F1F76EE971E067
:101690008FE892E00E94680860E088E00E9468039A
:1016A00081E10E944605D82F82E10E944605C82F9D
:1016B0006D2F70E080E090E00E9494126B017C013D
:1016C0008C2F90E026E0959587952A95E1F7BC014F
:1016D000990F880B990B0E94961220E030E040E8A9
:1016E0005EE30E944B139B01AC01C701B6010E944F
:1016F0008211AB01BC0122E08FE892E00E947E07DC
:1017000060E08EE00E94680367E671E08FE892E097
:10171000DF91CF91FF90EF90DF90CF900C9468080D
:101720000E941104209387023093880250938A020A
:1017300060938B0270938C0280938D0290938E0243
:1017400084E1840F8B3330F081E08093DC0289EDFB
:10175000840F02C01092DC028093890208955F9288
:101760006F927F928F929F92AF92BF92CF92DF92B1
:10177000EF92FF920F931F93CF93DF93CDB7DEB716
:1017800068970FB6F894DEBF0FBECDBF0E9411045C
:10179000122F0E941104032F0E941104942E0E9404
:1017A0001D0521E08934920761F08D54914049F084
:1017B00023EAE22E21E0F22E3CEAC32E31E0D32EC2
:1017C00008C085EBE82E81E0F82E9EEBC92E91E053
:1017D000D92E370183E0680E711C67EC71E08AEE48
:1017E00091E00E946808B3018AEE91E00E94200710
:1017F00061ED71E08AEE91E00E942007C6010E942F
:101800005B11B82EC7010E945B11582EC6010396CA
:101810000E945B11882EC3010E945B11A82EC60195
:1018200006960E945B11D82EC70106960E945B1196
:10183000982FB11668F41515C8F0151109C00A15CE
:10184000A8F08016A8F40A1118C09816A0F40EC0CB
:101850001B1113C0801610F40A1540F00A110DC0B8
:10186000D91458F481E0991648F007C081E006C009
:101870001B1103C0F3CF1B1599F380E068960FB6D8
:10188000F894DEBF0FBECDBFDF91CF911F910F91B6
:10189000FF90EF90DF90CF90BF90AF909F908F9090
:1018A0007F906F905F9008958F929F92AF92BF92BA
:1018B000CF92DF92EF92FF92CF93DF93CDB7DEB757
:1018C00061970FB6F894DEBF0FBECDBF8091AC021A
:1018D0009091AD020E94740A40E06CEC8091AC02E1
:1018E0009091AD020E94050A4091A70264E48091A4
:1018F000AC029091AD020E94050A8091A902882352
:1019000009F449C0E091A802E950E33040F4F0E066
:10191000EE0FFF1FE15DFE4F6081718102C06EEE30
:1019200072E08091AA02882381F18091A70281113F
:101930002CC08FB7F8948090D2029090D302A090E0
:10194000D402B090D5028FBF6B01770FEE08FF086D
:101950008091AC029091AD020E94B2098130D9F021
:101960002FB7F8948091D2029091D302A091D40223
:10197000B091D5022FBF8C199D09AE09BF098815FA
:101980009905AA05BB0520F306C0072E000C880B9D
:10199000990B0E949C0664ED71E08AEE91E00E9432
:1019A000680860E0CE010A960E943303811107C0E7
:1019B000C12CD12CFEEFEF2EF2ECFF2E4BC0BE015E
:1019C0006F5F7F4FCE010A960E944002882359F133
:1019D000698148E0649FB00111248A81282F30E09A
:1019E000322F2227330F330F330F262B372B8A85C5
:1019F0008031E1F4688570E08F81AB01481B5109AB
:101A0000CA019695982F8827979587950E94C913A4
:101A100060517109207F53E0220F331F5A95E1F77F
:101A2000620F731F04C060E874EE01C0B901613831
:101A300054EE75070CF4BCCF072E000C880B990BE5
:101A40000E94961220E030E040E05CE30E944B13DD
:101A50006B017C0122E0B701A6018AEE91E00E94B1
:101A60007E0761ED71E08AEE91E00E942007C701D8
:101A7000B60161960FB6F894DEBF0FBECDBFDF9101
:101A8000CF91FF90EF90DF90CF90BF90AF909F905D
:101A90008F900895CF93DF93CDB7DEB728970FB619
:101AA000F894DEBF0FBECDBF0E9411048091DC020E
:101AB000882311F0453128F481E09091890249177B
:101AC00008F480E028960FB6F894DEBF0FBECDBFB5
:101AD000DF91CF910895CF93DF931092ED01109293
:101AE000EC0188EE93E0A0E0B0E08093EE019093EB
:101AF000EF01A093F001B093F1018BE191E090939D
:101B0000EB018093EA0185EC90E09093F7018093DC
:101B1000F60184EC90E09093F9018093F80180EC59
:101B200090E09093FB018093FA0181EC90E0909318
:101B3000FD018093FC0182EC90E09093FF01809383
:101B4000FE0186EC90E090930102809300021092D7
:101B5000030210920402109205021092060282E122
:101B60008093BB0283E18093BA0260E088E00E9428
:101B70006006E2EAF0E0E491E093C402EEE8F0E00F
:101B8000E491F0E0EE0FFF1FE458FF4F8591949130
:101B90009093C6028093C5021092CF021092D10298
:101BA0001092D002EFECF2E0129282E0E73CF807EC
:101BB000D9F786E399E09093B9028093B80284EC58
:101BC00092E09093AD028093AC021092AB0210921F
:101BD000A70289E08093A802C1E0C093A902C09344
:101BE000AA0210929202109291028BE291E09093DD
:101BF000900280938F028CE0809393028FEF80930A
:101C000094028DE08093950285E08093960284E0B3
:101C100080939702D3E0D093980282E08093990258
:101C200010929A0210929B0210929C0210929D02B6
:101C300010929E0261E08FE892E00E949D018EED7D
:101C400097E090938D0280938C02C0938B02C09397
:101C50008A02109287021092880210928902D09311
:101C60008E02DF91CF910895CF93DF93CDB7DEB78A
:101C700061970FB6F894DEBF0FBECDBF789484B5E0
:101C8000826084BD84B5816084BD85B5826085BD78
:101C900085B5816085BD80916E00816080936E0006
:101CA00010928100809181008260809381008091F8
:101CB00081008160809381008091800081608093A9
:101CC00080008091B10084608093B1008091B00069
:101CD00081608093B00080917A00846080937A0064
:101CE00080917A00826080937A0080917A0081608E
:101CF00080937A0080917A00806880937A001092B5
:101D0000C10061E089E00E94600661E08AE00E9413
:101D1000600661E08BE00E94600660E087E00E9460
:101D2000600660E086E00E94600662E08FE892E074
:101D30000E949D018091BB02823101F58091BA021F
:101D40008331E1F481E08093C30261E082E10E948B
:101D5000300661E083E10E9430068091B9008E7FF9
:101D60008093B9008091B9008D7F8093B9008CE099
:101D70008093B80085E08093BC0007C01092C30236
:101D800061E08091BA020E946006E091AC02F0919D
:101D9000AD02138615861486DF011B9633961E92BC
:101DA000AE17BF07E1F71092AB0201E0BE016F5F13
:101DB0007F4F8091AC029091AD020E94A3028823D4
:101DC00009F453C067E0CE0101960E94A5099885E9
:101DD0008913ECCF8091A702811127C08091AC02BA
:101DE0009091AD020E94740ABE016F5F7F4F809197
:101DF000AC029091AD020E94470A40E064EB8091F2
:101E0000AC029091AD020E94050A8091AC029091C3
:101E1000AD020E94B209182F8091AC029091AD02E0
:101E20000E94740A112309F4F8C11091A802898153
:101E3000803109F430C2CE0101960E947D038117E2
:101E400018F48091A80209C08981803111F48CE0D6
:101E500004C0CE0101960E947D038093A802809168
:101E6000AB028F5F8093AB02A1CF8CE08093A8027E
:101E7000E12CF12C0FE59FE7D92E2FE1C22E3FE395
:101E8000B32E8091AB0290E0E816F9060CF0A0C0EA
:101E90006E2DCE010A960E9433031091A8021930CC
:101EA00020F01D3018F01CE001C019E08A85803157
:101EB00029F0CE010A960E947D0301C08CE08117B3
:101EC00009F482C0BE016F5F7F4FCE010A960E9467
:101ED0004002882309F478C08A85803109F474C0EF
:101EE0001B3041F01C3021F01A3031F4BD8205C0A6
:101EF000DD8203C00D8301C0CD828091AC02909140
:101F0000AD020E94740ABE01665F7F4F8091AC02F1
:101F10009091AD020E94470A40E06EE48091AC02CD
:101F20009091AD020E94050A40E06B818091AC0265
:101F30009091AD020E94050A40E06C818091AC0254
:101F40009091AD020E94050A8A85803141F040E0FF
:101F50006D818091AC029091AD020E94050A809142
:101F6000AC029091AD020E94740ABE01665F7F4F81
:101F70008091AC029091AD020E94470A4091A70265
:101F800068E48091AC029091AD020E94050A64E180
:101F900070E080E090E00E949C068091A702882378
:101FA00031F06AE070E080E090E00E949C06809151
:101FB000AC029091AD020E94740A8091A802181799
:101FC00008F4182F1093A8028FEFE81AF80A59CFD7
:101FD000E091FA01F091FB0182E08083E091F6014B
:101FE000F091F7011082E091F801F091F9018FEC86
:101FF000808310920202E091FE01F091FF0186E0E1
:102000008083E091FC01F091FD01808180618083FB
:10201000E091FC01F091FD01808188608083E09176
:10202000FC01F091FD01808180688083E091FC01DA
:10203000F091FD0180818F7D80830E94330B0E948F
:10204000900B60E087E00E94300660E086E00E942E
:1020500030061AE000E38AE3B82E61E080E00E94D7
:1020600068030E941D05BC018FE892E00E94680889
:1020700061E088E00E9468030E94110429833A838A
:102080004B835C836D837E838F8398872A3018F41B
:102090000093000107C0822F612F0E94BD13805D55
:1020A00080930001822F612F0E94BD13905D909359
:1020B0000101B09202012A812A3018F40093030131
:1020C00007C0822F612F0E94BD13805D80930301A2
:1020D000822F612F0E94BD13905D90930401B092F6
:1020E00005012B812A3018F40093060107C0822FC6
:1020F000612F0E94BD13805D80930601822F612FA6
:102100000E94BD13905D909307011092080160E05A
:1021100071E08FE892E00E94680860E971E080E079
:1021200090E00E949C060E94540C6B017C018091FF
:10213000D6028111B4C00E944A0D8823C1F10E94C9
:10214000900B81E08093D60220E030E040E251E441
:10215000C701B6010E94461318164CF520E030E086
:1021600040E252E4C701B6010E94EE1187FF1FC092
:1021700060E080E00E9468036DE571E08FE892E026
:102180000E94680860E088E00E94680322E0B701CE
:10219000A6018FE892E00E947E0760E08EE00E9438
:1021A000680367E671E08FE892E00E94680886E0C5
:1021B0000E94AB03019759F460E089E00E94300669
:1021C00060E08AE00E94300660E08BE021C087E09A
:1021D0000E94AB03019761F50E94AF0B882321F0A9
:1021E00061E089E00E94300660E08AE00E943006EB
:1021F00060E08BE00E9430060E94AF0B882381F0E4
:1022000069E871E08AEE91E00E94680861E089E087
:102210000E9430060E942C0920CF0093A70205CE11
:1022200063E971E08AEE91E00E94680860E0EFCF18
:102230000E94540C6B017C0120E030E048EC51E43A
:102240000E944613181614F460E011C020E030E03C
:1022500040EA51E4C701B6010E94EE1161E0181690
:1022600034F08BE00E94300664E771E005C08BE03B
:102270000E94300669E671E08AEE91E00E946808EB
:1022800061E08AE00E9430066EE771E08AEE91E03C
:102290000E946808B1CF1D3008F0D3CDD8CD0E9480
:1022A0004A0D882309F483CF0E94900B1092D60226
:1022B0000E94330B7CCFFC0188279927E894219159
:1022C0002032E9F3293010F02E30C8F32B3241F0E0
:1022D0002D3239F4689404C00E947911820F911D47
:1022E000219120532A30C0F31EF4909581959F4F81
:1022F00008957AE0979F902D879F802D910D11244E
:1023000008955058BB27AA270E9499110C940C13CA
:102310000E94FE1238F00E94051320F039F49F3F0E
:1023200019F426F40C94FB120EF4E095E7FB0C94E0
:10233000F512E92F0E941D1358F3BA1762077307AD
:102340008407950720F079F4A6F50C943F130EF45A
:10235000E0950B2EBA2FA02D0B01B90190010C01B5
:10236000CA01A0011124FF27591B99F0593F50F4CD
:10237000503E68F11A16F040A22F232F342F442725
:10238000585FF3CF469537952795A795F04053951D
:10239000C9F77EF41F16BA0B620B730B840BBAF0ED
:1023A0009150A1F0FF0FBB1F661F771F881FC2F758
:1023B0000EC0BA0F621F731F841F48F4879577956C
:1023C0006795B795F7959E3F08F0B0CF9395880F26
:1023D00008F09927EE0F9795879508950E94D112DE
:1023E00008F481E008950E9407120C940C130E94D7
:1023F000051358F00E94FE1240F029F45F3F29F0C7
:102400000C94F51251110C9440130C94FB120E9481
:102410001D1368F39923B1F3552391F3951B550BC5
:10242000BB27AA2762177307840738F09F5F5F4FA7
:10243000220F331F441FAA1FA9F335D00E2E3AF0E6
:10244000E0E832D091505040E695001CCAF72BD0FE
:10245000FE2F29D0660F771F881FBB1F261737074F
:102460004807AB07B0E809F0BB0B802DBF01FF2781
:1024700093585F4F3AF09E3F510578F00C94F51257
:102480000C9440135F3FE4F3983ED4F38695779520
:102490006795B795F7959F5FC9F7880F911D96953A
:1024A000879597F90895E1E0660F771F881FBB1F96
:1024B000621773078407BA0720F0621B730B840B43
:1024C000BA0BEE1F88F7E09508950E94251388F057
:1024D0009F5798F0B92F9927B751B0F0E1F0660FE8
:1024E000771F881F991F1AF0BA95C9F714C0B13029
:1024F00091F00E943F13B1E008950C943F13672FB1
:10250000782F8827B85F39F0B93FCCF38695779557
:102510006795B395D9F73EF4909580957095619540
:102520007F4F8F4F9F4F0895E89409C097FB3EF46B
:1025300090958095709561957F4F8F4F9F4F992310
:10254000A9F0F92F96E9BB279395F695879577958E
:102550006795B795F111F8CFFAF4BB0F11F460FF4E
:102560001BC06F5F7F4F8F4F9F4F16C0882311F0A6
:1025700096E911C0772321F09EE8872F762F05C0BA
:10258000662371F096E8862F70E060E02AF09A9555
:10259000660F771F881FDAF7880F9695879597F94A
:1025A0000895990F0008550FAA0BE0E8FEEF1616E4
:1025B0001706E807F907C0F012161306E407F50737
:1025C00098F0621B730B840B950B39F40A2661F0AB
:1025D000232B242B252B21F408950A2609F4A1404E
:1025E000A6958FEF811D811D089597F99F6780E85B
:1025F00070E060E008959FEF80EC089500240A9455
:102600001616170618060906089500240A941216CD
:102610001306140605060895092E0394000C11F400
:10262000882352F0BB0F40F4BF2B11F460FF04C0AD
:102630006F5F7F4F8F4F9F4F089557FD9058440F06
:10264000551F59F05F3F71F04795880F97FB991F11
:1026500061F09F3F79F087950895121613061406CE
:10266000551FF2CF4695F1DF08C01616170618065B
:10267000991FF1CF86957105610508940895E89436
:10268000BB2766277727CB0197F908950E94D112BF
:1026900008F48FEF08950E945E130C940C130E94AF
:1026A000FE1238F00E94051320F0952311F00C94CF
:1026B000F5120C94FB1211240C9440130E941D136C
:1026C00070F3959FC1F3950F50E0551F629FF00185
:1026D000729FBB27F00DB11D639FAA27F00DB11D9E
:1026E000AA1F649F6627B00DA11D661F829F222727
:1026F000B00DA11D621F739FB00DA11D621F839FAE
:10270000A00D611D221F749F3327A00D611D231F83
:10271000849F600D211D822F762F6A2F11249F57D1
:1027200050409AF0F1F088234AF0EE0FFF1FBB1FD4
:10273000661F771F881F91505040A9F79E3F510593
:1027400080F00C94F5120C9440135F3FE4F3983E34
:10275000D4F3869577956795B795F795E7959F5F3D
:10276000C1F7FE2B880F911D9695879597F90895CF
:102770000E94D112880B990B0895991B79E004C02F
:10278000991F961708F0961B881F7A95C9F78095B0
:10279000089597FB072E16F4009407D077FD09D013
:1027A0000E94FF1307FC05D03EF4909581959F4F42
:1027B0000895709561957F4F0895A1E21A2EAA1B86
:1027C000BB1BFD010DC0AA1FBB1FEE1FFF1FA217E1
:1027D000B307E407F50720F0A21BB30BE40BF50BDE
:1027E000661F771F881F991F1A9469F76095709567
:1027F000809590959B01AC01BD01CF010895AA1B66
:10280000BB1B51E107C0AA1FBB1FA617B70710F0DB
:10281000A61BB70B881F991F5A95A9F7809590950D
:10282000BC01CD010895EE0FFF1F0590F491E02D3E
:10283000099481E090E0F8940C941E14F894FFCF72
:10284000787878787878787800350139013D0141D9
:1028500001450149014D0100000000C308DA058C63
:10286000086A087E080A09000000002A0BDA055EE3
:1028700000BC0077014D6F6E0054756500576564AC
:102880000054687500467269005361740053756E98
:10289000006E616E00696E66006F76660057617348
:1028A0007365723A202000430048656174657220A8
:1028B0006F666600486561746572206F6E005075C2
:1028C0006D70206973206F6E004C69676874204FCB
:1028D0006E0A004C69676874206F66660A004C7562
:1028E00066740032303A32323A30330030373A339D
:1028F000303A30300031393A33353A3530003039FA
:102900003A33353A3430006F66666D696E202020A8
:10291000000D0A00202020202054656D7065726132
:0A292000747572652069733A200097
:00000001FF
