:100000000C94E2000C940A010C940A010C940A016D
:100010000C940A010C940A010C940A010C940A0134
:100020000C940A010C940A010C940A010C940A0124
:100030000C940A010C940A010C940A010C940A0114
:100040000C942F0C0C940A010C9457040C9431045A
:100050000C940A010C940A010C940A010C940A01F4
:100060000C940A010C940A01005EBCE2613FDD833E
:10007000C29C7E20A3FD1F419DC3217FFCA2401E88
:100080005F01E3BD3E6082DC237D9FC1421CFEA078
:10009000E1BF5D0380DE3C62BEE0025CDF81633D68
:1000A0007C22C09E1D43A1FF4618FAA427799BC558
:1000B00084DA3866E5BB5907DB856739BAE4065848
:1000C0001947A5FB7826C49A653BD987045AB8E638
:1000D000A7F91B45C6987A24F8A6441A99C7257B28
:1000E0003A6486D85B05E7B98CD2306EEDB3510F18
:1000F0004E10F2AC2F7193CD114FADF3702ECC9208
:10010000D38D6F31B2EC0E50AFF1134DCE90722CF7
:100110006D33D18F0C52B0EE326C8ED0530DEFB1E7
:10012000F0AE4C1291CF2D73CA947628ABF51749D7
:100130000856B4EA6937D58B5709EBB536688AD4C7
:1001400095CB2977F4AA4816E9B7550B88D6346AB7
:100150002B7597C94A14F6A8742AC896154BA9F7A7
:10016000B6E80A54D7896B35000000002400270048
:100170002A0000000000250028002B0000000008D5
:10018000000201000003040700000000000000005E
:1001900000000000230026002900040404040404D5
:1001A0000404020202020202030303030303010226
:1001B00004081020408001020408102001020408F5
:1001C0001020171411241FBECFEFD8E0DEBFCDBF23
:1001D00012E0A0E0B1E0E8EEF1E302C005900D927C
:1001E000A437B107D9F723E0A4E7B2E001C01D921C
:1001F000AD36B207E1F710E0C2EED0E004C02197BF
:10020000FE010E94BA17C13ED107C9F70E94FC0F38
:100210000C94F2180C940000CF92DF92EF92FF92B0
:100220000F931F93CF93DF936C017A018B01C0E092
:10023000D0E0CE15DF0589F0D8016D918D01D60192
:10024000ED91FC910190F081E02DC6010995892B7B
:1002500011F47E0102C02196ECCFC701DF91CF914E
:100260001F910F91FF90EF90DF90CF900895FC01C8
:10027000918D828D981761F0828DDF01A80FB11DDD
:100280005D968C91928D9F5F9F73928F90E0089501
:100290008FEF9FEF0895FC01918D828D981731F0BB
:1002A000828DE80FF11D858D90E008958FEF9FEF0F
:1002B0000895FC01918D228D892F90E0805C9F4FE5
:1002C000821B91098F739927089589E892E00E9413
:1002D000590121E0892B09F420E0822F0895FC01C7
:1002E000848DDF01A80FB11DA35ABF4F2C91848DBF
:1002F00090E001968F739927848FA689B7892C93F4
:10030000A089B1898C9180648C93938D848D98138E
:1003100006C00288F389E02D80818F7D8083089557
:10032000EF92FF920F931F93CF93DF93EC0181E045
:10033000888F9B8D8C8D981305C0E889F989808101
:1003400085FD24C0F62E0B8D10E00F5F1F4F0F733D
:100350001127E02E8C8DE8120CC00FB607FCFACFE7
:10036000E889F989808185FFF5CFCE010E946F0170
:10037000F1CF8B8DFE01E80FF11DE35AFF4FF082A4
:100380000B8FEA89FB898081806207C0EE89FF8933
:100390006083E889F98980818064808381E090E0CE
:1003A000DF91CF911F910F91FF90EF900895CF9320
:1003B000DF93EC01888D8823C9F0EA89FB8980816D
:1003C00085FD05C0A889B9898C9186FD0FC00FB63F
:1003D00007FCF5CF808185FFF2CFA889B9898C9180
:1003E00085FFEDCFCE010E946F01E7CFDF91CF9166
:1003F000089580E090E0892B29F00E946501811129
:100400000C9400000895EF92FF920F931F93CF93E7
:10041000DF93CDB7DEB728970FB6F894DEBF0FBED7
:10042000CDBF09831A832B835E836F836E817F81A7
:10043000832F90E050E0E42FF0E03197252F30E05B
:100440002E173F0744F4D901AB5EBE4F2C91820FAB
:10045000911D5F5FF3CF433030F09B012370332752
:10046000232B09F401964DE651E0649F9001659FAE
:10047000300D749F300D1124215933426D5C77404B
:100480007695679576956795260F371F280F391F44
:10049000A8E1B0E00E948C1729817B018C01E20E5B
:1004A000F11C011D111DA8019701ACE3B0E00E94F1
:1004B0009B172A817B018C01E20EF11C011D111D8D
:1004C000A80197010E949B172B81DC01CB01820FB1
:1004D000911DA11DB11DBC01CD0160587C4B82490D
:1004E000974C28960FB6F894DEBF0FBECDBFDF91B4
:1004F000CF911F910F91FF90EF9008950895CF93A2
:10050000DF93EC0161E089810E94E30E60E0888165
:100510000E94890E61E089810E94890E61E08881D4
:100520000E94890E60E088810E94890E60E08981C6
:10053000DF91CF910C94E30ECF93DF93EC0160E059
:100540008E810E94890E61E08E810E94890E60E09A
:100550008E810E94890E8BE891E00197F1F7DF917F
:10056000CF910895FF920F931F93CF93DF938C0148
:1005700060E0FC0181810E94E30EC7E0D0E0F12C35
:1005800061E0F80180810E94890EF80181810E945A
:10059000600E9C0133270C2E01C0220F0A94EAF74B
:1005A000F22A60E0F80180810E94890E219740F7CD
:1005B0008F2DDF91CF911F910F91FF9008950C9493
:1005C00055180C9455180C9455180C945518611521
:1005D000710579F0FB0101900020E9F73197AF0137
:1005E000461B570BDC01ED91FC910280F381E02D5D
:1005F000099480E090E008954F925F926F927F920D
:10060000EF92FF920F931F93CF93DF93CDB7DEB797
:10061000A1970FB6F894DEBF0FBECDBF7C01FA01E3
:10062000CB0119A2223008F42AE08E010F5D1F4F82
:10063000422E512C612C712CBF01A30192010E940A
:100640004B17F901CA01015011096A3014F4605DB9
:1006500001C0695CD8016C93232B242B252B61F7F7
:10066000B801C7010E94E702A1960FB6F894DEBF59
:100670000FBECDBFDF91CF911F910F91FF90EF90F3
:100680007F906F905F904F9008954F925F926F921E
:100690007F928F929F92AF92BF92CF92DF92EF9212
:1006A000FF92CF93DF93EC016A017B01B22E9A0196
:1006B000AB01C701B6010E942617882319F067E62F
:1006C00071E027C026013701E89477F82FEF3FEF5C
:1006D0004FE75FE7C301B2010E94261781110DC0E9
:1006E0002FEF3FEF4FE75FE7C301B2010E945C15B8
:1006F00018161CF46BE671E00CC02FEF3FEF4FE7CC
:100700005FE4C701B6010E94B41618169CF46FE6A8
:1007100071E0CE01DF91CF91FF90EF90DF90CF900D
:10072000BF90AF909F908F907F906F905F904F9011
:100730000C94E7022FEF3FEF4FE75FECC701B601E4
:100740000E945C1587FDE3CF20E030E0A901C701DE
:10075000B6010E945C1587FF0EC0E881F981019007
:10076000F081E02D6DE2CE0109954C01F7FAF0948D
:10077000F7F8F09402C0812C912CA12C60E070E07D
:1007800080E09FE3AB1441F020E030E040E251E430
:100790000E946115A394F6CF9B01AC01C701B6017D
:1007A0000E94F0142B013C010E94D3156B017C01C7
:1007B0000E9402169B01AC01C301B2010E94EF141A
:1007C0002B013C012AE0B701A601CE010E94FC02E8
:1007D0007C01E80CF91CBB2051F0E881F981019003
:1007E000F081E02D6EE2CE010995E80EF91EDB2CBA
:1007F000DD2029F120E030E040E251E4C301B20104
:100800000E94B9162B013C010E94D3154B01A12C6B
:10081000B12C2AE0B501A401CE010E94FC02E80E31
:10082000F91EC501B4010E9402169B01AC01C3016F
:10083000B2010E94EF142B013C01DA94D9CFC70119
:10084000DF91CF91FF90EF90DF90CF90BF90AF906E
:100850009F908F907F906F905F904F9008950C9431
:10086000E7021F920F920FB60F9211242F933F931E
:100870004F935F936F937F938F939F93AF93BF93A8
:10088000EF93FF9389E892E00E946F01FF91EF914F
:10089000BF91AF919F918F917F916F915F914F9198
:1008A0003F912F910F900FBE0F901F9018951F92A0
:1008B0000F920FB60F9211242F938F939F93EF9364
:1008C000FF93E0919902F0919A028081E0919F025A
:1008D000F091A00282FD12C090818091A2028F5FF0
:1008E0008F732091A302821751F0E091A202F0E0F1
:1008F000E757FD4F958F8093A20201C08081FF9141
:10090000EF919F918F912F910F900FBE0F901F909D
:1009100018950F931F93CF93DF931F92CDB7DEB738
:100920008C01462F61E0FC01818149830E94E30E26
:100930004981F801608181810F90DF91CF911F91F2
:100940000F910C94B90ECF93DF93EC0160E0898195
:100950000E94E30E61E088810E94890E89810E94D5
:10096000600E0197D9F360E08881DF91CF910C94FC
:10097000890ECF93DF93EC0161E089810E94E30E41
:1009800060E089810E94890E61E088810E94890E61
:1009900061E089810E94890E60E08981DF91CF91B9
:1009A0000C94E30E0F931F93CF93DF931F92CDB759
:1009B000DEB78C01462F61E0FC01818149830E94F2
:1009C000E30E61E0F80181810E94890E61E0F80187
:1009D00080810E94890E60E0F80181810E94890E69
:1009E00060E0F80180810E94890E4981F8016081F0
:1009F00081810F90DF91CF911F910F910C94B90ECF
:100A0000FC018EED97E09683858381E08483838368
:100A100010821182128283E087830895CF92DF9241
:100A2000EF92FF920F931F93CF93DF93CDB7DEB773
:100A300060970FB6F894DEBF0FBECDBF8C01CE011C
:100A400001960E940005F8018185882309F447C0BA
:100A500084EE8093BC008091BC0087FFFCCF80EDCA
:100A60008093BB0084EC8093BC008091BC0087FF26
:100A7000FCCF1092BB0084EC8093BC008091BC0042
:100A800087FFFCCF84EE8093BC008091BC0087FF81
:100A9000FCCF81ED8093BB0084EC8093BC008091FF
:100AA000BC0087FFFCCFF8013296C801099634ECF0
:100AB0003093BC002091BC0027FFFCCF2091BB00ED
:100AC0002193E817F907A1F784E88093BC0080918F
:100AD000BC0087FFFCCF84E98093BC0051C060ED6F
:100AE000C8010E94D204C8010E94A30460E0C801AA
:100AF0000E948904C8010E94A30461EDC8010E94FC
:100B0000D204C8010E94A3046801F2E0CF0ED11CF8
:100B1000E12CF12CC8010E94B202F60181936F0111
:100B2000F6E0EF16F104F9F061E0F80181810E942E
:100B3000E30E60E0F80180810E94890E60E0F80118
:100B400081810E94890E61E0F80180810E94890EF6
:100B500060E0F80180810E94890E60E0F8018181E7
:100B60000E94E30E03C0C8010E947F02FFEFEF1A4C
:100B7000FF0A27E0E216F10469F6C8010E94B904F1
:100B8000F8018281982F9695969596959E70292FBB
:100B9000220F220F920F8F70890F8B838381982FE2
:100BA0009695969596959E70292F220F220F920F5B
:100BB0008F70890F8A838481282F2F7087FF09C047
:100BC00085FB992790F9822FFCE09F9F800D1124CF
:100BD00009C08073869586958695982F990F990FF1
:100BE000890F820F8983F801858188878681982FF4
:100BF0009695969596959E70292F220F220F920F0B
:100C00008F70890F8C838781982F969596959695EE
:100C10009E70292F220F220F920F8F70890F8D83C4
:100C20008085982F92959F708F70FAE09F9F800D1E
:100C3000112490E08053984F9F838E8388E0FE01BB
:100C40003196DE01199601900D928A95E1F729857A
:100C50003A854B855C856D857E858F859889609604
:100C60000FB6F894DEBF0FBECDBFDF91CF911F91BD
:100C70000F91FF90EF90DF90CF9008952F923F92C9
:100C80004F925F926F927F928F929F92AF92BF929C
:100C9000CF92DF92EF92FF920F931F93CF93DF9348
:100CA000CDB7DEB7CF5AD1090FB6F894DEBF0FBE6D
:100CB000CDBF1C01FC01828193810E94A20CF10135
:100CC0002481358182179307A1F02681378182170D
:100CD000930779F023E7622E21E0722E3CE7A32EE2
:100CE00031E0B32E45E8E42E41E0F42E0EE811E0A9
:100CF0000AC087E9682E81E0782E90EAA92E91E05B
:100D0000B92E73018501CE0149960E940005F101BB
:100D1000828193810E940E055C8FF1018281938113
:100D20000E940E05C256DF4F7883CE59D040C1567F
:100D3000DF4F8883CF59D040C256DF4F88819981D9
:100D4000CE59D0409F8F8E8FF101828193810E9476
:100D50000E056D8FF101828193810E940E05792F1E
:100D600098A3C801C155DF4F7883CF5AD0400E9465
:100D7000C914C82E898FC80103960E94C914D82EA1
:100D80008A8FC80106960E94C914282F8B8F86016E
:100D90003C8D4D8D5E8D6F8DC155DF4F7881CF5A63
:100DA000D040F101828193810E940302C555DF4F3B
:100DB000688379838A839B83CB5AD040CE01419646
:100DC0000E940005F101828193810E940E055C8BD7
:100DD000F101828193810E940E05EF967FAFEF971C
:100DE000C158DF4F8883CF57D040C258DF4F88812A
:100DF0009981CE57D0409F8B8E8BF1018281938158
:100E00000E940E056D8BF101828193810E940E0577
:100E1000792F988FC701C155DF4F7883CF5AD040C3
:100E20000E94C914082F898BC70103960E94C91418
:100E3000182F8A8BC70106960E94C914282F8B8B06
:100E40003C894D895E896F89C155DF4F7881CF5AC2
:100E5000D040F101828193810E9403026B017C01E9
:100E6000CE0109960E940005F101828193810E94C2
:100E70000E055C87F101828193810E940E056F96B9
:100E80007FAF6F97A0968FAFA097A0968EAD9FADC6
:100E9000A0979F878E87F101828193810E940E0522
:100EA0006D87F101828193810E940E05792F988BC5
:100EB000C501C155DF4F7883CF5AD0400E94C91475
:100EC000082F8987C50103960E94C914182F8A87A5
:100ED000C50106960E94C914282F8B873C854D8535
:100EE0005E856F85C155DF4F7881CF5AD040F101C3
:100EF000828193810E9403024B015C01CE01019625
:100F00000E940005F101828193810E940E055C839D
:100F1000F101828193810E940E057EAF8FAF8EAD6D
:100F20009FAD9F838E83F101828193810E940E0584
:100F30006D83F101828193810E940E05792F98873C
:100F4000C301C155DF4F7883CF5AD0400E94C914E6
:100F5000082F8983C30103960E94C914182F8A831E
:100F6000C30106960E94C914282F8B83F1010280C9
:100F7000F381E02DC755DF4FF983E883C95AD0408C
:100F80003C814D815E816F81C155DF4F7881CF5AA1
:100F9000D040CF010E9403022B013C01C755DF4F17
:100FA00088819981C95AD0400E940E0589019A0111
:100FB000AB01BC01F101828193810E9403024616BC
:100FC000570668067906FCF086169706A806B90645
:100FD000C4F0C616D706E806F906ACF031E020E00A
:100FE000C555DF4FE880F9800A811B81CB5AD0407C
:100FF000E616F706080719070CF430E0832F922F46
:1010000004C080E001C081E090E0C155DF4F0FB621
:10101000F894DEBF0FBECDBFDF91CF911F910F912E
:10102000FF90EF90DF90CF90BF90AF909F908F9008
:101030007F906F905F904F903F902F9008951F93F7
:10104000CF93DF93FC012185222309F43FC084EE76
:101050008093BC008091BC0087FFFCCF80ED809323
:10106000BB0084EC8093BC008091BC0087FFFCCF68
:101070006093BB0084EC8093BC008091BC0087FF30
:10108000FCCF84EE8093BC008091BC0087FFFCCF36
:1010900081ED8093BB0084EC8093BC008091BC0008
:1010A00087FFFCCF84EC8093BC008091BC0087FF5D
:1010B000FCCF1091BB0084E88093BC008091BC0001
:1010C00087FFFCCF84E98093BC0020C0162FEC0181
:1010D00060ED0E94D204CE010E94A304612FCE01D4
:1010E0000E948904CE010E94A30461EDCE010E94FA
:1010F000D204CE010E94A304CE010E94B202182F96
:10110000CE010E947F02CE010E94B904812FDF919F
:10111000CF911F910895DC01E0E0615038F08D918E
:10112000E827F0E0E859FF4FE491F7CF8E2F0895BC
:10113000EF92FF920F931F93CF93DF937C018B016C
:10114000D42FDC011596ED91FC9116971386158628
:101150001486DF011B9633961E92AE17BF07E1F788
:10116000C0E0B801D70115968D919C9116970E9409
:10117000580D811102C080E010C0CD130AC067E095
:10118000C8010E948B08F8019781891302C081E091
:1011900004C0CF5FDC1778F3E4CFDF91CF911F91CC
:1011A0000F91FF90EF900895FC0190810180F281F2
:1011B000E02DF8948181892B81832281892F80956C
:1011C00028232283A7E0B0E01197F1F72181822341
:1011D0008183A3E2B0E01197F1F780817894EFEC7E
:1011E000F0E03197F1F7982381E009F480E0089569
:1011F000FC0190810180F281E02D892F809560FFB4
:1012000012C0F8942281822382838181892B818379
:10121000A3E2B0E01197F1F78281982B9283789442
:1012200087ED90E011C0F89422818223828381812E
:10123000892B8183AFEFB0E01197F1F78281982B72
:10124000928378948FE090E00197F1F70895CF9220
:10125000DF92EF92FF920F931F93CF93DF931F9232
:10126000CDB7DEB76C01E62E08E010E0FF24F39462
:1012700061E08F2D8E2109F460E0C60149830E9450
:10128000F808FF0C0150110949810115110581F77A
:10129000411115C0F894D6011196ED91FC91129769
:1012A00091818C918095892381831196ED91FC9198
:1012B000129792818C9180958923828378940F90E4
:1012C000DF91CF911F910F91FF90EF90DF90CF9022
:1012D0000895CF92DF92EF92FF920F931F93CF93D7
:1012E000DF931F92CDB7DEB78C01F62E40E065E5A7
:1012F00079830E942709CF2C7981D72E760188E047
:10130000E80EF11CF60161916F0140E0C8010E94F6
:101310002709CE14DF04B1F70F90DF91CF911F9111
:101320000F91FF90EF90DF90CF900895FC01908196
:101330000180F281E02DF8948181292F209582236C
:10134000818378948DE743E050E0815021F1DA0108
:101350001197F1F730813923C1F3F8948281822308
:1013600082838181892B81837894ABE7B7E01197E1
:10137000F1F7F894818128232183A3E1B1E011974B
:10138000F1F78081982381E009F080E07894E3E62A
:10139000F6E03197F1F708954F925F926F927F9246
:1013A0008F929F92AF92BF92CF92DF92EF92FF9275
:1013B0000F931F93CF93DF9300D0CDB7DEB72C01EF
:1013C0008A01FC018581968169837A830E9496094E
:1013D00069817A818823C9F1F201858196810E9411
:1013E000690940E06EEBF201858196810E94270930
:1013F00078014801F9E08F0E911CF201658076803A
:1014000088E0A82EB12CCC24C394D12CC3010E9417
:10141000D4088111DC28CC0CF1E0AF1AB108B1F787
:10142000F701D1927F01E815F90539F7F2018581BD
:1014300096810E949609813041F468E0C8010E94BB
:101440008B0891E0F8012085821390E0892F0F909E
:101450000F90DF91CF911F910F91FF90EF90DF9050
:10146000CF90BF90AF909F908F907F906F905F9044
:101470004F900895CF92DF92EF92FF920F931F93B8
:10148000CF93DF937C016C0187E0C80ED11CC0E0D4
:10149000D0E0062F10E0B8010C2E02C075956795BC
:1014A0000A94E2F76170F60181916F010E94890E42
:1014B0002196C430D10579F7C701DF91CF911F91F3
:1014C0000F91FF90EF90DF90CF900C949C02CF9201
:1014D000DF92EF92FF920F931F93CF93DF93EC0174
:1014E000F62E642F8C810E94890E8D818F3F19F01A
:1014F00060E00E94890E8F850F2D10E084FF25C0CB
:101500006E0187E0C80ED11CE12CF12CB8010E2C25
:1015100002C0759567950A94E2F76170F6018191B2
:101520006F010E94890EFFEFEF1AFF0A88E0E816AC
:10153000F10461F7CE01DF91CF911F910F91FF90E0
:10154000EF90DF90CF900C949C02B80184E07595E9
:1015500067958A95E1F7CE010E943A0A6F2DCE0178
:10156000DF91CF911F910F91FF90EF90DF90CF907F
:101570000C943A0A41E00E94670A81E090E00895E5
:1015800040E00C94670AFC01443008F043E0838992
:10159000481710F04FEF480FDF01A40FB11D54960C
:1015A0009C91690F6068CF010C94C00A0895CF9395
:1015B000DF93EC010E943E06892B41F469EA71E059
:1015C00089E892E00E942F0461E00CC0CE010E94E5
:1015D0003E06019761F463EB71E089E892E00E94B6
:1015E0002F0460E089E0DF91CF910C94890EDF91A8
:1015F000CF910895089508954F925F926F927F92D0
:101600008F929F92AF92BF92EF92FF920F931F9390
:10161000CF93DF93CDB7DEB761970FB6F894DEBFF7
:101620000FBECDBF8C01DC011496ED90FC90159798
:10163000F701858196810E94960940E06CECD70104
:1016400015968D919C9116970E942709F70140816C
:1016500064E4858196810E942709D70112968C91B6
:101660001297882309F449C01196EC91E950E330B0
:1016700040F4F0E0EE0FFF1FE15FFE4F60817181EB
:1016800002C06EEE72E0F7018381882381F18081D0
:1016900081112DC08FB7F89440907402509075025C
:1016A00060907602709077028FBF4B01770FAA0887
:1016B000BB08D70115968D919C9116970E94D4086E
:1016C0008130D9F02FB7F89480917402909175020F
:1016D000A0917602B09177022FBF88199909AA09C3
:1016E000BB0984159505A605B70518F306C0072E96
:1016F000000C880B990B0E94C20F6EEB71E089E819
:1017000092E00E942F04F8010481158140E0BE019F
:10171000665F7F4FC8010E949808811107C0812C25
:10172000912CFEEFAF2EF2ECBF2E4DC0AE014F5FFD
:101730005F4FBE01665F7F4FC8010E94CC098823BE
:1017400059F16981F8E06F9FB00111248A81282F37
:1017500030E0322F2227330F330F330F262B372B56
:101760008A858031E1F4688570E08F81AB01481B88
:101770005109CA019695982F8827979587950E94B9
:10178000371760517109207F53E0220F331F5A959C
:10179000E1F7620F731F04C060E874EE01C0B90185
:1017A000613854EE75070CF4BACF072E000C880B85
:1017B000990B0E94041620E030E040E05CE30E94B8
:1017C000B9164B015C0122E0B501A40189E892E061
:1017D0000E94450364ED71E089E892E00E94E7020F
:1017E000C501B40161960FB6F894DEBF0FBECDBF40
:1017F000DF91CF911F910F91FF90EF90BF90AF902D
:101800009F908F907F906F905F904F900895089574
:101810000E94ED183FB7F89480918502909186025E
:10182000A0918702B091880226B5A89B05C02F3FE2
:1018300019F00196A11DB11D3FBFBA2FA92F982FF6
:101840008827820F911DA11DB11DBC01CD0142E071
:10185000660F771F881F991F4A95D1F708951F9229
:101860000F920FB60F9211242F933F938F939F9354
:10187000AF93BF938091740290917502A09176020C
:10188000B09177023091840223E0230F2D3720F4AA
:101890000196A11DB11D05C026E8230F0296A11DCA
:1018A000B11D209384028093740290937502A093DB
:1018B0007602B09377028091850290918602A09182
:1018C0008702B09188020196A11DB11D8093850207
:1018D00090938602A0938702B0938802BF91AF9144
:1018E0009F918F913F912F910F900FBE0F901F905E
:1018F0001895833081F028F4813099F08230A1F07E
:1019000008958730A9F08830B9F08430D1F48091FF
:1019100080008F7D03C0809180008F77809380004E
:10192000089584B58F7702C084B58F7D84BD0895F6
:101930008091B0008F7703C08091B0008F7D80933D
:10194000B00008950F931F93CF93DF93CDB7DEB709
:1019500066970FB6F894DEBF0FBECDBF8C019EE038
:10196000E1E4F1E0DE01119601900D929A95E1F724
:10197000CE010F960E940005C8010E940E059E012F
:101980002F5F3F4F290F311D290F311DF90132976C
:101990008081918166960FB6F894DEBF0FBECDBFF1
:1019A000DF91CF911F910F910895CF93DF93909185
:1019B0005A03992349F194EE9093BC009091BC0096
:1019C00097FFFCCF90ED9093BB0094EC9093BC00FC
:1019D0009091BC0097FFFCCF8093BB0084EC809378
:1019E000BC008091BC0087FFFCCF6093BB0084ECFF
:1019F0008093BC008091BC0087FFFCCF84E980937A
:101A0000BC00DF91CF910895C62FD82F60ED81E5FE
:101A100093E00E94D20481E593E00E94A3046D2F1D
:101A200081E593E00E94890481E593E00E94A3048C
:101A30006C2F81E593E00E94890481E593E00E9488
:101A4000A30481E593E0DF91CF910C94B904CF9387
:101A5000DF93CDB7DEB729970FB6F894DEBF0FBE80
:101A6000CDBFAE014F5F5F4FBC018EE393E00E949C
:101A7000CC09882389F08D818F3361F020F48F3178
:101A800059F489E00CC08F3519F08F3739F004C054
:101A90008BE005C08AE003C080E001C08CE029969D
:101AA0000FB6F894DEBF0FBECDBFDF91CF91089582
:101AB000AF92BF92CF92DF92EF92FF920F931F935C
:101AC000CF93DF931F92CDB7DEB75C01D62EE72E02
:101AD000FC018585811105C0C5010E94960981110F
:101AE00006C0F50113861586148680E065C040E0C7
:101AF00060EFC5010E94270901E0F12CC12C11E023
:101B0000C5010E94D408682FC50169830E94D408CA
:101B10006981613019F48130B9F433C04F2D50E040
:101B200068131BC0F5018385181730F4E40FF51F07
:101B30008381802349F402C0181731F060E0193026
:101B400058F4F501148708C0F501EF0DF11D8381EC
:101B5000802B838361E009C0C12EF501E40FF51FDE
:101B60009381802F809589238383C5010E94F80883
:101B70001F5F000F11F4F39401E0F7E0FF1508F088
:101B8000BFCF113408F4ADCFF501C386C11002C038
:101B900081E08587F5018381882309F4A2CFD501EF
:101BA0001396ED2DFE2D9501255F3F4F8D9181936D
:101BB000A217B307D9F781E00F90DF91CF911F9162
:101BC0000F91FF90EF90DF90CF90BF90AF9008956E
:101BD000CF93DF93BC0189E892E00E94E702EC0119
:101BE00064ED71E089E892E00E94E7028C0F9D1F8E
:101BF000DF91CF9108950F931F93CF93DF93CDB7CC
:101C0000DEB728970FB6F894DEBF0FBECDBF8C01AC
:101C1000CE0101960E940005C8010E940E053A837C
:101C20004B832A3010F480E305C0822F6AE00E94C3
:101C30002B17805D809300013AE0822F632F0E9472
:101C40002B17905D909301018AE3809302012A8112
:101C50002A3010F480E305C0822F632F0E942B17D7
:101C6000805D809303013AE0822F632F0E942B173F
:101C7000905D909304018AE3809305012B812A30C3
:101C800010F480E305C0822F632F0E942B17805D24
:101C900080930601822F6AE00E942B17905D90933B
:101CA00007011092080180E091E028960FB6F894A1
:101CB000DEBF0FBECDBFDF91CF911F910F91089571
:101CC000CF93DF93282F30E0F901E458FE4F849141
:101CD000F901E255FE4FD491F901E656FE4FC49149
:101CE000CC2391F081110E94790CEC2FF0E0EE0FE3
:101CF000FF1FE057FE4FA591B491EC91ED2381E0D9
:101D000090E021F480E002C080E090E0DF91CF918C
:101D100008951F93CF93DF93282F30E0F901E45803
:101D2000FE4F8491F901E255FE4FD491F901E65638
:101D3000FE4FC491CC23C9F0162F81110E94790C5B
:101D4000EC2FF0E0EE0FFF1FEE58FE4FA591B4917F
:101D50008FB7F894111105C09C91ED2FE095E92300
:101D600002C0EC91ED2BEC938FBFDF91CF911F91CF
:101D70000895EF92FF920F931F93CF93DF93E82E76
:101D8000F62EC7E0D0E0042F10E098010C2E02C020
:101D9000359527950A94E2F7B901617077278E2D62
:101DA0000E94890E61E08F2D0E94890E60E08F2DC8
:101DB0000E94890E219748F7DF91CF911F910F91D3
:101DC000FF90EF900895CF93DF9390E0FC01E255F0
:101DD000FE4F2491FC01E656FE4F8491882361F169
:101DE00090E0880F991FFC01E859FE4FC591D491EE
:101DF000FC01EE58FE4FA591B491611109C09FB747
:101E0000F8948881209582238883EC912E230BC03F
:101E1000623061F49FB7F8943881822F80958323D4
:101E20008883EC912E2B2C939FBF06C08FB7F8941C
:101E3000E8812E2B28838FBFDF91CF910895EF92F9
:101E4000FF920F931F93CF93DF93EC01623018F052
:101E50008F8588608F876B8B1C8A80E48D8B80E1F7
:101E60008E8B80E58F8B61E08C810E94E30E8D81EB
:101E70008F3F19F061E00E94E30E61E08E810E94C5
:101E8000E30E7E0187E0E80EF11C00E010E08F8594
:101E900084FD03C084E090E002C088E090E0081771
:101EA00019074CF461E0F70181917F010E94E30E74
:101EB0000F5F1F4FECCF8BE39DE00197F1F760E0E0
:101EC0008C810E94890E60E08E810E94890E8D8136
:101ED0008F3F19F060E00E94890E6F8564FD1DC080
:101EE00063E0CE010E943A0A0BE416E4C8010197B0
:101EF000F1F763E0CE010E943A0AC8010197F1F7B9
:101F000063E0CE010E943A0A83E592E00197F1F77F
:101F100062E0CE010E943A0A16C06062CE010E94C1
:101F2000C00A8BE496E40197F1F76F856062CE01F9
:101F30000E94C00A83E592E00197F1F76F85606225
:101F4000CE010E94C00A6F856062CE010E94C00A65
:101F500084E0888B6CE0CE010E94C00A61E0CE0173
:101F60000E94C00A8BE39FE10197F1F782E0898B21
:101F700066E0CE01DF91CF911F910F91FF90EF901E
:101F80000C94C00A8F929F92AF92BF92CF92DF9231
:101F9000EF92FF926B017C010E940A0C4B015C01E5
:101FA000C114D104E104F104F1F00E940A0CDC0137
:101FB000CB0188199909AA09BB09883E9340A1055C
:101FC000B10570F321E0C21AD108E108F10888EEEA
:101FD000880E83E0981EA11CB11CC114D104E10439
:101FE000F10419F7DDCFFF90EF90DF90CF90BF9015
:101FF000AF909F908F900895CF93DF93CDB7DEB7CA
:1020000061970FB6F894DEBF0FBECDBF789484B54C
:10201000826084BD84B5816084BD85B5826085BDE4
:1020200085B5816085BD80916E00816080936E0072
:102030001092810080918100826080938100809164
:102040008100816080938100809180008160809315
:1020500080008091B10084608093B1008091B000D5
:1020600081608093B00080917A00846080937A00D0
:1020700080917A00826080937A0080917A008160FA
:1020800080937A0080917A00806880937A00109221
:10209000C1008EE090E00E94C017FC0185E291E053
:1020A0009183808387ED91E09387828781EE91E031
:1020B000958784878EE393E09583848386E293E01B
:1020C0009783868301E513E01187008781E090E024
:1020D00093838283F0938302E093820288E090E00E
:1020E0000E94C017FC018DE291E09183808386EE0F
:1020F00091E0958384838AEE91E0978386831383AE
:102100000283F0937902E093780282E090E00E94EB
:10211000C01725E331E0FC013183208390937D02D9
:1021200080937C0282E090E00E94C0172DE331E0B2
:10213000FC013183208390937B0280937A0261E0DB
:1021400089E00E94E30E61E08AE00E94E30E61E014
:102150008BE00E94E30E60E087E00E94E30E60E007
:1021600086E00E94E30E62E086E293E00E941F0F89
:1021700080915203823101F5809151038331E1F462
:1021800081E080935A0361E082E10E94890E61E060
:1021900083E10E94890E8091B9008E7F8093B900FF
:1021A0008091B9008D7F8093B9008CE08093B80056
:1021B00085E08093BC0007C010925A0361E08091D3
:1021C00051030E94E30EE0914303F0914403138610
:1021D00015861486DF011B9633961E92AE17BF0735
:1021E000E1F71092420301E0BE016F5F7F4F8091E3
:1021F0004303909144030E94580D882309F453C06F
:1022000067E0CE0101960E948B0898858913ECCF78
:1022100080913E03811127C0809143039091440334
:102220000E949609BE016F5F7F4F8091430390919A
:1022300044030E94690940E064EB8091430390915C
:1022400044030E94270980914303909144030E9414
:10225000D408182F80914303909144030E9496095B
:10226000112309F4B0C210913F038981803109F430
:10227000DAC2CE0101960E94270D811718F48091D1
:102280003F0309C08981803111F48CE004C0CE0184
:1022900001960E94270D80933F03809142038F5F38
:1022A00080934203A1CF8CE080933F03E12CF12C7B
:1022B0000FE54FE7D42E5FE1C52E6FE3B62E809178
:1022C000420390E0E816F9060CF0A6C04E2DBE01C0
:1022D000665F7F4F8EE393E00E94980810913F0362
:1022E000193020F01D3018F01CE001C019E08A857B
:1022F000803129F0CE010A960E94270D01C08CE0A2
:10230000811709F485C0AE014F5F5F4FBE01665F64
:102310007F4F8EE393E00E94CC09882309F478C0B4
:102320008A85803109F474C01B3041F01C3021F0E3
:102330001A3031F4BD8205C0DD8203C00D8301C0B7
:10234000CD8280914303909144030E949609BE017F
:10235000665F7F4F80914303909144030E94690917
:1023600040E06EE480914303909144030E9427096A
:1023700040E06B8180914303909144030E942709C0
:1023800040E06C8180914303909144030E942709AF
:102390008A85803141F040E06D81809143039091C6
:1023A00044030E94270980914303909144030E94B3
:1023B0009609BE01665F7F4F80914303909144036D
:1023C0000E94690940913E0368E480914303909123
:1023D00044030E94270964E170E080E090E00E94DD
:1023E000C20F80913E03882331F06AE070E080E004
:1023F00090E00E94C20F80914303909144030E9499
:10240000960980913F03181708F4182F10933F0383
:10241000FFEFEF1AFF0A53CFE0919902F0919A0271
:1024200082E08083E0919502F09196021082E09123
:102430009702F09198028FEC80831092A102E091B4
:102440009D02F0919E0286E08083E0919B02F091D4
:102450009C02808180618083E0919B02F0919C02CC
:10246000808188608083E0919B02F0919C02808152
:1024700080688083E0919B02F0919C0280818F7D37
:10248000808310927E0210927F021092800210923E
:10249000810260E087E00E94890E60E086E00E9491
:1024A000890E67E186E00E94D50C64E085E00E9419
:1024B000D50C65E284E00E94D50C62E083E00E94C6
:1024C000D50C63E282E00E94D50C67E581E00E94B2
:1024D000D50C60E580E00E94D50C90EAC92E9FE003
:1024E000D92EE12CF12CAA24A394B12C3BE3832E0A
:1024F0003FE1932E009182021091830241E060E05F
:10250000F801868197810E94C30AF8018085918530
:102510000E94A20CBC01F801868197810E942F04C1
:1025200041E068E0F801868197810E94C30AF801C2
:10253000808591850E94FB0DBC01F8018681978101
:102540000E942F046EEE71E089E892E00E942F0451
:10255000F801808591850E94FB0DBC0189E892E01D
:102560000E942F0465ED71E089E892E00E942F043B
:1025700068EC70E080E090E00E94C20F20917E0243
:1025800030917F024091800250918102A8ECB0E02E
:102590000E949B17A70196010E946D17672B682B5D
:1025A000692B09F0B9C067EF71E089E892E00E94F9
:1025B0002F040091820210918302F801828193819D
:1025C000019789F413821282C8010E94FC0A2B0130
:1025D0003C0120E030E040E251E40E94B4161816BD
:1025E0000CF45CC095C089E092E00E94E80DF8010F
:1025F000B382A2828BE192E00E94E80D40E060E0AD
:10260000F801868197810E94C30A61E0F801868102
:1026100097810E94C00AC4010197F1F7F80164850F
:102620007585868197810E942F0440E068E0F8015B
:10263000868197810E94C30AF8014084518461E138
:10264000C2010E941F08782E62E1C2010E941F0889
:10265000382E672D70E080E090E00E9402162B017A
:102660003C01632D70E086E0759567958A95E1F7EA
:10267000072E000C880B990B0E94041620E030E016
:1026800040E85EE30E94B9169B01AC01C301B201B0
:102690000E94F014AB01BC0122E026C020E030E033
:1026A00040E252E4C301B2010E945C1587FF30C0D2
:1026B00083E392E00E94E80D40E060E0F80186814B
:1026C00097810E94C30AF80162857385868197818C
:1026D0000E942F0440E068E0F801868197810E9403
:1026E000C30A22E0B301A201F801868197810E940A
:1026F000450340E06EE0F801868197810E94C30A9D
:1027000061E372E0F801868197810E942F0404C082
:1027100088E492E00E94E80D86E00E94600E019736
:1027200099F463EB71E089E892E00E942F0460E085
:1027300089E00E94890E60E08AE00E94890E60E0D4
:102740008BE00E94890E19C087E00E94600E0197FD
:10275000E9F580917802909179020E94D70A60E0B1
:102760008AE00E94890E60E08BE00E94890E8091D1
:102770007802909179020E94D70A80917E0290910E
:102780007F02A0918002B09181020196A11DB11D2E
:102790008138F8E39F07F1E0AF07B1054CF480936F
:1027A0007E0290937F02A0938002B093810208C0C2
:1027B00010927E0210927F0210928002109281028B
:1027C0000E94F90197CE00933E034DCD8091820285
:1027D000909183020E94FC0A2B013C0120E030E032
:1027E00040E252E40E94B4161816D4F020E030E023
:1027F00040E251E4C301B2010E945C1587FD10C0A4
:1028000020E030E048EC51E4C301B2010E94B4166C
:10281000181614F460E001C061E08BE00E94890E9C
:1028200061E08AE0A2CF1D3008F029CD2ECD1092B4
:102830008C0210928B0288EE93E0A0E0B0E08093CF
:102840008D0290938E02A0938F02B093900283E545
:1028500091E090938A028093890285EC90E09093B6
:1028600096028093950284EC90E090939802809376
:10287000970280EC90E090939A028093990281EC09
:1028800090E090939C0280939B0282EC90E0909366
:102890009E0280939D0286EC90E09093A00280932C
:1028A0009F021092A2021092A3021092A402109210
:1028B000A50282E18093520383E18093510360E09B
:1028C00088E00E94E30EE6EBF1E0E491E0935B0325
:1028D000E2EAF1E0E491F0E0EE0FFF1FE057FE4F77
:1028E0008591949190935D0380935C0310926603AD
:1028F0001092680310926703E6E6F3E0129283E019
:10290000EE35F807D9F78EE792E090935003809365
:102910004F038BE593E0909344038093430310921D
:10292000420310923E0389E080933F0381E080934D
:10293000400380934103109229031092280383E6F9
:1029400091E090932703809326038CE080932A03E1
:102950008FEF80932B038DE080932C0385E0809391
:102960002D0384E080932E0383E080932F0382E085
:10297000809330031092310310923203109233038C
:10298000109234031092350361E086E293E00C94D8
:102990001F0FFC0188279927E89421912032E9F341
:1029A000293010F02E30C8F32B3241F02D3239F49B
:1029B000689404C00E94E714820F911D2191205356
:1029C0002A30C0F31EF4909581959F4F08957AE0C8
:1029D000979F902D879F802D910D11240895505819
:1029E000BB27AA270E9407150C947A160E946C1622
:1029F00038F00E94731620F039F49F3F19F426F442
:102A00000C9469160EF4E095E7FB0C946316E92F1D
:102A10000E948B1658F3BA1762077307840795074D
:102A200020F079F4A6F50C94AD160EF4E0950B2E7B
:102A3000BA2FA02D0B01B90190010C01CA01A00110
:102A40001124FF27591B99F0593F50F4503E68F16B
:102A50001A16F040A22F232F342F4427585FF3CFAC
:102A6000469537952795A795F0405395C9F77EF47D
:102A70001F16BA0B620B730B840BBAF09150A1F0C6
:102A8000FF0FBB1F661F771F881FC2F70EC0BA0F4C
:102A9000621F731F841F48F4879577956795B795D4
:102AA000F7959E3F08F0B0CF9395880F08F09927CF
:102AB000EE0F9795879508950E943F1608F481E0E0
:102AC00008950E9475150C947A160E94731658F09A
:102AD0000E946C1640F029F45F3F29F00C946316B5
:102AE00051110C94AE160C9469160E948B1668F363
:102AF0009923B1F3552391F3951B550BBB27AA27B7
:102B000062177307840738F09F5F5F4F220F331FF0
:102B1000441FAA1FA9F335D00E2E3AF0E0E832D0B8
:102B200091505040E695001CCAF72BD0FE2F29D0BB
:102B3000660F771F881FBB1F261737074807AB078D
:102B4000B0E809F0BB0B802DBF01FF2793585F4F02
:102B50003AF09E3F510578F00C9463160C94AE1633
:102B60005F3FE4F3983ED4F3869577956795B795E4
:102B7000F7959F5FC9F7880F911D9695879597F9EF
:102B80000895E1E0660F771F881FBB1F6217730768
:102B90008407BA0720F0621B730B840BBA0BEE1F7D
:102BA00088F7E09508950E94931688F09F5798F053
:102BB000B92F9927B751B0F0E1F0660F771F881F42
:102BC000991F1AF0BA95C9F714C0B13091F00E945C
:102BD000AD16B1E008950C94AD16672F782F8827B5
:102BE000B85F39F0B93FCCF3869577956795B39583
:102BF000D9F73EF490958095709561957F4F8F4FF2
:102C00009F4F0895E89409C097FB3EF490958095F6
:102C1000709561957F4F8F4F9F4F9923A9F0F92FA2
:102C200096E9BB279395F695879577956795B79520
:102C3000F111F8CFFAF4BB0F11F460FF1BC06F5F06
:102C40007F4F8F4F9F4F16C0882311F096E911C018
:102C5000772321F09EE8872F762F05C0662371F039
:102C600096E8862F70E060E02AF09A95660F771F4D
:102C7000881FDAF7880F9695879597F90895990F29
:102C80000008550FAA0BE0E8FEEF16161706E80736
:102C9000F907C0F012161306E407F50798F0621B57
:102CA000730B840B950B39F40A2661F0232B242B2C
:102CB000252B21F408950A2609F4A140A6958FEF4B
:102CC000811D811D089597F99F6780E870E060E09D
:102CD00008959FEF80EC089500240A9416161706B5
:102CE00018060906089500240A94121613061406FD
:102CF00005060895092E0394000C11F4882352F060
:102D0000BB0F40F4BF2B11F460FF04C06F5F7F4F17
:102D10008F4F9F4F089557FD9058440F551F59F0FE
:102D20005F3F71F04795880F97FB991F61F09F3FB8
:102D300079F087950895121613061406551FF2CFE1
:102D40004695F1DF08C0161617061806991FF1CF31
:102D500086957105610508940895E894BB27662758
:102D60007727CB0197F908950E943F1608F48FEF5B
:102D700008950E94CC160C947A160E946C1638F0B6
:102D80000E94731620F0952311F00C9463160C9496
:102D9000691611240C94AE160E948B1670F3959F41
:102DA000C1F3950F50E0551F629FF001729FBB2742
:102DB000F00DB11D639FAA27F00DB11DAA1F649FDE
:102DC0006627B00DA11D661F829F2227B00DA11D91
:102DD000621F739FB00DA11D621F839FA00D611D17
:102DE000221F749F3327A00D611D231F849F600D38
:102DF000211D822F762F6A2F11249F5750409AF061
:102E0000F1F088234AF0EE0FFF1FBB1F661F771FEC
:102E1000881F91505040A9F79E3F510580F00C94B7
:102E200063160C94AE165F3FE4F3983ED4F3869598
:102E300077956795B795F795E7959F5FC1F7FE2B57
:102E4000880F911D9695879597F908950E943F16D2
:102E5000880B990B0895991B79E004C0991F961768
:102E600008F0961B881F7A95C9F78095089597FBFF
:102E7000072E16F4009407D077FD09D00E94A617FC
:102E800007FC05D03EF4909581959F4F089570956D
:102E900061957F4F0895A1E21A2EAA1BBB1BFD016D
:102EA0000DC0AA1FBB1FEE1FFF1FA217B307E40729
:102EB000F50720F0A21BB30BE40BF50B661F771F81
:102EC000881F991F1A9469F7609570958095909561
:102ED0009B01AC01BD01CF010895052E97FB1EF4A7
:102EE00000940E94841757FD07D00E944B1707FCDF
:102EF00003D04EF40C94841750954095309521954D
:102F00003F4F4F4F5F4F0895909580957095619515
:102F10007F4F8F4F9F4F0895A29FB001B39FC00175
:102F2000A39F700D811D1124911DB29F700D811DF5
:102F30001124911D08950E948C17A59F900DB49F98
:102F4000900DA49F800D911D11240895AA1BBB1BF9
:102F500051E107C0AA1FBB1FA617B70710F0A61B99
:102F6000B70B881F991F5A95A9F780959095BC01BA
:102F7000CD010895EE0FFF1F0590F491E02D099407
:102F8000CF93DF938230910510F482E090E0E091DE
:102F90006B03F0916C0320E030E0C0E0D0E03097AC
:102FA00011F14081518148175907C0F0481759075E
:102FB00061F482819381209719F09B838A832BC0CF
:102FC00090936C0380936B0326C02115310519F093
:102FD0004217530718F49A01BE01DF01EF01028086
:102FE000F381E02DDCCF2115310509F1281B390BC8
:102FF0002430310590F412968D919C9113976115B0
:10300000710521F0FB019383828304C090936C03CC
:1030100080936B03FD01329644C0FD01E20FF31F64
:1030200081939193225031092D933C933AC0209182
:10303000690330916A03232B41F420910B013091F5
:103040000C0130936A0320936903209109013091A8
:103050000A012115310541F42DB73EB740910D010C
:1030600050910E01241B350BE0916903F0916A0326
:10307000E217F307A0F42E1B3F0B2817390778F04F
:10308000AC014E5F5F4F2417350748F04E0F5F1FAE
:1030900050936A03409369038193919302C0E0E0E7
:1030A000F0E0CF01DF91CF9108950F931F93CF935D
:1030B000DF93009709F48CC0FC01329713821282CF
:1030C00000916B0310916C030115110581F42081AF
:1030D0003181820F931F2091690330916A03281771
:1030E000390779F5F0936A03E093690371C0D80159
:1030F00040E050E0AE17BF0750F412962D913C917E
:103100001397AD012115310509F1D901F3CF9D01C7
:10311000DA013383228360817181860F971F8217C2
:10312000930769F4EC0128813981260F371F2E5F40
:103130003F4F318320838A819B8193838283452BF8
:1031400029F4F0936C03E0936B0342C01396FC9355
:10315000EE931297ED01499159919E01240F351F6D
:10316000E217F30771F480819181840F951F029615
:1031700011969C938E938281938113969C938E9348
:103180001297E0E0F0E0D80112968D919C91139790
:10319000009719F0F8018C01F6CF8D919C91980160
:1031A0002E5F3F4F820F931F2091690330916A0376
:1031B0002817390769F4309729F410926C0310929C
:1031C0006B0302C01382128210936A030093690397
:1031D000DF91CF911F910F91089581E090E0F894D5
:0831E0000C94F218F894FFCFE3
:1031E80078787878787878780000006D0380005EC9
:1031F80000BC0077011F1C1F1E1F1E1F1F1E1F1E45
:103208001F00000000070CE50200000000FA0ADFBA
:103218000200000000FB0AE30200000000D60AE1F9
:10322800025F02630267026B026F02E601EA0100B5
:1032380000000090010C01590137014B01D7010032
:10324800000000BA0A0C016E616E00696E66006FBC
:1032580076660032333A35383A35300032333A350B
:10326800383A34300032333A35383A333000323372
:103278003A35383A31300031393A33353A35300059
:1032880030393A33353A3430004C69676874204F26
:103298006E0A004C69676874204F66660A00202031
:1032A80020202054656D706572617475726520699F
:1032B800733A20000D0A005761737365723A202033
:1032C800004C756674005361740053756E00546940
:1032D8006D653A20202000746F67676C652054651F
:1032E8006D706572617475720073776974636820B4
:1032F800746F2041697254656D700054656D706516
:10330800726174757220537461747573206F666688
:1033180000430054656D7065726174757220537452
:1033280061747573206F6E00726561642074656DD9
:103338007065726174757265206572726F72004D86
:103348006F6E0054756500576564005468750046D3
:043358007269000096
:00000001FF
