:100000000C94E2000C940A010C940A010C940A016D
:100010000C940A010C940A010C940A010C940A0134
:100020000C940A010C940A010C940A010C940A0124
:100030000C940A010C940A010C940A010C940A0114
:100040000C948C090C940A010C94DC020C94B602FA
:100050000C940A010C940A010C940A010C940A01F4
:100060000C940A010C940A01005EBCE2613FDD833E
:10007000C29C7E20A3FD1F419DC3217FFCA2401E88
:100080005F01E3BD3E6082DC237D9FC1421CFEA078
:10009000E1BF5D0380DE3C62BEE0025CDF81633D68
:1000A0007C22C09E1D43A1FF4618FAA427799BC558
:1000B00084DA3866E5BB5907DB856739BAE4065848
:1000C0001947A5FB7826C49A653BD987045AB8E638
:1000D000A7F91B45C6987A24F8A6441A99C7257B28
:1000E0003A6486D85B05E7B98CD2306EEDB3510F18
:1000F0004E10F2AC2F7193CD114FADF3702ECC9208
:10010000D38D6F31B2EC0E50AFF1134DCE90722CF7
:100110006D33D18F0C52B0EE326C8ED0530DEFB1E7
:10012000F0AE4C1291CF2D73CA947628ABF51749D7
:100130000856B4EA6937D58B5709EBB536688AD4C7
:1001400095CB2977F4AA4816E9B7550B88D6346AB7
:100150002B7597C94A14F6A8742AC896154BA9F7A7
:10016000B6E80A54D7896B35000000002400270048
:100170002A0000000000250028002B0000000008D5
:10018000000201000003040700000000000000005E
:1001900000000000230026002900040404040404D5
:1001A0000404020202020202030303030303010226
:1001B00004081020408001020408102001020408F5
:1001C0001020F41111241FBECFEFD8E0DEBFCDBF49
:1001D00012E0A0E0B1E0E0E8FCE202C005900D9280
:1001E000A432B107D9F723E0A4E2B2E001C01D9226
:1001F000AD31B207E1F710E0C2EED0E004C02197C4
:10020000FE010E940615C13ED107C9F70E94700D7C
:100210000C943E160C940000FC01918D828D981771
:1002200061F0828DDF01A80FB11D5D968C91928DDA
:100230009F5F9F73928F90E008958FEF9FEF0895D7
:10024000FC01918D828D981731F0828DE80FF11DA0
:10025000858D90E008958FEF9FEF0895FC01918DBB
:10026000228D892F90E0805C9F4F821B91098F73B4
:100270009927089589E392E00E942E0121E0892BBD
:1002800009F420E0822F0895FC01848DDF01A80F7E
:10029000B11DA35ABF4F2C91848D90E001968F73AE
:1002A0009927848FA689B7892C93A089B1898C91CD
:1002B00080648C93938D848D981306C00288F38993
:1002C000E02D80818F7D80830895EF92FF920F93C0
:1002D0001F93CF93DF93EC0181E0888F9B8D8C8DF2
:1002E000981305C0E889F989808185FD24C0F62E20
:1002F0000B8D10E00F5F1F4F0F731127E02E8C8DB9
:10030000E8120CC00FB607FCFACFE889F9898081A2
:1003100085FFF5CFCE010E944401F1CF8B8DFE0108
:10032000E80FF11DE35AFF4FF0820B8FEA89FB893A
:100330008081806207C0EE89FF896083E889F9893E
:1003400080818064808381E090E0DF91CF911F9174
:100350000F91FF90EF900895CF93DF93EC01888D7C
:100360008823C9F0EA89FB89808185FD05C0A889B9
:10037000B9898C9186FD0FC00FB607FCF5CF80813F
:1003800085FFF2CFA889B9898C9185FFEDCFCE0189
:100390000E944401E7CFDF91CF91089580E090E083
:1003A000892B29F00E943A0181110C9400000895D4
:1003B000EF92FF920F931F93CF93DF93CDB7DEB7EA
:1003C00028970FB6F894DEBF0FBECDBF09831A83FE
:1003D0002B835E836F836E817F81832F90E050E05B
:1003E000E42FF0E03197252F30E02E173F0744F43B
:1003F000D901AB5EBE4F2C91820F911D5F5FF3CF91
:10040000433030F09B0123703327232B09F40196EE
:100410004DE651E0649F9001659F300D749F300D53
:100420001124215933426D5C774076956795769516
:100430006795260F371F280F391FA8E1B0E00E94EB
:10044000D81429817B018C01E20EF11C011D111DC4
:10045000A8019701ACE3B0E00E94E7142A817B0178
:100460008C01E20EF11C011D111DA80197010E94D3
:10047000E7142B81DC01CB01820F911DA11DB11D61
:10048000BC01CD0160587C4B8249974C28960FB631
:10049000F894DEBF0FBECDBFDF91CF911F910F91BA
:1004A000FF90EF9008950895CF93DF93EC0160E003
:1004B0008E810E94FD0B61E08E810E94FD0B60E049
:1004C0008E810E94FD0B8BE891E00197F1F7DF919F
:1004D000CF910895CF93DF93EC0160E089810E9472
:1004E000570C61E088810E94FD0B89810E94D40B2A
:1004F0000197D9F360E08881DF91CF910C94FD0BD7
:100500000F931F93CF93DF931F92CDB7DEB78C016C
:10051000462F61E0FC01818149830E94570C61E014
:10052000F80181810E94FD0B61E0F80180810E9449
:10053000FD0B60E0F80181810E94FD0B60E0F80195
:1005400080810E94FD0B4981F801608181810F90BB
:10055000DF91CF911F910F910C942D0C0C94A1154C
:100560000C94A1150C94A1150C94A1151F920F9237
:100570000FB60F9211242F933F934F935F936F9376
:100580007F938F939F93AF93BF93EF93FF9389E3F1
:1005900092E00E944401FF91EF91BF91AF919F9132
:1005A0008F917F916F915F914F913F912F910F901C
:1005B0000FBE0F901F9018951F920F920FB60F92BB
:1005C00011242F938F939F93EF93FF93E091490210
:1005D000F0914A028081E0914F02F091500282FD39
:1005E00012C09081809152028F5F8F7320915302CD
:1005F000821751F0E0915202F0E0E75CFD4F958FD9
:100600008093520201C08081FF91EF919F918F9161
:100610002F910F900FBE0F901F901895FC018EED3B
:1006200097E09683858381E084838383108211829F
:10063000128283E0878308959F92AF92BF92CF92F8
:10064000DF92EF92FF920F931F93CF93DF93CDB77B
:10065000DEB760970FB6F894DEBF0FBECDBF8C013A
:10066000CE0101960E940E03F8018185882309F4CA
:1006700047C084EE8093BC008091BC0087FFFCCF14
:1006800080ED8093BB0084EC8093BC008091BC0023
:1006900087FFFCCF1092BB0084EC8093BC0080915C
:1006A000BC0087FFFCCF84EE8093BC008091BC002F
:1006B00087FFFCCF81ED8093BB0084EC8093BC006E
:1006C0008091BC0087FFFCCFF8013296C8010996E3
:1006D00034EC3093BC002091BC0027FFFCCF20916C
:1006E000BB002193E817F907A1F784E88093BC00C9
:1006F0008091BC0087FFFCCF84E98093BC0093C04D
:1007000060EDC8010E948002C8010E946A0261E097
:10071000F80181810E94570C40E0F80160818181DD
:100720000E942D0CC8010E946A0261EDC8010E945E
:100730008002C8010E946A025801F2E0AF0EB11CAB
:10074000E12CF12C60E0F80181810E94570C87E0D8
:10075000C82ED12C912C61E0F80180810E94FD0B04
:10076000F80181810E94D40B99270C2C01C0880FBD
:100770000A94EAF7982A60E0F80180810E94FD0B54
:10078000F1E0CF1AD10838F7F50191925F0161E0ED
:10079000F8018181F6E0EF16F10449F00E94570C50
:1007A00060E0F80180810E94FD0B60E008C00E94BB
:1007B000570C60E0F80180810E94FD0B61E0F801B8
:1007C00081810E94FD0B61E0F80180810E94FD0B98
:1007D00060E0F80180810E94FD0B60E0F8018181FA
:1007E0000E94570CFFEFEF1AFF0A27E0E216F10410
:1007F00009F0A8CF61E0F80181810E94570C60E008
:10080000F80181810E94FD0B61E0F80180810E9466
:10081000FD0B61E0F80181810E94FD0B60E0F801B1
:1008200081810E94570CF8018281982F96959695A8
:1008300096959E70292F220F220F920F8F70890F8D
:100840008B838381982F9695969596959E70292FE8
:10085000220F220F920F8F70890F8A838481282F95
:100860002F7087FF09C085FB992790F9822FFCE044
:100870009F9F800D112409C080738695869586956B
:10088000982F990F990F890F820F8983F80185811D
:1008900088878681982F9695969596959E70292F94
:1008A000220F220F920F8F70890F8C838781982FD0
:1008B0009695969596959E70292F220F220F920F4E
:1008C0008F70890F8D838085982F92959F708F7080
:1008D000FAE09F9F800D112490E08053984F9F83F2
:1008E0008E8388E0FE013196DE01199601900D920B
:1008F0008A95E1F729853A854B855C856D857E85EE
:100900008F85988960960FB6F894DEBF0FBECDBF75
:10091000DF91CF911F910F91FF90EF90DF90CF90DB
:10092000BF90AF909F900895DC01E0E0615038F0F7
:100930008D91E827F0E0E859FF4FE491F7CF8E2F33
:100940000895EF92FF920F931F93CF93DF937C0153
:100950008B01D42FDC011596ED91FC91169713862F
:1009600015861486DF011B9633961E92AE17BF07BD
:10097000E1F7C0E0B801D70115968D919C911697CB
:100980000E94A10A811102C080E010C0CD130AC0EC
:1009900067E0C8010E949404F8019781891302C09E
:1009A00081E004C0CF5FDC1778F3E4CFDF91CF9113
:1009B0001F910F91FF90EF900895FC0190810180AD
:1009C000F281E02DF8948181892B81832281892F06
:1009D000809528232283A7E0B0E01197F1F72181C9
:1009E00082238183A3E2B0E01197F1F780817894AC
:1009F000EFECF0E03197F1F7982381E009F480E023
:100A00000895FC0190810180F281E02D892F80956D
:100A100060FF12C0F8942281822382838181892B16
:100A20008183A3E2B0E01197F1F78281982B928342
:100A3000789487ED90E011C0F8942281822382831C
:100A40008181892B8183AFEFB0E01197F1F782812B
:100A5000982B928378948FE090E00197F1F70895B6
:100A6000CF92DF92EF92FF920F931F93CF93DF937A
:100A70001F92CDB7DEB76C01E62E08E010E0FF2430
:100A8000F39461E08F2D8E2109F460E0C601498363
:100A90000E940105FF0C0150110949810115110542
:100AA00081F7411115C0F894D6011196ED91FC9192
:100AB000129791818C918095892381831196ED9174
:100AC000FC91129792818C918095892382837894EE
:100AD0000F90DF91CF911F910F91FF90EF90DF90DA
:100AE000CF900895CF92DF92EF92FF920F931F93D2
:100AF000CF93DF931F92CDB7DEB78C01F62E40E087
:100B000065E579830E943005CF2C7981D72E760157
:100B100088E0E80EF11CF60161916F0140E0C80128
:100B20000E943005CE14DF04B1F70F90DF91CF9112
:100B30001F910F91FF90EF90DF90CF900895FC01EF
:100B400090810180F281E02DF8948181292F2095F8
:100B50008223818378948DE743E050E0815021F136
:100B6000DA011197F1F730813923C1F3F8948281CA
:100B7000822382838181892B81837894ABE7B7E0DC
:100B80001197F1F7F894818128232183A3E1B1E043
:100B90001197F1F78081982381E009F080E0789443
:100BA000E3E6F6E03197F1F708958F929F92AF92C6
:100BB000BF92CF92DF92EF92FF92CF93DF93EC013F
:100BC0008D819E810E949F0540E06CEC8D819E810D
:100BD0000E943005488164E48D819E810E94300529
:100BE0008A81882309F44EC0E981E950E33040F45A
:100BF000F0E0EE0FFF1FE15FFE4F6081718102C0E8
:100C00006EEE72E08B81882369F1888181112AC0A0
:100C10008FB7F8948090240290902502A09026022D
:100C2000B09027028FBF6B01770FEE08FF088D8110
:100C30009E810E94DD04813029F12FB7F8948091C4
:100C4000240290912502A0912602B09127022FBF85
:100C50008C199D09AE09BF0988159905AA05BB0520
:100C600030F310C0072E000C880B990BDF91CF9149
:100C7000FF90EF90DF90CF90BF90AF909F908F90BC
:100C80000C94360DDF91CF91FF90EF90DF90CF90D5
:100C9000BF90AF909F908F9008954F925F926F9208
:100CA0007F928F929F92AF92BF92CF92DF92EF92FC
:100CB000FF920F931F93CF93DF9300D0CDB7DEB792
:100CC0002C018A01FC018581968169837A830E94C7
:100CD0009F0569817A818823C9F1F2018581968116
:100CE0000E94720540E06EEBF201858196810E94C0
:100CF000300578014801F9E08F0E911CF201658002
:100D0000768088E0A82EB12CCC24C394D12CC301CA
:100D10000E94DD048111DC28CC0CF1E0AF1AB1088F
:100D2000B1F7F701D1927F01E815F90539F7F20122
:100D3000858196810E949F05813041F468E0C80159
:100D40000E94940491E0F8012085821390E0892F9D
:100D50000F900F90DF91CF911F910F91FF90EF9027
:100D6000DF90CF90BF90AF909F908F907F906F90CB
:100D70005F904F900895CF92DF92EF92FF920F9382
:100D80001F93CF93DF937C016C0187E0C80ED11CC9
:100D9000C0E0D0E0062F10E0B8010C2E02C075951F
:100DA00067950A94E2F76170F60181916F010E94E4
:100DB000FD0B2196C430D10579F7C701DF91CF91A2
:100DC0001F910F91FF90EF90DF90CF900C94540201
:100DD000CF92DF92EF92FF920F931F93CF93DF9307
:100DE000EC01F62E642F8C810E94FD0B8D818F3FCC
:100DF00019F060E00E94FD0B8F850F2D10E084FF3D
:100E000025C06E0187E0C80ED11CE12CF12CB80181
:100E10000E2C02C0759567950A94E2F76170F60191
:100E200081916F010E94FD0BFFEFEF1AFF0A88E02E
:100E3000E816F10461F7CE01DF91CF911F910F9178
:100E4000FF90EF90DF90CF900C945402B80184E0B3
:100E5000759567958A95E1F7CE010E94BB066F2DC7
:100E6000CE01DF91CF911F910F91FF90EF90DF9016
:100E7000CF900C94BB0641E00E94E80681E090E030
:100E8000089540E00C94E806FC01443008F043E08B
:100E90008389481710F04FEF480FDF01A40FB11DF1
:100EA00054969C91690F6068CF010C944107089596
:100EB0002F923F924F925F926F927F928F929F926A
:100EC000AF92BF92CF92DF92EF92FF920F931F9358
:100ED000CF93DF93CDB7DEB7CF5AD1090FB6F894D1
:100EE000DEBF0FBECDBF1C01FC01828193810E9439
:100EF000310BF101248135818217930761F026813E
:100F000037818217930739F097E6A92E91E0B92E21
:100F100000E711E006C089E7A82E81E0B82E02E8BC
:100F200011E0CE0149960E940E03F1018281938166
:100F30000E941C035C8FF101828193810E941C033B
:100F4000C256DF4F7883CE59D040C156DF4F8883D9
:100F5000CF59D040C256DF4F88819981CE59D040B9
:100F60009F8F8E8FF101828193810E941C036D8F70
:100F7000F101828193810E941C03792F98A3C801FB
:100F8000C155DF4F7883CF5AD0400E94A612E82E79
:100F9000898FC80103960E94A612F82E8A8FC80175
:100FA00006960E94A612282F8B8F87013C8D4D8DAF
:100FB0005E8D6F8DC155DF4F7881CF5AD040F101E2
:100FC000828193810E94D801C555DF4F6883798360
:100FD0008A839B83CB5AD040CE0141960E940E0358
:100FE000F101828193810E941C035C8BF10182815B
:100FF00093810E941C03EF967FAFEF97C158DF4F9C
:101000008883CF57D040C258DF4F88819981CE570F
:10101000D0409F8B8E8BF101828193810E941C03B3
:101020006D8BF101828193810E941C03792F988F2F
:101030008BE891E0C155DF4F7883CF5AD0400E94B2
:10104000A612082F898B8EE891E00E94A612182F15
:101050008A8B81E991E00E94A612282F8B8B3C8914
:101060004D895E896F89C155DF4F7881CF5AD04055
:10107000F101828193810E94D8016B017C01CE0134
:1010800009960E940E03F101828193810E941C0344
:101090005C87F101828193810E941C036F967FAF70
:1010A0006F97A0968FAFA097A0968EAD9FADA0979B
:1010B0009F878E87F101828193810E941C036D8737
:1010C000F101828193810E941C03792F988BC501C5
:1010D000C155DF4F7883CF5AD0400E94A612082F07
:1010E0008987C50103960E94A612182F8A87C50119
:1010F00006960E94A612282F8B873C854D855E851B
:101100006F85C155DF4F7881CF5AD040F101828180
:1011100093810E94D8014B015C01CE0101960E948F
:101120000E03F101828193810E941C035C83F10113
:10113000828193810E941C037EAF8FAF8EAD9FADE5
:101140009F838E83F101828193810E941C036D83B2
:10115000F101828193810E941C03792F988784E991
:1011600091E0C155DF4F7883CF5AD0400E94A6123C
:10117000082F898387E991E00E94A612182F8A839D
:101180008AE991E00E94A612282F8B83F101028048
:10119000F381E02DC755DF4FF983E883C95AD0406A
:1011A0003C814D815E816F81C155DF4F7881CF5A7F
:1011B000D040CF010E94D8012B013C01C755DF4F21
:1011C00088819981C95AD0400E941C0389019A01E3
:1011D000AB01BC01F101828193810E94D8014616C6
:1011E000570668067906FCF086169706A806B90623
:1011F000C4F0C616D706E806F906ACF031E020E0E8
:10120000C555DF4FE880F9800A811B81CB5AD04059
:10121000E616F706080719070CF430E0832F922F23
:1012200004C080E001C081E090E0C155DF4F0FB6FF
:10123000F894DEBF0FBECDBFDF91CF911F910F910C
:10124000FF90EF90DF90CF90BF90AF909F908F90E6
:101250007F906F905F904F903F902F9008950895EA
:101260008DE991E00E945D0A60E08BE00C94FD0B3B
:1012700008950895CF92DF92EF92FF920F931F93FC
:10128000CF93DF936C017A018B01C0E0D0E0CE15E3
:10129000DF0589F0D8016D918D01D601ED91FC91AA
:1012A0000190F081E02DC6010995892B11F47E0192
:1012B00002C02196ECCFC701DF91CF911F910F9112
:1012C000FF90EF90DF90CF9008950E9439163FB7BE
:1012D000F8948091350290913602A0913702B09136
:1012E000380226B5A89B05C02F3F19F00196A11D15
:1012F000B11D3FBFBA2FA92F982F8827820F911DAC
:10130000A11DB11DBC01CD0142E0660F771F881FF2
:10131000991F4A95D1F708951F920F920FB60F9219
:1013200011242F933F938F939F93AF93BF938091FB
:10133000240290912502A0912602B09127023091BB
:10134000340223E0230F2D3720F40196A11DB11D97
:1013500005C026E8230F0296A11DB11D209334027B
:101360008093240290932502A0932602B093270233
:101370008091350290913602A0913702B0913802E7
:101380000196A11DB11D8093350290933602A09362
:101390003702B0933802BF91AF919F918F913F91E7
:1013A0002F910F900FBE0F901F901895611571052A
:1013B00079F0FB0101900020E9F73197AF01461B5E
:1013C000570BDC01ED91FC910280F381E02D099433
:1013D00080E090E008954F925F926F927F92EF923B
:1013E000FF920F931F93CF93DF93CDB7DEB7A197F3
:1013F0000FB6F894DEBF0FBECDBF7C01FA01CB0162
:1014000019A2223008F42AE08E010F5D1F4F422EF0
:10141000512C612C712CBF01A30192010E94B614C2
:10142000F901CA01015011096A3014F4605D01C06C
:10143000695CD8016C93232B242B252B61F7B80111
:10144000C7010E94D609A1960FB6F894DEBF0FBE61
:10145000CDBFDF91CF911F910F91FF90EF907F90C3
:101460006F905F904F900895833081F028F4813021
:1014700099F08230A1F008958730A9F08830B9F052
:101480008430D1F4809180008F7D03C080918000F2
:101490008F7780938000089584B58F7702C084B5DC
:1014A0008F7D84BD08958091B0008F7703C08091B7
:1014B000B0008F7D8093B0000895CF93DF93BC017F
:1014C00089E392E00E94D609EC016DE072E089E3C5
:1014D00092E00E94D6098C0F9D1FDF91CF91089555
:1014E000CF93DF93CDB7DEB729970FB6F894DEBF61
:1014F0000FBECDBFAE014F5F5F4FBC018EEE92E0DD
:101500000E944D06882389F08D818F3361F020F48D
:101510008F3159F489E00CC08F3519F08F3739F0CD
:1015200004C08BE005C08AE003C080E001C08CE00D
:1015300029960FB6F894DEBF0FBECDBFDF91CF91D5
:101540000895AF92BF92CF92DF92EF92FF920F93E6
:101550001F93CF93DF931F92CDB7DEB75C01D62EDA
:10156000E72EFC018585811105C0C5010E949F05FC
:10157000811106C0F50113861586148680E065C0CA
:1015800040E060EFC5010E94300501E0F12CC12C64
:1015900011E0C5010E94DD04682FC50169830E9426
:1015A000DD046981613019F48130B9F433C04F2D05
:1015B00050E068131BC0F5018385181730F4E40F61
:1015C000F51F8381802349F402C0181731F060E0D1
:1015D000193058F4F501148708C0F501EF0DF11D1D
:1015E0008381802B838361E009C0C12EF501E40F64
:1015F000F51F9381802F809589238383C5010E94E5
:1016000001051F5F000F11F4F39401E0F7E0FF15EF
:1016100008F0BFCF113408F4ADCFF501C386C11077
:1016200002C081E08587F5018381882309F4A2CF78
:10163000D5011396ED2DFE2D9501255F3F4F8D9120
:101640008193A217B307D9F781E00F90DF91CF9173
:101650001F910F91FF90EF90DF90CF90BF90AF90D0
:1016600008950F931F93CF93DF93CDB7DEB766979F
:101670000FB6F894DEBF0FBECDBF8C019EE0E1E453
:10168000F1E0DE01119601900D929A95E1F7CE01FD
:101690000F960E940E03C8010E941C039E012F5F3B
:1016A0003F4F290F311D290F311DF90132978081DC
:1016B000918166960FB6F894DEBF0FBECDBFDF9165
:1016C000CF911F910F9108950F931F93CF93DF93A5
:1016D000CDB7DEB761970FB6F894DEBF0FBECDBFB2
:1016E0008C0140E0BE01665F7F4F0E94A104811122
:1016F00005C060E070E08EEF92EC4BC0AE014F5F32
:101700005F4FBE01665F7F4FC8010E944D06882370
:1017100059F1698148E0649FB00111248A81282F22
:1017200030E0322F2227330F330F330F262B372B86
:101730008A858031E1F4688570E08F81AB01481BB8
:101740005109CA019695982F8827979587950E94E9
:10175000A21460517109207F53E0220F331F5A9564
:10176000E1F7620F731F04C060E874EE01C0B901B5
:10177000613854EE75070CF4BCCF072E000C880BB3
:10178000990B0E946F1320E030E040E05CE30E9480
:10179000241461960FB6F894DEBF0FBECDBFDF9163
:1017A000CF911F910F910895CF93DF93282F30E0B1
:1017B000F901E458FE4F8491F901E255FE4FD491AE
:1017C000F901E656FE4FC491CC2391F081110E949D
:1017D000340AEC2FF0E0EE0FFF1FE057FE4FA5910B
:1017E000B491EC91ED2381E090E021F480E002C01F
:1017F00080E090E0DF91CF9108951F93CF93DF9326
:10180000282F30E0F901E458FE4F8491F901E255A8
:10181000FE4FD491F901E656FE4FC491CC23C9F096
:10182000162F81110E94340AEC2FF0E0EE0FFF1FFB
:10183000EE58FE4FA591B4918FB7F894111105C0E1
:101840009C91ED2FE095E92302C0EC91ED2BEC93F8
:101850008FBFDF91CF911F910895EF92FF920F9369
:101860001F93CF93DF93E82EF62EC7E0D0E0042F2E
:1018700010E098010C2E02C0359527950A94E2F7E6
:10188000B901617077278E2D0E94FD0B61E08F2DCD
:101890000E94FD0B60E08F2D0E94FD0B219748F701
:1018A000DF91CF911F910F91FF90EF900895CF930B
:1018B000DF9390E0FC01E255FE4F2491FC01E656D7
:1018C000FE4F8491882361F190E0880F991FFC01FD
:1018D000E859FE4FC591D491FC01EE58FE4FA591F9
:1018E000B491611109C09FB7F89488812095822333
:1018F0008883EC912E230BC0623061F49FB7F8947B
:101900003881822F809583238883EC912E2B2C9312
:101910009FBF06C08FB7F894E8812E2B28838FBF16
:10192000DF91CF910895EF92FF920F931F93CF9382
:10193000DF93EC01623018F08F8588608F876B8BA6
:101940001C8A80E48D8B80E18E8B80E58F8B61E03B
:101950008C810E94570C8D818F3F19F061E00E94AD
:10196000570C61E08E810E94570C7E0187E0E80EE3
:10197000F11C00E010E08F8584FD03C084E090E05E
:1019800002C088E090E0081719074CF461E0F70105
:1019900081917F010E94570C0F5F1F4FECCF8BE3AB
:1019A0009DE00197F1F760E08C810E94FD0B60E003
:1019B0008E810E94FD0B8D818F3F19F060E00E94A7
:1019C000FD0B6F8564FD1DC063E0CE010E94BB0668
:1019D0000BE416E4C8010197F1F763E0CE010E9421
:1019E000BB06C8010197F1F763E0CE010E94BB0678
:1019F00083E592E00197F1F762E0CE010E94BB0619
:101A000016C06062CE010E9441078BE496E4019704
:101A1000F1F76F856062CE010E94410783E592E095
:101A20000197F1F76F856062CE010E9441076F85D3
:101A30006062CE010E94410784E0888B6CE0CE0199
:101A40000E94410761E0CE010E9441078BE39FE1C4
:101A50000197F1F782E0898B66E0CE01DF91CF91AB
:101A60001F910F91FF90EF900C9441078F929F92DE
:101A7000AF92BF92CF92DF92EF92FF926B017C0107
:101A80000E9467094B015C01C114D104E104F10417
:101A9000F1F00E946709DC01CB0188199909AA09B4
:101AA000BB09883E9340A105B10570F321E0C21A3D
:101AB000D108E108F10888EE880E83E0981EA11C89
:101AC000B11CC114D104E104F10419F7DDCFFF907A
:101AD000EF90DF90CF90BF90AF909F908F90089540
:101AE000CF93DF93CDB7DEB761970FB6F894DEBF23
:101AF0000FBECDBF789484B5826084BD84B581600B
:101B000084BD85B5826085BD85B5816085BD8091C8
:101B10006E00816080936E00109281008091810040
:101B20008260809381008091810081608093810038
:101B3000809180008160809380008091B1008460FA
:101B40008093B1008091B00081608093B00080915B
:101B50007A00846080937A0080917A00826080931A
:101B60007A0080917A00816080937A0080917A0077
:101B7000806880937A001092C1008EE090E00E940D
:101B80000C15FC0185E291E09183808388EA91E065
:101B90009387828782EB91E0958784878EEE92E02F
:101BA0009583848386ED92E09783868301E013E03A
:101BB0001187008781E090E093838283F093330262
:101BC000E093320288E090E00E940C15FC018DE267
:101BD00091E09183808387EB91E0958384838BEB05
:101BE00091E09783868313830283F0932F02E0931F
:101BF0002E0282E090E00E940C1525E331E0DC012A
:101C00002D933C93909331028093300282E090E0D8
:101C10000E940C152DE331E0FC0131832083909369
:101C20002D0280932C0261E089E00E94570C61E054
:101C30008AE00E94570C61E08BE00E94570C60E044
:101C400087E00E94570C60E086E00E94570C60E03D
:101C500088E00E94570C62E086ED92E00E94930CAF
:101C600080910203823101F5809101038331E1F417
:101C700081E080930A0361E082E10E94FD0B61E054
:101C800083E10E94FD0B8091B9008E7F8093B900A3
:101C90008091B9008D7F8093B9008CE08093B8006B
:101CA00085E08093BC0007C010920A0361E0809138
:101CB00001030E94570CE091F302F091F4021386A5
:101CC00015861486DF011B9633961E92AE17BF074A
:101CD000E1F71092F20201E0BE016F5F7F4F809149
:101CE000F3029091F4020E94A10A882309F453C0E0
:101CF00067E0CE0101960E94940498858913ECCF89
:101D00008091EE02811127C08091F3029091F4023C
:101D10000E949F05BE016F5F7F4F8091F3029091FB
:101D2000F4020E94720540E064EB8091F30290910E
:101D3000F4020E9430058091F3029091F4020E9417
:101D4000DD04182F8091F3029091F4020E949F0508
:101D5000112309F42CC31091EF028981803109F419
:101D60003FC3CE0101960E94700A811718F480913A
:101D7000EF0209C08981803111F48CE004C0CE01EA
:101D800001960E94700A8093EF028091F2028F5FA9
:101D90008093F202A1CF8CE08093EF02E12CF12C32
:101DA0000FE53FE7D32E4FE1C42E5FE3B52E8091C0
:101DB000F20290E0E816F9060CF0A6C04E2DBE0126
:101DC000665F7F4F8EEE92E00E94A1041091EF02B9
:101DD000193020F01D3018F01CE001C019E08A8590
:101DE000803129F0CE010A960E94700A01C08CE071
:101DF000811709F485C0AE014F5F5F4FBE01665F7A
:101E00007F4F8EEE92E00E944D06882309F478C041
:101E10008A85803109F474C01B3041F01C3021F0F8
:101E20001A3031F4BD8205C0DD8203C00D8301C0CC
:101E3000CD828091F3029091F4020E949F05BE0131
:101E4000665F7F4F8091F3029091F4020E947205C9
:101E500040E06EE48091F3029091F4020E9430051C
:101E600040E06B818091F3029091F4020E94300572
:101E700040E06C818091F3029091F4020E94300561
:101E80008A85803141F040E06D818091F30290912C
:101E9000F4020E9430058091F3029091F4020E94B6
:101EA0009F05BE01665F7F4F8091F3029091F4021F
:101EB0000E9472054091EE0268E48091F3029091D5
:101EC000F4020E94300564E170E080E090E00E943E
:101ED000360D8091EE02882331F06AE070E080E0F8
:101EE00090E00E94360D8091F3029091F4020E94DE
:101EF0009F058091EF02181708F4182F1093EF0236
:101F0000FFEFEF1AFF0A53CFE0914902F0914A0226
:101F100082E08083E0914502F09146021082E091D8
:101F20004702F09148028FEC808310925102E091B9
:101F30004D02F0914E0286E08083E0914B02F091D9
:101F40004C02808180618083E0914B02F0914C02D1
:101F5000808188608083E0914B02F0914C02808107
:101F600080688083E0914B02F0914C0280818F7DEC
:101F70008083109228021092290210922A02109255
:101F80002B028AE0982E90E3892E2AE3722E00918C
:101F900032021091330241E060E0D80116968D9133
:101FA0009C9117970E944407F801808591850E94B3
:101FB000310BBC01D80116968D919C9117970E9408
:101FC000D60941E068E0F801868197810E944407C4
:101FD000D8011896ED90FC901997CE0101960E94B9
:101FE0000E03C7010E941C0329833A834B835C8341
:101FF0006D837E838F8398872A3018F48092000146
:1020000007C0822F692D0E949614805D8093000185
:10201000822F692D0E949614905D90930101709219
:1020200002012A812A3018F48092030107C0822F0E
:10203000692D0E949614805D80930301822F692D83
:102040000E949614905D90930401709205012B817B
:102050002A3018F48092060107C0822F692D0E9451
:102060009614805D80930601822F692D0E9496143C
:10207000905D909307011092080160E071E0F80113
:10208000868197810E94D60968EC70E080E090E03C
:102090000E94360DA0903202B0903302D501149602
:1020A0008D919C9115970E94D505F50184819581AC
:1020B0000E94640B6B017C0120E030E040E251E4BF
:1020C0000E941F1418160CF0E1C020E030E040E23E
:1020D00052E4C701B6010E94391387FFD7C040E020
:1020E00060E0D50116968D919C9117970E94440748
:1020F000F50162857385868197810E94D60940E04B
:1021000068E0D50116968D919C9117970E9444071F
:10211000F50106811781A7019601C701B6010E944A
:102120009114882319F06FEB71E01AC01601270192
:10213000E89457F82FEF3FEF4FE75FE7C201B10197
:102140000E949114811110C02FEF3FEF4FE75FE71E
:10215000C201B1010E943913181634F463EC71E026
:10216000C8010E94D60982C02FEF3FEF4FE75FE41E
:10217000C701B6010E941F14181654F02FEF3FEF4D
:102180004FE75FECC701B6010E94391387FF03C018
:1021900067EC71E0E5CF20E030E0A901C701B601AE
:1021A0000E94391387FF0DC0D801ED91FC91019079
:1021B000F081E02D6DE2C8010995F7FAF094F7F887
:1021C000F0942AE037ED43EA5BE3C701B6010E94D1
:1021D000CD121B012C010E943E136B017C010E9459
:1021E0006D139B01AC01C201B1010E94CC121B0115
:1021F0002C012AE0B701A601C8010E94EB09D80111
:10220000ED91FC910190F081E02D6EE2C8010995FD
:1022100020E030E040E251E4C201B1010E94241408
:102220001B012C010E943E136B01E12CF12C2AE0D2
:10223000B701A601C8010E94EB09C701B6010E94BF
:102240006D139B01AC01C201B1010E94CC1220E0D0
:1022500030E040E251E40E9424140E943E13AB019E
:1022600060E070E02AE0C8010E94EB0940E06EE007
:10227000F501868197810E9444076BEC71E0D501DE
:1022800016968D919C9117970E94D60986E00E9420
:10229000D40B019741F46DEC71E089E392E00E9468
:1022A000D60960E010C087E00E94D40B0197E9F4E2
:1022B00081EE91E00E945D0A61EF71E089E392E0B6
:1022C0000E94D60961E089E00E94FD0B60E08AE08F
:1022D0000E94FD0B88ED91E00E945D0A8091300222
:1022E000909131020E9430093CC00091320210915D
:1022F0003302D80114968D919C9115970E94D505B3
:10230000F801848195810E94640B00913002109144
:10231000310220E030E040ED51E40E941F14181615
:102320000CF048C0C8010E94300900912E021091A3
:102330002F02C8010E945807892B09F044C061EFA1
:1023400071E089E392E00E94D60961E089E00E9491
:10235000FD0B61E08AE00E94FD0B85E092E00E94A7
:102360005D0A8091280290912902A0912A02B091E1
:102370002B020196A11DB11D8138E8E39E07E1E023
:10238000AE07B1054CF48093280290932902A093E4
:102390002A02B0932B0208C0109228021092290240
:1023A00010922A0210922B020E94CE01F0CD0093CF
:1023B000EE02D1CC8BEF91E00E945D0A61E08BE0F0
:1023C0000E94FD0BB2CFC8010E945807019709F681
:1023D0006DEC71E089E392E00E94D60960E0B6CF2F
:1023E0001D3008F0C4CCC9CC10923C0210923B02C4
:1023F00088EE93E0A0E0B0E080933D0290933E022F
:10240000A0933F02B093400283E591E090933A029B
:102410008093390285EC90E09093460280934502C8
:1024200084EC90E0909348028093470280EC90E027
:1024300090934A028093490281EC90E090934C0281
:1024400080934B0282EC90E090934E0280934D0279
:1024500086EC90E09093500280934F0210925202CB
:1024600010925302109254021092550282E180930E
:10247000020383E18093010360E088E00E94570C2F
:10248000E6EBF1E0E491E0930B03E2EAF1E0E491A2
:10249000F0E0EE0FFF1FE057FE4F8591949190936F
:1024A0000D0380930C0310921603109218031092E0
:1024B0001703E6E1F3E0129283E0EE30F807D9F774
:1024C00083E592E0909300038093FF028BE093E01A
:1024D0009093F4028093F3021092F2021092EE02B3
:1024E00089E08093EF0281E08093F0028093F10213
:1024F0001092D9021092D80283E691E09093D7020D
:102500008093D6028CE08093DA028FEF8093DB0217
:102510008DE08093DC0285E08093DD0284E080938F
:10252000DE0283E08093DF0282E08093E00210927B
:10253000E1021092E2021092E3021092E402109281
:10254000E50261E086ED92E00C94930CFC01882793
:102550009927E89421912032E9F3293010F02E30A8
:10256000C8F32B3241F02D3239F4689404C00E9434
:10257000C412820F911D219120532A30C0F31EF402
:10258000909581959F4F08957AE0979F902D879F12
:10259000802D910D112408955058BB27AA270E9421
:1025A000E4120C94E5130E94D71338F00E94DE1356
:1025B00020F039F49F3F19F426F40C94D4130EF450
:1025C000E095E7FB0C94CE13E92F0E94F61358F325
:1025D000BA17620773078407950720F079F4A6F508
:1025E0000C9418140EF4E0950B2EBA2FA02D0B01AD
:1025F000B90190010C01CA01A0011124FF27591B48
:1026000099F0593F50F4503E68F11A16F040A22F4D
:10261000232F342F4427585FF3CF469537952795BE
:10262000A795F0405395C9F77EF41F16BA0B620BBD
:10263000730B840BBAF09150A1F0FF0FBB1F661F04
:10264000771F881FC2F70EC0BA0F621F731F841F47
:1026500048F4879577956795B795F7959E3F08F06D
:10266000B0CF9395880F08F09927EE0F979587952F
:1026700008950E94AA1308F481E008950E94FE13B1
:1026800088F09F5798F0B92F9927B751B0F0E1F033
:10269000660F771F881F991F1AF0BA95C9F714C0E3
:1026A000B13091F00E941814B1E008950C94181400
:1026B000672F782F8827B85F39F0B93FCCF386951C
:1026C00077956795B395D9F73EF490958095709579
:1026D00061957F4F8F4F9F4F0895E89409C097FBF6
:1026E0003EF490958095709561957F4F8F4F9F4FE9
:1026F0009923A9F0F92F96E9BB279395F69587952D
:1027000077956795B795F111F8CFFAF4BB0F11F4EF
:1027100060FF1BC06F5F7F4F8F4F9F4F16C0882396
:1027200011F096E911C0772321F09EE8872F762FCC
:1027300005C0662371F096E8862F70E060E02AF00D
:102740009A95660F771F881FDAF7880F96958795F9
:1027500097F90895990F0008550FAA0BE0E8FEEFCE
:1027600016161706E807F907C0F012161306E40755
:10277000F50798F0621B730B840B950B39F40A264E
:1027800061F0232B242B252B21F408950A2609F42C
:10279000A140A6958FEF811D811D089597F99F6730
:1027A00080E870E060E008959FEF80EC08950024D9
:1027B0000A941616170618060906089500240A94A6
:1027C00012161306140605060895092E0394000C2C
:1027D00011F4882352F0BB0F40F4BF2B11F460FFBB
:1027E00004C06F5F7F4F8F4F9F4F089557FD9058E4
:1027F000440F551F59F05F3F71F04795880F97FBC5
:10280000991F61F09F3F79F087950895121613067E
:102810001406551FF2CF4695F1DF08C016161706AD
:102820001806991FF1CF86957105610508940895E2
:10283000E894BB2766277727CB0197F908950E9474
:10284000AA1308F48FEF08950E9437140C94E5132F
:102850000E94D71338F00E94DE1320F0952311F068
:102860000C94CE130C94D41311240C9419140E94BC
:10287000F61370F3959FC1F3950F50E0551F629FBB
:10288000F001729FBB27F00DB11D639FAA27F00DC9
:10289000B11DAA1F649F6627B00DA11D661F829FF0
:1028A0002227B00DA11D621F739FB00DA11D621FD5
:1028B000839FA00D611D221F749F3327A00D611DF2
:1028C000231F849F600D211D822F762F6A2F1124D4
:1028D0009F5750409AF0F1F088234AF0EE0FFF1F07
:1028E000BB1F661F771F881F91505040A9F79E3F5E
:1028F000510580F00C94CE130C9419145F3FE4F34F
:10290000983ED4F3869577956795B795F795E795B3
:102910009F5FC1F7FE2B880F911D9695879597F9BC
:1029200008950E94AA13880B990B0895991B79E0CA
:1029300004C0991F961708F0961B881F7A95C9F74F
:102940008095089597FB072E16F4009407D077FD25
:1029500009D00E94F21407FC05D03EF490958195B1
:102960009F4F0895709561957F4F0895A1E21A2EAB
:10297000AA1BBB1BFD010DC0AA1FBB1FEE1FFF1F23
:10298000A217B307E407F50720F0A21BB30BE40B73
:10299000F50B661F771F881F991F1A9469F76095BA
:1029A0007095809590959B01AC01BD01CF01089574
:1029B000A29FB001B39FC001A39F700D811D112480
:1029C000911DB29F700D811D1124911D08950E94CB
:1029D000D814A59F900DB49F900DA49F800D911DBC
:1029E00011240895AA1BBB1B51E107C0AA1FBB1FDE
:1029F000A617B70710F0A61BB70B881F991F5A958B
:102A0000A9F780959095BC01CD010895EE0FFF1FA9
:102A10000590F491E02D0994CF93DF9382309105D6
:102A200010F482E090E0E0911B03F0911C0320E0A1
:102A300030E0C0E0D0E0309711F14081518148177B
:102A40005907C0F04817590761F482819381209794
:102A500019F09B838A832BC090931C0380931B03E4
:102A600026C02115310519F04217530718F49A01B1
:102A7000BE01DF01EF010280F381E02DDCCF2115E3
:102A8000310509F1281B390B2430310590F41296D9
:102A90008D919C9113976115710521F0FB01938332
:102AA000828304C090931C0380931B03FD01329624
:102AB00044C0FD01E20FF31F81939193225031092D
:102AC0002D933C933AC02091190330911A03232B84
:102AD00041F420910B0130910C0130931A032093A3
:102AE00019032091090130910A012115310541F4A2
:102AF0002DB73EB740910D0150910E01241B350BAF
:102B0000E0911903F0911A03E217F307A0F42E1BCA
:102B10003F0B2817390778F0AC014E5F5F4F241741
:102B2000350748F04E0F5F1F50931A034093190367
:102B30008193919302C0E0E0F0E0CF01DF91CF916B
:102B400008950F931F93CF93DF93009709F48CC0E0
:102B5000FC0132971382128200911B0310911C0317
:102B60000115110581F420813181820F931F20917D
:102B7000190330911A032817390779F5F0931A03CE
:102B8000E093190371C0D80140E050E0AE17BF07D1
:102B900050F412962D913C911397AD0121153105FA
:102BA00009F1D901F3CF9D01DA01338322836081DA
:102BB0007181860F971F8217930769F4EC012881B2
:102BC0003981260F371F2E5F3F4F318320838A8143
:102BD0009B8193838283452B29F4F0931C03E0931C
:102BE0001B0342C01396FC93EE931297ED0149919B
:102BF00059919E01240F351FE217F30771F480816C
:102C00009181840F951F029611969C938E938281D9
:102C1000938113969C938E931297E0E0F0E0D80195
:102C200012968D919C911397009719F0F8018C01E1
:102C3000F6CF8D919C9198012E5F3F4F820F931F8D
:102C40002091190330911A032817390769F4309736
:102C500029F410921C0310921B0302C013821282EB
:102C600010931A0300931903DF91CF911F910F91D5
:102C7000089581E090E0F8940C943E16F894FFCF0C
:102C800078787878787878780000001D0380005E86
:102C900000BC0077011F1C1F1E1F1E1F1F1E1F1EB2
:102CA0001F000000003909B402000000002F09AE27
:102CB00002000000003809B202000000005707B00F
:102CC000021002140218021C022002B701BB01000C
:102CD00000000065013A092E010C012001AC010041
:102CE0000000003B073A0931333A30303A303000C7
:102CF00030373A30303A30300031333A33303A30CE
:102D0000300030383A33303A30300031323A3030F7
:102D10003A30300032333A30303A30300048656172
:102D2000746572204F6666005761737365723A204E
:102D300020004C756674005361740053756E006E0C
:102D4000616E00696E66006F76660043004C6967CD
:102D50006874204F66660A0050756D70204F666675
:102D600000536572766963654D6F646520736574A1
:102D7000004C69676874204F6E0A0048656174658D
:102D800072204F6E0050756D70204F6E000D0A005E
:102D90004D6F6E005475650057656400546875008A
:042DA000467269000E
:00000001FF
